{
    "contractName": "IP",
    "abi": [
        {
            "inputs": [],
            "stateMutability": "payable",
            "type": "constructor"
        },
        {
            "inputs": [],
            "name": "owner",
            "outputs": [
                {
                    "internalType": "address",
                    "name": "",
                    "type": "address"
                }
            ],
            "stateMutability": "view",
            "type": "function"
        },
        {
            "inputs": [],
            "name": "status",
            "outputs": [
                {
                    "internalType": "enum IP.Status",
                    "name": "",
                    "type": "uint8"
                }
            ],
            "stateMutability": "view",
            "type": "function"
        }
    ],
    "bytecode": "6080604052600080546001600160a01b0319163317905560e4806100246000396000f3fe6080604052348015600f57600080fd5b506004361060325760003560e01c8063200d2ed21460375780638da5cb5b14605e575b600080fd5b600054604a90600160a01b900460ff1681565b604051605591906087565b60405180910390f35b6000546070906001600160a01b031681565b6040516001600160a01b0390911681526020016055565b602081016004831060a857634e487b7160e01b600052602160045260246000fd5b9190529056fea264697066735822122027104f61d3eae81e2dab27370d3a152876002dc4b76c62c8468994b74564bc5c64736f6c63430008100033",
    "sourcePath": "/home/r/Documents/10academy/10acd-Capstone-project/Intellectual-Identity-ethereum/smart_contract/contracts/IP.sol",
    "compiler": {
        "name": "solc",
        "version": "0.8.16+commit.07a7930e"
    },
    "functionHashes": {
        "owner()": "8da5cb5b",
        "status()": "200d2ed2"
    },
    "gasEstimates": {
        "creation": {
            "codeDepositCost": "45600",
            "executionCost": "24310",
            "totalCost": "69910"
        },
        "external": {
            "owner()": "2337",
            "status()": "2346"
        }
    }
}