{
  "_format": "hh-sol-artifact-1",
  "contractName": "ContractIp",
  "sourceName": "contracts/ContractIp.sol",
  "abi": [
    {
      "inputs": [],
      "stateMutability": "nonpayable",
      "type": "constructor"
    },
    {
      "anonymous": false,
      "inputs": [
        {
          "indexed": true,
          "internalType": "address",
          "name": "owner",
          "type": "address"
        },
        {
          "indexed": true,
          "internalType": "address",
          "name": "approved",
          "type": "address"
        },
        {
          "indexed": true,
          "internalType": "uint256",
          "name": "tokenId",
          "type": "uint256"
        }
      ],
      "name": "Approval",
      "type": "event"
    },
    {
      "anonymous": false,
      "inputs": [
        {
          "indexed": true,
          "internalType": "address",
          "name": "owner",
          "type": "address"
        },
        {
          "indexed": true,
          "internalType": "address",
          "name": "operator",
          "type": "address"
        },
        {
          "indexed": false,
          "internalType": "bool",
          "name": "approved",
          "type": "bool"
        }
      ],
      "name": "ApprovalForAll",
      "type": "event"
    },
    {
      "anonymous": false,
      "inputs": [
        {
          "indexed": true,
          "internalType": "uint256",
          "name": "tokenId",
          "type": "uint256"
        },
        {
          "indexed": false,
          "internalType": "address",
          "name": "Nftowner",
          "type": "address"
        },
        {
          "indexed": false,
          "internalType": "uint256",
          "name": "timestamp",
          "type": "uint256"
        },
        {
          "indexed": false,
          "internalType": "string",
          "name": "status",
          "type": "string"
        },
        {
          "indexed": false,
          "internalType": "bool",
          "name": "isRegistered",
          "type": "bool"
        }
      ],
      "name": "TokenAcceptedNft",
      "type": "event"
    },
    {
      "anonymous": false,
      "inputs": [
        {
          "indexed": true,
          "internalType": "address",
          "name": "from",
          "type": "address"
        },
        {
          "indexed": true,
          "internalType": "address",
          "name": "to",
          "type": "address"
        },
        {
          "indexed": true,
          "internalType": "uint256",
          "name": "tokenId",
          "type": "uint256"
        }
      ],
      "name": "Transfer",
      "type": "event"
    },
    {
      "inputs": [
        {
          "internalType": "uint256",
          "name": "",
          "type": "uint256"
        }
      ],
      "name": "acceptedIps",
      "outputs": [
        {
          "internalType": "uint256",
          "name": "",
          "type": "uint256"
        }
      ],
      "stateMutability": "view",
      "type": "function"
    },
    {
      "inputs": [
        {
          "internalType": "address",
          "name": "to",
          "type": "address"
        },
        {
          "internalType": "uint256",
          "name": "tokenId",
          "type": "uint256"
        }
      ],
      "name": "approve",
      "outputs": [],
      "stateMutability": "nonpayable",
      "type": "function"
    },
    {
      "inputs": [
        {
          "internalType": "address",
          "name": "owner",
          "type": "address"
        }
      ],
      "name": "balanceOf",
      "outputs": [
        {
          "internalType": "uint256",
          "name": "",
          "type": "uint256"
        }
      ],
      "stateMutability": "view",
      "type": "function"
    },
    {
      "inputs": [
        {
          "internalType": "uint256",
          "name": "tokenId",
          "type": "uint256"
        },
        {
          "internalType": "address",
          "name": "bidderAddress",
          "type": "address"
        }
      ],
      "name": "bidVal",
      "outputs": [
        {
          "internalType": "uint256",
          "name": "",
          "type": "uint256"
        }
      ],
      "stateMutability": "view",
      "type": "function"
    },
    {
      "inputs": [
        {
          "internalType": "uint256",
          "name": "tokenId",
          "type": "uint256"
        },
        {
          "internalType": "string",
          "name": "status",
          "type": "string"
        }
      ],
      "name": "changeStatus",
      "outputs": [
        {
          "internalType": "bool",
          "name": "",
          "type": "bool"
        }
      ],
      "stateMutability": "nonpayable",
      "type": "function"
    },
    {
      "inputs": [
        {
          "internalType": "address",
          "name": "bidderAddress",
          "type": "address"
        }
      ],
      "name": "check",
      "outputs": [
        {
          "internalType": "bool",
          "name": "",
          "type": "bool"
        }
      ],
      "stateMutability": "view",
      "type": "function"
    },
    {
      "inputs": [],
      "name": "commissionPrice",
      "outputs": [
        {
          "internalType": "uint256",
          "name": "",
          "type": "uint256"
        }
      ],
      "stateMutability": "view",
      "type": "function"
    },
    {
      "inputs": [],
      "name": "countAcceptedIPs",
      "outputs": [
        {
          "internalType": "uint256",
          "name": "",
          "type": "uint256"
        }
      ],
      "stateMutability": "view",
      "type": "function"
    },
    {
      "inputs": [],
      "name": "countPendingIPs",
      "outputs": [
        {
          "internalType": "uint256",
          "name": "",
          "type": "uint256"
        }
      ],
      "stateMutability": "view",
      "type": "function"
    },
    {
      "inputs": [],
      "name": "countRejectedIPs",
      "outputs": [
        {
          "internalType": "uint256",
          "name": "",
          "type": "uint256"
        }
      ],
      "stateMutability": "view",
      "type": "function"
    },
    {
      "inputs": [
        {
          "internalType": "string",
          "name": "tokenURI",
          "type": "string"
        }
      ],
      "name": "createToken",
      "outputs": [
        {
          "internalType": "uint256",
          "name": "",
          "type": "uint256"
        }
      ],
      "stateMutability": "payable",
      "type": "function"
    },
    {
      "inputs": [
        {
          "internalType": "uint256",
          "name": "tokenId",
          "type": "uint256"
        },
        {
          "internalType": "address",
          "name": "bidderAddress",
          "type": "address"
        }
      ],
      "name": "executeSale",
      "outputs": [],
      "stateMutability": "payable",
      "type": "function"
    },
    {
      "inputs": [],
      "name": "getAllNFTs",
      "outputs": [
        {
          "components": [
            {
              "internalType": "uint256",
              "name": "tokenId",
              "type": "uint256"
            },
            {
              "internalType": "address payable",
              "name": "Nftowner",
              "type": "address"
            },
            {
              "internalType": "uint256",
              "name": "timestamp",
              "type": "uint256"
            },
            {
              "internalType": "string",
              "name": "status",
              "type": "string"
            },
            {
              "internalType": "bool",
              "name": "isRegistered",
              "type": "bool"
            }
          ],
          "internalType": "struct ContractIp.RequestedNfts[]",
          "name": "",
          "type": "tuple[]"
        }
      ],
      "stateMutability": "view",
      "type": "function"
    },
    {
      "inputs": [
        {
          "internalType": "uint256",
          "name": "tokenId",
          "type": "uint256"
        }
      ],
      "name": "getApproved",
      "outputs": [
        {
          "internalType": "address",
          "name": "",
          "type": "address"
        }
      ],
      "stateMutability": "view",
      "type": "function"
    },
    {
      "inputs": [],
      "name": "getMyNFTs",
      "outputs": [
        {
          "components": [
            {
              "internalType": "uint256",
              "name": "tokenId",
              "type": "uint256"
            },
            {
              "internalType": "address payable",
              "name": "Nftowner",
              "type": "address"
            },
            {
              "internalType": "uint256",
              "name": "timestamp",
              "type": "uint256"
            },
            {
              "internalType": "string",
              "name": "status",
              "type": "string"
            },
            {
              "internalType": "bool",
              "name": "isRegistered",
              "type": "bool"
            }
          ],
          "internalType": "struct ContractIp.RequestedNfts[]",
          "name": "",
          "type": "tuple[]"
        }
      ],
      "stateMutability": "view",
      "type": "function"
    },
    {
      "inputs": [
        {
          "internalType": "uint256",
          "name": "",
          "type": "uint256"
        }
      ],
      "name": "idToListedToken",
      "outputs": [
        {
          "internalType": "uint256",
          "name": "tokenId",
          "type": "uint256"
        },
        {
          "internalType": "address payable",
          "name": "Nftowner",
          "type": "address"
        },
        {
          "internalType": "uint256",
          "name": "timestamp",
          "type": "uint256"
        },
        {
          "internalType": "string",
          "name": "status",
          "type": "string"
        },
        {
          "internalType": "bool",
          "name": "isRegistered",
          "type": "bool"
        }
      ],
      "stateMutability": "view",
      "type": "function"
    },
    {
      "inputs": [
        {
          "internalType": "address",
          "name": "owner",
          "type": "address"
        },
        {
          "internalType": "address",
          "name": "operator",
          "type": "address"
        }
      ],
      "name": "isApprovedForAll",
      "outputs": [
        {
          "internalType": "bool",
          "name": "",
          "type": "bool"
        }
      ],
      "stateMutability": "view",
      "type": "function"
    },
    {
      "inputs": [],
      "name": "name",
      "outputs": [
        {
          "internalType": "string",
          "name": "",
          "type": "string"
        }
      ],
      "stateMutability": "view",
      "type": "function"
    },
    {
      "inputs": [
        {
          "internalType": "uint256",
          "name": "tokenId",
          "type": "uint256"
        }
      ],
      "name": "ownerOf",
      "outputs": [
        {
          "internalType": "address",
          "name": "",
          "type": "address"
        }
      ],
      "stateMutability": "view",
      "type": "function"
    },
    {
      "inputs": [
        {
          "internalType": "uint256",
          "name": "",
          "type": "uint256"
        }
      ],
      "name": "pendingIps",
      "outputs": [
        {
          "internalType": "uint256",
          "name": "",
          "type": "uint256"
        }
      ],
      "stateMutability": "view",
      "type": "function"
    },
    {
      "inputs": [],
      "name": "receivedWei",
      "outputs": [
        {
          "internalType": "uint256",
          "name": "",
          "type": "uint256"
        }
      ],
      "stateMutability": "view",
      "type": "function"
    },
    {
      "inputs": [
        {
          "internalType": "uint256",
          "name": "",
          "type": "uint256"
        }
      ],
      "name": "rejectedIps",
      "outputs": [
        {
          "internalType": "uint256",
          "name": "",
          "type": "uint256"
        }
      ],
      "stateMutability": "view",
      "type": "function"
    },
    {
      "inputs": [
        {
          "internalType": "uint256",
          "name": "_index",
          "type": "uint256"
        }
      ],
      "name": "removeAccepted",
      "outputs": [],
      "stateMutability": "nonpayable",
      "type": "function"
    },
    {
      "inputs": [
        {
          "internalType": "uint256",
          "name": "_index",
          "type": "uint256"
        }
      ],
      "name": "removePending",
      "outputs": [],
      "stateMutability": "nonpayable",
      "type": "function"
    },
    {
      "inputs": [
        {
          "internalType": "uint256",
          "name": "_index",
          "type": "uint256"
        }
      ],
      "name": "removeRejected",
      "outputs": [],
      "stateMutability": "nonpayable",
      "type": "function"
    },
    {
      "inputs": [],
      "name": "result",
      "outputs": [
        {
          "internalType": "string",
          "name": "",
          "type": "string"
        }
      ],
      "stateMutability": "view",
      "type": "function"
    },
    {
      "inputs": [],
      "name": "returnedWei",
      "outputs": [
        {
          "internalType": "uint256",
          "name": "",
          "type": "uint256"
        }
      ],
      "stateMutability": "view",
      "type": "function"
    },
    {
      "inputs": [
        {
          "internalType": "address",
          "name": "from",
          "type": "address"
        },
        {
          "internalType": "address",
          "name": "to",
          "type": "address"
        },
        {
          "internalType": "uint256",
          "name": "tokenId",
          "type": "uint256"
        }
      ],
      "name": "safeTransferFrom",
      "outputs": [],
      "stateMutability": "nonpayable",
      "type": "function"
    },
    {
      "inputs": [
        {
          "internalType": "address",
          "name": "from",
          "type": "address"
        },
        {
          "internalType": "address",
          "name": "to",
          "type": "address"
        },
        {
          "internalType": "uint256",
          "name": "tokenId",
          "type": "uint256"
        },
        {
          "internalType": "bytes",
          "name": "data",
          "type": "bytes"
        }
      ],
      "name": "safeTransferFrom",
      "outputs": [],
      "stateMutability": "nonpayable",
      "type": "function"
    },
    {
      "inputs": [
        {
          "internalType": "address",
          "name": "operator",
          "type": "address"
        },
        {
          "internalType": "bool",
          "name": "approved",
          "type": "bool"
        }
      ],
      "name": "setApprovalForAll",
      "outputs": [],
      "stateMutability": "nonpayable",
      "type": "function"
    },
    {
      "inputs": [
        {
          "internalType": "bytes4",
          "name": "interfaceId",
          "type": "bytes4"
        }
      ],
      "name": "supportsInterface",
      "outputs": [
        {
          "internalType": "bool",
          "name": "",
          "type": "bool"
        }
      ],
      "stateMutability": "view",
      "type": "function"
    },
    {
      "inputs": [],
      "name": "symbol",
      "outputs": [
        {
          "internalType": "string",
          "name": "",
          "type": "string"
        }
      ],
      "stateMutability": "view",
      "type": "function"
    },
    {
      "inputs": [
        {
          "internalType": "uint256",
          "name": "tokenId",
          "type": "uint256"
        }
      ],
      "name": "tokenURI",
      "outputs": [
        {
          "internalType": "string",
          "name": "",
          "type": "string"
        }
      ],
      "stateMutability": "view",
      "type": "function"
    },
    {
      "inputs": [
        {
          "internalType": "address",
          "name": "from",
          "type": "address"
        },
        {
          "internalType": "address",
          "name": "to",
          "type": "address"
        },
        {
          "internalType": "uint256",
          "name": "tokenId",
          "type": "uint256"
        }
      ],
      "name": "transferFrom",
      "outputs": [],
      "stateMutability": "nonpayable",
      "type": "function"
    },
    {
      "inputs": [
        {
          "internalType": "uint256",
          "name": "_cp",
          "type": "uint256"
        }
      ],
      "name": "updateCommissionFee",
      "outputs": [],
      "stateMutability": "payable",
      "type": "function"
    }
  ],
  "bytecode": "0x608060405273430bdf7623bb0e12b61e4eafe7d6f2cac4944196600760006101000a81548173ffffffffffffffffffffffffffffffffffffffff021916908373ffffffffffffffffffffffffffffffffffffffff16021790555066038d7ea4c68000600b556040516200007290620001c5565b604051809103906000f0801580156200008f573d6000803e3d6000fd5b50600c60006101000a81548173ffffffffffffffffffffffffffffffffffffffff021916908373ffffffffffffffffffffffffffffffffffffffff160217905550348015620000dd57600080fd5b506040518060400160405280600e81526020017f4e46544d61726b6574706c6163650000000000000000000000000000000000008152506040518060400160405280600481526020017f4e46544d00000000000000000000000000000000000000000000000000000000815250816000908051906020019062000162929190620001d3565b5080600190805190602001906200017b929190620001d3565b50505033600a60006101000a81548173ffffffffffffffffffffffffffffffffffffffff021916908373ffffffffffffffffffffffffffffffffffffffff160217905550620002e8565b6110978062005e1b83390190565b828054620001e19062000283565b90600052602060002090601f01602090048101928262000205576000855562000251565b82601f106200022057805160ff191683800117855562000251565b8280016001018555821562000251579182015b828111156200025057825182559160200191906001019062000233565b5b50905062000260919062000264565b5090565b5b808211156200027f57600081600090555060010162000265565b5090565b600060028204905060018216806200029c57607f821691505b60208210811415620002b357620002b2620002b9565b5b50919050565b7f4e487b7100000000000000000000000000000000000000000000000000000000600052602260045260246000fd5b615b2380620002f86000396000f3fe6080604052600436106102045760003560e01c806364edc20f11610118578063c87b56dd116100a0578063e57a497a1161006f578063e57a497a146107c1578063e985e9c514610802578063f5f680e01461083f578063fb645bd81461086a578063fd4f0b4f1461089357610204565b8063c87b56dd146106f1578063cea62a1b1461072e578063d5606fbf14610759578063e0391b091461079657610204565b8063a22cb465116100e7578063a22cb465146105fc578063b13d3ecc14610625578063b46c9ac71461064e578063b88d4fde1461068b578063c23697a8146106b457610204565b806364edc20f1461054d578063653721471461056957806370a082311461059457806395d89b41146105d157610204565b806327bbc10d1161019b57806345576f941161016a57806345576f941461044d5780634558593e1461047d57806356d01613146104ba578063629cb2e4146104e55780636352211e1461051057610204565b806327bbc10d1461039357806334020f4b146103d057806338d5d325146103fb57806342842e0e1461042457610204565b8063095ea7b3116101d7578063095ea7b3146102d957806310e22d41146103025780631cdaea221461032d57806323b872dd1461036a57610204565b806301ffc9a71461020957806302000bd41461024657806306fdde0314610271578063081812fc1461029c575b600080fd5b34801561021557600080fd5b50610230600480360381019061022b91906142ed565b6108af565b60405161023d9190614bfb565b60405180910390f35b34801561025257600080fd5b5061025b610991565b6040516102689190614ed8565b60405180910390f35b34801561027d57600080fd5b5061028661099e565b6040516102939190614c16565b60405180910390f35b3480156102a857600080fd5b506102c360048036038101906102be9190614380565b610a30565b6040516102d09190614b26565b60405180910390f35b3480156102e557600080fd5b5061030060048036038101906102fb9190614288565b610a76565b005b34801561030e57600080fd5b50610317610b8e565b6040516103249190614ed8565b60405180910390f35b34801561033957600080fd5b50610354600480360381019061034f9190614380565b610b94565b6040516103619190614ed8565b60405180910390f35b34801561037657600080fd5b50610391600480360381019061038c9190614182565b610bb8565b005b34801561039f57600080fd5b506103ba60048036038101906103b59190614380565b610c18565b6040516103c79190614ed8565b60405180910390f35b3480156103dc57600080fd5b506103e5610c3c565b6040516103f29190614ed8565b60405180910390f35b34801561040757600080fd5b50610422600480360381019061041d9190614380565b610c49565b005b34801561043057600080fd5b5061044b60048036038101906104469190614182565b610dad565b005b6104676004803603810190610462919061433f565b610dcd565b6040516104749190614ed8565b60405180910390f35b34801561048957600080fd5b506104a4600480360381019061049f919061440e565b610f95565b6040516104b19190614bfb565b60405180910390f35b3480156104c657600080fd5b506104cf61102f565b6040516104dc9190614ed8565b60405180910390f35b3480156104f157600080fd5b506104fa611035565b6040516105079190614bd9565b60405180910390f35b34801561051c57600080fd5b5061053760048036038101906105329190614380565b6113ae565b6040516105449190614b26565b60405180910390f35b61056760048036038101906105629190614380565b611460565b005b34801561057557600080fd5b5061057e6114c4565b60405161058b9190614c16565b60405180910390f35b3480156105a057600080fd5b506105bb60048036038101906105b6919061411d565b611552565b6040516105c89190614ed8565b60405180910390f35b3480156105dd57600080fd5b506105e661160a565b6040516105f39190614c16565b60405180910390f35b34801561060857600080fd5b50610623600480360381019061061e919061424c565b61169c565b005b34801561063157600080fd5b5061064c60048036038101906106479190614380565b6116b2565b005b34801561065a57600080fd5b50610675600480360381019061067091906143d2565b611816565b6040516106829190614ed8565b60405180910390f35b34801561069757600080fd5b506106b260048036038101906106ad91906141d1565b6118cd565b005b3480156106c057600080fd5b506106db60048036038101906106d6919061411d565b61192f565b6040516106e89190614bfb565b60405180910390f35b3480156106fd57600080fd5b5061071860048036038101906107139190614380565b6119e3565b6040516107259190614c16565b60405180910390f35b34801561073a57600080fd5b50610743611af6565b6040516107509190614ed8565b60405180910390f35b34801561076557600080fd5b50610780600480360381019061077b9190614380565b611b03565b60405161078d9190614ed8565b60405180910390f35b3480156107a257600080fd5b506107ab611b27565b6040516107b89190614bd9565b60405180910390f35b3480156107cd57600080fd5b506107e860048036038101906107e39190614380565b611d81565b6040516107f9959493929190614f1c565b60405180910390f35b34801561080e57600080fd5b5061082960048036038101906108249190614146565b611e6c565b6040516108369190614bfb565b60405180910390f35b34801561084b57600080fd5b50610854611f00565b6040516108619190614ed8565b60405180910390f35b34801561087657600080fd5b50610891600480360381019061088c9190614380565b611f06565b005b6108ad60048036038101906108a891906143d2565b61206a565b005b60007f80ac58cd000000000000000000000000000000000000000000000000000000007bffffffffffffffffffffffffffffffffffffffffffffffffffffffff1916827bffffffffffffffffffffffffffffffffffffffffffffffffffffffff1916148061097a57507f5b5e139f000000000000000000000000000000000000000000000000000000007bffffffffffffffffffffffffffffffffffffffffffffffffffffffff1916827bffffffffffffffffffffffffffffffffffffffffffffffffffffffff1916145b8061098a575061098982612544565b5b9050919050565b6000600d80549050905090565b6060600080546109ad906152dc565b80601f01602080910402602001604051908101604052809291908181526020018280546109d9906152dc565b8015610a265780601f106109fb57610100808354040283529160200191610a26565b820191906000526020600020905b815481529060010190602001808311610a0957829003601f168201915b5050505050905090565b6000610a3b826125ae565b6004600083815260200190815260200160002060009054906101000a900473ffffffffffffffffffffffffffffffffffffffff169050919050565b6000610a81826113ae565b90508073ffffffffffffffffffffffffffffffffffffffff168373ffffffffffffffffffffffffffffffffffffffff161415610af2576040517f08c379a0000000000000000000000000000000000000000000000000000000008152600401610ae990614e78565b60405180910390fd5b8073ffffffffffffffffffffffffffffffffffffffff16610b116125f9565b73ffffffffffffffffffffffffffffffffffffffff161480610b405750610b3f81610b3a6125f9565b611e6c565b5b610b7f576040517f08c379a0000000000000000000000000000000000000000000000000000000008152600401610b7690614df8565b60405180910390fd5b610b898383612601565b505050565b60125481565b600f8181548110610ba457600080fd5b906000526020600020016000915090505481565b610bc9610bc36125f9565b826126ba565b610c08576040517f08c379a0000000000000000000000000000000000000000000000000000000008152600401610bff90614eb8565b60405180910390fd5b610c1383838361274f565b505050565b600d8181548110610c2857600080fd5b906000526020600020016000915090505481565b6000600e80549050905090565b600f805490508110610c90576040517f08c379a0000000000000000000000000000000000000000000000000000000008152600401610c8790614e38565b60405180910390fd5b60008190505b6001600f80549050610ca891906151c4565b811015610d5b57600f600182610cbe919061513d565b81548110610cf5577f4e487b7100000000000000000000000000000000000000000000000000000000600052603260045260246000fd5b9060005260206000200154600f8281548110610d3a577f4e487b7100000000000000000000000000000000000000000000000000000000600052603260045260246000fd5b90600052602060002001819055508080610d5390615359565b915050610c96565b50600f805480610d94577f4e487b7100000000000000000000000000000000000000000000000000000000600052603160045260246000fd5b6001900381819060005260206000200160009055905550565b610dc8838383604051806020016040528060008152506118cd565b505050565b6000610dd960086129b6565b6000610de560086129cc565b9050610df133826129da565b610dfb81846129f8565b60006040518060400160405280600781526020017f50656e64696e670000000000000000000000000000000000000000000000000081525090506040518060a001604052808381526020013373ffffffffffffffffffffffffffffffffffffffff16815260200142815260200182815260200160011515815250601160008481526020019081526020016000206000820151816000015560208201518160010160006101000a81548173ffffffffffffffffffffffffffffffffffffffff021916908373ffffffffffffffffffffffffffffffffffffffff160217905550604082015181600201556060820151816003019080519060200190610eff929190613ed0565b5060808201518160040160006101000a81548160ff021916908315150217905550905050600e829080600181540180825580915050600190039060005260206000200160009091909190915055817f6e22b084a5f448e7b37abdf4bb505723438e4f4f4a4d96f9b60b0b14e93a4c643342846001604051610f839493929190614b8d565b60405180910390a28192505050919050565b6000600a60009054906101000a900473ffffffffffffffffffffffffffffffffffffffff1673ffffffffffffffffffffffffffffffffffffffff163373ffffffffffffffffffffffffffffffffffffffff1614610ff157600080fd5b8160116000858152602001908152602001600020600301908051906020019061101b929190613ed0565b5061102583612a6c565b6001905092915050565b600b5481565b6060600061104360086129cc565b9050600080600080600090505b848110156110f1573373ffffffffffffffffffffffffffffffffffffffff1660116000600184611080919061513d565b815260200190815260200160002060010160009054906101000a900473ffffffffffffffffffffffffffffffffffffffff1673ffffffffffffffffffffffffffffffffffffffff1614156110de576001846110db919061513d565b93505b80806110e990615359565b915050611050565b5060008367ffffffffffffffff811115611134577f4e487b7100000000000000000000000000000000000000000000000000000000600052604160045260246000fd5b60405190808252806020026020018201604052801561116d57816020015b61115a613f56565b8152602001906001900390816111525790505b50905060005b858110156113a2573373ffffffffffffffffffffffffffffffffffffffff16601160006001846111a3919061513d565b815260200190815260200160002060010160009054906101000a900473ffffffffffffffffffffffffffffffffffffffff1673ffffffffffffffffffffffffffffffffffffffff16141561138f576001816111fe919061513d565b92506000601160008581526020019081526020016000209050806040518060a0016040529081600082015481526020016001820160009054906101000a900473ffffffffffffffffffffffffffffffffffffffff1673ffffffffffffffffffffffffffffffffffffffff1673ffffffffffffffffffffffffffffffffffffffff1681526020016002820154815260200160038201805461129d906152dc565b80601f01602080910402602001604051908101604052809291908181526020018280546112c9906152dc565b80156113165780601f106112eb57610100808354040283529160200191611316565b820191906000526020600020905b8154815290600101906020018083116112f957829003601f168201915b505050505081526020016004820160009054906101000a900460ff161515151581525050838681518110611373577f4e487b7100000000000000000000000000000000000000000000000000000000600052603260045260246000fd5b602002602001018190525060018561138b919061513d565b9450505b808061139a90615359565b915050611173565b50809550505050505090565b6000806002600084815260200190815260200160002060009054906101000a900473ffffffffffffffffffffffffffffffffffffffff169050600073ffffffffffffffffffffffffffffffffffffffff168173ffffffffffffffffffffffffffffffffffffffff161415611457576040517f08c379a000000000000000000000000000000000000000000000000000000000815260040161144e90614e58565b60405180910390fd5b80915050919050565b600a60009054906101000a900473ffffffffffffffffffffffffffffffffffffffff1673ffffffffffffffffffffffffffffffffffffffff163373ffffffffffffffffffffffffffffffffffffffff16146114ba57600080fd5b80600b8190555050565b601080546114d1906152dc565b80601f01602080910402602001604051908101604052809291908181526020018280546114fd906152dc565b801561154a5780601f1061151f5761010080835404028352916020019161154a565b820191906000526020600020905b81548152906001019060200180831161152d57829003601f168201915b505050505081565b60008073ffffffffffffffffffffffffffffffffffffffff168273ffffffffffffffffffffffffffffffffffffffff1614156115c3576040517f08c379a00000000000000000000000000000000000000000000000000000000081526004016115ba90614d58565b60405180910390fd5b600360008373ffffffffffffffffffffffffffffffffffffffff1673ffffffffffffffffffffffffffffffffffffffff168152602001908152602001600020549050919050565b606060018054611619906152dc565b80601f0160208091040260200160405190810160405280929190818152602001828054611645906152dc565b80156116925780601f1061166757610100808354040283529160200191611692565b820191906000526020600020905b81548152906001019060200180831161167557829003601f168201915b5050505050905090565b6116ae6116a76125f9565b8383613676565b5050565b600e8054905081106116f9576040517f08c379a00000000000000000000000000000000000000000000000000000000081526004016116f090614e38565b60405180910390fd5b60008190505b6001600e8054905061171191906151c4565b8110156117c457600e600182611727919061513d565b8154811061175e577f4e487b7100000000000000000000000000000000000000000000000000000000600052603260045260246000fd5b9060005260206000200154600e82815481106117a3577f4e487b7100000000000000000000000000000000000000000000000000000000600052603260045260246000fd5b906000526020600020018190555080806117bc90615359565b9150506116ff565b50600e8054806117fd577f4e487b7100000000000000000000000000000000000000000000000000000000600052603160045260246000fd5b6001900381819060005260206000200160009055905550565b6000600760009054906101000a900473ffffffffffffffffffffffffffffffffffffffff1673ffffffffffffffffffffffffffffffffffffffff16639f04996d84846040518363ffffffff1660e01b8152600401611875929190614ef3565b60206040518083038186803b15801561188d57600080fd5b505afa1580156118a1573d6000803e3d6000fd5b505050506040513d601f19601f820116820180604052508101906118c591906143a9565b905092915050565b6118de6118d86125f9565b836126ba565b61191d576040517f08c379a000000000000000000000000000000000000000000000000000000000815260040161191490614eb8565b60405180910390fd5b611929848484846137e3565b50505050565b6000600760009054906101000a900473ffffffffffffffffffffffffffffffffffffffff1673ffffffffffffffffffffffffffffffffffffffff166319fde1f6836040518263ffffffff1660e01b815260040161198c9190614b26565b60206040518083038186803b1580156119a457600080fd5b505afa1580156119b8573d6000803e3d6000fd5b505050506040513d601f19601f820116820180604052508101906119dc91906142c4565b9050919050565b60606119ee826125ae565b6000600660008481526020019081526020016000208054611a0e906152dc565b80601f0160208091040260200160405190810160405280929190818152602001828054611a3a906152dc565b8015611a875780601f10611a5c57610100808354040283529160200191611a87565b820191906000526020600020905b815481529060010190602001808311611a6a57829003601f168201915b505050505090506000611a9861383f565b9050600081511415611aae578192505050611af1565b600082511115611ae3578082604051602001611acb929190614ac3565b60405160208183030381529060405292505050611af1565b611aec84613856565b925050505b919050565b6000600f80549050905090565b600e8181548110611b1357600080fd5b906000526020600020016000915090505481565b60606000611b3560086129cc565b905060008167ffffffffffffffff811115611b79577f4e487b7100000000000000000000000000000000000000000000000000000000600052604160045260246000fd5b604051908082528060200260200182016040528015611bb257816020015b611b9f613f56565b815260200190600190039081611b975790505b50905060008080600090505b84811015611d7657600181611bd3919061513d565b91506000601160008481526020019081526020016000209050806040518060a0016040529081600082015481526020016001820160009054906101000a900473ffffffffffffffffffffffffffffffffffffffff1673ffffffffffffffffffffffffffffffffffffffff1673ffffffffffffffffffffffffffffffffffffffff16815260200160028201548152602001600382018054611c72906152dc565b80601f0160208091040260200160405190810160405280929190818152602001828054611c9e906152dc565b8015611ceb5780601f10611cc057610100808354040283529160200191611ceb565b820191906000526020600020905b815481529060010190602001808311611cce57829003601f168201915b505050505081526020016004820160009054906101000a900460ff161515151581525050858581518110611d48577f4e487b7100000000000000000000000000000000000000000000000000000000600052603260045260246000fd5b6020026020010181905250600184611d60919061513d565b9350508080611d6e90615359565b915050611bbe565b508294505050505090565b60116020528060005260406000206000915090508060000154908060010160009054906101000a900473ffffffffffffffffffffffffffffffffffffffff1690806002015490806003018054611dd6906152dc565b80601f0160208091040260200160405190810160405280929190818152602001828054611e02906152dc565b8015611e4f5780601f10611e2457610100808354040283529160200191611e4f565b820191906000526020600020905b815481529060010190602001808311611e3257829003601f168201915b5050505050908060040160009054906101000a900460ff16905085565b6000600560008473ffffffffffffffffffffffffffffffffffffffff1673ffffffffffffffffffffffffffffffffffffffff16815260200190815260200160002060008373ffffffffffffffffffffffffffffffffffffffff1673ffffffffffffffffffffffffffffffffffffffff16815260200190815260200160002060009054906101000a900460ff16905092915050565b60135481565b600d805490508110611f4d576040517f08c379a0000000000000000000000000000000000000000000000000000000008152600401611f4490614e38565b60405180910390fd5b60008190505b6001600d80549050611f6591906151c4565b81101561201857600d600182611f7b919061513d565b81548110611fb2577f4e487b7100000000000000000000000000000000000000000000000000000000600052603260045260246000fd5b9060005260206000200154600d8281548110611ff7577f4e487b7100000000000000000000000000000000000000000000000000000000600052603260045260246000fd5b9060005260206000200181905550808061201090615359565b915050611f53565b50600d805480612051577f4e487b7100000000000000000000000000000000000000000000000000000000600052603160045260246000fd5b6001900381819060005260206000200160009055905550565b6000600760009054906101000a900473ffffffffffffffffffffffffffffffffffffffff1673ffffffffffffffffffffffffffffffffffffffff16639f04996d84846040518363ffffffff1660e01b81526004016120c9929190614ef3565b60206040518083038186803b1580156120e157600080fd5b505afa1580156120f5573d6000803e3d6000fd5b505050506040513d601f19601f8201168201806040525081019061211991906143a9565b9050612124836113ae565b73ffffffffffffffffffffffffffffffffffffffff163373ffffffffffffffffffffffffffffffffffffffff1614612191576040517f08c379a000000000000000000000000000000000000000000000000000000000815260040161218890614e98565b60405180910390fd5b8034146121d3576040517f08c379a00000000000000000000000000000000000000000000000000000000081526004016121ca90614dd8565b60405180910390fd5b6121dc8261192f565b61221b576040517f08c379a000000000000000000000000000000000000000000000000000000000815260040161221290614d38565b60405180910390fd5b3373ffffffffffffffffffffffffffffffffffffffff1661223b846113ae565b73ffffffffffffffffffffffffffffffffffffffff1614612291576040517f08c379a000000000000000000000000000000000000000000000000000000000815260040161228890614db8565b60405180910390fd5b6000600a60009054906101000a900473ffffffffffffffffffffffffffffffffffffffff1673ffffffffffffffffffffffffffffffffffffffff16311161230d576040517f08c379a000000000000000000000000000000000000000000000000000000000815260040161230490614c98565b60405180910390fd5b60006011600085815260200190815260200160002060010160009054906101000a900473ffffffffffffffffffffffffffffffffffffffff16905060016011600086815260200190815260200160002060040160006101000a81548160ff021916908315150217905550336011600086815260200190815260200160002060010160006101000a81548173ffffffffffffffffffffffffffffffffffffffff021916908373ffffffffffffffffffffffffffffffffffffffff1602179055506123d660096129b6565b6123e133848661274f565b6000600b54836123f191906151c4565b9050600b549250600a60009054906101000a900473ffffffffffffffffffffffffffffffffffffffff1673ffffffffffffffffffffffffffffffffffffffff166108fc849081150290604051600060405180830381858888f19350505050158015612460573d6000803e3d6000fd5b508173ffffffffffffffffffffffffffffffffffffffff166108fc829081150290604051600060405180830381858888f193505050501580156124a7573d6000803e3d6000fd5b50600760009054906101000a900473ffffffffffffffffffffffffffffffffffffffff1673ffffffffffffffffffffffffffffffffffffffff166381d38f8c8686600160006040518563ffffffff1660e01b815260040161250b9493929190614f76565b600060405180830381600087803b15801561252557600080fd5b505af1158015612539573d6000803e3d6000fd5b505050505050505050565b60007f01ffc9a7000000000000000000000000000000000000000000000000000000007bffffffffffffffffffffffffffffffffffffffffffffffffffffffff1916827bffffffffffffffffffffffffffffffffffffffffffffffffffffffff1916149050919050565b6125b7816138be565b6125f6576040517f08c379a00000000000000000000000000000000000000000000000000000000081526004016125ed90614e58565b60405180910390fd5b50565b600033905090565b816004600083815260200190815260200160002060006101000a81548173ffffffffffffffffffffffffffffffffffffffff021916908373ffffffffffffffffffffffffffffffffffffffff160217905550808273ffffffffffffffffffffffffffffffffffffffff16612674836113ae565b73ffffffffffffffffffffffffffffffffffffffff167f8c5be1e5ebec7d5bd14f71427d1e84f3dd0314c0f7b2291e5b200ac8c7c3b92560405160405180910390a45050565b6000806126c6836113ae565b90508073ffffffffffffffffffffffffffffffffffffffff168473ffffffffffffffffffffffffffffffffffffffff16148061270857506127078185611e6c565b5b8061274657508373ffffffffffffffffffffffffffffffffffffffff1661272e84610a30565b73ffffffffffffffffffffffffffffffffffffffff16145b91505092915050565b8273ffffffffffffffffffffffffffffffffffffffff1661276f826113ae565b73ffffffffffffffffffffffffffffffffffffffff16146127c5576040517f08c379a00000000000000000000000000000000000000000000000000000000081526004016127bc90614c58565b60405180910390fd5b600073ffffffffffffffffffffffffffffffffffffffff168273ffffffffffffffffffffffffffffffffffffffff161415612835576040517f08c379a000000000000000000000000000000000000000000000000000000000815260040161282c90614cf8565b60405180910390fd5b61284083838361392a565b61284b600082612601565b6001600360008573ffffffffffffffffffffffffffffffffffffffff1673ffffffffffffffffffffffffffffffffffffffff168152602001908152602001600020600082825461289b91906151c4565b925050819055506001600360008473ffffffffffffffffffffffffffffffffffffffff1673ffffffffffffffffffffffffffffffffffffffff16815260200190815260200160002060008282546128f2919061513d565b92505081905550816002600083815260200190815260200160002060006101000a81548173ffffffffffffffffffffffffffffffffffffffff021916908373ffffffffffffffffffffffffffffffffffffffff160217905550808273ffffffffffffffffffffffffffffffffffffffff168473ffffffffffffffffffffffffffffffffffffffff167fddf252ad1be2c89b69c2b068fc378daa952ba7f163c4a11628f55a4df523b3ef60405160405180910390a46129b183838361392f565b505050565b6001816000016000828254019250508190555050565b600081600001549050919050565b6129f4828260405180602001604052806000815250613934565b5050565b612a01826138be565b612a40576040517f08c379a0000000000000000000000000000000000000000000000000000000008152600401612a3790614d98565b60405180910390fd5b80600660008481526020019081526020016000209080519060200190612a67929190613ed0565b505050565b6000601160008381526020019081526020016000206003018054612a8f906152dc565b80601f0160208091040260200160405190810160405280929190818152602001828054612abb906152dc565b8015612b085780601f10612add57610100808354040283529160200191612b08565b820191906000526020600020905b815481529060010190602001808311612aeb57829003601f168201915b50505050509050604051602001612b1e90614b11565b6040516020818303038152906040528051906020012081604051602001612b459190614aac565b604051602081830303815290604052805190602001201415612ed8576000600c60009054906101000a900473ffffffffffffffffffffffffffffffffffffffff1673ffffffffffffffffffffffffffffffffffffffff166319d5880c84600d6040518363ffffffff1660e01b8152600401612bc1929190614fbb565b60206040518083038186803b158015612bd957600080fd5b505afa158015612bed573d6000803e3d6000fd5b505050506040513d601f19601f82011682018060405250810190612c1191906142c4565b90506001604051602001612c259190614a91565b6040516020818303038152906040528051906020012081604051602001612c4c9190614a91565b604051602081830303815290604052805190602001201415612ca3576040517f08c379a0000000000000000000000000000000000000000000000000000000008152600401612c9a90614cb8565b60405180910390fd5b600d8390806001815401808255809150506001900390600052602060002001600090919091909150556000600c60009054906101000a900473ffffffffffffffffffffffffffffffffffffffff1673ffffffffffffffffffffffffffffffffffffffff166321772a4485600e6040518363ffffffff1660e01b8152600401612d2c929190614fbb565b60206040518083038186803b158015612d4457600080fd5b505afa158015612d58573d6000803e3d6000fd5b505050506040513d601f19601f82011682018060405250810190612d7c91906143a9565b90506000600c60009054906101000a900473ffffffffffffffffffffffffffffffffffffffff1673ffffffffffffffffffffffffffffffffffffffff1663d25a84eb86600f6040518363ffffffff1660e01b8152600401612dde929190614fbb565b60206040518083038186803b158015612df657600080fd5b505afa158015612e0a573d6000803e3d6000fd5b505050506040513d601f19601f82011682018060405250810190612e2e91906143a9565b9050848214158015612e405750848114155b15612e5857612e4e826116b2565b612e5781610c49565b5b848214612e6d57612e68826116b2565b612ed0565b848114612e8257612e7d81610c49565b612ecf565b6040518060400160405280600981526020017f6e6f7420666f756e64000000000000000000000000000000000000000000000081525060109080519060200190612ecd929190613ed0565b505b5b505050613672565b604051602001612ee790614afc565b6040516020818303038152906040528051906020012081604051602001612f0e9190614aac565b6040516020818303038152906040528051906020012014156132a6576000600c60009054906101000a900473ffffffffffffffffffffffffffffffffffffffff1673ffffffffffffffffffffffffffffffffffffffff166332a5d17084600e6040518363ffffffff1660e01b8152600401612f8a929190614fbb565b60206040518083038186803b158015612fa257600080fd5b505afa158015612fb6573d6000803e3d6000fd5b505050506040513d601f19601f82011682018060405250810190612fda91906142c4565b90506001604051602001612fee9190614a91565b60405160208183030381529060405280519060200120816040516020016130159190614a91565b60405160208183030381529060405280519060200120141561306c576040517f08c379a000000000000000000000000000000000000000000000000000000000815260040161306390614cd8565b60405180910390fd5b600e8390806001815401808255809150506001900390600052602060002001600090919091909150556000600c60009054906101000a900473ffffffffffffffffffffffffffffffffffffffff1673ffffffffffffffffffffffffffffffffffffffff1663d25a84eb85600d6040518363ffffffff1660e01b81526004016130f5929190614fbb565b60206040518083038186803b15801561310d57600080fd5b505afa158015613121573d6000803e3d6000fd5b505050506040513d601f19601f8201168201806040525081019061314591906143a9565b90506000600c60009054906101000a900473ffffffffffffffffffffffffffffffffffffffff1673ffffffffffffffffffffffffffffffffffffffff1663a28a348086600f6040518363ffffffff1660e01b81526004016131a7929190614fbb565b60206040518083038186803b1580156131bf57600080fd5b505afa1580156131d3573d6000803e3d6000fd5b505050506040513d601f19601f820116820180604052508101906131f791906143a9565b90508482141580156132095750848114155b156132255761321782611f06565b61322081610c49565b61329e565b84821461323a5761323582611f06565b61329d565b84811461324f5761324a81610c49565b61329c565b6040518060400160405280600981526020017f6e6f7420666f756e6400000000000000000000000000000000000000000000008152506010908051906020019061329a929190613ed0565b505b5b5b505050613671565b6040516020016132b590614ae7565b60405160208183030381529060405280519060200120816040516020016132dc9190614aac565b604051602081830303815290604052805190602001201415613670576000600c60009054906101000a900473ffffffffffffffffffffffffffffffffffffffff1673ffffffffffffffffffffffffffffffffffffffff16637ef1cd4b84600f6040518363ffffffff1660e01b8152600401613358929190614fbb565b60206040518083038186803b15801561337057600080fd5b505afa158015613384573d6000803e3d6000fd5b505050506040513d601f19601f820116820180604052508101906133a891906142c4565b905060016040516020016133bc9190614a91565b60405160208183030381529060405280519060200120816040516020016133e39190614a91565b60405160208183030381529060405280519060200120141561343a576040517f08c379a000000000000000000000000000000000000000000000000000000000815260040161343190614d78565b60405180910390fd5b600f8390806001815401808255809150506001900390600052602060002001600090919091909150556000600c60009054906101000a900473ffffffffffffffffffffffffffffffffffffffff1673ffffffffffffffffffffffffffffffffffffffff1663d25a84eb85600d6040518363ffffffff1660e01b81526004016134c3929190614fbb565b60206040518083038186803b1580156134db57600080fd5b505afa1580156134ef573d6000803e3d6000fd5b505050506040513d601f19601f8201168201806040525081019061351391906143a9565b90506000600c60009054906101000a900473ffffffffffffffffffffffffffffffffffffffff1673ffffffffffffffffffffffffffffffffffffffff166321772a4486600e6040518363ffffffff1660e01b8152600401613575929190614fbb565b60206040518083038186803b15801561358d57600080fd5b505afa1580156135a1573d6000803e3d6000fd5b505050506040513d601f19601f820116820180604052508101906135c591906143a9565b90508482141580156135d75750848114155b156135f3576135e582611f06565b6135ee816116b2565b61366c565b8482146136085761360382611f06565b61366b565b84811461361d57613618816116b2565b61366a565b6040518060400160405280600981526020017f6e6f7420666f756e64000000000000000000000000000000000000000000000081525060109080519060200190613668929190613ed0565b505b5b5b5050505b5b5b5050565b8173ffffffffffffffffffffffffffffffffffffffff168373ffffffffffffffffffffffffffffffffffffffff1614156136e5576040517f08c379a00000000000000000000000000000000000000000000000000000000081526004016136dc90614d18565b60405180910390fd5b80600560008573ffffffffffffffffffffffffffffffffffffffff1673ffffffffffffffffffffffffffffffffffffffff16815260200190815260200160002060008473ffffffffffffffffffffffffffffffffffffffff1673ffffffffffffffffffffffffffffffffffffffff16815260200190815260200160002060006101000a81548160ff0219169083151502179055508173ffffffffffffffffffffffffffffffffffffffff168373ffffffffffffffffffffffffffffffffffffffff167f17307eab39ab6107e8899845ad3d59bd9653f200f220920489ca2b5937696c31836040516137d69190614bfb565b60405180910390a3505050565b6137ee84848461274f565b6137fa8484848461398f565b613839576040517f08c379a000000000000000000000000000000000000000000000000000000000815260040161383090614c38565b60405180910390fd5b50505050565b606060405180602001604052806000815250905090565b6060613861826125ae565b600061386b61383f565b9050600081511161388b57604051806020016040528060008152506138b6565b8061389584613b26565b6040516020016138a6929190614ac3565b6040516020818303038152906040525b915050919050565b60008073ffffffffffffffffffffffffffffffffffffffff166002600084815260200190815260200160002060009054906101000a900473ffffffffffffffffffffffffffffffffffffffff1673ffffffffffffffffffffffffffffffffffffffff1614159050919050565b505050565b505050565b61393e8383613cd3565b61394b600084848461398f565b61398a576040517f08c379a000000000000000000000000000000000000000000000000000000000815260040161398190614c38565b60405180910390fd5b505050565b60006139b08473ffffffffffffffffffffffffffffffffffffffff16613ead565b15613b19578373ffffffffffffffffffffffffffffffffffffffff1663150b7a026139d96125f9565b8786866040518563ffffffff1660e01b81526004016139fb9493929190614b41565b602060405180830381600087803b158015613a1557600080fd5b505af1925050508015613a4657506040513d601f19601f82011682018060405250810190613a439190614316565b60015b613ac9573d8060008114613a76576040519150601f19603f3d011682016040523d82523d6000602084013e613a7b565b606091505b50600081511415613ac1576040517f08c379a0000000000000000000000000000000000000000000000000000000008152600401613ab890614c38565b60405180910390fd5b805181602001fd5b63150b7a0260e01b7bffffffffffffffffffffffffffffffffffffffffffffffffffffffff1916817bffffffffffffffffffffffffffffffffffffffffffffffffffffffff191614915050613b1e565b600190505b949350505050565b60606000821415613b6e576040518060400160405280600181526020017f30000000000000000000000000000000000000000000000000000000000000008152509050613cce565b600082905060005b60008214613ba0578080613b8990615359565b915050600a82613b999190615193565b9150613b76565b60008167ffffffffffffffff811115613be2577f4e487b7100000000000000000000000000000000000000000000000000000000600052604160045260246000fd5b6040519080825280601f01601f191660200182016040528015613c145781602001600182028036833780820191505090505b5090505b60008514613cc757600182613c2d91906151c4565b9150600a85613c3c91906153c6565b6030613c48919061513d565b60f81b818381518110613c84577f4e487b7100000000000000000000000000000000000000000000000000000000600052603260045260246000fd5b60200101907effffffffffffffffffffffffffffffffffffffffffffffffffffffffffffff1916908160001a905350600a85613cc09190615193565b9450613c18565b8093505050505b919050565b600073ffffffffffffffffffffffffffffffffffffffff168273ffffffffffffffffffffffffffffffffffffffff161415613d43576040517f08c379a0000000000000000000000000000000000000000000000000000000008152600401613d3a90614e18565b60405180910390fd5b613d4c816138be565b15613d8c576040517f08c379a0000000000000000000000000000000000000000000000000000000008152600401613d8390614c78565b60405180910390fd5b613d986000838361392a565b6001600360008473ffffffffffffffffffffffffffffffffffffffff1673ffffffffffffffffffffffffffffffffffffffff1681526020019081526020016000206000828254613de8919061513d565b92505081905550816002600083815260200190815260200160002060006101000a81548173ffffffffffffffffffffffffffffffffffffffff021916908373ffffffffffffffffffffffffffffffffffffffff160217905550808273ffffffffffffffffffffffffffffffffffffffff16600073ffffffffffffffffffffffffffffffffffffffff167fddf252ad1be2c89b69c2b068fc378daa952ba7f163c4a11628f55a4df523b3ef60405160405180910390a4613ea96000838361392f565b5050565b6000808273ffffffffffffffffffffffffffffffffffffffff163b119050919050565b828054613edc906152dc565b90600052602060002090601f016020900481019282613efe5760008555613f45565b82601f10613f1757805160ff1916838001178555613f45565b82800160010185558215613f45579182015b82811115613f44578251825591602001919060010190613f29565b5b509050613f529190613f9d565b5090565b6040518060a0016040528060008152602001600073ffffffffffffffffffffffffffffffffffffffff16815260200160008152602001606081526020016000151581525090565b5b80821115613fb6576000816000905550600101613f9e565b5090565b6000613fcd613fc884615010565b614feb565b905082815260208101848484011115613fe557600080fd5b613ff084828561529a565b509392505050565b600061400b61400684615041565b614feb565b90508281526020810184848401111561402357600080fd5b61402e84828561529a565b509392505050565b60008135905061404581615a91565b92915050565b60008135905061405a81615aa8565b92915050565b60008151905061406f81615aa8565b92915050565b60008135905061408481615abf565b92915050565b60008151905061409981615abf565b92915050565b600082601f8301126140b057600080fd5b81356140c0848260208601613fba565b91505092915050565b600082601f8301126140da57600080fd5b81356140ea848260208601613ff8565b91505092915050565b60008135905061410281615ad6565b92915050565b60008151905061411781615ad6565b92915050565b60006020828403121561412f57600080fd5b600061413d84828501614036565b91505092915050565b6000806040838503121561415957600080fd5b600061416785828601614036565b925050602061417885828601614036565b9150509250929050565b60008060006060848603121561419757600080fd5b60006141a586828701614036565b93505060206141b686828701614036565b92505060406141c7868287016140f3565b9150509250925092565b600080600080608085870312156141e757600080fd5b60006141f587828801614036565b945050602061420687828801614036565b9350506040614217878288016140f3565b925050606085013567ffffffffffffffff81111561423457600080fd5b6142408782880161409f565b91505092959194509250565b6000806040838503121561425f57600080fd5b600061426d85828601614036565b925050602061427e8582860161404b565b9150509250929050565b6000806040838503121561429b57600080fd5b60006142a985828601614036565b92505060206142ba858286016140f3565b9150509250929050565b6000602082840312156142d657600080fd5b60006142e484828501614060565b91505092915050565b6000602082840312156142ff57600080fd5b600061430d84828501614075565b91505092915050565b60006020828403121561432857600080fd5b60006143368482850161408a565b91505092915050565b60006020828403121561435157600080fd5b600082013567ffffffffffffffff81111561436b57600080fd5b614377848285016140c9565b91505092915050565b60006020828403121561439257600080fd5b60006143a0848285016140f3565b91505092915050565b6000602082840312156143bb57600080fd5b60006143c984828501614108565b91505092915050565b600080604083850312156143e557600080fd5b60006143f3858286016140f3565b925050602061440485828601614036565b9150509250929050565b6000806040838503121561442157600080fd5b600061442f858286016140f3565b925050602083013567ffffffffffffffff81111561444c57600080fd5b614458858286016140c9565b9150509250929050565b600061446e83836149fd565b905092915050565b60006144828383614a73565b60208301905092915050565b61449781615214565b82525050565b6144a681615214565b82525050565b6144b581615202565b82525050565b60006144c682615097565b6144d081856150dd565b9350836020820285016144e285615072565b8060005b8581101561451e57848403895281516144ff8582614462565b945061450a836150c3565b925060208a019950506001810190506144e6565b50829750879550505050505092915050565b600061453b826150a2565b61454581856150ee565b935061455083615082565b8060005b8381101561458857614565826154b3565b61456f8882614476565b975061457a836150d0565b925050600181019050614554565b5085935050505092915050565b61459e81615226565b82525050565b6145ad81615226565b82525050565b6145c46145bf82615226565b6153a2565b82525050565b60006145d5826150ad565b6145df81856150ff565b93506145ef8185602086016152a9565b6145f8816154c6565b840191505092915050565b61460c81615288565b82525050565b600061461d826150b8565b6146278185615110565b93506146378185602086016152a9565b614640816154c6565b840191505092915050565b6000614656826150b8565b6146608185615121565b93506146708185602086016152a9565b614679816154c6565b840191505092915050565b600061468f826150b8565b6146998185615132565b93506146a98185602086016152a9565b80840191505092915050565b60006146c2600883615132565b91506146cd826154f1565b600882019050919050565b60006146e5603283615121565b91506146f08261551a565b604082019050919050565b6000614708602583615121565b915061471382615569565b604082019050919050565b600061472b601c83615121565b9150614736826155b8565b602082019050919050565b600061474e601083615121565b9150614759826155e1565b602082019050919050565b6000614771601883615121565b915061477c8261560a565b602082019050919050565b6000614794601783615121565b915061479f82615633565b602082019050919050565b60006147b7602483615121565b91506147c28261565c565b604082019050919050565b60006147da601983615121565b91506147e5826156ab565b602082019050919050565b60006147fd600783615132565b9150614808826156d4565b600782019050919050565b6000614820602383615121565b915061482b826156fd565b604082019050919050565b6000614843602983615121565b915061484e8261574c565b604082019050919050565b6000614866601883615121565b91506148718261579b565b602082019050919050565b6000614889600883615132565b9150614894826157c4565b600882019050919050565b60006148ac602e83615121565b91506148b7826157ed565b604082019050919050565b60006148cf602883615121565b91506148da8261583c565b604082019050919050565b60006148f2604083615121565b91506148fd8261588b565b604082019050919050565b6000614915603e83615121565b9150614920826158da565b604082019050919050565b6000614938602083615121565b915061494382615929565b602082019050919050565b600061495b601283615121565b915061496682615952565b602082019050919050565b600061497e601883615121565b91506149898261597b565b602082019050919050565b60006149a1602183615121565b91506149ac826159a4565b604082019050919050565b60006149c4602383615121565b91506149cf826159f3565b604082019050919050565b60006149e7602e83615121565b91506149f282615a42565b604082019050919050565b600060a083016000830151614a156000860182614a73565b506020830151614a28602086018261448e565b506040830151614a3b6040860182614a73565b5060608301518482036060860152614a538282614612565b9150506080830151614a686080860182614595565b508091505092915050565b614a7c8161527e565b82525050565b614a8b8161527e565b82525050565b6000614a9d82846145b3565b60018201915081905092915050565b6000614ab88284614684565b915081905092915050565b6000614acf8285614684565b9150614adb8284614684565b91508190509392505050565b6000614af2826146b5565b9150819050919050565b6000614b07826147f0565b9150819050919050565b6000614b1c8261487c565b9150819050919050565b6000602082019050614b3b60008301846144ac565b92915050565b6000608082019050614b5660008301876144ac565b614b6360208301866144ac565b614b706040830185614a82565b8181036060830152614b8281846145ca565b905095945050505050565b6000608082019050614ba260008301876144ac565b614baf6020830186614a82565b8181036040830152614bc1818561464b565b9050614bd060608301846145a4565b95945050505050565b60006020820190508181036000830152614bf381846144bb565b905092915050565b6000602082019050614c1060008301846145a4565b92915050565b60006020820190508181036000830152614c30818461464b565b905092915050565b60006020820190508181036000830152614c51816146d8565b9050919050565b60006020820190508181036000830152614c71816146fb565b9050919050565b60006020820190508181036000830152614c918161471e565b9050919050565b60006020820190508181036000830152614cb181614741565b9050919050565b60006020820190508181036000830152614cd181614764565b9050919050565b60006020820190508181036000830152614cf181614787565b9050919050565b60006020820190508181036000830152614d11816147aa565b9050919050565b60006020820190508181036000830152614d31816147cd565b9050919050565b60006020820190508181036000830152614d5181614813565b9050919050565b60006020820190508181036000830152614d7181614836565b9050919050565b60006020820190508181036000830152614d9181614859565b9050919050565b60006020820190508181036000830152614db18161489f565b9050919050565b60006020820190508181036000830152614dd1816148c2565b9050919050565b60006020820190508181036000830152614df1816148e5565b9050919050565b60006020820190508181036000830152614e1181614908565b9050919050565b60006020820190508181036000830152614e318161492b565b9050919050565b60006020820190508181036000830152614e518161494e565b9050919050565b60006020820190508181036000830152614e7181614971565b9050919050565b60006020820190508181036000830152614e9181614994565b9050919050565b60006020820190508181036000830152614eb1816149b7565b9050919050565b60006020820190508181036000830152614ed1816149da565b9050919050565b6000602082019050614eed6000830184614a82565b92915050565b6000604082019050614f086000830185614a82565b614f1560208301846144ac565b9392505050565b600060a082019050614f316000830188614a82565b614f3e602083018761449d565b614f4b6040830186614a82565b8181036060830152614f5d818561464b565b9050614f6c60808301846145a4565b9695505050505050565b6000608082019050614f8b6000830187614a82565b614f9860208301866144ac565b614fa560408301856145a4565b614fb26060830184614603565b95945050505050565b6000604082019050614fd06000830185614a82565b8181036020830152614fe28184614530565b90509392505050565b6000614ff5615006565b90506150018282615328565b919050565b6000604051905090565b600067ffffffffffffffff82111561502b5761502a615484565b5b615034826154c6565b9050602081019050919050565b600067ffffffffffffffff82111561505c5761505b615484565b5b615065826154c6565b9050602081019050919050565b6000819050602082019050919050565b60008190508160005260206000209050919050565b600081519050919050565b600081549050919050565b600081519050919050565b600081519050919050565b6000602082019050919050565b6000600182019050919050565b600082825260208201905092915050565b600082825260208201905092915050565b600082825260208201905092915050565b600082825260208201905092915050565b600082825260208201905092915050565b600081905092915050565b60006151488261527e565b91506151538361527e565b9250827fffffffffffffffffffffffffffffffffffffffffffffffffffffffffffffffff03821115615188576151876153f7565b5b828201905092915050565b600061519e8261527e565b91506151a98361527e565b9250826151b9576151b8615426565b5b828204905092915050565b60006151cf8261527e565b91506151da8361527e565b9250828210156151ed576151ec6153f7565b5b828203905092915050565b6000819050919050565b600061520d8261525e565b9050919050565b600061521f8261525e565b9050919050565b60008115159050919050565b60007fffffffff0000000000000000000000000000000000000000000000000000000082169050919050565b600073ffffffffffffffffffffffffffffffffffffffff82169050919050565b6000819050919050565b60006152938261527e565b9050919050565b82818337600083830152505050565b60005b838110156152c75780820151818401526020810190506152ac565b838111156152d6576000848401525b50505050565b600060028204905060018216806152f457607f821691505b6020821081141561530857615307615455565b5b50919050565b600061532161531c836154e4565b6151f8565b9050919050565b615331826154c6565b810181811067ffffffffffffffff821117156153505761534f615484565b5b80604052505050565b60006153648261527e565b91507fffffffffffffffffffffffffffffffffffffffffffffffffffffffffffffffff821415615397576153966153f7565b5b600182019050919050565b60006153ad826153b4565b9050919050565b60006153bf826154d7565b9050919050565b60006153d18261527e565b91506153dc8361527e565b9250826153ec576153eb615426565b5b828206905092915050565b7f4e487b7100000000000000000000000000000000000000000000000000000000600052601160045260246000fd5b7f4e487b7100000000000000000000000000000000000000000000000000000000600052601260045260246000fd5b7f4e487b7100000000000000000000000000000000000000000000000000000000600052602260045260246000fd5b7f4e487b7100000000000000000000000000000000000000000000000000000000600052604160045260246000fd5b60006154bf825461530e565b9050919050565b6000601f19601f8301169050919050565b60008160f81b9050919050565b60008160001c9050919050565b7f52656a6563746564000000000000000000000000000000000000000000000000600082015250565b7f4552433732313a207472616e7366657220746f206e6f6e20455243373231526560008201527f63656976657220696d706c656d656e7465720000000000000000000000000000602082015250565b7f4552433732313a207472616e736665722066726f6d20696e636f72726563742060008201527f6f776e6572000000000000000000000000000000000000000000000000000000602082015250565b7f4552433732313a20746f6b656e20616c7265616479206d696e74656400000000600082015250565b7f4e6f7420656e6f7567682066756e647300000000000000000000000000000000600082015250565b7f4164647265737320616c72656164792061636365707465640000000000000000600082015250565b7f4164647265737320616c72656164792070656e64696e67000000000000000000600082015250565b7f4552433732313a207472616e7366657220746f20746865207a65726f2061646460008201527f7265737300000000000000000000000000000000000000000000000000000000602082015250565b7f4552433732313a20617070726f766520746f2063616c6c657200000000000000600082015250565b7f50656e64696e6700000000000000000000000000000000000000000000000000600082015250565b7f54686973206164647265737320646964206e6f7420626964206f6e207468697360008201527f2049500000000000000000000000000000000000000000000000000000000000602082015250565b7f4552433732313a2061646472657373207a65726f206973206e6f74206120766160008201527f6c6964206f776e65720000000000000000000000000000000000000000000000602082015250565b7f4164647265737320616c72656164792072656a65637465640000000000000000600082015250565b7f4163636570746564000000000000000000000000000000000000000000000000600082015250565b7f45524337323155524953746f726167653a2055524920736574206f66206e6f6e60008201527f6578697374656e7420746f6b656e000000000000000000000000000000000000602082015250565b7f596f757220617265206e6f7420746865206f776e6572206f662074686973207460008201527f6f6b656e204e4654000000000000000000000000000000000000000000000000602082015250565b7f506c65617365207375626d6974207468652061736b696e67207072696365206960008201527f6e206f7264657220746f20636f6d706c65746520746865207075726368617365602082015250565b7f4552433732313a20617070726f76652063616c6c6572206973206e6f7420746f60008201527f6b656e206f776e6572206e6f7220617070726f76656420666f7220616c6c0000602082015250565b7f4552433732313a206d696e7420746f20746865207a65726f2061646472657373600082015250565b7f696e646578206f7574206f6620626f756e640000000000000000000000000000600082015250565b7f4552433732313a20696e76616c696420746f6b656e2049440000000000000000600082015250565b7f4552433732313a20617070726f76616c20746f2063757272656e74206f776e6560008201527f7200000000000000000000000000000000000000000000000000000000000000602082015250565b7f596f7520617265206e6f7420746865206f776e6572206f66207468652049502060008201527f6e66740000000000000000000000000000000000000000000000000000000000602082015250565b7f4552433732313a2063616c6c6572206973206e6f7420746f6b656e206f776e6560008201527f72206e6f7220617070726f766564000000000000000000000000000000000000602082015250565b615a9a81615202565b8114615aa557600080fd5b50565b615ab181615226565b8114615abc57600080fd5b50565b615ac881615232565b8114615ad357600080fd5b50565b615adf8161527e565b8114615aea57600080fd5b5056fea26469706673582212206ea368be525850ae134bc4e9ae7396d0710c4f8030dc0ac8eab0301c7c39066164736f6c63430008010033608060405234801561001057600080fd5b50611077806100206000396000f3fe608060405234801561001057600080fd5b50600436106100885760003560e01c80637ef1cd4b1161005b5780637ef1cd4b1461014d578063a28a34801461017d578063d25a84eb146101ad578063fc966d45146101dd57610088565b806319d5880c1461008d57806321772a44146100bd57806332a5d170146100ed57806379cd90551461011d575b600080fd5b6100a760048036038101906100a29190610a19565b61020d565b6040516100b49190610af6565b60405180910390f35b6100d760048036038101906100d29190610a19565b6102db565b6040516100e49190610b33565b60405180910390f35b61010760048036038101906101029190610a19565b61035b565b6040516101149190610af6565b60405180910390f35b610137600480360381019061013291906109af565b610429565b6040516101449190610b33565b60405180910390f35b61016760048036038101906101629190610a19565b610509565b6040516101749190610af6565b60405180910390f35b61019760048036038101906101929190610a19565b6105d7565b6040516101a49190610b33565b60405180910390f35b6101c760048036038101906101c29190610a19565b610657565b6040516101d49190610b33565b60405180910390f35b6101f760048036038101906101f291906109f0565b6106d7565b6040516102049190610b11565b60405180910390f35b600080600190505b82518110156102cf578360405160200161022f9190610adb565b6040516020818303038152906040528051906020012083828151811061027e577f4e487b7100000000000000000000000000000000000000000000000000000000600052603260045260246000fd5b60200260200101516040516020016102969190610adb565b6040516020818303038152906040528051906020012014156102bc5760019150506102d5565b80806102c790610efb565b915050610215565b50600090505b92915050565b600080600090505b82518110156103505783838281518110610326577f4e487b7100000000000000000000000000000000000000000000000000000000600052603260045260246000fd5b6020026020010151141561033d5780915050610355565b808061034890610efb565b9150506102e3565b508290505b92915050565b600080600190505b825181101561041d578360405160200161037d9190610adb565b604051602081830303815290604052805190602001208382815181106103cc577f4e487b7100000000000000000000000000000000000000000000000000000000600052603260045260246000fd5b60200260200101516040516020016103e49190610adb565b60405160208183030381529060405280519060200120141561040a576001915050610423565b808061041590610efb565b915050610363565b50600090505b92915050565b60008060009050600083905060005b81518110156104fe5760008183516104509190610e3e565b9050600083838151811061048d577f4e487b7100000000000000000000000000000000000000000000000000000000600052603260045260246000fd5b602001015160f81c60f81b905060008160f81c9050600060308260ff166104b49190610e3e565b90506001846104c39190610e3e565b600a6104cf9190610cc6565b816104da9190610de4565b876104e59190610bec565b96505050505080806104f690610efb565b915050610438565b508192505050919050565b600080600190505b82518110156105cb578360405160200161052b9190610adb565b6040516020818303038152906040528051906020012083828151811061057a577f4e487b7100000000000000000000000000000000000000000000000000000000600052603260045260246000fd5b60200260200101516040516020016105929190610adb565b6040516020818303038152906040528051906020012014156105b85760019150506105d1565b80806105c390610efb565b915050610511565b50600090505b92915050565b600080600090505b825181101561064c5783838281518110610622577f4e487b7100000000000000000000000000000000000000000000000000000000600052603260045260246000fd5b602002602001015114156106395780915050610651565b808061064490610efb565b9150506105df565b508290505b92915050565b600080600090505b82518110156106cc57838382815181106106a2577f4e487b7100000000000000000000000000000000000000000000000000000000600052603260045260246000fd5b602002602001015114156106b957809150506106d1565b80806106c490610efb565b91505061065f565b508290505b92915050565b606060006106e4836106ef565b905080915050919050565b60606000821415610737576040518060400160405280600181526020017f30000000000000000000000000000000000000000000000000000000000000008152509050610897565b600082905060005b6000821461076957808061075290610efb565b915050600a826107629190610c42565b915061073f565b60008167ffffffffffffffff8111156107ab577f4e487b7100000000000000000000000000000000000000000000000000000000600052604160045260246000fd5b6040519080825280601f01601f1916602001820160405280156107dd5781602001600182028036833780820191505090505b5090505b60008514610890576001826107f69190610e3e565b9150600a856108059190610f4e565b60306108119190610bec565b60f81b81838151811061084d577f4e487b7100000000000000000000000000000000000000000000000000000000600052603260045260246000fd5b60200101907effffffffffffffffffffffffffffffffffffffffffffffffffffffffffffff1916908160001a905350600a856108899190610c42565b94506107e1565b8093505050505b919050565b60006108af6108aa84610b73565b610b4e565b905080838252602082019050828560208602820111156108ce57600080fd5b60005b858110156108fe57816108e4888261099a565b8452602084019350602083019250506001810190506108d1565b5050509392505050565b600061091b61091684610b9f565b610b4e565b90508281526020810184848401111561093357600080fd5b61093e848285610e88565b509392505050565b600082601f83011261095757600080fd5b813561096784826020860161089c565b91505092915050565b600082601f83011261098157600080fd5b8135610991848260208601610908565b91505092915050565b6000813590506109a98161102a565b92915050565b6000602082840312156109c157600080fd5b600082013567ffffffffffffffff8111156109db57600080fd5b6109e784828501610970565b91505092915050565b600060208284031215610a0257600080fd5b6000610a108482850161099a565b91505092915050565b60008060408385031215610a2c57600080fd5b6000610a3a8582860161099a565b925050602083013567ffffffffffffffff811115610a5757600080fd5b610a6385828601610946565b9150509250929050565b610a7681610e72565b82525050565b6000610a8782610bd0565b610a918185610bdb565b9350610aa1818560208601610e97565b610aaa8161100c565b840191505092915050565b610abe81610e7e565b82525050565b610ad5610ad082610e7e565b610f44565b82525050565b6000610ae78284610ac4565b60208201915081905092915050565b6000602082019050610b0b6000830184610a6d565b92915050565b60006020820190508181036000830152610b2b8184610a7c565b905092915050565b6000602082019050610b486000830184610ab5565b92915050565b6000610b58610b69565b9050610b648282610eca565b919050565b6000604051905090565b600067ffffffffffffffff821115610b8e57610b8d610fdd565b5b602082029050602081019050919050565b600067ffffffffffffffff821115610bba57610bb9610fdd565b5b610bc38261100c565b9050602081019050919050565b600081519050919050565b600082825260208201905092915050565b6000610bf782610e7e565b9150610c0283610e7e565b9250827fffffffffffffffffffffffffffffffffffffffffffffffffffffffffffffffff03821115610c3757610c36610f7f565b5b828201905092915050565b6000610c4d82610e7e565b9150610c5883610e7e565b925082610c6857610c67610fae565b5b828204905092915050565b6000808291508390505b6001851115610cbd57808604811115610c9957610c98610f7f565b5b6001851615610ca85780820291505b8081029050610cb68561101d565b9450610c7d565b94509492505050565b6000610cd182610e7e565b9150610cdc83610e7e565b9250610d097fffffffffffffffffffffffffffffffffffffffffffffffffffffffffffffffff8484610d11565b905092915050565b600082610d215760019050610ddd565b81610d2f5760009050610ddd565b8160018114610d455760028114610d4f57610d7e565b6001915050610ddd565b60ff841115610d6157610d60610f7f565b5b8360020a915084821115610d7857610d77610f7f565b5b50610ddd565b5060208310610133831016604e8410600b8410161715610db35782820a905083811115610dae57610dad610f7f565b5b610ddd565b610dc08484846001610c73565b92509050818404811115610dd757610dd6610f7f565b5b81810290505b9392505050565b6000610def82610e7e565b9150610dfa83610e7e565b9250817fffffffffffffffffffffffffffffffffffffffffffffffffffffffffffffffff0483118215151615610e3357610e32610f7f565b5b828202905092915050565b6000610e4982610e7e565b9150610e5483610e7e565b925082821015610e6757610e66610f7f565b5b828203905092915050565b60008115159050919050565b6000819050919050565b82818337600083830152505050565b60005b83811015610eb5578082015181840152602081019050610e9a565b83811115610ec4576000848401525b50505050565b610ed38261100c565b810181811067ffffffffffffffff82111715610ef257610ef1610fdd565b5b80604052505050565b6000610f0682610e7e565b91507fffffffffffffffffffffffffffffffffffffffffffffffffffffffffffffffff821415610f3957610f38610f7f565b5b600182019050919050565b6000819050919050565b6000610f5982610e7e565b9150610f6483610e7e565b925082610f7457610f73610fae565b5b828206905092915050565b7f4e487b7100000000000000000000000000000000000000000000000000000000600052601160045260246000fd5b7f4e487b7100000000000000000000000000000000000000000000000000000000600052601260045260246000fd5b7f4e487b7100000000000000000000000000000000000000000000000000000000600052604160045260246000fd5b6000601f19601f8301169050919050565b60008160011c9050919050565b61103381610e7e565b811461103e57600080fd5b5056fea26469706673582212205942c2f8a71e8acddd94f54d6a92b5997d47a59760d368633ecbc3ef2985ae1064736f6c63430008010033",
  "linkReferences": {},
  "deployedLinkReferences": {}
}