{
  "_format": "hh-sol-artifact-1",
  "contractName": "ContractIp",
  "sourceName": "contracts/ContractIp.sol",
  "abi": [
    {
      "inputs": [],
      "stateMutability": "nonpayable",
      "type": "constructor"
    },
    {
      "anonymous": false,
      "inputs": [
        {
          "indexed": true,
          "internalType": "address",
          "name": "owner",
          "type": "address"
        },
        {
          "indexed": true,
          "internalType": "address",
          "name": "approved",
          "type": "address"
        },
        {
          "indexed": true,
          "internalType": "uint256",
          "name": "tokenId",
          "type": "uint256"
        }
      ],
      "name": "Approval",
      "type": "event"
    },
    {
      "anonymous": false,
      "inputs": [
        {
          "indexed": true,
          "internalType": "address",
          "name": "owner",
          "type": "address"
        },
        {
          "indexed": true,
          "internalType": "address",
          "name": "operator",
          "type": "address"
        },
        {
          "indexed": false,
          "internalType": "bool",
          "name": "approved",
          "type": "bool"
        }
      ],
      "name": "ApprovalForAll",
      "type": "event"
    },
    {
      "anonymous": false,
      "inputs": [
        {
          "indexed": false,
          "internalType": "address",
          "name": "sender",
          "type": "address"
        },
        {
          "indexed": false,
          "internalType": "uint256",
          "name": "amount",
          "type": "uint256"
        }
      ],
      "name": "LogReceivedFunds",
      "type": "event"
    },
    {
      "anonymous": false,
      "inputs": [
        {
          "indexed": false,
          "internalType": "address",
          "name": "recipient",
          "type": "address"
        },
        {
          "indexed": false,
          "internalType": "uint256",
          "name": "amount",
          "type": "uint256"
        }
      ],
      "name": "LogReturnedFunds",
      "type": "event"
    },
    {
      "anonymous": false,
      "inputs": [
        {
          "indexed": true,
          "internalType": "uint256",
          "name": "tokenId",
          "type": "uint256"
        },
        {
          "indexed": false,
          "internalType": "address",
          "name": "owner",
          "type": "address"
        },
        {
          "indexed": false,
          "internalType": "address",
          "name": "Nftowner",
          "type": "address"
        },
        {
          "indexed": false,
          "internalType": "uint256",
          "name": "timestamp",
          "type": "uint256"
        },
        {
          "indexed": false,
          "internalType": "string",
          "name": "status",
          "type": "string"
        },
        {
          "indexed": false,
          "internalType": "bool",
          "name": "isRegistered",
          "type": "bool"
        }
      ],
      "name": "TokenAcceptedNft",
      "type": "event"
    },
    {
      "anonymous": false,
      "inputs": [
        {
          "indexed": true,
          "internalType": "address",
          "name": "from",
          "type": "address"
        },
        {
          "indexed": true,
          "internalType": "address",
          "name": "to",
          "type": "address"
        },
        {
          "indexed": true,
          "internalType": "uint256",
          "name": "tokenId",
          "type": "uint256"
        }
      ],
      "name": "Transfer",
      "type": "event"
    },
    {
      "inputs": [
        {
          "internalType": "uint256",
          "name": "",
          "type": "uint256"
        }
      ],
      "name": "acceptedIps",
      "outputs": [
        {
          "internalType": "uint256",
          "name": "",
          "type": "uint256"
        }
      ],
      "stateMutability": "view",
      "type": "function"
    },
    {
      "inputs": [
        {
          "internalType": "address",
          "name": "to",
          "type": "address"
        },
        {
          "internalType": "uint256",
          "name": "tokenId",
          "type": "uint256"
        }
      ],
      "name": "approve",
      "outputs": [],
      "stateMutability": "nonpayable",
      "type": "function"
    },
    {
      "inputs": [
        {
          "internalType": "address",
          "name": "owner",
          "type": "address"
        }
      ],
      "name": "balanceOf",
      "outputs": [
        {
          "internalType": "uint256",
          "name": "",
          "type": "uint256"
        }
      ],
      "stateMutability": "view",
      "type": "function"
    },
    {
      "inputs": [
        {
          "internalType": "uint256",
          "name": "tokenId",
          "type": "uint256"
        }
      ],
      "name": "bidderDeposit",
      "outputs": [
        {
          "internalType": "bool",
          "name": "success",
          "type": "bool"
        }
      ],
      "stateMutability": "payable",
      "type": "function"
    },
    {
      "inputs": [
        {
          "internalType": "uint256",
          "name": "",
          "type": "uint256"
        }
      ],
      "name": "bidderList",
      "outputs": [
        {
          "internalType": "address",
          "name": "",
          "type": "address"
        }
      ],
      "stateMutability": "view",
      "type": "function"
    },
    {
      "inputs": [
        {
          "internalType": "address",
          "name": "",
          "type": "address"
        }
      ],
      "name": "biddersList",
      "outputs": [
        {
          "internalType": "uint256",
          "name": "received",
          "type": "uint256"
        },
        {
          "internalType": "uint256",
          "name": "returned",
          "type": "uint256"
        },
        {
          "internalType": "uint256",
          "name": "clientListPointer",
          "type": "uint256"
        }
      ],
      "stateMutability": "view",
      "type": "function"
    },
    {
      "inputs": [
        {
          "internalType": "uint256",
          "name": "",
          "type": "uint256"
        }
      ],
      "name": "bids",
      "outputs": [
        {
          "internalType": "uint256",
          "name": "received",
          "type": "uint256"
        },
        {
          "internalType": "uint256",
          "name": "returned",
          "type": "uint256"
        },
        {
          "internalType": "uint256",
          "name": "clientListPointer",
          "type": "uint256"
        }
      ],
      "stateMutability": "view",
      "type": "function"
    },
    {
      "inputs": [
        {
          "internalType": "uint256",
          "name": "tokenId",
          "type": "uint256"
        },
        {
          "internalType": "string",
          "name": "status",
          "type": "string"
        }
      ],
      "name": "changeStatus",
      "outputs": [
        {
          "internalType": "bool",
          "name": "",
          "type": "bool"
        }
      ],
      "stateMutability": "nonpayable",
      "type": "function"
    },
    {
      "inputs": [],
      "name": "countAcceptedIPs",
      "outputs": [
        {
          "internalType": "uint256",
          "name": "",
          "type": "uint256"
        }
      ],
      "stateMutability": "view",
      "type": "function"
    },
    {
      "inputs": [],
      "name": "countPendingIPs",
      "outputs": [
        {
          "internalType": "uint256",
          "name": "",
          "type": "uint256"
        }
      ],
      "stateMutability": "view",
      "type": "function"
    },
    {
      "inputs": [],
      "name": "countRejectedIPs",
      "outputs": [
        {
          "internalType": "uint256",
          "name": "",
          "type": "uint256"
        }
      ],
      "stateMutability": "view",
      "type": "function"
    },
    {
      "inputs": [
        {
          "internalType": "string",
          "name": "tokenURI",
          "type": "string"
        }
      ],
      "name": "createToken",
      "outputs": [
        {
          "internalType": "uint256",
          "name": "",
          "type": "uint256"
        }
      ],
      "stateMutability": "payable",
      "type": "function"
    },
    {
      "inputs": [
        {
          "internalType": "uint256",
          "name": "tokenId",
          "type": "uint256"
        },
        {
          "internalType": "address",
          "name": "bidderAddress",
          "type": "address"
        }
      ],
      "name": "executeSale",
      "outputs": [],
      "stateMutability": "payable",
      "type": "function"
    },
    {
      "inputs": [],
      "name": "getAllNFTs",
      "outputs": [
        {
          "components": [
            {
              "internalType": "uint256",
              "name": "tokenId",
              "type": "uint256"
            },
            {
              "internalType": "address payable",
              "name": "owner",
              "type": "address"
            },
            {
              "internalType": "address payable",
              "name": "Nftowner",
              "type": "address"
            },
            {
              "internalType": "uint256",
              "name": "timestamp",
              "type": "uint256"
            },
            {
              "internalType": "string",
              "name": "status",
              "type": "string"
            },
            {
              "internalType": "bool",
              "name": "isRegistered",
              "type": "bool"
            }
          ],
          "internalType": "struct ContractIp.RequestedNfts[]",
          "name": "",
          "type": "tuple[]"
        }
      ],
      "stateMutability": "view",
      "type": "function"
    },
    {
      "inputs": [
        {
          "internalType": "uint256",
          "name": "tokenId",
          "type": "uint256"
        }
      ],
      "name": "getApproved",
      "outputs": [
        {
          "internalType": "address",
          "name": "",
          "type": "address"
        }
      ],
      "stateMutability": "view",
      "type": "function"
    },
    {
      "inputs": [],
      "name": "getBidderCount",
      "outputs": [
        {
          "internalType": "uint256",
          "name": "bidderCount",
          "type": "uint256"
        }
      ],
      "stateMutability": "view",
      "type": "function"
    },
    {
      "inputs": [],
      "name": "getListPrice",
      "outputs": [
        {
          "internalType": "uint256",
          "name": "",
          "type": "uint256"
        }
      ],
      "stateMutability": "view",
      "type": "function"
    },
    {
      "inputs": [],
      "name": "getMyNFTs",
      "outputs": [
        {
          "components": [
            {
              "internalType": "uint256",
              "name": "tokenId",
              "type": "uint256"
            },
            {
              "internalType": "address payable",
              "name": "owner",
              "type": "address"
            },
            {
              "internalType": "address payable",
              "name": "Nftowner",
              "type": "address"
            },
            {
              "internalType": "uint256",
              "name": "timestamp",
              "type": "uint256"
            },
            {
              "internalType": "string",
              "name": "status",
              "type": "string"
            },
            {
              "internalType": "bool",
              "name": "isRegistered",
              "type": "bool"
            }
          ],
          "internalType": "struct ContractIp.RequestedNfts[]",
          "name": "",
          "type": "tuple[]"
        }
      ],
      "stateMutability": "view",
      "type": "function"
    },
    {
      "inputs": [
        {
          "internalType": "uint256",
          "name": "",
          "type": "uint256"
        }
      ],
      "name": "idToListedToken",
      "outputs": [
        {
          "internalType": "uint256",
          "name": "tokenId",
          "type": "uint256"
        },
        {
          "internalType": "address payable",
          "name": "owner",
          "type": "address"
        },
        {
          "internalType": "address payable",
          "name": "Nftowner",
          "type": "address"
        },
        {
          "internalType": "uint256",
          "name": "timestamp",
          "type": "uint256"
        },
        {
          "internalType": "string",
          "name": "status",
          "type": "string"
        },
        {
          "internalType": "bool",
          "name": "isRegistered",
          "type": "bool"
        }
      ],
      "stateMutability": "view",
      "type": "function"
    },
    {
      "inputs": [
        {
          "internalType": "address",
          "name": "owner",
          "type": "address"
        },
        {
          "internalType": "address",
          "name": "operator",
          "type": "address"
        }
      ],
      "name": "isApprovedForAll",
      "outputs": [
        {
          "internalType": "bool",
          "name": "",
          "type": "bool"
        }
      ],
      "stateMutability": "view",
      "type": "function"
    },
    {
      "inputs": [
        {
          "internalType": "address",
          "name": "bidder",
          "type": "address"
        }
      ],
      "name": "isBidder",
      "outputs": [
        {
          "internalType": "bool",
          "name": "isIndeed",
          "type": "bool"
        }
      ],
      "stateMutability": "view",
      "type": "function"
    },
    {
      "inputs": [],
      "name": "name",
      "outputs": [
        {
          "internalType": "string",
          "name": "",
          "type": "string"
        }
      ],
      "stateMutability": "view",
      "type": "function"
    },
    {
      "inputs": [
        {
          "internalType": "uint256",
          "name": "tokenId",
          "type": "uint256"
        }
      ],
      "name": "ownerOf",
      "outputs": [
        {
          "internalType": "address",
          "name": "",
          "type": "address"
        }
      ],
      "stateMutability": "view",
      "type": "function"
    },
    {
      "inputs": [
        {
          "internalType": "uint256",
          "name": "",
          "type": "uint256"
        }
      ],
      "name": "pendingIps",
      "outputs": [
        {
          "internalType": "uint256",
          "name": "",
          "type": "uint256"
        }
      ],
      "stateMutability": "view",
      "type": "function"
    },
    {
      "inputs": [],
      "name": "receivedWei",
      "outputs": [
        {
          "internalType": "uint256",
          "name": "",
          "type": "uint256"
        }
      ],
      "stateMutability": "view",
      "type": "function"
    },
    {
      "inputs": [
        {
          "internalType": "uint256",
          "name": "amountToWithdraw",
          "type": "uint256"
        }
      ],
      "name": "refundDeposit",
      "outputs": [
        {
          "internalType": "bool",
          "name": "success",
          "type": "bool"
        }
      ],
      "stateMutability": "nonpayable",
      "type": "function"
    },
    {
      "inputs": [
        {
          "internalType": "uint256",
          "name": "",
          "type": "uint256"
        }
      ],
      "name": "rejectedIps",
      "outputs": [
        {
          "internalType": "uint256",
          "name": "",
          "type": "uint256"
        }
      ],
      "stateMutability": "view",
      "type": "function"
    },
    {
      "inputs": [
        {
          "internalType": "uint256",
          "name": "_index",
          "type": "uint256"
        }
      ],
      "name": "removeAccepted",
      "outputs": [],
      "stateMutability": "nonpayable",
      "type": "function"
    },
    {
      "inputs": [
        {
          "internalType": "uint256",
          "name": "_index",
          "type": "uint256"
        }
      ],
      "name": "removePending",
      "outputs": [],
      "stateMutability": "nonpayable",
      "type": "function"
    },
    {
      "inputs": [
        {
          "internalType": "uint256",
          "name": "_index",
          "type": "uint256"
        }
      ],
      "name": "removeRejected",
      "outputs": [],
      "stateMutability": "nonpayable",
      "type": "function"
    },
    {
      "inputs": [],
      "name": "result",
      "outputs": [
        {
          "internalType": "string",
          "name": "",
          "type": "string"
        }
      ],
      "stateMutability": "view",
      "type": "function"
    },
    {
      "inputs": [],
      "name": "returnedWei",
      "outputs": [
        {
          "internalType": "uint256",
          "name": "",
          "type": "uint256"
        }
      ],
      "stateMutability": "view",
      "type": "function"
    },
    {
      "inputs": [
        {
          "internalType": "address",
          "name": "from",
          "type": "address"
        },
        {
          "internalType": "address",
          "name": "to",
          "type": "address"
        },
        {
          "internalType": "uint256",
          "name": "tokenId",
          "type": "uint256"
        }
      ],
      "name": "safeTransferFrom",
      "outputs": [],
      "stateMutability": "nonpayable",
      "type": "function"
    },
    {
      "inputs": [
        {
          "internalType": "address",
          "name": "from",
          "type": "address"
        },
        {
          "internalType": "address",
          "name": "to",
          "type": "address"
        },
        {
          "internalType": "uint256",
          "name": "tokenId",
          "type": "uint256"
        },
        {
          "internalType": "bytes",
          "name": "data",
          "type": "bytes"
        }
      ],
      "name": "safeTransferFrom",
      "outputs": [],
      "stateMutability": "nonpayable",
      "type": "function"
    },
    {
      "inputs": [
        {
          "internalType": "address",
          "name": "operator",
          "type": "address"
        },
        {
          "internalType": "bool",
          "name": "approved",
          "type": "bool"
        }
      ],
      "name": "setApprovalForAll",
      "outputs": [],
      "stateMutability": "nonpayable",
      "type": "function"
    },
    {
      "inputs": [
        {
          "internalType": "bytes4",
          "name": "interfaceId",
          "type": "bytes4"
        }
      ],
      "name": "supportsInterface",
      "outputs": [
        {
          "internalType": "bool",
          "name": "",
          "type": "bool"
        }
      ],
      "stateMutability": "view",
      "type": "function"
    },
    {
      "inputs": [],
      "name": "symbol",
      "outputs": [
        {
          "internalType": "string",
          "name": "",
          "type": "string"
        }
      ],
      "stateMutability": "view",
      "type": "function"
    },
    {
      "inputs": [
        {
          "internalType": "uint256",
          "name": "tokenId",
          "type": "uint256"
        }
      ],
      "name": "tokenURI",
      "outputs": [
        {
          "internalType": "string",
          "name": "",
          "type": "string"
        }
      ],
      "stateMutability": "view",
      "type": "function"
    },
    {
      "inputs": [
        {
          "internalType": "address",
          "name": "from",
          "type": "address"
        },
        {
          "internalType": "address",
          "name": "to",
          "type": "address"
        },
        {
          "internalType": "uint256",
          "name": "tokenId",
          "type": "uint256"
        }
      ],
      "name": "transferFrom",
      "outputs": [],
      "stateMutability": "nonpayable",
      "type": "function"
    }
  ],
  "bytecode": "0x6080604052662386f26fc10000600a556040516200001d9062000170565b604051809103906000f0801580156200003a573d6000803e3d6000fd5b50600b60006101000a81548173ffffffffffffffffffffffffffffffffffffffff021916908373ffffffffffffffffffffffffffffffffffffffff1602179055503480156200008857600080fd5b506040518060400160405280600e81526020017f4e46544d61726b6574706c6163650000000000000000000000000000000000008152506040518060400160405280600481526020017f4e46544d0000000000000000000000000000000000000000000000000000000081525081600090805190602001906200010d9291906200017e565b508060019080519060200190620001269291906200017e565b50505033600960006101000a81548173ffffffffffffffffffffffffffffffffffffffff021916908373ffffffffffffffffffffffffffffffffffffffff16021790555062000293565b61109780620060e183390190565b8280546200018c906200022e565b90600052602060002090601f016020900481019282620001b05760008555620001fc565b82601f10620001cb57805160ff1916838001178555620001fc565b82800160010185558215620001fc579182015b82811115620001fb578251825591602001919060010190620001de565b5b5090506200020b91906200020f565b5090565b5b808211156200022a57600081600090555060010162000210565b5090565b600060028204905060018216806200024757607f821691505b602082108114156200025e576200025d62000264565b5b50919050565b7f4e487b7100000000000000000000000000000000000000000000000000000000600052602260045260246000fd5b615e3e80620002a36000396000f3fe6080604052600436106102305760003560e01c806368f1945f1161012e578063c87da02d116100ab578063e57a497a1161006f578063e57a497a146108e7578063e985e9c514610929578063f5f680e014610966578063fb645bd814610991578063fd4f0b4f146109ba57610230565b8063c87da02d146107ec578063cea62a1b14610817578063d3584e8414610842578063d5606fbf1461087f578063e0391b09146108bc57610230565b806395d89b41116100f257806395d89b4114610709578063a22cb46514610734578063b13d3ecc1461075d578063b88d4fde14610786578063c87b56dd146107af57610230565b806368f1945f146105f55780636de0de7e146106205780636df38c6a1461065d5780636e3bc76b1461068d57806370a08231146106cc57610230565b806327bbc10d116101bc57806345576f941161018057806345576f94146104f55780634558593e14610525578063629cb2e4146105625780636352211e1461058d57806365372147146105ca57610230565b806327bbc10d146103fc57806334020f4b1461043957806338d5d3251461046457806342842e0e1461048d5780634423c5f1146104b657610230565b8063095ea7b311610203578063095ea7b31461030557806310e22d411461032e57806319fde1f6146103595780631cdaea221461039657806323b872dd146103d357610230565b806301ffc9a71461023557806302000bd41461027257806306fdde031461029d578063081812fc146102c8575b600080fd5b34801561024157600080fd5b5061025c6004803603810190610257919061477f565b6109d6565b60405161026991906150d2565b60405180910390f35b34801561027e57600080fd5b50610287610ab8565b604051610294919061532f565b60405180910390f35b3480156102a957600080fd5b506102b2610ac5565b6040516102bf91906150ed565b60405180910390f35b3480156102d457600080fd5b506102ef60048036038101906102ea9190614812565b610b57565b6040516102fc9190614fc6565b60405180910390f35b34801561031157600080fd5b5061032c6004803603810190610327919061471a565b610b9d565b005b34801561033a57600080fd5b50610343610cb5565b604051610350919061532f565b60405180910390f35b34801561036557600080fd5b50610380600480360381019061037b91906145af565b610cbb565b60405161038d91906150d2565b60405180910390f35b3480156103a257600080fd5b506103bd60048036038101906103b89190614812565b610db0565b6040516103ca919061532f565b60405180910390f35b3480156103df57600080fd5b506103fa60048036038101906103f59190614614565b610dd4565b005b34801561040857600080fd5b50610423600480360381019061041e9190614812565b610e34565b604051610430919061532f565b60405180910390f35b34801561044557600080fd5b5061044e610e58565b60405161045b919061532f565b60405180910390f35b34801561047057600080fd5b5061048b60048036038101906104869190614812565b610e65565b005b34801561049957600080fd5b506104b460048036038101906104af9190614614565b610fc9565b005b3480156104c257600080fd5b506104dd60048036038101906104d89190614812565b610fe9565b6040516104ec939291906153e2565b60405180910390f35b61050f600480360381019061050a91906147d1565b611013565b60405161051c919061532f565b60405180910390f35b34801561053157600080fd5b5061054c600480360381019061054791906148a0565b61108f565b60405161055991906150d2565b60405180910390f35b34801561056e57600080fd5b50610577611129565b60405161058491906150b0565b60405180910390f35b34801561059957600080fd5b506105b460048036038101906105af9190614812565b6115e8565b6040516105c19190614fc6565b60405180910390f35b3480156105d657600080fd5b506105df61169a565b6040516105ec91906150ed565b60405180910390f35b34801561060157600080fd5b5061060a611728565b604051610617919061532f565b60405180910390f35b34801561062c57600080fd5b5061064760048036038101906106429190614812565b611732565b60405161065491906150d2565b60405180910390f35b61067760048036038101906106729190614812565b6118ec565b60405161068491906150d2565b60405180910390f35b34801561069957600080fd5b506106b460048036038101906106af91906145af565b611b73565b6040516106c3939291906153e2565b60405180910390f35b3480156106d857600080fd5b506106f360048036038101906106ee91906145af565b611b9d565b604051610700919061532f565b60405180910390f35b34801561071557600080fd5b5061071e611c55565b60405161072b91906150ed565b60405180910390f35b34801561074057600080fd5b5061075b600480360381019061075691906146de565b611ce7565b005b34801561076957600080fd5b50610784600480360381019061077f9190614812565b611cfd565b005b34801561079257600080fd5b506107ad60048036038101906107a89190614663565b611e61565b005b3480156107bb57600080fd5b506107d660048036038101906107d19190614812565b611ec3565b6040516107e391906150ed565b60405180910390f35b3480156107f857600080fd5b50610801611fd6565b60405161080e919061532f565b60405180910390f35b34801561082357600080fd5b5061082c611fe3565b604051610839919061532f565b60405180910390f35b34801561084e57600080fd5b5061086960048036038101906108649190614812565b611ff0565b6040516108769190614fc6565b60405180910390f35b34801561088b57600080fd5b506108a660048036038101906108a19190614812565b61202f565b6040516108b3919061532f565b60405180910390f35b3480156108c857600080fd5b506108d1612053565b6040516108de91906150b0565b60405180910390f35b3480156108f357600080fd5b5061090e60048036038101906109099190614812565b612303565b6040516109209695949392919061534a565b60405180910390f35b34801561093557600080fd5b50610950600480360381019061094b91906145d8565b612414565b60405161095d91906150d2565b60405180910390f35b34801561097257600080fd5b5061097b6124a8565b604051610988919061532f565b60405180910390f35b34801561099d57600080fd5b506109b860048036038101906109b39190614812565b6124ae565b005b6109d460048036038101906109cf9190614864565b612612565b005b60007f80ac58cd000000000000000000000000000000000000000000000000000000007bffffffffffffffffffffffffffffffffffffffffffffffffffffffff1916827bffffffffffffffffffffffffffffffffffffffffffffffffffffffff19161480610aa157507f5b5e139f000000000000000000000000000000000000000000000000000000007bffffffffffffffffffffffffffffffffffffffffffffffffffffffff1916827bffffffffffffffffffffffffffffffffffffffffffffffffffffffff1916145b80610ab15750610ab0826127ef565b5b9050919050565b6000600c80549050905090565b606060008054610ad49061570d565b80601f0160208091040260200160405190810160405280929190818152602001828054610b009061570d565b8015610b4d5780601f10610b2257610100808354040283529160200191610b4d565b820191906000526020600020905b815481529060010190602001808311610b3057829003601f168201915b5050505050905090565b6000610b6282612859565b6004600083815260200190815260200160002060009054906101000a900473ffffffffffffffffffffffffffffffffffffffff169050919050565b6000610ba8826115e8565b90508073ffffffffffffffffffffffffffffffffffffffff168373ffffffffffffffffffffffffffffffffffffffff161415610c19576040517f08c379a0000000000000000000000000000000000000000000000000000000008152600401610c10906152ef565b60405180910390fd5b8073ffffffffffffffffffffffffffffffffffffffff16610c386128a4565b73ffffffffffffffffffffffffffffffffffffffff161480610c675750610c6681610c616128a4565b612414565b5b610ca6576040517f08c379a0000000000000000000000000000000000000000000000000000000008152600401610c9d9061526f565b60405180910390fd5b610cb083836128ac565b505050565b60115481565b6000806015805490501415610cd35760009050610dab565b8173ffffffffffffffffffffffffffffffffffffffff166015601360008573ffffffffffffffffffffffffffffffffffffffff1673ffffffffffffffffffffffffffffffffffffffff1681526020019081526020016000206002015481548110610d66577f4e487b7100000000000000000000000000000000000000000000000000000000600052603260045260246000fd5b9060005260206000200160009054906101000a900473ffffffffffffffffffffffffffffffffffffffff1673ffffffffffffffffffffffffffffffffffffffff161490505b919050565b600e8181548110610dc057600080fd5b906000526020600020016000915090505481565b610de5610ddf6128a4565b82612965565b610e24576040517f08c379a0000000000000000000000000000000000000000000000000000000008152600401610e1b9061530f565b60405180910390fd5b610e2f8383836129fa565b505050565b600c8181548110610e4457600080fd5b906000526020600020016000915090505481565b6000600d80549050905090565b600e805490508110610eac576040517f08c379a0000000000000000000000000000000000000000000000000000000008152600401610ea3906152af565b60405180910390fd5b60008190505b6001600e80549050610ec49190615607565b811015610f7757600e600182610eda9190615580565b81548110610f11577f4e487b7100000000000000000000000000000000000000000000000000000000600052603260045260246000fd5b9060005260206000200154600e8281548110610f56577f4e487b7100000000000000000000000000000000000000000000000000000000600052603260045260246000fd5b90600052602060002001819055508080610f6f9061578a565b915050610eb2565b50600e805480610fb0577f4e487b7100000000000000000000000000000000000000000000000000000000600052603160045260246000fd5b6001900381819060005260206000200160009055905550565b610fe483838360405180602001604052806000815250611e61565b505050565b60146020528060005260406000206000915090508060000154908060010154908060020154905083565b600061101f6007612c61565b600061102b6007612c77565b90506110373382612c85565b6110418184612ca3565b60006040518060400160405280600781526020017f50656e64696e670000000000000000000000000000000000000000000000000081525090506110858282612d17565b8192505050919050565b6000600960009054906101000a900473ffffffffffffffffffffffffffffffffffffffff1673ffffffffffffffffffffffffffffffffffffffff163373ffffffffffffffffffffffffffffffffffffffff16146110eb57600080fd5b81601060008581526020019081526020016000206004019080519060200190611115929190614345565b5061111f83612ee1565b6001905092915050565b606060006111376007612c77565b9050600080600080600090505b8481101561125d573373ffffffffffffffffffffffffffffffffffffffff16601060006001846111749190615580565b815260200190815260200160002060010160009054906101000a900473ffffffffffffffffffffffffffffffffffffffff1673ffffffffffffffffffffffffffffffffffffffff16148061123557503373ffffffffffffffffffffffffffffffffffffffff16601060006001846111eb9190615580565b815260200190815260200160002060020160009054906101000a900473ffffffffffffffffffffffffffffffffffffffff1673ffffffffffffffffffffffffffffffffffffffff16145b1561124a576001846112479190615580565b93505b80806112559061578a565b915050611144565b5060008367ffffffffffffffff8111156112a0577f4e487b7100000000000000000000000000000000000000000000000000000000600052604160045260246000fd5b6040519080825280602002602001820160405280156112d957816020015b6112c66143cb565b8152602001906001900390816112be5790505b50905060005b858110156115dc573373ffffffffffffffffffffffffffffffffffffffff166010600060018461130f9190615580565b815260200190815260200160002060010160009054906101000a900473ffffffffffffffffffffffffffffffffffffffff1673ffffffffffffffffffffffffffffffffffffffff1614806113d057503373ffffffffffffffffffffffffffffffffffffffff16601060006001846113869190615580565b815260200190815260200160002060020160009054906101000a900473ffffffffffffffffffffffffffffffffffffffff1673ffffffffffffffffffffffffffffffffffffffff16145b156115c9576001816113e29190615580565b92506000601060008581526020019081526020016000209050806040518060c0016040529081600082015481526020016001820160009054906101000a900473ffffffffffffffffffffffffffffffffffffffff1673ffffffffffffffffffffffffffffffffffffffff1673ffffffffffffffffffffffffffffffffffffffff1681526020016002820160009054906101000a900473ffffffffffffffffffffffffffffffffffffffff1673ffffffffffffffffffffffffffffffffffffffff1673ffffffffffffffffffffffffffffffffffffffff168152602001600382015481526020016004820180546114d79061570d565b80601f01602080910402602001604051908101604052809291908181526020018280546115039061570d565b80156115505780601f1061152557610100808354040283529160200191611550565b820191906000526020600020905b81548152906001019060200180831161153357829003601f168201915b505050505081526020016005820160009054906101000a900460ff1615151515815250508386815181106115ad577f4e487b7100000000000000000000000000000000000000000000000000000000600052603260045260246000fd5b60200260200101819052506001856115c59190615580565b9450505b80806115d49061578a565b9150506112df565b50809550505050505090565b6000806002600084815260200190815260200160002060009054906101000a900473ffffffffffffffffffffffffffffffffffffffff169050600073ffffffffffffffffffffffffffffffffffffffff168173ffffffffffffffffffffffffffffffffffffffff161415611691576040517f08c379a0000000000000000000000000000000000000000000000000000000008152600401611688906152cf565b60405180910390fd5b80915050919050565b600f80546116a79061570d565b80601f01602080910402602001604051908101604052809291908181526020018280546116d39061570d565b80156117205780601f106116f557610100808354040283529160200191611720565b820191906000526020600020905b81548152906001019060200180831161170357829003601f168201915b505050505081565b6000600a54905090565b600061173d33610cbb565b61174657600080fd5b6000601360003373ffffffffffffffffffffffffffffffffffffffff1673ffffffffffffffffffffffffffffffffffffffff16815260200190815260200160002060010154601360003373ffffffffffffffffffffffffffffffffffffffff1673ffffffffffffffffffffffffffffffffffffffff168152602001908152602001600020600001546117d89190615607565b9050808311156117e757600080fd5b82601360003373ffffffffffffffffffffffffffffffffffffffff1673ffffffffffffffffffffffffffffffffffffffff16815260200190815260200160002060010160008282546118399190615580565b9250508190555082601260008282546118529190615580565b925050819055507fe0e5873eb9d996d2ab087b071a9a50522121c02b43308c8728c06739f52b3f87338460405161188a929190615087565b60405180910390a1808311156118e2573373ffffffffffffffffffffffffffffffffffffffff166108fc849081150290604051600060405180830381858888f193505050501580156118e0573d6000803e3d6000fd5b505b6001915050919050565b60006040516020016118fd90614fb1565b60405160208183030381529060405280519060200120601060008481526020019081526020016000206004016040516020016119399190614f70565b604051602081830303815290604052805190602001201461198f576040517f08c379a00000000000000000000000000000000000000000000000000000000081526004016119869061516f565b60405180910390fd5b61199833610cbb565b611abf576015339080600181540180825580915050600190039060005260206000200160009091909190916101000a81548173ffffffffffffffffffffffffffffffffffffffff021916908373ffffffffffffffffffffffffffffffffffffffff16021790555060006001601580549050611a139190615607565b905060405180606001604052803481526020016000815260200182815250601460008581526020019081526020016000206000820151816000015560208201518160010155604082015181600201559050506001601580549050611a779190615607565b601360003373ffffffffffffffffffffffffffffffffffffffff1673ffffffffffffffffffffffffffffffffffffffff16815260200190815260200160002060020181905550505b34601360003373ffffffffffffffffffffffffffffffffffffffff1673ffffffffffffffffffffffffffffffffffffffff1681526020019081526020016000206000016000828254611b119190615580565b925050819055503460116000828254611b2a9190615580565b925050819055507f81d2c188629cc4a1c694d285150cb5fa3dde3157a2684460d3ac7a1e331f61643334604051611b62929190615087565b60405180910390a160019050919050565b60136020528060005260406000206000915090508060000154908060010154908060020154905083565b60008073ffffffffffffffffffffffffffffffffffffffff168273ffffffffffffffffffffffffffffffffffffffff161415611c0e576040517f08c379a0000000000000000000000000000000000000000000000000000000008152600401611c059061520f565b60405180910390fd5b600360008373ffffffffffffffffffffffffffffffffffffffff1673ffffffffffffffffffffffffffffffffffffffff168152602001908152602001600020549050919050565b606060018054611c649061570d565b80601f0160208091040260200160405190810160405280929190818152602001828054611c909061570d565b8015611cdd5780601f10611cb257610100808354040283529160200191611cdd565b820191906000526020600020905b815481529060010190602001808311611cc057829003601f168201915b5050505050905090565b611cf9611cf26128a4565b8383613aeb565b5050565b600d805490508110611d44576040517f08c379a0000000000000000000000000000000000000000000000000000000008152600401611d3b906152af565b60405180910390fd5b60008190505b6001600d80549050611d5c9190615607565b811015611e0f57600d600182611d729190615580565b81548110611da9577f4e487b7100000000000000000000000000000000000000000000000000000000600052603260045260246000fd5b9060005260206000200154600d8281548110611dee577f4e487b7100000000000000000000000000000000000000000000000000000000600052603260045260246000fd5b90600052602060002001819055508080611e079061578a565b915050611d4a565b50600d805480611e48577f4e487b7100000000000000000000000000000000000000000000000000000000600052603160045260246000fd5b6001900381819060005260206000200160009055905550565b611e72611e6c6128a4565b83612965565b611eb1576040517f08c379a0000000000000000000000000000000000000000000000000000000008152600401611ea89061530f565b60405180910390fd5b611ebd84848484613c58565b50505050565b6060611ece82612859565b6000600660008481526020019081526020016000208054611eee9061570d565b80601f0160208091040260200160405190810160405280929190818152602001828054611f1a9061570d565b8015611f675780601f10611f3c57610100808354040283529160200191611f67565b820191906000526020600020905b815481529060010190602001808311611f4a57829003601f168201915b505050505090506000611f78613cb4565b9050600081511415611f8e578192505050611fd1565b600082511115611fc3578082604051602001611fab929190614f4c565b60405160208183030381529060405292505050611fd1565b611fcc84613ccb565b925050505b919050565b6000601580549050905090565b6000600e80549050905090565b6015818154811061200057600080fd5b906000526020600020016000915054906101000a900473ffffffffffffffffffffffffffffffffffffffff1681565b600d818154811061203f57600080fd5b906000526020600020016000915090505481565b606060006120616007612c77565b905060008167ffffffffffffffff8111156120a5577f4e487b7100000000000000000000000000000000000000000000000000000000600052604160045260246000fd5b6040519080825280602002602001820160405280156120de57816020015b6120cb6143cb565b8152602001906001900390816120c35790505b50905060008080600090505b848110156122f8576001816120ff9190615580565b91506000601060008481526020019081526020016000209050806040518060c0016040529081600082015481526020016001820160009054906101000a900473ffffffffffffffffffffffffffffffffffffffff1673ffffffffffffffffffffffffffffffffffffffff1673ffffffffffffffffffffffffffffffffffffffff1681526020016002820160009054906101000a900473ffffffffffffffffffffffffffffffffffffffff1673ffffffffffffffffffffffffffffffffffffffff1673ffffffffffffffffffffffffffffffffffffffff168152602001600382015481526020016004820180546121f49061570d565b80601f01602080910402602001604051908101604052809291908181526020018280546122209061570d565b801561226d5780601f106122425761010080835404028352916020019161226d565b820191906000526020600020905b81548152906001019060200180831161225057829003601f168201915b505050505081526020016005820160009054906101000a900460ff1615151515815250508585815181106122ca577f4e487b7100000000000000000000000000000000000000000000000000000000600052603260045260246000fd5b60200260200101819052506001846122e29190615580565b93505080806122f09061578a565b9150506120ea565b508294505050505090565b60106020528060005260406000206000915090508060000154908060010160009054906101000a900473ffffffffffffffffffffffffffffffffffffffff16908060020160009054906101000a900473ffffffffffffffffffffffffffffffffffffffff169080600301549080600401805461237e9061570d565b80601f01602080910402602001604051908101604052809291908181526020018280546123aa9061570d565b80156123f75780601f106123cc576101008083540402835291602001916123f7565b820191906000526020600020905b8154815290600101906020018083116123da57829003601f168201915b5050505050908060050160009054906101000a900460ff16905086565b6000600560008473ffffffffffffffffffffffffffffffffffffffff1673ffffffffffffffffffffffffffffffffffffffff16815260200190815260200160002060008373ffffffffffffffffffffffffffffffffffffffff1673ffffffffffffffffffffffffffffffffffffffff16815260200190815260200160002060009054906101000a900460ff16905092915050565b60125481565b600c8054905081106124f5576040517f08c379a00000000000000000000000000000000000000000000000000000000081526004016124ec906152af565b60405180910390fd5b60008190505b6001600c8054905061250d9190615607565b8110156125c057600c6001826125239190615580565b8154811061255a577f4e487b7100000000000000000000000000000000000000000000000000000000600052603260045260246000fd5b9060005260206000200154600c828154811061259f577f4e487b7100000000000000000000000000000000000000000000000000000000600052603260045260246000fd5b906000526020600020018190555080806125b89061578a565b9150506124fb565b50600c8054806125f9577f4e487b7100000000000000000000000000000000000000000000000000000000600052603160045260246000fd5b6001900381819060005260206000200160009055905550565b6000601360008373ffffffffffffffffffffffffffffffffffffffff1673ffffffffffffffffffffffffffffffffffffffff16815260200190815260200160002060000154905060006010600085815260200190815260200160002060020160009054906101000a900473ffffffffffffffffffffffffffffffffffffffff16905060016010600086815260200190815260200160002060050160006101000a81548160ff021916908315150217905550336010600086815260200190815260200160002060020160006101000a81548173ffffffffffffffffffffffffffffffffffffffff021916908373ffffffffffffffffffffffffffffffffffffffff1602179055506127226008612c61565b61272d3033866129fa565b6127373085610b9d565b600960009054906101000a900473ffffffffffffffffffffffffffffffffffffffff1673ffffffffffffffffffffffffffffffffffffffff166108fc600a549081150290604051600060405180830381858888f193505050501580156127a1573d6000803e3d6000fd5b508073ffffffffffffffffffffffffffffffffffffffff166108fc839081150290604051600060405180830381858888f193505050501580156127e8573d6000803e3d6000fd5b5050505050565b60007f01ffc9a7000000000000000000000000000000000000000000000000000000007bffffffffffffffffffffffffffffffffffffffffffffffffffffffff1916827bffffffffffffffffffffffffffffffffffffffffffffffffffffffff1916149050919050565b61286281613d33565b6128a1576040517f08c379a0000000000000000000000000000000000000000000000000000000008152600401612898906152cf565b60405180910390fd5b50565b600033905090565b816004600083815260200190815260200160002060006101000a81548173ffffffffffffffffffffffffffffffffffffffff021916908373ffffffffffffffffffffffffffffffffffffffff160217905550808273ffffffffffffffffffffffffffffffffffffffff1661291f836115e8565b73ffffffffffffffffffffffffffffffffffffffff167f8c5be1e5ebec7d5bd14f71427d1e84f3dd0314c0f7b2291e5b200ac8c7c3b92560405160405180910390a45050565b600080612971836115e8565b90508073ffffffffffffffffffffffffffffffffffffffff168473ffffffffffffffffffffffffffffffffffffffff1614806129b357506129b28185612414565b5b806129f157508373ffffffffffffffffffffffffffffffffffffffff166129d984610b57565b73ffffffffffffffffffffffffffffffffffffffff16145b91505092915050565b8273ffffffffffffffffffffffffffffffffffffffff16612a1a826115e8565b73ffffffffffffffffffffffffffffffffffffffff1614612a70576040517f08c379a0000000000000000000000000000000000000000000000000000000008152600401612a679061512f565b60405180910390fd5b600073ffffffffffffffffffffffffffffffffffffffff168273ffffffffffffffffffffffffffffffffffffffff161415612ae0576040517f08c379a0000000000000000000000000000000000000000000000000000000008152600401612ad7906151cf565b60405180910390fd5b612aeb838383613d9f565b612af66000826128ac565b6001600360008573ffffffffffffffffffffffffffffffffffffffff1673ffffffffffffffffffffffffffffffffffffffff1681526020019081526020016000206000828254612b469190615607565b925050819055506001600360008473ffffffffffffffffffffffffffffffffffffffff1673ffffffffffffffffffffffffffffffffffffffff1681526020019081526020016000206000828254612b9d9190615580565b92505081905550816002600083815260200190815260200160002060006101000a81548173ffffffffffffffffffffffffffffffffffffffff021916908373ffffffffffffffffffffffffffffffffffffffff160217905550808273ffffffffffffffffffffffffffffffffffffffff168473ffffffffffffffffffffffffffffffffffffffff167fddf252ad1be2c89b69c2b068fc378daa952ba7f163c4a11628f55a4df523b3ef60405160405180910390a4612c5c838383613da4565b505050565b6001816000016000828254019250508190555050565b600081600001549050919050565b612c9f828260405180602001604052806000815250613da9565b5050565b612cac82613d33565b612ceb576040517f08c379a0000000000000000000000000000000000000000000000000000000008152600401612ce29061524f565b60405180910390fd5b80600660008481526020019081526020016000209080519060200190612d12929190614345565b505050565b6040518060c001604052808381526020013073ffffffffffffffffffffffffffffffffffffffff1681526020013373ffffffffffffffffffffffffffffffffffffffff16815260200142815260200182815260200160011515815250601060008481526020019081526020016000206000820151816000015560208201518160010160006101000a81548173ffffffffffffffffffffffffffffffffffffffff021916908373ffffffffffffffffffffffffffffffffffffffff16021790555060408201518160020160006101000a81548173ffffffffffffffffffffffffffffffffffffffff021916908373ffffffffffffffffffffffffffffffffffffffff160217905550606082015181600301556080820151816004019080519060200190612e44929190614345565b5060a08201518160050160006101000a81548160ff021916908315150217905550905050600d829080600181540180825580915050600190039060005260206000200160009091909190915055612e9c3330846129fa565b817ff63608bc214485c327c9ccb458a3a603b17cf2420723a12e045f40a450f5844a303342856001604051612ed595949392919061502d565b60405180910390a25050565b6000601060008381526020019081526020016000206004018054612f049061570d565b80601f0160208091040260200160405190810160405280929190818152602001828054612f309061570d565b8015612f7d5780601f10612f5257610100808354040283529160200191612f7d565b820191906000526020600020905b815481529060010190602001808311612f6057829003601f168201915b50505050509050604051602001612f9390614fb1565b6040516020818303038152906040528051906020012081604051602001612fba9190614f35565b60405160208183030381529060405280519060200120141561334d576000600b60009054906101000a900473ffffffffffffffffffffffffffffffffffffffff1673ffffffffffffffffffffffffffffffffffffffff166319d5880c84600c6040518363ffffffff1660e01b81526004016130369291906153b2565b60206040518083038186803b15801561304e57600080fd5b505afa158015613062573d6000803e3d6000fd5b505050506040513d601f19601f820116820180604052508101906130869190614756565b9050600160405160200161309a9190614f1a565b60405160208183030381529060405280519060200120816040516020016130c19190614f1a565b604051602081830303815290604052805190602001201415613118576040517f08c379a000000000000000000000000000000000000000000000000000000000815260040161310f9061518f565b60405180910390fd5b600c8390806001815401808255809150506001900390600052602060002001600090919091909150556000600b60009054906101000a900473ffffffffffffffffffffffffffffffffffffffff1673ffffffffffffffffffffffffffffffffffffffff166321772a4485600d6040518363ffffffff1660e01b81526004016131a19291906153b2565b60206040518083038186803b1580156131b957600080fd5b505afa1580156131cd573d6000803e3d6000fd5b505050506040513d601f19601f820116820180604052508101906131f1919061483b565b90506000600b60009054906101000a900473ffffffffffffffffffffffffffffffffffffffff1673ffffffffffffffffffffffffffffffffffffffff1663d25a84eb86600e6040518363ffffffff1660e01b81526004016132539291906153b2565b60206040518083038186803b15801561326b57600080fd5b505afa15801561327f573d6000803e3d6000fd5b505050506040513d601f19601f820116820180604052508101906132a3919061483b565b90508482141580156132b55750848114155b156132cd576132c382611cfd565b6132cc81610e65565b5b8482146132e2576132dd82611cfd565b613345565b8481146132f7576132f281610e65565b613344565b6040518060400160405280600981526020017f6e6f7420666f756e640000000000000000000000000000000000000000000000815250600f9080519060200190613342929190614345565b505b5b505050613ae7565b60405160200161335c90614f9c565b60405160208183030381529060405280519060200120816040516020016133839190614f35565b60405160208183030381529060405280519060200120141561371b576000600b60009054906101000a900473ffffffffffffffffffffffffffffffffffffffff1673ffffffffffffffffffffffffffffffffffffffff166332a5d17084600d6040518363ffffffff1660e01b81526004016133ff9291906153b2565b60206040518083038186803b15801561341757600080fd5b505afa15801561342b573d6000803e3d6000fd5b505050506040513d601f19601f8201168201806040525081019061344f9190614756565b905060016040516020016134639190614f1a565b604051602081830303815290604052805190602001208160405160200161348a9190614f1a565b6040516020818303038152906040528051906020012014156134e1576040517f08c379a00000000000000000000000000000000000000000000000000000000081526004016134d8906151af565b60405180910390fd5b600d8390806001815401808255809150506001900390600052602060002001600090919091909150556000600b60009054906101000a900473ffffffffffffffffffffffffffffffffffffffff1673ffffffffffffffffffffffffffffffffffffffff1663d25a84eb85600c6040518363ffffffff1660e01b815260040161356a9291906153b2565b60206040518083038186803b15801561358257600080fd5b505afa158015613596573d6000803e3d6000fd5b505050506040513d601f19601f820116820180604052508101906135ba919061483b565b90506000600b60009054906101000a900473ffffffffffffffffffffffffffffffffffffffff1673ffffffffffffffffffffffffffffffffffffffff1663a28a348086600e6040518363ffffffff1660e01b815260040161361c9291906153b2565b60206040518083038186803b15801561363457600080fd5b505afa158015613648573d6000803e3d6000fd5b505050506040513d601f19601f8201168201806040525081019061366c919061483b565b905084821415801561367e5750848114155b1561369a5761368c826124ae565b61369581610e65565b613713565b8482146136af576136aa826124ae565b613712565b8481146136c4576136bf81610e65565b613711565b6040518060400160405280600981526020017f6e6f7420666f756e640000000000000000000000000000000000000000000000815250600f908051906020019061370f929190614345565b505b5b5b505050613ae6565b60405160200161372a90614f87565b60405160208183030381529060405280519060200120816040516020016137519190614f35565b604051602081830303815290604052805190602001201415613ae5576000600b60009054906101000a900473ffffffffffffffffffffffffffffffffffffffff1673ffffffffffffffffffffffffffffffffffffffff16637ef1cd4b84600e6040518363ffffffff1660e01b81526004016137cd9291906153b2565b60206040518083038186803b1580156137e557600080fd5b505afa1580156137f9573d6000803e3d6000fd5b505050506040513d601f19601f8201168201806040525081019061381d9190614756565b905060016040516020016138319190614f1a565b60405160208183030381529060405280519060200120816040516020016138589190614f1a565b6040516020818303038152906040528051906020012014156138af576040517f08c379a00000000000000000000000000000000000000000000000000000000081526004016138a69061522f565b60405180910390fd5b600e8390806001815401808255809150506001900390600052602060002001600090919091909150556000600b60009054906101000a900473ffffffffffffffffffffffffffffffffffffffff1673ffffffffffffffffffffffffffffffffffffffff1663d25a84eb85600c6040518363ffffffff1660e01b81526004016139389291906153b2565b60206040518083038186803b15801561395057600080fd5b505afa158015613964573d6000803e3d6000fd5b505050506040513d601f19601f82011682018060405250810190613988919061483b565b90506000600b60009054906101000a900473ffffffffffffffffffffffffffffffffffffffff1673ffffffffffffffffffffffffffffffffffffffff166321772a4486600d6040518363ffffffff1660e01b81526004016139ea9291906153b2565b60206040518083038186803b158015613a0257600080fd5b505afa158015613a16573d6000803e3d6000fd5b505050506040513d601f19601f82011682018060405250810190613a3a919061483b565b9050848214158015613a4c5750848114155b15613a6857613a5a826124ae565b613a6381611cfd565b613ae1565b848214613a7d57613a78826124ae565b613ae0565b848114613a9257613a8d81611cfd565b613adf565b6040518060400160405280600981526020017f6e6f7420666f756e640000000000000000000000000000000000000000000000815250600f9080519060200190613add929190614345565b505b5b5b5050505b5b5b5050565b8173ffffffffffffffffffffffffffffffffffffffff168373ffffffffffffffffffffffffffffffffffffffff161415613b5a576040517f08c379a0000000000000000000000000000000000000000000000000000000008152600401613b51906151ef565b60405180910390fd5b80600560008573ffffffffffffffffffffffffffffffffffffffff1673ffffffffffffffffffffffffffffffffffffffff16815260200190815260200160002060008473ffffffffffffffffffffffffffffffffffffffff1673ffffffffffffffffffffffffffffffffffffffff16815260200190815260200160002060006101000a81548160ff0219169083151502179055508173ffffffffffffffffffffffffffffffffffffffff168373ffffffffffffffffffffffffffffffffffffffff167f17307eab39ab6107e8899845ad3d59bd9653f200f220920489ca2b5937696c3183604051613c4b91906150d2565b60405180910390a3505050565b613c638484846129fa565b613c6f84848484613e04565b613cae576040517f08c379a0000000000000000000000000000000000000000000000000000000008152600401613ca59061510f565b60405180910390fd5b50505050565b606060405180602001604052806000815250905090565b6060613cd682612859565b6000613ce0613cb4565b90506000815111613d005760405180602001604052806000815250613d2b565b80613d0a84613f9b565b604051602001613d1b929190614f4c565b6040516020818303038152906040525b915050919050565b60008073ffffffffffffffffffffffffffffffffffffffff166002600084815260200190815260200160002060009054906101000a900473ffffffffffffffffffffffffffffffffffffffff1673ffffffffffffffffffffffffffffffffffffffff1614159050919050565b505050565b505050565b613db38383614148565b613dc06000848484613e04565b613dff576040517f08c379a0000000000000000000000000000000000000000000000000000000008152600401613df69061510f565b60405180910390fd5b505050565b6000613e258473ffffffffffffffffffffffffffffffffffffffff16614322565b15613f8e578373ffffffffffffffffffffffffffffffffffffffff1663150b7a02613e4e6128a4565b8786866040518563ffffffff1660e01b8152600401613e709493929190614fe1565b602060405180830381600087803b158015613e8a57600080fd5b505af1925050508015613ebb57506040513d601f19601f82011682018060405250810190613eb891906147a8565b60015b613f3e573d8060008114613eeb576040519150601f19603f3d011682016040523d82523d6000602084013e613ef0565b606091505b50600081511415613f36576040517f08c379a0000000000000000000000000000000000000000000000000000000008152600401613f2d9061510f565b60405180910390fd5b805181602001fd5b63150b7a0260e01b7bffffffffffffffffffffffffffffffffffffffffffffffffffffffff1916817bffffffffffffffffffffffffffffffffffffffffffffffffffffffff191614915050613f93565b600190505b949350505050565b60606000821415613fe3576040518060400160405280600181526020017f30000000000000000000000000000000000000000000000000000000000000008152509050614143565b600082905060005b60008214614015578080613ffe9061578a565b915050600a8261400e91906155d6565b9150613feb565b60008167ffffffffffffffff811115614057577f4e487b7100000000000000000000000000000000000000000000000000000000600052604160045260246000fd5b6040519080825280601f01601f1916602001820160405280156140895781602001600182028036833780820191505090505b5090505b6000851461413c576001826140a29190615607565b9150600a856140b191906157f7565b60306140bd9190615580565b60f81b8183815181106140f9577f4e487b7100000000000000000000000000000000000000000000000000000000600052603260045260246000fd5b60200101907effffffffffffffffffffffffffffffffffffffffffffffffffffffffffffff1916908160001a905350600a8561413591906155d6565b945061408d565b8093505050505b919050565b600073ffffffffffffffffffffffffffffffffffffffff168273ffffffffffffffffffffffffffffffffffffffff1614156141b8576040517f08c379a00000000000000000000000000000000000000000000000000000000081526004016141af9061528f565b60405180910390fd5b6141c181613d33565b15614201576040517f08c379a00000000000000000000000000000000000000000000000000000000081526004016141f89061514f565b60405180910390fd5b61420d60008383613d9f565b6001600360008473ffffffffffffffffffffffffffffffffffffffff1673ffffffffffffffffffffffffffffffffffffffff168152602001908152602001600020600082825461425d9190615580565b92505081905550816002600083815260200190815260200160002060006101000a81548173ffffffffffffffffffffffffffffffffffffffff021916908373ffffffffffffffffffffffffffffffffffffffff160217905550808273ffffffffffffffffffffffffffffffffffffffff16600073ffffffffffffffffffffffffffffffffffffffff167fddf252ad1be2c89b69c2b068fc378daa952ba7f163c4a11628f55a4df523b3ef60405160405180910390a461431e60008383613da4565b5050565b6000808273ffffffffffffffffffffffffffffffffffffffff163b119050919050565b8280546143519061570d565b90600052602060002090601f01602090048101928261437357600085556143ba565b82601f1061438c57805160ff19168380011785556143ba565b828001600101855582156143ba579182015b828111156143b957825182559160200191906001019061439e565b5b5090506143c7919061442f565b5090565b6040518060c0016040528060008152602001600073ffffffffffffffffffffffffffffffffffffffff168152602001600073ffffffffffffffffffffffffffffffffffffffff16815260200160008152602001606081526020016000151581525090565b5b80821115614448576000816000905550600101614430565b5090565b600061445f61445a8461543e565b615419565b90508281526020810184848401111561447757600080fd5b6144828482856156cb565b509392505050565b600061449d6144988461546f565b615419565b9050828152602081018484840111156144b557600080fd5b6144c08482856156cb565b509392505050565b6000813590506144d781615dac565b92915050565b6000813590506144ec81615dc3565b92915050565b60008151905061450181615dc3565b92915050565b60008135905061451681615dda565b92915050565b60008151905061452b81615dda565b92915050565b600082601f83011261454257600080fd5b813561455284826020860161444c565b91505092915050565b600082601f83011261456c57600080fd5b813561457c84826020860161448a565b91505092915050565b60008135905061459481615df1565b92915050565b6000815190506145a981615df1565b92915050565b6000602082840312156145c157600080fd5b60006145cf848285016144c8565b91505092915050565b600080604083850312156145eb57600080fd5b60006145f9858286016144c8565b925050602061460a858286016144c8565b9150509250929050565b60008060006060848603121561462957600080fd5b6000614637868287016144c8565b9350506020614648868287016144c8565b925050604061465986828701614585565b9150509250925092565b6000806000806080858703121561467957600080fd5b6000614687878288016144c8565b9450506020614698878288016144c8565b93505060406146a987828801614585565b925050606085013567ffffffffffffffff8111156146c657600080fd5b6146d287828801614531565b91505092959194509250565b600080604083850312156146f157600080fd5b60006146ff858286016144c8565b9250506020614710858286016144dd565b9150509250929050565b6000806040838503121561472d57600080fd5b600061473b858286016144c8565b925050602061474c85828601614585565b9150509250929050565b60006020828403121561476857600080fd5b6000614776848285016144f2565b91505092915050565b60006020828403121561479157600080fd5b600061479f84828501614507565b91505092915050565b6000602082840312156147ba57600080fd5b60006147c88482850161451c565b91505092915050565b6000602082840312156147e357600080fd5b600082013567ffffffffffffffff8111156147fd57600080fd5b6148098482850161455b565b91505092915050565b60006020828403121561482457600080fd5b600061483284828501614585565b91505092915050565b60006020828403121561484d57600080fd5b600061485b8482850161459a565b91505092915050565b6000806040838503121561487757600080fd5b600061488585828601614585565b9250506020614896858286016144c8565b9150509250929050565b600080604083850312156148b357600080fd5b60006148c185828601614585565b925050602083013567ffffffffffffffff8111156148de57600080fd5b6148ea8582860161455b565b9150509250929050565b60006149008383614e73565b905092915050565b60006149148383614efc565b60208301905092915050565b61492981615657565b82525050565b61493881615657565b82525050565b61494781615645565b82525050565b6000614958826154da565b6149628185615520565b935083602082028501614974856154a0565b8060005b858110156149b0578484038952815161499185826148f4565b945061499c83615506565b925060208a01995050600181019050614978565b50829750879550505050505092915050565b60006149cd826154e5565b6149d78185615531565b93506149e2836154b0565b8060005b83811015614a1a576149f7826158e4565b614a018882614908565b9750614a0c83615513565b9250506001810190506149e6565b5085935050505092915050565b614a3081615669565b82525050565b614a3f81615669565b82525050565b614a56614a5182615669565b6157d3565b82525050565b6000614a67826154f0565b614a718185615542565b9350614a818185602086016156da565b614a8a816158f7565b840191505092915050565b6000614aa0826154fb565b614aaa8185615553565b9350614aba8185602086016156da565b614ac3816158f7565b840191505092915050565b6000614ad9826154fb565b614ae38185615564565b9350614af38185602086016156da565b614afc816158f7565b840191505092915050565b6000614b12826154fb565b614b1c8185615575565b9350614b2c8185602086016156da565b80840191505092915050565b60008154614b458161570d565b614b4f8186615575565b94506001821660008114614b6a5760018114614b7b57614bae565b60ff19831686528186019350614bae565b614b84856154c5565b60005b83811015614ba657815481890152600182019150602081019050614b87565b838801955050505b50505092915050565b6000614bc4600883615575565b9150614bcf82615922565b600882019050919050565b6000614be7603283615564565b9150614bf28261594b565b604082019050919050565b6000614c0a602583615564565b9150614c158261599a565b604082019050919050565b6000614c2d601c83615564565b9150614c38826159e9565b602082019050919050565b6000614c50602b83615564565b9150614c5b82615a12565b604082019050919050565b6000614c73601883615564565b9150614c7e82615a61565b602082019050919050565b6000614c96601783615564565b9150614ca182615a8a565b602082019050919050565b6000614cb9602483615564565b9150614cc482615ab3565b604082019050919050565b6000614cdc601983615564565b9150614ce782615b02565b602082019050919050565b6000614cff600783615575565b9150614d0a82615b2b565b600782019050919050565b6000614d22602983615564565b9150614d2d82615b54565b604082019050919050565b6000614d45601883615564565b9150614d5082615ba3565b602082019050919050565b6000614d68600883615575565b9150614d7382615bcc565b600882019050919050565b6000614d8b602e83615564565b9150614d9682615bf5565b604082019050919050565b6000614dae603e83615564565b9150614db982615c44565b604082019050919050565b6000614dd1602083615564565b9150614ddc82615c93565b602082019050919050565b6000614df4601283615564565b9150614dff82615cbc565b602082019050919050565b6000614e17601883615564565b9150614e2282615ce5565b602082019050919050565b6000614e3a602183615564565b9150614e4582615d0e565b604082019050919050565b6000614e5d602e83615564565b9150614e6882615d5d565b604082019050919050565b600060c083016000830151614e8b6000860182614efc565b506020830151614e9e6020860182614920565b506040830151614eb16040860182614920565b506060830151614ec46060860182614efc565b5060808301518482036080860152614edc8282614a95565b91505060a0830151614ef160a0860182614a27565b508091505092915050565b614f05816156c1565b82525050565b614f14816156c1565b82525050565b6000614f268284614a45565b60018201915081905092915050565b6000614f418284614b07565b915081905092915050565b6000614f588285614b07565b9150614f648284614b07565b91508190509392505050565b6000614f7c8284614b38565b915081905092915050565b6000614f9282614bb7565b9150819050919050565b6000614fa782614cf2565b9150819050919050565b6000614fbc82614d5b565b9150819050919050565b6000602082019050614fdb600083018461493e565b92915050565b6000608082019050614ff6600083018761493e565b615003602083018661493e565b6150106040830185614f0b565b81810360608301526150228184614a5c565b905095945050505050565b600060a082019050615042600083018861493e565b61504f602083018761493e565b61505c6040830186614f0b565b818103606083015261506e8185614ace565b905061507d6080830184614a36565b9695505050505050565b600060408201905061509c600083018561493e565b6150a96020830184614f0b565b9392505050565b600060208201905081810360008301526150ca818461494d565b905092915050565b60006020820190506150e76000830184614a36565b92915050565b600060208201905081810360008301526151078184614ace565b905092915050565b6000602082019050818103600083015261512881614bda565b9050919050565b6000602082019050818103600083015261514881614bfd565b9050919050565b6000602082019050818103600083015261516881614c20565b9050919050565b6000602082019050818103600083015261518881614c43565b9050919050565b600060208201905081810360008301526151a881614c66565b9050919050565b600060208201905081810360008301526151c881614c89565b9050919050565b600060208201905081810360008301526151e881614cac565b9050919050565b6000602082019050818103600083015261520881614ccf565b9050919050565b6000602082019050818103600083015261522881614d15565b9050919050565b6000602082019050818103600083015261524881614d38565b9050919050565b6000602082019050818103600083015261526881614d7e565b9050919050565b6000602082019050818103600083015261528881614da1565b9050919050565b600060208201905081810360008301526152a881614dc4565b9050919050565b600060208201905081810360008301526152c881614de7565b9050919050565b600060208201905081810360008301526152e881614e0a565b9050919050565b6000602082019050818103600083015261530881614e2d565b9050919050565b6000602082019050818103600083015261532881614e50565b9050919050565b60006020820190506153446000830184614f0b565b92915050565b600060c08201905061535f6000830189614f0b565b61536c602083018861492f565b615379604083018761492f565b6153866060830186614f0b565b81810360808301526153988185614ace565b90506153a760a0830184614a36565b979650505050505050565b60006040820190506153c76000830185614f0b565b81810360208301526153d981846149c2565b90509392505050565b60006060820190506153f76000830186614f0b565b6154046020830185614f0b565b6154116040830184614f0b565b949350505050565b6000615423615434565b905061542f8282615759565b919050565b6000604051905090565b600067ffffffffffffffff821115615459576154586158b5565b5b615462826158f7565b9050602081019050919050565b600067ffffffffffffffff82111561548a576154896158b5565b5b615493826158f7565b9050602081019050919050565b6000819050602082019050919050565b60008190508160005260206000209050919050565b60008190508160005260206000209050919050565b600081519050919050565b600081549050919050565b600081519050919050565b600081519050919050565b6000602082019050919050565b6000600182019050919050565b600082825260208201905092915050565b600082825260208201905092915050565b600082825260208201905092915050565b600082825260208201905092915050565b600082825260208201905092915050565b600081905092915050565b600061558b826156c1565b9150615596836156c1565b9250827fffffffffffffffffffffffffffffffffffffffffffffffffffffffffffffffff038211156155cb576155ca615828565b5b828201905092915050565b60006155e1826156c1565b91506155ec836156c1565b9250826155fc576155fb615857565b5b828204905092915050565b6000615612826156c1565b915061561d836156c1565b9250828210156156305761562f615828565b5b828203905092915050565b6000819050919050565b6000615650826156a1565b9050919050565b6000615662826156a1565b9050919050565b60008115159050919050565b60007fffffffff0000000000000000000000000000000000000000000000000000000082169050919050565b600073ffffffffffffffffffffffffffffffffffffffff82169050919050565b6000819050919050565b82818337600083830152505050565b60005b838110156156f85780820151818401526020810190506156dd565b83811115615707576000848401525b50505050565b6000600282049050600182168061572557607f821691505b6020821081141561573957615738615886565b5b50919050565b600061575261574d83615915565b61563b565b9050919050565b615762826158f7565b810181811067ffffffffffffffff82111715615781576157806158b5565b5b80604052505050565b6000615795826156c1565b91507fffffffffffffffffffffffffffffffffffffffffffffffffffffffffffffffff8214156157c8576157c7615828565b5b600182019050919050565b60006157de826157e5565b9050919050565b60006157f082615908565b9050919050565b6000615802826156c1565b915061580d836156c1565b92508261581d5761581c615857565b5b828206905092915050565b7f4e487b7100000000000000000000000000000000000000000000000000000000600052601160045260246000fd5b7f4e487b7100000000000000000000000000000000000000000000000000000000600052601260045260246000fd5b7f4e487b7100000000000000000000000000000000000000000000000000000000600052602260045260246000fd5b7f4e487b7100000000000000000000000000000000000000000000000000000000600052604160045260246000fd5b60006158f0825461573f565b9050919050565b6000601f19601f8301169050919050565b60008160f81b9050919050565b60008160001c9050919050565b7f52656a6563746564000000000000000000000000000000000000000000000000600082015250565b7f4552433732313a207472616e7366657220746f206e6f6e20455243373231526560008201527f63656976657220696d706c656d656e7465720000000000000000000000000000602082015250565b7f4552433732313a207472616e736665722066726f6d20696e636f72726563742060008201527f6f776e6572000000000000000000000000000000000000000000000000000000602082015250565b7f4552433732313a20746f6b656e20616c7265616479206d696e74656400000000600082015250565b7f4e667420746f6b656e2068617320746f20626520617070726f76656420746f2060008201527f6d616b652061206269642e000000000000000000000000000000000000000000602082015250565b7f4164647265737320616c72656164792061636365707465640000000000000000600082015250565b7f4164647265737320616c72656164792070656e64696e67000000000000000000600082015250565b7f4552433732313a207472616e7366657220746f20746865207a65726f2061646460008201527f7265737300000000000000000000000000000000000000000000000000000000602082015250565b7f4552433732313a20617070726f766520746f2063616c6c657200000000000000600082015250565b7f50656e64696e6700000000000000000000000000000000000000000000000000600082015250565b7f4552433732313a2061646472657373207a65726f206973206e6f74206120766160008201527f6c6964206f776e65720000000000000000000000000000000000000000000000602082015250565b7f4164647265737320616c72656164792072656a65637465640000000000000000600082015250565b7f4163636570746564000000000000000000000000000000000000000000000000600082015250565b7f45524337323155524953746f726167653a2055524920736574206f66206e6f6e60008201527f6578697374656e7420746f6b656e000000000000000000000000000000000000602082015250565b7f4552433732313a20617070726f76652063616c6c6572206973206e6f7420746f60008201527f6b656e206f776e6572206e6f7220617070726f76656420666f7220616c6c0000602082015250565b7f4552433732313a206d696e7420746f20746865207a65726f2061646472657373600082015250565b7f696e646578206f7574206f6620626f756e640000000000000000000000000000600082015250565b7f4552433732313a20696e76616c696420746f6b656e2049440000000000000000600082015250565b7f4552433732313a20617070726f76616c20746f2063757272656e74206f776e6560008201527f7200000000000000000000000000000000000000000000000000000000000000602082015250565b7f4552433732313a2063616c6c6572206973206e6f7420746f6b656e206f776e6560008201527f72206e6f7220617070726f766564000000000000000000000000000000000000602082015250565b615db581615645565b8114615dc057600080fd5b50565b615dcc81615669565b8114615dd757600080fd5b50565b615de381615675565b8114615dee57600080fd5b50565b615dfa816156c1565b8114615e0557600080fd5b5056fea264697066735822122024b78d57ecb58ba58e255adeac3eecc4c79b223f6fe8afea57bb1caa8097dc4d64736f6c63430008010033608060405234801561001057600080fd5b50611077806100206000396000f3fe608060405234801561001057600080fd5b50600436106100885760003560e01c80637ef1cd4b1161005b5780637ef1cd4b1461014d578063a28a34801461017d578063d25a84eb146101ad578063fc966d45146101dd57610088565b806319d5880c1461008d57806321772a44146100bd57806332a5d170146100ed57806379cd90551461011d575b600080fd5b6100a760048036038101906100a29190610a19565b61020d565b6040516100b49190610af6565b60405180910390f35b6100d760048036038101906100d29190610a19565b6102db565b6040516100e49190610b33565b60405180910390f35b61010760048036038101906101029190610a19565b61035b565b6040516101149190610af6565b60405180910390f35b610137600480360381019061013291906109af565b610429565b6040516101449190610b33565b60405180910390f35b61016760048036038101906101629190610a19565b610509565b6040516101749190610af6565b60405180910390f35b61019760048036038101906101929190610a19565b6105d7565b6040516101a49190610b33565b60405180910390f35b6101c760048036038101906101c29190610a19565b610657565b6040516101d49190610b33565b60405180910390f35b6101f760048036038101906101f291906109f0565b6106d7565b6040516102049190610b11565b60405180910390f35b600080600190505b82518110156102cf578360405160200161022f9190610adb565b6040516020818303038152906040528051906020012083828151811061027e577f4e487b7100000000000000000000000000000000000000000000000000000000600052603260045260246000fd5b60200260200101516040516020016102969190610adb565b6040516020818303038152906040528051906020012014156102bc5760019150506102d5565b80806102c790610efb565b915050610215565b50600090505b92915050565b600080600090505b82518110156103505783838281518110610326577f4e487b7100000000000000000000000000000000000000000000000000000000600052603260045260246000fd5b6020026020010151141561033d5780915050610355565b808061034890610efb565b9150506102e3565b508290505b92915050565b600080600190505b825181101561041d578360405160200161037d9190610adb565b604051602081830303815290604052805190602001208382815181106103cc577f4e487b7100000000000000000000000000000000000000000000000000000000600052603260045260246000fd5b60200260200101516040516020016103e49190610adb565b60405160208183030381529060405280519060200120141561040a576001915050610423565b808061041590610efb565b915050610363565b50600090505b92915050565b60008060009050600083905060005b81518110156104fe5760008183516104509190610e3e565b9050600083838151811061048d577f4e487b7100000000000000000000000000000000000000000000000000000000600052603260045260246000fd5b602001015160f81c60f81b905060008160f81c9050600060308260ff166104b49190610e3e565b90506001846104c39190610e3e565b600a6104cf9190610cc6565b816104da9190610de4565b876104e59190610bec565b96505050505080806104f690610efb565b915050610438565b508192505050919050565b600080600190505b82518110156105cb578360405160200161052b9190610adb565b6040516020818303038152906040528051906020012083828151811061057a577f4e487b7100000000000000000000000000000000000000000000000000000000600052603260045260246000fd5b60200260200101516040516020016105929190610adb565b6040516020818303038152906040528051906020012014156105b85760019150506105d1565b80806105c390610efb565b915050610511565b50600090505b92915050565b600080600090505b825181101561064c5783838281518110610622577f4e487b7100000000000000000000000000000000000000000000000000000000600052603260045260246000fd5b602002602001015114156106395780915050610651565b808061064490610efb565b9150506105df565b508290505b92915050565b600080600090505b82518110156106cc57838382815181106106a2577f4e487b7100000000000000000000000000000000000000000000000000000000600052603260045260246000fd5b602002602001015114156106b957809150506106d1565b80806106c490610efb565b91505061065f565b508290505b92915050565b606060006106e4836106ef565b905080915050919050565b60606000821415610737576040518060400160405280600181526020017f30000000000000000000000000000000000000000000000000000000000000008152509050610897565b600082905060005b6000821461076957808061075290610efb565b915050600a826107629190610c42565b915061073f565b60008167ffffffffffffffff8111156107ab577f4e487b7100000000000000000000000000000000000000000000000000000000600052604160045260246000fd5b6040519080825280601f01601f1916602001820160405280156107dd5781602001600182028036833780820191505090505b5090505b60008514610890576001826107f69190610e3e565b9150600a856108059190610f4e565b60306108119190610bec565b60f81b81838151811061084d577f4e487b7100000000000000000000000000000000000000000000000000000000600052603260045260246000fd5b60200101907effffffffffffffffffffffffffffffffffffffffffffffffffffffffffffff1916908160001a905350600a856108899190610c42565b94506107e1565b8093505050505b919050565b60006108af6108aa84610b73565b610b4e565b905080838252602082019050828560208602820111156108ce57600080fd5b60005b858110156108fe57816108e4888261099a565b8452602084019350602083019250506001810190506108d1565b5050509392505050565b600061091b61091684610b9f565b610b4e565b90508281526020810184848401111561093357600080fd5b61093e848285610e88565b509392505050565b600082601f83011261095757600080fd5b813561096784826020860161089c565b91505092915050565b600082601f83011261098157600080fd5b8135610991848260208601610908565b91505092915050565b6000813590506109a98161102a565b92915050565b6000602082840312156109c157600080fd5b600082013567ffffffffffffffff8111156109db57600080fd5b6109e784828501610970565b91505092915050565b600060208284031215610a0257600080fd5b6000610a108482850161099a565b91505092915050565b60008060408385031215610a2c57600080fd5b6000610a3a8582860161099a565b925050602083013567ffffffffffffffff811115610a5757600080fd5b610a6385828601610946565b9150509250929050565b610a7681610e72565b82525050565b6000610a8782610bd0565b610a918185610bdb565b9350610aa1818560208601610e97565b610aaa8161100c565b840191505092915050565b610abe81610e7e565b82525050565b610ad5610ad082610e7e565b610f44565b82525050565b6000610ae78284610ac4565b60208201915081905092915050565b6000602082019050610b0b6000830184610a6d565b92915050565b60006020820190508181036000830152610b2b8184610a7c565b905092915050565b6000602082019050610b486000830184610ab5565b92915050565b6000610b58610b69565b9050610b648282610eca565b919050565b6000604051905090565b600067ffffffffffffffff821115610b8e57610b8d610fdd565b5b602082029050602081019050919050565b600067ffffffffffffffff821115610bba57610bb9610fdd565b5b610bc38261100c565b9050602081019050919050565b600081519050919050565b600082825260208201905092915050565b6000610bf782610e7e565b9150610c0283610e7e565b9250827fffffffffffffffffffffffffffffffffffffffffffffffffffffffffffffffff03821115610c3757610c36610f7f565b5b828201905092915050565b6000610c4d82610e7e565b9150610c5883610e7e565b925082610c6857610c67610fae565b5b828204905092915050565b6000808291508390505b6001851115610cbd57808604811115610c9957610c98610f7f565b5b6001851615610ca85780820291505b8081029050610cb68561101d565b9450610c7d565b94509492505050565b6000610cd182610e7e565b9150610cdc83610e7e565b9250610d097fffffffffffffffffffffffffffffffffffffffffffffffffffffffffffffffff8484610d11565b905092915050565b600082610d215760019050610ddd565b81610d2f5760009050610ddd565b8160018114610d455760028114610d4f57610d7e565b6001915050610ddd565b60ff841115610d6157610d60610f7f565b5b8360020a915084821115610d7857610d77610f7f565b5b50610ddd565b5060208310610133831016604e8410600b8410161715610db35782820a905083811115610dae57610dad610f7f565b5b610ddd565b610dc08484846001610c73565b92509050818404811115610dd757610dd6610f7f565b5b81810290505b9392505050565b6000610def82610e7e565b9150610dfa83610e7e565b9250817fffffffffffffffffffffffffffffffffffffffffffffffffffffffffffffffff0483118215151615610e3357610e32610f7f565b5b828202905092915050565b6000610e4982610e7e565b9150610e5483610e7e565b925082821015610e6757610e66610f7f565b5b828203905092915050565b60008115159050919050565b6000819050919050565b82818337600083830152505050565b60005b83811015610eb5578082015181840152602081019050610e9a565b83811115610ec4576000848401525b50505050565b610ed38261100c565b810181811067ffffffffffffffff82111715610ef257610ef1610fdd565b5b80604052505050565b6000610f0682610e7e565b91507fffffffffffffffffffffffffffffffffffffffffffffffffffffffffffffffff821415610f3957610f38610f7f565b5b600182019050919050565b6000819050919050565b6000610f5982610e7e565b9150610f6483610e7e565b925082610f7457610f73610fae565b5b828206905092915050565b7f4e487b7100000000000000000000000000000000000000000000000000000000600052601160045260246000fd5b7f4e487b7100000000000000000000000000000000000000000000000000000000600052601260045260246000fd5b7f4e487b7100000000000000000000000000000000000000000000000000000000600052604160045260246000fd5b6000601f19601f8301169050919050565b60008160011c9050919050565b61103381610e7e565b811461103e57600080fd5b5056fea26469706673582212205942c2f8a71e8acddd94f54d6a92b5997d47a59760d368633ecbc3ef2985ae1064736f6c63430008010033",
  "linkReferences": {},
  "deployedLinkReferences": {}
}