{
  "_format": "hh-sol-artifact-1",
  "contractName": "ContractIp",
  "sourceName": "contracts/ContractIp.sol",
  "abi": [
    {
      "inputs": [],
      "stateMutability": "nonpayable",
      "type": "constructor"
    },
    {
      "anonymous": false,
      "inputs": [
        {
          "indexed": true,
          "internalType": "address",
          "name": "owner",
          "type": "address"
        },
        {
          "indexed": true,
          "internalType": "address",
          "name": "approved",
          "type": "address"
        },
        {
          "indexed": true,
          "internalType": "uint256",
          "name": "tokenId",
          "type": "uint256"
        }
      ],
      "name": "Approval",
      "type": "event"
    },
    {
      "anonymous": false,
      "inputs": [
        {
          "indexed": true,
          "internalType": "address",
          "name": "owner",
          "type": "address"
        },
        {
          "indexed": true,
          "internalType": "address",
          "name": "operator",
          "type": "address"
        },
        {
          "indexed": false,
          "internalType": "bool",
          "name": "approved",
          "type": "bool"
        }
      ],
      "name": "ApprovalForAll",
      "type": "event"
    },
    {
      "anonymous": false,
      "inputs": [
        {
          "indexed": true,
          "internalType": "uint256",
          "name": "tokenId",
          "type": "uint256"
        },
        {
          "indexed": false,
          "internalType": "address",
          "name": "Nftowner",
          "type": "address"
        },
        {
          "indexed": false,
          "internalType": "uint256",
          "name": "timestamp",
          "type": "uint256"
        },
        {
          "indexed": false,
          "internalType": "string",
          "name": "status",
          "type": "string"
        },
        {
          "indexed": false,
          "internalType": "bool",
          "name": "isRegistered",
          "type": "bool"
        }
      ],
      "name": "TokenAcceptedNft",
      "type": "event"
    },
    {
      "anonymous": false,
      "inputs": [
        {
          "indexed": true,
          "internalType": "address",
          "name": "from",
          "type": "address"
        },
        {
          "indexed": true,
          "internalType": "address",
          "name": "to",
          "type": "address"
        },
        {
          "indexed": true,
          "internalType": "uint256",
          "name": "tokenId",
          "type": "uint256"
        }
      ],
      "name": "Transfer",
      "type": "event"
    },
    {
      "inputs": [
        {
          "internalType": "uint256",
          "name": "",
          "type": "uint256"
        }
      ],
      "name": "acceptedIps",
      "outputs": [
        {
          "internalType": "uint256",
          "name": "",
          "type": "uint256"
        }
      ],
      "stateMutability": "view",
      "type": "function"
    },
    {
      "inputs": [
        {
          "internalType": "address",
          "name": "to",
          "type": "address"
        },
        {
          "internalType": "uint256",
          "name": "tokenId",
          "type": "uint256"
        }
      ],
      "name": "approve",
      "outputs": [],
      "stateMutability": "nonpayable",
      "type": "function"
    },
    {
      "inputs": [
        {
          "internalType": "address",
          "name": "owner",
          "type": "address"
        }
      ],
      "name": "balanceOf",
      "outputs": [
        {
          "internalType": "uint256",
          "name": "",
          "type": "uint256"
        }
      ],
      "stateMutability": "view",
      "type": "function"
    },
    {
      "inputs": [
        {
          "internalType": "uint256",
          "name": "tokenId",
          "type": "uint256"
        },
        {
          "internalType": "address",
          "name": "bidderAddress",
          "type": "address"
        }
      ],
      "name": "bidVal",
      "outputs": [
        {
          "internalType": "uint256",
          "name": "",
          "type": "uint256"
        }
      ],
      "stateMutability": "view",
      "type": "function"
    },
    {
      "inputs": [
        {
          "internalType": "uint256",
          "name": "tokenId",
          "type": "uint256"
        },
        {
          "internalType": "string",
          "name": "status",
          "type": "string"
        }
      ],
      "name": "changeStatus",
      "outputs": [
        {
          "internalType": "bool",
          "name": "",
          "type": "bool"
        }
      ],
      "stateMutability": "nonpayable",
      "type": "function"
    },
    {
      "inputs": [
        {
          "internalType": "address",
          "name": "bidderAddress",
          "type": "address"
        }
      ],
      "name": "check",
      "outputs": [
        {
          "internalType": "bool",
          "name": "",
          "type": "bool"
        }
      ],
      "stateMutability": "view",
      "type": "function"
    },
    {
      "inputs": [],
      "name": "commissionPrice",
      "outputs": [
        {
          "internalType": "uint256",
          "name": "",
          "type": "uint256"
        }
      ],
      "stateMutability": "view",
      "type": "function"
    },
    {
      "inputs": [],
      "name": "countAcceptedIPs",
      "outputs": [
        {
          "internalType": "uint256",
          "name": "",
          "type": "uint256"
        }
      ],
      "stateMutability": "view",
      "type": "function"
    },
    {
      "inputs": [],
      "name": "countPendingIPs",
      "outputs": [
        {
          "internalType": "uint256",
          "name": "",
          "type": "uint256"
        }
      ],
      "stateMutability": "view",
      "type": "function"
    },
    {
      "inputs": [],
      "name": "countRejectedIPs",
      "outputs": [
        {
          "internalType": "uint256",
          "name": "",
          "type": "uint256"
        }
      ],
      "stateMutability": "view",
      "type": "function"
    },
    {
      "inputs": [
        {
          "internalType": "string",
          "name": "tokenURI",
          "type": "string"
        }
      ],
      "name": "createToken",
      "outputs": [
        {
          "internalType": "uint256",
          "name": "",
          "type": "uint256"
        }
      ],
      "stateMutability": "payable",
      "type": "function"
    },
    {
      "inputs": [
        {
          "internalType": "uint256",
          "name": "tokenId",
          "type": "uint256"
        },
        {
          "internalType": "address",
          "name": "bidderAddress",
          "type": "address"
        }
      ],
      "name": "executeSale",
      "outputs": [],
      "stateMutability": "payable",
      "type": "function"
    },
    {
      "inputs": [],
      "name": "getAllNFTs",
      "outputs": [
        {
          "components": [
            {
              "internalType": "uint256",
              "name": "tokenId",
              "type": "uint256"
            },
            {
              "internalType": "address payable",
              "name": "Nftowner",
              "type": "address"
            },
            {
              "internalType": "uint256",
              "name": "timestamp",
              "type": "uint256"
            },
            {
              "internalType": "string",
              "name": "status",
              "type": "string"
            },
            {
              "internalType": "bool",
              "name": "isRegistered",
              "type": "bool"
            }
          ],
          "internalType": "struct ContractIp.RequestedNfts[]",
          "name": "",
          "type": "tuple[]"
        }
      ],
      "stateMutability": "view",
      "type": "function"
    },
    {
      "inputs": [
        {
          "internalType": "uint256",
          "name": "tokenId",
          "type": "uint256"
        }
      ],
      "name": "getApproved",
      "outputs": [
        {
          "internalType": "address",
          "name": "",
          "type": "address"
        }
      ],
      "stateMutability": "view",
      "type": "function"
    },
    {
      "inputs": [],
      "name": "getMyNFTs",
      "outputs": [
        {
          "components": [
            {
              "internalType": "uint256",
              "name": "tokenId",
              "type": "uint256"
            },
            {
              "internalType": "address payable",
              "name": "Nftowner",
              "type": "address"
            },
            {
              "internalType": "uint256",
              "name": "timestamp",
              "type": "uint256"
            },
            {
              "internalType": "string",
              "name": "status",
              "type": "string"
            },
            {
              "internalType": "bool",
              "name": "isRegistered",
              "type": "bool"
            }
          ],
          "internalType": "struct ContractIp.RequestedNfts[]",
          "name": "",
          "type": "tuple[]"
        }
      ],
      "stateMutability": "view",
      "type": "function"
    },
    {
      "inputs": [
        {
          "internalType": "uint256",
          "name": "",
          "type": "uint256"
        }
      ],
      "name": "idToListedToken",
      "outputs": [
        {
          "internalType": "uint256",
          "name": "tokenId",
          "type": "uint256"
        },
        {
          "internalType": "address payable",
          "name": "Nftowner",
          "type": "address"
        },
        {
          "internalType": "uint256",
          "name": "timestamp",
          "type": "uint256"
        },
        {
          "internalType": "string",
          "name": "status",
          "type": "string"
        },
        {
          "internalType": "bool",
          "name": "isRegistered",
          "type": "bool"
        }
      ],
      "stateMutability": "view",
      "type": "function"
    },
    {
      "inputs": [
        {
          "internalType": "address",
          "name": "owner",
          "type": "address"
        },
        {
          "internalType": "address",
          "name": "operator",
          "type": "address"
        }
      ],
      "name": "isApprovedForAll",
      "outputs": [
        {
          "internalType": "bool",
          "name": "",
          "type": "bool"
        }
      ],
      "stateMutability": "view",
      "type": "function"
    },
    {
      "inputs": [],
      "name": "name",
      "outputs": [
        {
          "internalType": "string",
          "name": "",
          "type": "string"
        }
      ],
      "stateMutability": "view",
      "type": "function"
    },
    {
      "inputs": [
        {
          "internalType": "uint256",
          "name": "tokenId",
          "type": "uint256"
        }
      ],
      "name": "ownerOf",
      "outputs": [
        {
          "internalType": "address",
          "name": "",
          "type": "address"
        }
      ],
      "stateMutability": "view",
      "type": "function"
    },
    {
      "inputs": [
        {
          "internalType": "uint256",
          "name": "",
          "type": "uint256"
        }
      ],
      "name": "pendingIps",
      "outputs": [
        {
          "internalType": "uint256",
          "name": "",
          "type": "uint256"
        }
      ],
      "stateMutability": "view",
      "type": "function"
    },
    {
      "inputs": [],
      "name": "receivedWei",
      "outputs": [
        {
          "internalType": "uint256",
          "name": "",
          "type": "uint256"
        }
      ],
      "stateMutability": "view",
      "type": "function"
    },
    {
      "inputs": [
        {
          "internalType": "uint256",
          "name": "",
          "type": "uint256"
        }
      ],
      "name": "rejectedIps",
      "outputs": [
        {
          "internalType": "uint256",
          "name": "",
          "type": "uint256"
        }
      ],
      "stateMutability": "view",
      "type": "function"
    },
    {
      "inputs": [
        {
          "internalType": "uint256",
          "name": "_index",
          "type": "uint256"
        }
      ],
      "name": "removeAccepted",
      "outputs": [],
      "stateMutability": "nonpayable",
      "type": "function"
    },
    {
      "inputs": [
        {
          "internalType": "uint256",
          "name": "_index",
          "type": "uint256"
        }
      ],
      "name": "removePending",
      "outputs": [],
      "stateMutability": "nonpayable",
      "type": "function"
    },
    {
      "inputs": [
        {
          "internalType": "uint256",
          "name": "_index",
          "type": "uint256"
        }
      ],
      "name": "removeRejected",
      "outputs": [],
      "stateMutability": "nonpayable",
      "type": "function"
    },
    {
      "inputs": [],
      "name": "result",
      "outputs": [
        {
          "internalType": "string",
          "name": "",
          "type": "string"
        }
      ],
      "stateMutability": "view",
      "type": "function"
    },
    {
      "inputs": [],
      "name": "returnedWei",
      "outputs": [
        {
          "internalType": "uint256",
          "name": "",
          "type": "uint256"
        }
      ],
      "stateMutability": "view",
      "type": "function"
    },
    {
      "inputs": [
        {
          "internalType": "address",
          "name": "from",
          "type": "address"
        },
        {
          "internalType": "address",
          "name": "to",
          "type": "address"
        },
        {
          "internalType": "uint256",
          "name": "tokenId",
          "type": "uint256"
        }
      ],
      "name": "safeTransferFrom",
      "outputs": [],
      "stateMutability": "nonpayable",
      "type": "function"
    },
    {
      "inputs": [
        {
          "internalType": "address",
          "name": "from",
          "type": "address"
        },
        {
          "internalType": "address",
          "name": "to",
          "type": "address"
        },
        {
          "internalType": "uint256",
          "name": "tokenId",
          "type": "uint256"
        },
        {
          "internalType": "bytes",
          "name": "data",
          "type": "bytes"
        }
      ],
      "name": "safeTransferFrom",
      "outputs": [],
      "stateMutability": "nonpayable",
      "type": "function"
    },
    {
      "inputs": [
        {
          "internalType": "address",
          "name": "operator",
          "type": "address"
        },
        {
          "internalType": "bool",
          "name": "approved",
          "type": "bool"
        }
      ],
      "name": "setApprovalForAll",
      "outputs": [],
      "stateMutability": "nonpayable",
      "type": "function"
    },
    {
      "inputs": [
        {
          "internalType": "uint256",
          "name": "_cp",
          "type": "uint256"
        }
      ],
      "name": "setupCommissionFee",
      "outputs": [],
      "stateMutability": "nonpayable",
      "type": "function"
    },
    {
      "inputs": [
        {
          "internalType": "bytes4",
          "name": "interfaceId",
          "type": "bytes4"
        }
      ],
      "name": "supportsInterface",
      "outputs": [
        {
          "internalType": "bool",
          "name": "",
          "type": "bool"
        }
      ],
      "stateMutability": "view",
      "type": "function"
    },
    {
      "inputs": [],
      "name": "symbol",
      "outputs": [
        {
          "internalType": "string",
          "name": "",
          "type": "string"
        }
      ],
      "stateMutability": "view",
      "type": "function"
    },
    {
      "inputs": [
        {
          "internalType": "uint256",
          "name": "tokenId",
          "type": "uint256"
        }
      ],
      "name": "tokenURI",
      "outputs": [
        {
          "internalType": "string",
          "name": "",
          "type": "string"
        }
      ],
      "stateMutability": "view",
      "type": "function"
    },
    {
      "inputs": [
        {
          "internalType": "address",
          "name": "from",
          "type": "address"
        },
        {
          "internalType": "address",
          "name": "to",
          "type": "address"
        },
        {
          "internalType": "uint256",
          "name": "tokenId",
          "type": "uint256"
        }
      ],
      "name": "transferFrom",
      "outputs": [],
      "stateMutability": "nonpayable",
      "type": "function"
    }
  ],
  "bytecode": "0x6080604052736cfb2c03d7c594a50f6f2053148bebbadd0f7302600760006101000a81548173ffffffffffffffffffffffffffffffffffffffff021916908373ffffffffffffffffffffffffffffffffffffffff1602179055506040516200006790620001ba565b604051809103906000f08015801562000084573d6000803e3d6000fd5b50600c60006101000a81548173ffffffffffffffffffffffffffffffffffffffff021916908373ffffffffffffffffffffffffffffffffffffffff160217905550348015620000d257600080fd5b506040518060400160405280600e81526020017f4e46544d61726b6574706c6163650000000000000000000000000000000000008152506040518060400160405280600481526020017f4e46544d00000000000000000000000000000000000000000000000000000000815250816000908051906020019062000157929190620001c8565b50806001908051906020019062000170929190620001c8565b50505033600a60006101000a81548173ffffffffffffffffffffffffffffffffffffffff021916908373ffffffffffffffffffffffffffffffffffffffff160217905550620002dd565b6110978062005f7483390190565b828054620001d69062000278565b90600052602060002090601f016020900481019282620001fa576000855562000246565b82601f106200021557805160ff191683800117855562000246565b8280016001018555821562000246579182015b828111156200024557825182559160200191906001019062000228565b5b50905062000255919062000259565b5090565b5b80821115620002745760008160009055506001016200025a565b5090565b600060028204905060018216806200029157607f821691505b60208210811415620002a857620002a7620002ae565b5b50919050565b7f4e487b7100000000000000000000000000000000000000000000000000000000600052602260045260246000fd5b615c8780620002ed6000396000f3fe6080604052600436106102045760003560e01c80636352211e11610118578063c87b56dd116100a0578063e57a497a1161006f578063e57a497a146107ce578063e985e9c51461080f578063f5f680e01461084c578063fb645bd814610877578063fd4f0b4f146108a057610204565b8063c87b56dd146106fe578063cea62a1b1461073b578063d5606fbf14610766578063e0391b09146107a357610204565b8063a22cb465116100e7578063a22cb46514610609578063b13d3ecc14610632578063b46c9ac71461065b578063b88d4fde14610698578063c23697a8146106c157610204565b80636352211e14610539578063653721471461057657806370a08231146105a157806395d89b41146105de57610204565b806327bbc10d1161019b57806342842e0e1161016a57806342842e0e1461044d57806345576f94146104765780634558593e146104a657806356d01613146104e3578063629cb2e41461050e57610204565b806327bbc10d1461039357806334020f4b146103d057806338d5d325146103fb5780633ee21d441461042457610204565b8063095ea7b3116101d7578063095ea7b3146102d957806310e22d41146103025780631cdaea221461032d57806323b872dd1461036a57610204565b806301ffc9a71461020957806302000bd41461024657806306fdde0314610271578063081812fc1461029c575b600080fd5b34801561021557600080fd5b50610230600480360381019061022b9190614405565b6108bc565b60405161023d9190614d13565b60405180910390f35b34801561025257600080fd5b5061025b61099e565b6040516102689190614ff0565b60405180910390f35b34801561027d57600080fd5b506102866109ab565b6040516102939190614d2e565b60405180910390f35b3480156102a857600080fd5b506102c360048036038101906102be9190614498565b610a3d565b6040516102d09190614c3e565b60405180910390f35b3480156102e557600080fd5b5061030060048036038101906102fb91906143a0565b610a83565b005b34801561030e57600080fd5b50610317610b9b565b6040516103249190614ff0565b60405180910390f35b34801561033957600080fd5b50610354600480360381019061034f9190614498565b610ba1565b6040516103619190614ff0565b60405180910390f35b34801561037657600080fd5b50610391600480360381019061038c919061429a565b610bc5565b005b34801561039f57600080fd5b506103ba60048036038101906103b59190614498565b610c25565b6040516103c79190614ff0565b60405180910390f35b3480156103dc57600080fd5b506103e5610c49565b6040516103f29190614ff0565b60405180910390f35b34801561040757600080fd5b50610422600480360381019061041d9190614498565b610c56565b005b34801561043057600080fd5b5061044b60048036038101906104469190614498565b610dba565b005b34801561045957600080fd5b50610474600480360381019061046f919061429a565b610e1e565b005b610490600480360381019061048b9190614457565b610e3e565b60405161049d9190614ff0565b60405180910390f35b3480156104b257600080fd5b506104cd60048036038101906104c89190614526565b611006565b6040516104da9190614d13565b60405180910390f35b3480156104ef57600080fd5b506104f86110a0565b6040516105059190614ff0565b60405180910390f35b34801561051a57600080fd5b506105236110a6565b6040516105309190614cf1565b60405180910390f35b34801561054557600080fd5b50610560600480360381019061055b9190614498565b61141f565b60405161056d9190614c3e565b60405180910390f35b34801561058257600080fd5b5061058b6114d1565b6040516105989190614d2e565b60405180910390f35b3480156105ad57600080fd5b506105c860048036038101906105c39190614235565b61155f565b6040516105d59190614ff0565b60405180910390f35b3480156105ea57600080fd5b506105f3611617565b6040516106009190614d2e565b60405180910390f35b34801561061557600080fd5b50610630600480360381019061062b9190614364565b6116a9565b005b34801561063e57600080fd5b5061065960048036038101906106549190614498565b6116bf565b005b34801561066757600080fd5b50610682600480360381019061067d91906144ea565b611823565b60405161068f9190614ff0565b60405180910390f35b3480156106a457600080fd5b506106bf60048036038101906106ba91906142e9565b6118da565b005b3480156106cd57600080fd5b506106e860048036038101906106e39190614235565b61193c565b6040516106f59190614d13565b60405180910390f35b34801561070a57600080fd5b5061072560048036038101906107209190614498565b6119f0565b6040516107329190614d2e565b60405180910390f35b34801561074757600080fd5b50610750611b03565b60405161075d9190614ff0565b60405180910390f35b34801561077257600080fd5b5061078d60048036038101906107889190614498565b611b10565b60405161079a9190614ff0565b60405180910390f35b3480156107af57600080fd5b506107b8611b34565b6040516107c59190614cf1565b60405180910390f35b3480156107da57600080fd5b506107f560048036038101906107f09190614498565b611d8e565b604051610806959493929190615034565b60405180910390f35b34801561081b57600080fd5b506108366004803603810190610831919061425e565b611e79565b6040516108439190614d13565b60405180910390f35b34801561085857600080fd5b50610861611f0d565b60405161086e9190614ff0565b60405180910390f35b34801561088357600080fd5b5061089e60048036038101906108999190614498565b611f13565b005b6108ba60048036038101906108b591906144ea565b612077565b005b60007f80ac58cd000000000000000000000000000000000000000000000000000000007bffffffffffffffffffffffffffffffffffffffffffffffffffffffff1916827bffffffffffffffffffffffffffffffffffffffffffffffffffffffff1916148061098757507f5b5e139f000000000000000000000000000000000000000000000000000000007bffffffffffffffffffffffffffffffffffffffffffffffffffffffff1916827bffffffffffffffffffffffffffffffffffffffffffffffffffffffff1916145b8061099757506109968261259a565b5b9050919050565b6000600d80549050905090565b6060600080546109ba90615440565b80601f01602080910402602001604051908101604052809291908181526020018280546109e690615440565b8015610a335780601f10610a0857610100808354040283529160200191610a33565b820191906000526020600020905b815481529060010190602001808311610a1657829003601f168201915b5050505050905090565b6000610a4882612604565b6004600083815260200190815260200160002060009054906101000a900473ffffffffffffffffffffffffffffffffffffffff169050919050565b6000610a8e8261141f565b90508073ffffffffffffffffffffffffffffffffffffffff168373ffffffffffffffffffffffffffffffffffffffff161415610aff576040517f08c379a0000000000000000000000000000000000000000000000000000000008152600401610af690614f90565b60405180910390fd5b8073ffffffffffffffffffffffffffffffffffffffff16610b1e61264f565b73ffffffffffffffffffffffffffffffffffffffff161480610b4d5750610b4c81610b4761264f565b611e79565b5b610b8c576040517f08c379a0000000000000000000000000000000000000000000000000000000008152600401610b8390614f10565b60405180910390fd5b610b968383612657565b505050565b60125481565b600f8181548110610bb157600080fd5b906000526020600020016000915090505481565b610bd6610bd061264f565b82612710565b610c15576040517f08c379a0000000000000000000000000000000000000000000000000000000008152600401610c0c90614fd0565b60405180910390fd5b610c208383836127a5565b505050565b600d8181548110610c3557600080fd5b906000526020600020016000915090505481565b6000600e80549050905090565b600f805490508110610c9d576040517f08c379a0000000000000000000000000000000000000000000000000000000008152600401610c9490614f50565b60405180910390fd5b60008190505b6001600f80549050610cb59190615328565b811015610d6857600f600182610ccb9190615247565b81548110610d02577f4e487b7100000000000000000000000000000000000000000000000000000000600052603260045260246000fd5b9060005260206000200154600f8281548110610d47577f4e487b7100000000000000000000000000000000000000000000000000000000600052603260045260246000fd5b90600052602060002001819055508080610d60906154bd565b915050610ca3565b50600f805480610da1577f4e487b7100000000000000000000000000000000000000000000000000000000600052603160045260246000fd5b6001900381819060005260206000200160009055905550565b600a60009054906101000a900473ffffffffffffffffffffffffffffffffffffffff1673ffffffffffffffffffffffffffffffffffffffff163373ffffffffffffffffffffffffffffffffffffffff1614610e1457600080fd5b80600b8190555050565b610e39838383604051806020016040528060008152506118da565b505050565b6000610e4a6008612a0c565b6000610e566008612a22565b9050610e623382612a30565b610e6c8184612a4e565b60006040518060400160405280600781526020017f50656e64696e670000000000000000000000000000000000000000000000000081525090506040518060a001604052808381526020013373ffffffffffffffffffffffffffffffffffffffff16815260200142815260200182815260200160011515815250601160008481526020019081526020016000206000820151816000015560208201518160010160006101000a81548173ffffffffffffffffffffffffffffffffffffffff021916908373ffffffffffffffffffffffffffffffffffffffff160217905550604082015181600201556060820151816003019080519060200190610f70929190613fe8565b5060808201518160040160006101000a81548160ff021916908315150217905550905050600e829080600181540180825580915050600190039060005260206000200160009091909190915055817f6e22b084a5f448e7b37abdf4bb505723438e4f4f4a4d96f9b60b0b14e93a4c643342846001604051610ff49493929190614ca5565b60405180910390a28192505050919050565b6000600a60009054906101000a900473ffffffffffffffffffffffffffffffffffffffff1673ffffffffffffffffffffffffffffffffffffffff163373ffffffffffffffffffffffffffffffffffffffff161461106257600080fd5b8160116000858152602001908152602001600020600301908051906020019061108c929190613fe8565b5061109683612ac2565b6001905092915050565b600b5481565b606060006110b46008612a22565b9050600080600080600090505b84811015611162573373ffffffffffffffffffffffffffffffffffffffff16601160006001846110f19190615247565b815260200190815260200160002060010160009054906101000a900473ffffffffffffffffffffffffffffffffffffffff1673ffffffffffffffffffffffffffffffffffffffff16141561114f5760018461114c9190615247565b93505b808061115a906154bd565b9150506110c1565b5060008367ffffffffffffffff8111156111a5577f4e487b7100000000000000000000000000000000000000000000000000000000600052604160045260246000fd5b6040519080825280602002602001820160405280156111de57816020015b6111cb61406e565b8152602001906001900390816111c35790505b50905060005b85811015611413573373ffffffffffffffffffffffffffffffffffffffff16601160006001846112149190615247565b815260200190815260200160002060010160009054906101000a900473ffffffffffffffffffffffffffffffffffffffff1673ffffffffffffffffffffffffffffffffffffffff1614156114005760018161126f9190615247565b92506000601160008581526020019081526020016000209050806040518060a0016040529081600082015481526020016001820160009054906101000a900473ffffffffffffffffffffffffffffffffffffffff1673ffffffffffffffffffffffffffffffffffffffff1673ffffffffffffffffffffffffffffffffffffffff1681526020016002820154815260200160038201805461130e90615440565b80601f016020809104026020016040519081016040528092919081815260200182805461133a90615440565b80156113875780601f1061135c57610100808354040283529160200191611387565b820191906000526020600020905b81548152906001019060200180831161136a57829003601f168201915b505050505081526020016004820160009054906101000a900460ff1615151515815250508386815181106113e4577f4e487b7100000000000000000000000000000000000000000000000000000000600052603260045260246000fd5b60200260200101819052506001856113fc9190615247565b9450505b808061140b906154bd565b9150506111e4565b50809550505050505090565b6000806002600084815260200190815260200160002060009054906101000a900473ffffffffffffffffffffffffffffffffffffffff169050600073ffffffffffffffffffffffffffffffffffffffff168173ffffffffffffffffffffffffffffffffffffffff1614156114c8576040517f08c379a00000000000000000000000000000000000000000000000000000000081526004016114bf90614f70565b60405180910390fd5b80915050919050565b601080546114de90615440565b80601f016020809104026020016040519081016040528092919081815260200182805461150a90615440565b80156115575780601f1061152c57610100808354040283529160200191611557565b820191906000526020600020905b81548152906001019060200180831161153a57829003601f168201915b505050505081565b60008073ffffffffffffffffffffffffffffffffffffffff168273ffffffffffffffffffffffffffffffffffffffff1614156115d0576040517f08c379a00000000000000000000000000000000000000000000000000000000081526004016115c790614e70565b60405180910390fd5b600360008373ffffffffffffffffffffffffffffffffffffffff1673ffffffffffffffffffffffffffffffffffffffff168152602001908152602001600020549050919050565b60606001805461162690615440565b80601f016020809104026020016040519081016040528092919081815260200182805461165290615440565b801561169f5780601f106116745761010080835404028352916020019161169f565b820191906000526020600020905b81548152906001019060200180831161168257829003601f168201915b5050505050905090565b6116bb6116b461264f565b83836136cc565b5050565b600e805490508110611706576040517f08c379a00000000000000000000000000000000000000000000000000000000081526004016116fd90614f50565b60405180910390fd5b60008190505b6001600e8054905061171e9190615328565b8110156117d157600e6001826117349190615247565b8154811061176b577f4e487b7100000000000000000000000000000000000000000000000000000000600052603260045260246000fd5b9060005260206000200154600e82815481106117b0577f4e487b7100000000000000000000000000000000000000000000000000000000600052603260045260246000fd5b906000526020600020018190555080806117c9906154bd565b91505061170c565b50600e80548061180a577f4e487b7100000000000000000000000000000000000000000000000000000000600052603160045260246000fd5b6001900381819060005260206000200160009055905550565b6000600760009054906101000a900473ffffffffffffffffffffffffffffffffffffffff1673ffffffffffffffffffffffffffffffffffffffff16639f04996d84846040518363ffffffff1660e01b815260040161188292919061500b565b60206040518083038186803b15801561189a57600080fd5b505afa1580156118ae573d6000803e3d6000fd5b505050506040513d601f19601f820116820180604052508101906118d291906144c1565b905092915050565b6118eb6118e561264f565b83612710565b61192a576040517f08c379a000000000000000000000000000000000000000000000000000000000815260040161192190614fd0565b60405180910390fd5b61193684848484613839565b50505050565b6000600760009054906101000a900473ffffffffffffffffffffffffffffffffffffffff1673ffffffffffffffffffffffffffffffffffffffff166319fde1f6836040518263ffffffff1660e01b81526004016119999190614c3e565b60206040518083038186803b1580156119b157600080fd5b505afa1580156119c5573d6000803e3d6000fd5b505050506040513d601f19601f820116820180604052508101906119e991906143dc565b9050919050565b60606119fb82612604565b6000600660008481526020019081526020016000208054611a1b90615440565b80601f0160208091040260200160405190810160405280929190818152602001828054611a4790615440565b8015611a945780601f10611a6957610100808354040283529160200191611a94565b820191906000526020600020905b815481529060010190602001808311611a7757829003601f168201915b505050505090506000611aa5613895565b9050600081511415611abb578192505050611afe565b600082511115611af0578082604051602001611ad8929190614bdb565b60405160208183030381529060405292505050611afe565b611af9846138ac565b925050505b919050565b6000600f80549050905090565b600e8181548110611b2057600080fd5b906000526020600020016000915090505481565b60606000611b426008612a22565b905060008167ffffffffffffffff811115611b86577f4e487b7100000000000000000000000000000000000000000000000000000000600052604160045260246000fd5b604051908082528060200260200182016040528015611bbf57816020015b611bac61406e565b815260200190600190039081611ba45790505b50905060008080600090505b84811015611d8357600181611be09190615247565b91506000601160008481526020019081526020016000209050806040518060a0016040529081600082015481526020016001820160009054906101000a900473ffffffffffffffffffffffffffffffffffffffff1673ffffffffffffffffffffffffffffffffffffffff1673ffffffffffffffffffffffffffffffffffffffff16815260200160028201548152602001600382018054611c7f90615440565b80601f0160208091040260200160405190810160405280929190818152602001828054611cab90615440565b8015611cf85780601f10611ccd57610100808354040283529160200191611cf8565b820191906000526020600020905b815481529060010190602001808311611cdb57829003601f168201915b505050505081526020016004820160009054906101000a900460ff161515151581525050858581518110611d55577f4e487b7100000000000000000000000000000000000000000000000000000000600052603260045260246000fd5b6020026020010181905250600184611d6d9190615247565b9350508080611d7b906154bd565b915050611bcb565b508294505050505090565b60116020528060005260406000206000915090508060000154908060010160009054906101000a900473ffffffffffffffffffffffffffffffffffffffff1690806002015490806003018054611de390615440565b80601f0160208091040260200160405190810160405280929190818152602001828054611e0f90615440565b8015611e5c5780601f10611e3157610100808354040283529160200191611e5c565b820191906000526020600020905b815481529060010190602001808311611e3f57829003601f168201915b5050505050908060040160009054906101000a900460ff16905085565b6000600560008473ffffffffffffffffffffffffffffffffffffffff1673ffffffffffffffffffffffffffffffffffffffff16815260200190815260200160002060008373ffffffffffffffffffffffffffffffffffffffff1673ffffffffffffffffffffffffffffffffffffffff16815260200190815260200160002060009054906101000a900460ff16905092915050565b60135481565b600d805490508110611f5a576040517f08c379a0000000000000000000000000000000000000000000000000000000008152600401611f5190614f50565b60405180910390fd5b60008190505b6001600d80549050611f729190615328565b81101561202557600d600182611f889190615247565b81548110611fbf577f4e487b7100000000000000000000000000000000000000000000000000000000600052603260045260246000fd5b9060005260206000200154600d8281548110612004577f4e487b7100000000000000000000000000000000000000000000000000000000600052603260045260246000fd5b9060005260206000200181905550808061201d906154bd565b915050611f60565b50600d80548061205e577f4e487b7100000000000000000000000000000000000000000000000000000000600052603160045260246000fd5b6001900381819060005260206000200160009055905550565b6000600760009054906101000a900473ffffffffffffffffffffffffffffffffffffffff1673ffffffffffffffffffffffffffffffffffffffff16639f04996d84846040518363ffffffff1660e01b81526004016120d692919061500b565b60206040518083038186803b1580156120ee57600080fd5b505afa158015612102573d6000803e3d6000fd5b505050506040513d601f19601f8201168201806040525081019061212691906144c1565b90506121666040518060400160405280601781526020017f6e6f626f6479206973207468726561746e696e67206d65000000000000000000815250613914565b61216f8361141f565b73ffffffffffffffffffffffffffffffffffffffff163373ffffffffffffffffffffffffffffffffffffffff16146121dc576040517f08c379a00000000000000000000000000000000000000000000000000000000081526004016121d390614fb0565b60405180910390fd5b80341461221e576040517f08c379a000000000000000000000000000000000000000000000000000000000815260040161221590614ef0565b60405180910390fd5b6122278261193c565b612266576040517f08c379a000000000000000000000000000000000000000000000000000000000815260040161225d90614e50565b60405180910390fd5b3373ffffffffffffffffffffffffffffffffffffffff166122868461141f565b73ffffffffffffffffffffffffffffffffffffffff16146122dc576040517f08c379a00000000000000000000000000000000000000000000000000000000081526004016122d390614ed0565b60405180910390fd5b6000600a60009054906101000a900473ffffffffffffffffffffffffffffffffffffffff1673ffffffffffffffffffffffffffffffffffffffff163111612358576040517f08c379a000000000000000000000000000000000000000000000000000000000815260040161234f90614db0565b60405180910390fd5b60006011600085815260200190815260200160002060010160009054906101000a900473ffffffffffffffffffffffffffffffffffffffff16905060016011600086815260200190815260200160002060040160006101000a81548160ff021916908315150217905550336011600086815260200190815260200160002060010160006101000a81548173ffffffffffffffffffffffffffffffffffffffff021916908373ffffffffffffffffffffffffffffffffffffffff1602179055506124216009612a0c565b61242c3384866127a5565b6000600b548361243c91906152ce565b90506000600b548461244e9190615328565b9050600a60009054906101000a900473ffffffffffffffffffffffffffffffffffffffff1673ffffffffffffffffffffffffffffffffffffffff166108fc839081150290604051600060405180830381858888f193505050501580156124b8573d6000803e3d6000fd5b508273ffffffffffffffffffffffffffffffffffffffff166108fc829081150290604051600060405180830381858888f193505050501580156124ff573d6000803e3d6000fd5b50600760009054906101000a900473ffffffffffffffffffffffffffffffffffffffff1673ffffffffffffffffffffffffffffffffffffffff166396dc503b878760006040518463ffffffff1660e01b81526004016125609392919061508e565b600060405180830381600087803b15801561257a57600080fd5b505af115801561258e573d6000803e3d6000fd5b50505050505050505050565b60007f01ffc9a7000000000000000000000000000000000000000000000000000000007bffffffffffffffffffffffffffffffffffffffffffffffffffffffff1916827bffffffffffffffffffffffffffffffffffffffffffffffffffffffff1916149050919050565b61260d816139ad565b61264c576040517f08c379a000000000000000000000000000000000000000000000000000000000815260040161264390614f70565b60405180910390fd5b50565b600033905090565b816004600083815260200190815260200160002060006101000a81548173ffffffffffffffffffffffffffffffffffffffff021916908373ffffffffffffffffffffffffffffffffffffffff160217905550808273ffffffffffffffffffffffffffffffffffffffff166126ca8361141f565b73ffffffffffffffffffffffffffffffffffffffff167f8c5be1e5ebec7d5bd14f71427d1e84f3dd0314c0f7b2291e5b200ac8c7c3b92560405160405180910390a45050565b60008061271c8361141f565b90508073ffffffffffffffffffffffffffffffffffffffff168473ffffffffffffffffffffffffffffffffffffffff16148061275e575061275d8185611e79565b5b8061279c57508373ffffffffffffffffffffffffffffffffffffffff1661278484610a3d565b73ffffffffffffffffffffffffffffffffffffffff16145b91505092915050565b8273ffffffffffffffffffffffffffffffffffffffff166127c58261141f565b73ffffffffffffffffffffffffffffffffffffffff161461281b576040517f08c379a000000000000000000000000000000000000000000000000000000000815260040161281290614d70565b60405180910390fd5b600073ffffffffffffffffffffffffffffffffffffffff168273ffffffffffffffffffffffffffffffffffffffff16141561288b576040517f08c379a000000000000000000000000000000000000000000000000000000000815260040161288290614e10565b60405180910390fd5b612896838383613a19565b6128a1600082612657565b6001600360008573ffffffffffffffffffffffffffffffffffffffff1673ffffffffffffffffffffffffffffffffffffffff16815260200190815260200160002060008282546128f19190615328565b925050819055506001600360008473ffffffffffffffffffffffffffffffffffffffff1673ffffffffffffffffffffffffffffffffffffffff16815260200190815260200160002060008282546129489190615247565b92505081905550816002600083815260200190815260200160002060006101000a81548173ffffffffffffffffffffffffffffffffffffffff021916908373ffffffffffffffffffffffffffffffffffffffff160217905550808273ffffffffffffffffffffffffffffffffffffffff168473ffffffffffffffffffffffffffffffffffffffff167fddf252ad1be2c89b69c2b068fc378daa952ba7f163c4a11628f55a4df523b3ef60405160405180910390a4612a07838383613a1e565b505050565b6001816000016000828254019250508190555050565b600081600001549050919050565b612a4a828260405180602001604052806000815250613a23565b5050565b612a57826139ad565b612a96576040517f08c379a0000000000000000000000000000000000000000000000000000000008152600401612a8d90614eb0565b60405180910390fd5b80600660008481526020019081526020016000209080519060200190612abd929190613fe8565b505050565b6000601160008381526020019081526020016000206003018054612ae590615440565b80601f0160208091040260200160405190810160405280929190818152602001828054612b1190615440565b8015612b5e5780601f10612b3357610100808354040283529160200191612b5e565b820191906000526020600020905b815481529060010190602001808311612b4157829003601f168201915b50505050509050604051602001612b7490614c29565b6040516020818303038152906040528051906020012081604051602001612b9b9190614bc4565b604051602081830303815290604052805190602001201415612f2e576000600c60009054906101000a900473ffffffffffffffffffffffffffffffffffffffff1673ffffffffffffffffffffffffffffffffffffffff166319d5880c84600d6040518363ffffffff1660e01b8152600401612c179291906150c5565b60206040518083038186803b158015612c2f57600080fd5b505afa158015612c43573d6000803e3d6000fd5b505050506040513d601f19601f82011682018060405250810190612c6791906143dc565b90506001604051602001612c7b9190614ba9565b6040516020818303038152906040528051906020012081604051602001612ca29190614ba9565b604051602081830303815290604052805190602001201415612cf9576040517f08c379a0000000000000000000000000000000000000000000000000000000008152600401612cf090614dd0565b60405180910390fd5b600d8390806001815401808255809150506001900390600052602060002001600090919091909150556000600c60009054906101000a900473ffffffffffffffffffffffffffffffffffffffff1673ffffffffffffffffffffffffffffffffffffffff166321772a4485600e6040518363ffffffff1660e01b8152600401612d829291906150c5565b60206040518083038186803b158015612d9a57600080fd5b505afa158015612dae573d6000803e3d6000fd5b505050506040513d601f19601f82011682018060405250810190612dd291906144c1565b90506000600c60009054906101000a900473ffffffffffffffffffffffffffffffffffffffff1673ffffffffffffffffffffffffffffffffffffffff1663d25a84eb86600f6040518363ffffffff1660e01b8152600401612e349291906150c5565b60206040518083038186803b158015612e4c57600080fd5b505afa158015612e60573d6000803e3d6000fd5b505050506040513d601f19601f82011682018060405250810190612e8491906144c1565b9050848214158015612e965750848114155b15612eae57612ea4826116bf565b612ead81610c56565b5b848214612ec357612ebe826116bf565b612f26565b848114612ed857612ed381610c56565b612f25565b6040518060400160405280600981526020017f6e6f7420666f756e64000000000000000000000000000000000000000000000081525060109080519060200190612f23929190613fe8565b505b5b5050506136c8565b604051602001612f3d90614c14565b6040516020818303038152906040528051906020012081604051602001612f649190614bc4565b6040516020818303038152906040528051906020012014156132fc576000600c60009054906101000a900473ffffffffffffffffffffffffffffffffffffffff1673ffffffffffffffffffffffffffffffffffffffff166332a5d17084600e6040518363ffffffff1660e01b8152600401612fe09291906150c5565b60206040518083038186803b158015612ff857600080fd5b505afa15801561300c573d6000803e3d6000fd5b505050506040513d601f19601f8201168201806040525081019061303091906143dc565b905060016040516020016130449190614ba9565b604051602081830303815290604052805190602001208160405160200161306b9190614ba9565b6040516020818303038152906040528051906020012014156130c2576040517f08c379a00000000000000000000000000000000000000000000000000000000081526004016130b990614df0565b60405180910390fd5b600e8390806001815401808255809150506001900390600052602060002001600090919091909150556000600c60009054906101000a900473ffffffffffffffffffffffffffffffffffffffff1673ffffffffffffffffffffffffffffffffffffffff1663d25a84eb85600d6040518363ffffffff1660e01b815260040161314b9291906150c5565b60206040518083038186803b15801561316357600080fd5b505afa158015613177573d6000803e3d6000fd5b505050506040513d601f19601f8201168201806040525081019061319b91906144c1565b90506000600c60009054906101000a900473ffffffffffffffffffffffffffffffffffffffff1673ffffffffffffffffffffffffffffffffffffffff1663a28a348086600f6040518363ffffffff1660e01b81526004016131fd9291906150c5565b60206040518083038186803b15801561321557600080fd5b505afa158015613229573d6000803e3d6000fd5b505050506040513d601f19601f8201168201806040525081019061324d91906144c1565b905084821415801561325f5750848114155b1561327b5761326d82611f13565b61327681610c56565b6132f4565b8482146132905761328b82611f13565b6132f3565b8481146132a5576132a081610c56565b6132f2565b6040518060400160405280600981526020017f6e6f7420666f756e640000000000000000000000000000000000000000000000815250601090805190602001906132f0929190613fe8565b505b5b5b5050506136c7565b60405160200161330b90614bff565b60405160208183030381529060405280519060200120816040516020016133329190614bc4565b6040516020818303038152906040528051906020012014156136c6576000600c60009054906101000a900473ffffffffffffffffffffffffffffffffffffffff1673ffffffffffffffffffffffffffffffffffffffff16637ef1cd4b84600f6040518363ffffffff1660e01b81526004016133ae9291906150c5565b60206040518083038186803b1580156133c657600080fd5b505afa1580156133da573d6000803e3d6000fd5b505050506040513d601f19601f820116820180604052508101906133fe91906143dc565b905060016040516020016134129190614ba9565b60405160208183030381529060405280519060200120816040516020016134399190614ba9565b604051602081830303815290604052805190602001201415613490576040517f08c379a000000000000000000000000000000000000000000000000000000000815260040161348790614e90565b60405180910390fd5b600f8390806001815401808255809150506001900390600052602060002001600090919091909150556000600c60009054906101000a900473ffffffffffffffffffffffffffffffffffffffff1673ffffffffffffffffffffffffffffffffffffffff1663d25a84eb85600d6040518363ffffffff1660e01b81526004016135199291906150c5565b60206040518083038186803b15801561353157600080fd5b505afa158015613545573d6000803e3d6000fd5b505050506040513d601f19601f8201168201806040525081019061356991906144c1565b90506000600c60009054906101000a900473ffffffffffffffffffffffffffffffffffffffff1673ffffffffffffffffffffffffffffffffffffffff166321772a4486600e6040518363ffffffff1660e01b81526004016135cb9291906150c5565b60206040518083038186803b1580156135e357600080fd5b505afa1580156135f7573d6000803e3d6000fd5b505050506040513d601f19601f8201168201806040525081019061361b91906144c1565b905084821415801561362d5750848114155b156136495761363b82611f13565b613644816116bf565b6136c2565b84821461365e5761365982611f13565b6136c1565b8481146136735761366e816116bf565b6136c0565b6040518060400160405280600981526020017f6e6f7420666f756e640000000000000000000000000000000000000000000000815250601090805190602001906136be929190613fe8565b505b5b5b5050505b5b5b5050565b8173ffffffffffffffffffffffffffffffffffffffff168373ffffffffffffffffffffffffffffffffffffffff16141561373b576040517f08c379a000000000000000000000000000000000000000000000000000000000815260040161373290614e30565b60405180910390fd5b80600560008573ffffffffffffffffffffffffffffffffffffffff1673ffffffffffffffffffffffffffffffffffffffff16815260200190815260200160002060008473ffffffffffffffffffffffffffffffffffffffff1673ffffffffffffffffffffffffffffffffffffffff16815260200190815260200160002060006101000a81548160ff0219169083151502179055508173ffffffffffffffffffffffffffffffffffffffff168373ffffffffffffffffffffffffffffffffffffffff167f17307eab39ab6107e8899845ad3d59bd9653f200f220920489ca2b5937696c318360405161382c9190614d13565b60405180910390a3505050565b6138448484846127a5565b61385084848484613a7e565b61388f576040517f08c379a000000000000000000000000000000000000000000000000000000000815260040161388690614d50565b60405180910390fd5b50505050565b606060405180602001604052806000815250905090565b60606138b782612604565b60006138c1613895565b905060008151116138e1576040518060200160405280600081525061390c565b806138eb84613c15565b6040516020016138fc929190614bdb565b6040516020818303038152906040525b915050919050565b6139aa816040516024016139289190614d2e565b6040516020818303038152906040527f41304fac000000000000000000000000000000000000000000000000000000007bffffffffffffffffffffffffffffffffffffffffffffffffffffffff19166020820180517bffffffffffffffffffffffffffffffffffffffffffffffffffffffff8381831617835250505050613dc2565b50565b60008073ffffffffffffffffffffffffffffffffffffffff166002600084815260200190815260200160002060009054906101000a900473ffffffffffffffffffffffffffffffffffffffff1673ffffffffffffffffffffffffffffffffffffffff1614159050919050565b505050565b505050565b613a2d8383613deb565b613a3a6000848484613a7e565b613a79576040517f08c379a0000000000000000000000000000000000000000000000000000000008152600401613a7090614d50565b60405180910390fd5b505050565b6000613a9f8473ffffffffffffffffffffffffffffffffffffffff16613fc5565b15613c08578373ffffffffffffffffffffffffffffffffffffffff1663150b7a02613ac861264f565b8786866040518563ffffffff1660e01b8152600401613aea9493929190614c59565b602060405180830381600087803b158015613b0457600080fd5b505af1925050508015613b3557506040513d601f19601f82011682018060405250810190613b32919061442e565b60015b613bb8573d8060008114613b65576040519150601f19603f3d011682016040523d82523d6000602084013e613b6a565b606091505b50600081511415613bb0576040517f08c379a0000000000000000000000000000000000000000000000000000000008152600401613ba790614d50565b60405180910390fd5b805181602001fd5b63150b7a0260e01b7bffffffffffffffffffffffffffffffffffffffffffffffffffffffff1916817bffffffffffffffffffffffffffffffffffffffffffffffffffffffff191614915050613c0d565b600190505b949350505050565b60606000821415613c5d576040518060400160405280600181526020017f30000000000000000000000000000000000000000000000000000000000000008152509050613dbd565b600082905060005b60008214613c8f578080613c78906154bd565b915050600a82613c88919061529d565b9150613c65565b60008167ffffffffffffffff811115613cd1577f4e487b7100000000000000000000000000000000000000000000000000000000600052604160045260246000fd5b6040519080825280601f01601f191660200182016040528015613d035781602001600182028036833780820191505090505b5090505b60008514613db657600182613d1c9190615328565b9150600a85613d2b919061552a565b6030613d379190615247565b60f81b818381518110613d73577f4e487b7100000000000000000000000000000000000000000000000000000000600052603260045260246000fd5b60200101907effffffffffffffffffffffffffffffffffffffffffffffffffffffffffffff1916908160001a905350600a85613daf919061529d565b9450613d07565b8093505050505b919050565b60008151905060006a636f6e736f6c652e6c6f679050602083016000808483855afa5050505050565b600073ffffffffffffffffffffffffffffffffffffffff168273ffffffffffffffffffffffffffffffffffffffff161415613e5b576040517f08c379a0000000000000000000000000000000000000000000000000000000008152600401613e5290614f30565b60405180910390fd5b613e64816139ad565b15613ea4576040517f08c379a0000000000000000000000000000000000000000000000000000000008152600401613e9b90614d90565b60405180910390fd5b613eb060008383613a19565b6001600360008473ffffffffffffffffffffffffffffffffffffffff1673ffffffffffffffffffffffffffffffffffffffff1681526020019081526020016000206000828254613f009190615247565b92505081905550816002600083815260200190815260200160002060006101000a81548173ffffffffffffffffffffffffffffffffffffffff021916908373ffffffffffffffffffffffffffffffffffffffff160217905550808273ffffffffffffffffffffffffffffffffffffffff16600073ffffffffffffffffffffffffffffffffffffffff167fddf252ad1be2c89b69c2b068fc378daa952ba7f163c4a11628f55a4df523b3ef60405160405180910390a4613fc160008383613a1e565b5050565b6000808273ffffffffffffffffffffffffffffffffffffffff163b119050919050565b828054613ff490615440565b90600052602060002090601f016020900481019282614016576000855561405d565b82601f1061402f57805160ff191683800117855561405d565b8280016001018555821561405d579182015b8281111561405c578251825591602001919060010190614041565b5b50905061406a91906140b5565b5090565b6040518060a0016040528060008152602001600073ffffffffffffffffffffffffffffffffffffffff16815260200160008152602001606081526020016000151581525090565b5b808211156140ce5760008160009055506001016140b6565b5090565b60006140e56140e08461511a565b6150f5565b9050828152602081018484840111156140fd57600080fd5b6141088482856153fe565b509392505050565b600061412361411e8461514b565b6150f5565b90508281526020810184848401111561413b57600080fd5b6141468482856153fe565b509392505050565b60008135905061415d81615bf5565b92915050565b60008135905061417281615c0c565b92915050565b60008151905061418781615c0c565b92915050565b60008135905061419c81615c23565b92915050565b6000815190506141b181615c23565b92915050565b600082601f8301126141c857600080fd5b81356141d88482602086016140d2565b91505092915050565b600082601f8301126141f257600080fd5b8135614202848260208601614110565b91505092915050565b60008135905061421a81615c3a565b92915050565b60008151905061422f81615c3a565b92915050565b60006020828403121561424757600080fd5b60006142558482850161414e565b91505092915050565b6000806040838503121561427157600080fd5b600061427f8582860161414e565b92505060206142908582860161414e565b9150509250929050565b6000806000606084860312156142af57600080fd5b60006142bd8682870161414e565b93505060206142ce8682870161414e565b92505060406142df8682870161420b565b9150509250925092565b600080600080608085870312156142ff57600080fd5b600061430d8782880161414e565b945050602061431e8782880161414e565b935050604061432f8782880161420b565b925050606085013567ffffffffffffffff81111561434c57600080fd5b614358878288016141b7565b91505092959194509250565b6000806040838503121561437757600080fd5b60006143858582860161414e565b925050602061439685828601614163565b9150509250929050565b600080604083850312156143b357600080fd5b60006143c18582860161414e565b92505060206143d28582860161420b565b9150509250929050565b6000602082840312156143ee57600080fd5b60006143fc84828501614178565b91505092915050565b60006020828403121561441757600080fd5b60006144258482850161418d565b91505092915050565b60006020828403121561444057600080fd5b600061444e848285016141a2565b91505092915050565b60006020828403121561446957600080fd5b600082013567ffffffffffffffff81111561448357600080fd5b61448f848285016141e1565b91505092915050565b6000602082840312156144aa57600080fd5b60006144b88482850161420b565b91505092915050565b6000602082840312156144d357600080fd5b60006144e184828501614220565b91505092915050565b600080604083850312156144fd57600080fd5b600061450b8582860161420b565b925050602061451c8582860161414e565b9150509250929050565b6000806040838503121561453957600080fd5b60006145478582860161420b565b925050602083013567ffffffffffffffff81111561456457600080fd5b614570858286016141e1565b9150509250929050565b60006145868383614b15565b905092915050565b600061459a8383614b8b565b60208301905092915050565b6145af81615378565b82525050565b6145be81615378565b82525050565b6145cd81615366565b82525050565b60006145de826151a1565b6145e881856151e7565b9350836020820285016145fa8561517c565b8060005b858110156146365784840389528151614617858261457a565b9450614622836151cd565b925060208a019950506001810190506145fe565b50829750879550505050505092915050565b6000614653826151ac565b61465d81856151f8565b93506146688361518c565b8060005b838110156146a05761467d82615617565b614687888261458e565b9750614692836151da565b92505060018101905061466c565b5085935050505092915050565b6146b68161538a565b82525050565b6146c58161538a565b82525050565b6146dc6146d78261538a565b615506565b82525050565b60006146ed826151b7565b6146f78185615209565b935061470781856020860161540d565b6147108161562a565b840191505092915050565b614724816153ec565b82525050565b6000614735826151c2565b61473f818561521a565b935061474f81856020860161540d565b6147588161562a565b840191505092915050565b600061476e826151c2565b614778818561522b565b935061478881856020860161540d565b6147918161562a565b840191505092915050565b60006147a7826151c2565b6147b1818561523c565b93506147c181856020860161540d565b80840191505092915050565b60006147da60088361523c565b91506147e582615655565b600882019050919050565b60006147fd60328361522b565b91506148088261567e565b604082019050919050565b600061482060258361522b565b915061482b826156cd565b604082019050919050565b6000614843601c8361522b565b915061484e8261571c565b602082019050919050565b600061486660108361522b565b915061487182615745565b602082019050919050565b600061488960188361522b565b91506148948261576e565b602082019050919050565b60006148ac60178361522b565b91506148b782615797565b602082019050919050565b60006148cf60248361522b565b91506148da826157c0565b604082019050919050565b60006148f260198361522b565b91506148fd8261580f565b602082019050919050565b600061491560078361523c565b915061492082615838565b600782019050919050565b600061493860238361522b565b915061494382615861565b604082019050919050565b600061495b60298361522b565b9150614966826158b0565b604082019050919050565b600061497e60188361522b565b9150614989826158ff565b602082019050919050565b60006149a160088361523c565b91506149ac82615928565b600882019050919050565b60006149c4602e8361522b565b91506149cf82615951565b604082019050919050565b60006149e760288361522b565b91506149f2826159a0565b604082019050919050565b6000614a0a60408361522b565b9150614a15826159ef565b604082019050919050565b6000614a2d603e8361522b565b9150614a3882615a3e565b604082019050919050565b6000614a5060208361522b565b9150614a5b82615a8d565b602082019050919050565b6000614a7360128361522b565b9150614a7e82615ab6565b602082019050919050565b6000614a9660188361522b565b9150614aa182615adf565b602082019050919050565b6000614ab960218361522b565b9150614ac482615b08565b604082019050919050565b6000614adc60238361522b565b9150614ae782615b57565b604082019050919050565b6000614aff602e8361522b565b9150614b0a82615ba6565b604082019050919050565b600060a083016000830151614b2d6000860182614b8b565b506020830151614b4060208601826145a6565b506040830151614b536040860182614b8b565b5060608301518482036060860152614b6b828261472a565b9150506080830151614b8060808601826146ad565b508091505092915050565b614b94816153e2565b82525050565b614ba3816153e2565b82525050565b6000614bb582846146cb565b60018201915081905092915050565b6000614bd0828461479c565b915081905092915050565b6000614be7828561479c565b9150614bf3828461479c565b91508190509392505050565b6000614c0a826147cd565b9150819050919050565b6000614c1f82614908565b9150819050919050565b6000614c3482614994565b9150819050919050565b6000602082019050614c5360008301846145c4565b92915050565b6000608082019050614c6e60008301876145c4565b614c7b60208301866145c4565b614c886040830185614b9a565b8181036060830152614c9a81846146e2565b905095945050505050565b6000608082019050614cba60008301876145c4565b614cc76020830186614b9a565b8181036040830152614cd98185614763565b9050614ce860608301846146bc565b95945050505050565b60006020820190508181036000830152614d0b81846145d3565b905092915050565b6000602082019050614d2860008301846146bc565b92915050565b60006020820190508181036000830152614d488184614763565b905092915050565b60006020820190508181036000830152614d69816147f0565b9050919050565b60006020820190508181036000830152614d8981614813565b9050919050565b60006020820190508181036000830152614da981614836565b9050919050565b60006020820190508181036000830152614dc981614859565b9050919050565b60006020820190508181036000830152614de98161487c565b9050919050565b60006020820190508181036000830152614e098161489f565b9050919050565b60006020820190508181036000830152614e29816148c2565b9050919050565b60006020820190508181036000830152614e49816148e5565b9050919050565b60006020820190508181036000830152614e698161492b565b9050919050565b60006020820190508181036000830152614e898161494e565b9050919050565b60006020820190508181036000830152614ea981614971565b9050919050565b60006020820190508181036000830152614ec9816149b7565b9050919050565b60006020820190508181036000830152614ee9816149da565b9050919050565b60006020820190508181036000830152614f09816149fd565b9050919050565b60006020820190508181036000830152614f2981614a20565b9050919050565b60006020820190508181036000830152614f4981614a43565b9050919050565b60006020820190508181036000830152614f6981614a66565b9050919050565b60006020820190508181036000830152614f8981614a89565b9050919050565b60006020820190508181036000830152614fa981614aac565b9050919050565b60006020820190508181036000830152614fc981614acf565b9050919050565b60006020820190508181036000830152614fe981614af2565b9050919050565b60006020820190506150056000830184614b9a565b92915050565b60006040820190506150206000830185614b9a565b61502d60208301846145c4565b9392505050565b600060a0820190506150496000830188614b9a565b61505660208301876145b5565b6150636040830186614b9a565b81810360608301526150758185614763565b905061508460808301846146bc565b9695505050505050565b60006060820190506150a36000830186614b9a565b6150b060208301856145c4565b6150bd604083018461471b565b949350505050565b60006040820190506150da6000830185614b9a565b81810360208301526150ec8184614648565b90509392505050565b60006150ff615110565b905061510b828261548c565b919050565b6000604051905090565b600067ffffffffffffffff821115615135576151346155e8565b5b61513e8261562a565b9050602081019050919050565b600067ffffffffffffffff821115615166576151656155e8565b5b61516f8261562a565b9050602081019050919050565b6000819050602082019050919050565b60008190508160005260206000209050919050565b600081519050919050565b600081549050919050565b600081519050919050565b600081519050919050565b6000602082019050919050565b6000600182019050919050565b600082825260208201905092915050565b600082825260208201905092915050565b600082825260208201905092915050565b600082825260208201905092915050565b600082825260208201905092915050565b600081905092915050565b6000615252826153e2565b915061525d836153e2565b9250827fffffffffffffffffffffffffffffffffffffffffffffffffffffffffffffffff038211156152925761529161555b565b5b828201905092915050565b60006152a8826153e2565b91506152b3836153e2565b9250826152c3576152c261558a565b5b828204905092915050565b60006152d9826153e2565b91506152e4836153e2565b9250817fffffffffffffffffffffffffffffffffffffffffffffffffffffffffffffffff048311821515161561531d5761531c61555b565b5b828202905092915050565b6000615333826153e2565b915061533e836153e2565b9250828210156153515761535061555b565b5b828203905092915050565b6000819050919050565b6000615371826153c2565b9050919050565b6000615383826153c2565b9050919050565b60008115159050919050565b60007fffffffff0000000000000000000000000000000000000000000000000000000082169050919050565b600073ffffffffffffffffffffffffffffffffffffffff82169050919050565b6000819050919050565b60006153f7826153e2565b9050919050565b82818337600083830152505050565b60005b8381101561542b578082015181840152602081019050615410565b8381111561543a576000848401525b50505050565b6000600282049050600182168061545857607f821691505b6020821081141561546c5761546b6155b9565b5b50919050565b600061548561548083615648565b61535c565b9050919050565b6154958261562a565b810181811067ffffffffffffffff821117156154b4576154b36155e8565b5b80604052505050565b60006154c8826153e2565b91507fffffffffffffffffffffffffffffffffffffffffffffffffffffffffffffffff8214156154fb576154fa61555b565b5b600182019050919050565b600061551182615518565b9050919050565b60006155238261563b565b9050919050565b6000615535826153e2565b9150615540836153e2565b9250826155505761554f61558a565b5b828206905092915050565b7f4e487b7100000000000000000000000000000000000000000000000000000000600052601160045260246000fd5b7f4e487b7100000000000000000000000000000000000000000000000000000000600052601260045260246000fd5b7f4e487b7100000000000000000000000000000000000000000000000000000000600052602260045260246000fd5b7f4e487b7100000000000000000000000000000000000000000000000000000000600052604160045260246000fd5b60006156238254615472565b9050919050565b6000601f19601f8301169050919050565b60008160f81b9050919050565b60008160001c9050919050565b7f52656a6563746564000000000000000000000000000000000000000000000000600082015250565b7f4552433732313a207472616e7366657220746f206e6f6e20455243373231526560008201527f63656976657220696d706c656d656e7465720000000000000000000000000000602082015250565b7f4552433732313a207472616e736665722066726f6d20696e636f72726563742060008201527f6f776e6572000000000000000000000000000000000000000000000000000000602082015250565b7f4552433732313a20746f6b656e20616c7265616479206d696e74656400000000600082015250565b7f4e6f7420656e6f7567682066756e647300000000000000000000000000000000600082015250565b7f4164647265737320616c72656164792061636365707465640000000000000000600082015250565b7f4164647265737320616c72656164792070656e64696e67000000000000000000600082015250565b7f4552433732313a207472616e7366657220746f20746865207a65726f2061646460008201527f7265737300000000000000000000000000000000000000000000000000000000602082015250565b7f4552433732313a20617070726f766520746f2063616c6c657200000000000000600082015250565b7f50656e64696e6700000000000000000000000000000000000000000000000000600082015250565b7f54686973206164647265737320646964206e6f7420626964206f6e207468697360008201527f2049500000000000000000000000000000000000000000000000000000000000602082015250565b7f4552433732313a2061646472657373207a65726f206973206e6f74206120766160008201527f6c6964206f776e65720000000000000000000000000000000000000000000000602082015250565b7f4164647265737320616c72656164792072656a65637465640000000000000000600082015250565b7f4163636570746564000000000000000000000000000000000000000000000000600082015250565b7f45524337323155524953746f726167653a2055524920736574206f66206e6f6e60008201527f6578697374656e7420746f6b656e000000000000000000000000000000000000602082015250565b7f596f757220617265206e6f7420746865206f776e6572206f662074686973207460008201527f6f6b656e204e4654000000000000000000000000000000000000000000000000602082015250565b7f506c65617365207375626d6974207468652061736b696e67207072696365206960008201527f6e206f7264657220746f20636f6d706c65746520746865207075726368617365602082015250565b7f4552433732313a20617070726f76652063616c6c6572206973206e6f7420746f60008201527f6b656e206f776e6572206e6f7220617070726f76656420666f7220616c6c0000602082015250565b7f4552433732313a206d696e7420746f20746865207a65726f2061646472657373600082015250565b7f696e646578206f7574206f6620626f756e640000000000000000000000000000600082015250565b7f4552433732313a20696e76616c696420746f6b656e2049440000000000000000600082015250565b7f4552433732313a20617070726f76616c20746f2063757272656e74206f776e6560008201527f7200000000000000000000000000000000000000000000000000000000000000602082015250565b7f596f7520617265206e6f7420746865206f776e6572206f66207468652049502060008201527f6e66740000000000000000000000000000000000000000000000000000000000602082015250565b7f4552433732313a2063616c6c6572206973206e6f7420746f6b656e206f776e6560008201527f72206e6f7220617070726f766564000000000000000000000000000000000000602082015250565b615bfe81615366565b8114615c0957600080fd5b50565b615c158161538a565b8114615c2057600080fd5b50565b615c2c81615396565b8114615c3757600080fd5b50565b615c43816153e2565b8114615c4e57600080fd5b5056fea26469706673582212208cdab96522e92c6187b074133ae7fce4a1afa1a2c850e2f802579ca4bfd8b06764736f6c63430008010033608060405234801561001057600080fd5b50611077806100206000396000f3fe608060405234801561001057600080fd5b50600436106100885760003560e01c80637ef1cd4b1161005b5780637ef1cd4b1461014d578063a28a34801461017d578063d25a84eb146101ad578063fc966d45146101dd57610088565b806319d5880c1461008d57806321772a44146100bd57806332a5d170146100ed57806379cd90551461011d575b600080fd5b6100a760048036038101906100a29190610a19565b61020d565b6040516100b49190610af6565b60405180910390f35b6100d760048036038101906100d29190610a19565b6102db565b6040516100e49190610b33565b60405180910390f35b61010760048036038101906101029190610a19565b61035b565b6040516101149190610af6565b60405180910390f35b610137600480360381019061013291906109af565b610429565b6040516101449190610b33565b60405180910390f35b61016760048036038101906101629190610a19565b610509565b6040516101749190610af6565b60405180910390f35b61019760048036038101906101929190610a19565b6105d7565b6040516101a49190610b33565b60405180910390f35b6101c760048036038101906101c29190610a19565b610657565b6040516101d49190610b33565b60405180910390f35b6101f760048036038101906101f291906109f0565b6106d7565b6040516102049190610b11565b60405180910390f35b600080600190505b82518110156102cf578360405160200161022f9190610adb565b6040516020818303038152906040528051906020012083828151811061027e577f4e487b7100000000000000000000000000000000000000000000000000000000600052603260045260246000fd5b60200260200101516040516020016102969190610adb565b6040516020818303038152906040528051906020012014156102bc5760019150506102d5565b80806102c790610efb565b915050610215565b50600090505b92915050565b600080600090505b82518110156103505783838281518110610326577f4e487b7100000000000000000000000000000000000000000000000000000000600052603260045260246000fd5b6020026020010151141561033d5780915050610355565b808061034890610efb565b9150506102e3565b508290505b92915050565b600080600190505b825181101561041d578360405160200161037d9190610adb565b604051602081830303815290604052805190602001208382815181106103cc577f4e487b7100000000000000000000000000000000000000000000000000000000600052603260045260246000fd5b60200260200101516040516020016103e49190610adb565b60405160208183030381529060405280519060200120141561040a576001915050610423565b808061041590610efb565b915050610363565b50600090505b92915050565b60008060009050600083905060005b81518110156104fe5760008183516104509190610e3e565b9050600083838151811061048d577f4e487b7100000000000000000000000000000000000000000000000000000000600052603260045260246000fd5b602001015160f81c60f81b905060008160f81c9050600060308260ff166104b49190610e3e565b90506001846104c39190610e3e565b600a6104cf9190610cc6565b816104da9190610de4565b876104e59190610bec565b96505050505080806104f690610efb565b915050610438565b508192505050919050565b600080600190505b82518110156105cb578360405160200161052b9190610adb565b6040516020818303038152906040528051906020012083828151811061057a577f4e487b7100000000000000000000000000000000000000000000000000000000600052603260045260246000fd5b60200260200101516040516020016105929190610adb565b6040516020818303038152906040528051906020012014156105b85760019150506105d1565b80806105c390610efb565b915050610511565b50600090505b92915050565b600080600090505b825181101561064c5783838281518110610622577f4e487b7100000000000000000000000000000000000000000000000000000000600052603260045260246000fd5b602002602001015114156106395780915050610651565b808061064490610efb565b9150506105df565b508290505b92915050565b600080600090505b82518110156106cc57838382815181106106a2577f4e487b7100000000000000000000000000000000000000000000000000000000600052603260045260246000fd5b602002602001015114156106b957809150506106d1565b80806106c490610efb565b91505061065f565b508290505b92915050565b606060006106e4836106ef565b905080915050919050565b60606000821415610737576040518060400160405280600181526020017f30000000000000000000000000000000000000000000000000000000000000008152509050610897565b600082905060005b6000821461076957808061075290610efb565b915050600a826107629190610c42565b915061073f565b60008167ffffffffffffffff8111156107ab577f4e487b7100000000000000000000000000000000000000000000000000000000600052604160045260246000fd5b6040519080825280601f01601f1916602001820160405280156107dd5781602001600182028036833780820191505090505b5090505b60008514610890576001826107f69190610e3e565b9150600a856108059190610f4e565b60306108119190610bec565b60f81b81838151811061084d577f4e487b7100000000000000000000000000000000000000000000000000000000600052603260045260246000fd5b60200101907effffffffffffffffffffffffffffffffffffffffffffffffffffffffffffff1916908160001a905350600a856108899190610c42565b94506107e1565b8093505050505b919050565b60006108af6108aa84610b73565b610b4e565b905080838252602082019050828560208602820111156108ce57600080fd5b60005b858110156108fe57816108e4888261099a565b8452602084019350602083019250506001810190506108d1565b5050509392505050565b600061091b61091684610b9f565b610b4e565b90508281526020810184848401111561093357600080fd5b61093e848285610e88565b509392505050565b600082601f83011261095757600080fd5b813561096784826020860161089c565b91505092915050565b600082601f83011261098157600080fd5b8135610991848260208601610908565b91505092915050565b6000813590506109a98161102a565b92915050565b6000602082840312156109c157600080fd5b600082013567ffffffffffffffff8111156109db57600080fd5b6109e784828501610970565b91505092915050565b600060208284031215610a0257600080fd5b6000610a108482850161099a565b91505092915050565b60008060408385031215610a2c57600080fd5b6000610a3a8582860161099a565b925050602083013567ffffffffffffffff811115610a5757600080fd5b610a6385828601610946565b9150509250929050565b610a7681610e72565b82525050565b6000610a8782610bd0565b610a918185610bdb565b9350610aa1818560208601610e97565b610aaa8161100c565b840191505092915050565b610abe81610e7e565b82525050565b610ad5610ad082610e7e565b610f44565b82525050565b6000610ae78284610ac4565b60208201915081905092915050565b6000602082019050610b0b6000830184610a6d565b92915050565b60006020820190508181036000830152610b2b8184610a7c565b905092915050565b6000602082019050610b486000830184610ab5565b92915050565b6000610b58610b69565b9050610b648282610eca565b919050565b6000604051905090565b600067ffffffffffffffff821115610b8e57610b8d610fdd565b5b602082029050602081019050919050565b600067ffffffffffffffff821115610bba57610bb9610fdd565b5b610bc38261100c565b9050602081019050919050565b600081519050919050565b600082825260208201905092915050565b6000610bf782610e7e565b9150610c0283610e7e565b9250827fffffffffffffffffffffffffffffffffffffffffffffffffffffffffffffffff03821115610c3757610c36610f7f565b5b828201905092915050565b6000610c4d82610e7e565b9150610c5883610e7e565b925082610c6857610c67610fae565b5b828204905092915050565b6000808291508390505b6001851115610cbd57808604811115610c9957610c98610f7f565b5b6001851615610ca85780820291505b8081029050610cb68561101d565b9450610c7d565b94509492505050565b6000610cd182610e7e565b9150610cdc83610e7e565b9250610d097fffffffffffffffffffffffffffffffffffffffffffffffffffffffffffffffff8484610d11565b905092915050565b600082610d215760019050610ddd565b81610d2f5760009050610ddd565b8160018114610d455760028114610d4f57610d7e565b6001915050610ddd565b60ff841115610d6157610d60610f7f565b5b8360020a915084821115610d7857610d77610f7f565b5b50610ddd565b5060208310610133831016604e8410600b8410161715610db35782820a905083811115610dae57610dad610f7f565b5b610ddd565b610dc08484846001610c73565b92509050818404811115610dd757610dd6610f7f565b5b81810290505b9392505050565b6000610def82610e7e565b9150610dfa83610e7e565b9250817fffffffffffffffffffffffffffffffffffffffffffffffffffffffffffffffff0483118215151615610e3357610e32610f7f565b5b828202905092915050565b6000610e4982610e7e565b9150610e5483610e7e565b925082821015610e6757610e66610f7f565b5b828203905092915050565b60008115159050919050565b6000819050919050565b82818337600083830152505050565b60005b83811015610eb5578082015181840152602081019050610e9a565b83811115610ec4576000848401525b50505050565b610ed38261100c565b810181811067ffffffffffffffff82111715610ef257610ef1610fdd565b5b80604052505050565b6000610f0682610e7e565b91507fffffffffffffffffffffffffffffffffffffffffffffffffffffffffffffffff821415610f3957610f38610f7f565b5b600182019050919050565b6000819050919050565b6000610f5982610e7e565b9150610f6483610e7e565b925082610f7457610f73610fae565b5b828206905092915050565b7f4e487b7100000000000000000000000000000000000000000000000000000000600052601160045260246000fd5b7f4e487b7100000000000000000000000000000000000000000000000000000000600052601260045260246000fd5b7f4e487b7100000000000000000000000000000000000000000000000000000000600052604160045260246000fd5b6000601f19601f8301169050919050565b60008160011c9050919050565b61103381610e7e565b811461103e57600080fd5b5056fea26469706673582212205942c2f8a71e8acddd94f54d6a92b5997d47a59760d368633ecbc3ef2985ae1064736f6c63430008010033",
  "linkReferences": {},
  "deployedLinkReferences": {}
}