{
  "_format": "hh-sol-artifact-1",
  "contractName": "ContractIp",
  "sourceName": "contracts/ContractIp.sol",
  "abi": [
    {
      "inputs": [],
      "stateMutability": "nonpayable",
      "type": "constructor"
    },
    {
      "anonymous": false,
      "inputs": [
        {
          "indexed": true,
          "internalType": "address",
          "name": "owner",
          "type": "address"
        },
        {
          "indexed": true,
          "internalType": "address",
          "name": "approved",
          "type": "address"
        },
        {
          "indexed": true,
          "internalType": "uint256",
          "name": "tokenId",
          "type": "uint256"
        }
      ],
      "name": "Approval",
      "type": "event"
    },
    {
      "anonymous": false,
      "inputs": [
        {
          "indexed": true,
          "internalType": "address",
          "name": "owner",
          "type": "address"
        },
        {
          "indexed": true,
          "internalType": "address",
          "name": "operator",
          "type": "address"
        },
        {
          "indexed": false,
          "internalType": "bool",
          "name": "approved",
          "type": "bool"
        }
      ],
      "name": "ApprovalForAll",
      "type": "event"
    },
    {
      "anonymous": false,
      "inputs": [
        {
          "indexed": true,
          "internalType": "uint256",
          "name": "tokenId",
          "type": "uint256"
        },
        {
          "indexed": false,
          "internalType": "address",
          "name": "Nftowner",
          "type": "address"
        },
        {
          "indexed": false,
          "internalType": "uint256",
          "name": "timestamp",
          "type": "uint256"
        },
        {
          "indexed": false,
          "internalType": "string",
          "name": "status",
          "type": "string"
        },
        {
          "indexed": false,
          "internalType": "bool",
          "name": "isRegistered",
          "type": "bool"
        }
      ],
      "name": "TokenAcceptedNft",
      "type": "event"
    },
    {
      "anonymous": false,
      "inputs": [
        {
          "indexed": true,
          "internalType": "address",
          "name": "from",
          "type": "address"
        },
        {
          "indexed": true,
          "internalType": "address",
          "name": "to",
          "type": "address"
        },
        {
          "indexed": true,
          "internalType": "uint256",
          "name": "tokenId",
          "type": "uint256"
        }
      ],
      "name": "Transfer",
      "type": "event"
    },
    {
      "inputs": [
        {
          "internalType": "uint256",
          "name": "",
          "type": "uint256"
        }
      ],
      "name": "acceptedIps",
      "outputs": [
        {
          "internalType": "uint256",
          "name": "",
          "type": "uint256"
        }
      ],
      "stateMutability": "view",
      "type": "function"
    },
    {
      "inputs": [
        {
          "internalType": "address",
          "name": "to",
          "type": "address"
        },
        {
          "internalType": "uint256",
          "name": "tokenId",
          "type": "uint256"
        }
      ],
      "name": "approve",
      "outputs": [],
      "stateMutability": "nonpayable",
      "type": "function"
    },
    {
      "inputs": [
        {
          "internalType": "address",
          "name": "owner",
          "type": "address"
        }
      ],
      "name": "balanceOf",
      "outputs": [
        {
          "internalType": "uint256",
          "name": "",
          "type": "uint256"
        }
      ],
      "stateMutability": "view",
      "type": "function"
    },
    {
      "inputs": [
        {
          "internalType": "uint256",
          "name": "tokenId",
          "type": "uint256"
        },
        {
          "internalType": "address",
          "name": "bidderAddress",
          "type": "address"
        }
      ],
      "name": "bidVal",
      "outputs": [
        {
          "internalType": "uint256",
          "name": "",
          "type": "uint256"
        }
      ],
      "stateMutability": "view",
      "type": "function"
    },
    {
      "inputs": [
        {
          "internalType": "uint256",
          "name": "tokenId",
          "type": "uint256"
        },
        {
          "internalType": "string",
          "name": "status",
          "type": "string"
        }
      ],
      "name": "changeStatus",
      "outputs": [
        {
          "internalType": "bool",
          "name": "",
          "type": "bool"
        }
      ],
      "stateMutability": "nonpayable",
      "type": "function"
    },
    {
      "inputs": [
        {
          "internalType": "address",
          "name": "bidderAddress",
          "type": "address"
        }
      ],
      "name": "check",
      "outputs": [
        {
          "internalType": "bool",
          "name": "",
          "type": "bool"
        }
      ],
      "stateMutability": "view",
      "type": "function"
    },
    {
      "inputs": [],
      "name": "commissionPrice",
      "outputs": [
        {
          "internalType": "uint256",
          "name": "",
          "type": "uint256"
        }
      ],
      "stateMutability": "view",
      "type": "function"
    },
    {
      "inputs": [],
      "name": "countAcceptedIPs",
      "outputs": [
        {
          "internalType": "uint256",
          "name": "",
          "type": "uint256"
        }
      ],
      "stateMutability": "view",
      "type": "function"
    },
    {
      "inputs": [],
      "name": "countPendingIPs",
      "outputs": [
        {
          "internalType": "uint256",
          "name": "",
          "type": "uint256"
        }
      ],
      "stateMutability": "view",
      "type": "function"
    },
    {
      "inputs": [],
      "name": "countRejectedIPs",
      "outputs": [
        {
          "internalType": "uint256",
          "name": "",
          "type": "uint256"
        }
      ],
      "stateMutability": "view",
      "type": "function"
    },
    {
      "inputs": [
        {
          "internalType": "string",
          "name": "tokenURI",
          "type": "string"
        }
      ],
      "name": "createToken",
      "outputs": [
        {
          "internalType": "uint256",
          "name": "",
          "type": "uint256"
        }
      ],
      "stateMutability": "payable",
      "type": "function"
    },
    {
      "inputs": [
        {
          "internalType": "uint256",
          "name": "tokenId",
          "type": "uint256"
        },
        {
          "internalType": "address",
          "name": "bidderAddress",
          "type": "address"
        }
      ],
      "name": "executeSale",
      "outputs": [],
      "stateMutability": "payable",
      "type": "function"
    },
    {
      "inputs": [],
      "name": "getAllNFTs",
      "outputs": [
        {
          "components": [
            {
              "internalType": "uint256",
              "name": "tokenId",
              "type": "uint256"
            },
            {
              "internalType": "address payable",
              "name": "Nftowner",
              "type": "address"
            },
            {
              "internalType": "uint256",
              "name": "timestamp",
              "type": "uint256"
            },
            {
              "internalType": "string",
              "name": "status",
              "type": "string"
            },
            {
              "internalType": "bool",
              "name": "isRegistered",
              "type": "bool"
            }
          ],
          "internalType": "struct ContractIp.RequestedNfts[]",
          "name": "",
          "type": "tuple[]"
        }
      ],
      "stateMutability": "view",
      "type": "function"
    },
    {
      "inputs": [
        {
          "internalType": "uint256",
          "name": "tokenId",
          "type": "uint256"
        }
      ],
      "name": "getApproved",
      "outputs": [
        {
          "internalType": "address",
          "name": "",
          "type": "address"
        }
      ],
      "stateMutability": "view",
      "type": "function"
    },
    {
      "inputs": [],
      "name": "getMyNFTs",
      "outputs": [
        {
          "components": [
            {
              "internalType": "uint256",
              "name": "tokenId",
              "type": "uint256"
            },
            {
              "internalType": "address payable",
              "name": "Nftowner",
              "type": "address"
            },
            {
              "internalType": "uint256",
              "name": "timestamp",
              "type": "uint256"
            },
            {
              "internalType": "string",
              "name": "status",
              "type": "string"
            },
            {
              "internalType": "bool",
              "name": "isRegistered",
              "type": "bool"
            }
          ],
          "internalType": "struct ContractIp.RequestedNfts[]",
          "name": "",
          "type": "tuple[]"
        }
      ],
      "stateMutability": "view",
      "type": "function"
    },
    {
      "inputs": [
        {
          "internalType": "uint256",
          "name": "",
          "type": "uint256"
        }
      ],
      "name": "idToListedToken",
      "outputs": [
        {
          "internalType": "uint256",
          "name": "tokenId",
          "type": "uint256"
        },
        {
          "internalType": "address payable",
          "name": "Nftowner",
          "type": "address"
        },
        {
          "internalType": "uint256",
          "name": "timestamp",
          "type": "uint256"
        },
        {
          "internalType": "string",
          "name": "status",
          "type": "string"
        },
        {
          "internalType": "bool",
          "name": "isRegistered",
          "type": "bool"
        }
      ],
      "stateMutability": "view",
      "type": "function"
    },
    {
      "inputs": [
        {
          "internalType": "address",
          "name": "owner",
          "type": "address"
        },
        {
          "internalType": "address",
          "name": "operator",
          "type": "address"
        }
      ],
      "name": "isApprovedForAll",
      "outputs": [
        {
          "internalType": "bool",
          "name": "",
          "type": "bool"
        }
      ],
      "stateMutability": "view",
      "type": "function"
    },
    {
      "inputs": [],
      "name": "name",
      "outputs": [
        {
          "internalType": "string",
          "name": "",
          "type": "string"
        }
      ],
      "stateMutability": "view",
      "type": "function"
    },
    {
      "inputs": [
        {
          "internalType": "uint256",
          "name": "tokenId",
          "type": "uint256"
        }
      ],
      "name": "ownerOf",
      "outputs": [
        {
          "internalType": "address",
          "name": "",
          "type": "address"
        }
      ],
      "stateMutability": "view",
      "type": "function"
    },
    {
      "inputs": [
        {
          "internalType": "uint256",
          "name": "",
          "type": "uint256"
        }
      ],
      "name": "pendingIps",
      "outputs": [
        {
          "internalType": "uint256",
          "name": "",
          "type": "uint256"
        }
      ],
      "stateMutability": "view",
      "type": "function"
    },
    {
      "inputs": [],
      "name": "receivedWei",
      "outputs": [
        {
          "internalType": "uint256",
          "name": "",
          "type": "uint256"
        }
      ],
      "stateMutability": "view",
      "type": "function"
    },
    {
      "inputs": [
        {
          "internalType": "uint256",
          "name": "",
          "type": "uint256"
        }
      ],
      "name": "rejectedIps",
      "outputs": [
        {
          "internalType": "uint256",
          "name": "",
          "type": "uint256"
        }
      ],
      "stateMutability": "view",
      "type": "function"
    },
    {
      "inputs": [
        {
          "internalType": "uint256",
          "name": "_index",
          "type": "uint256"
        }
      ],
      "name": "removeAccepted",
      "outputs": [],
      "stateMutability": "nonpayable",
      "type": "function"
    },
    {
      "inputs": [
        {
          "internalType": "uint256",
          "name": "_index",
          "type": "uint256"
        }
      ],
      "name": "removePending",
      "outputs": [],
      "stateMutability": "nonpayable",
      "type": "function"
    },
    {
      "inputs": [
        {
          "internalType": "uint256",
          "name": "_index",
          "type": "uint256"
        }
      ],
      "name": "removeRejected",
      "outputs": [],
      "stateMutability": "nonpayable",
      "type": "function"
    },
    {
      "inputs": [],
      "name": "result",
      "outputs": [
        {
          "internalType": "string",
          "name": "",
          "type": "string"
        }
      ],
      "stateMutability": "view",
      "type": "function"
    },
    {
      "inputs": [],
      "name": "returnedWei",
      "outputs": [
        {
          "internalType": "uint256",
          "name": "",
          "type": "uint256"
        }
      ],
      "stateMutability": "view",
      "type": "function"
    },
    {
      "inputs": [
        {
          "internalType": "address",
          "name": "from",
          "type": "address"
        },
        {
          "internalType": "address",
          "name": "to",
          "type": "address"
        },
        {
          "internalType": "uint256",
          "name": "tokenId",
          "type": "uint256"
        }
      ],
      "name": "safeTransferFrom",
      "outputs": [],
      "stateMutability": "nonpayable",
      "type": "function"
    },
    {
      "inputs": [
        {
          "internalType": "address",
          "name": "from",
          "type": "address"
        },
        {
          "internalType": "address",
          "name": "to",
          "type": "address"
        },
        {
          "internalType": "uint256",
          "name": "tokenId",
          "type": "uint256"
        },
        {
          "internalType": "bytes",
          "name": "data",
          "type": "bytes"
        }
      ],
      "name": "safeTransferFrom",
      "outputs": [],
      "stateMutability": "nonpayable",
      "type": "function"
    },
    {
      "inputs": [
        {
          "internalType": "address",
          "name": "operator",
          "type": "address"
        },
        {
          "internalType": "bool",
          "name": "approved",
          "type": "bool"
        }
      ],
      "name": "setApprovalForAll",
      "outputs": [],
      "stateMutability": "nonpayable",
      "type": "function"
    },
    {
      "inputs": [
        {
          "internalType": "bytes4",
          "name": "interfaceId",
          "type": "bytes4"
        }
      ],
      "name": "supportsInterface",
      "outputs": [
        {
          "internalType": "bool",
          "name": "",
          "type": "bool"
        }
      ],
      "stateMutability": "view",
      "type": "function"
    },
    {
      "inputs": [],
      "name": "symbol",
      "outputs": [
        {
          "internalType": "string",
          "name": "",
          "type": "string"
        }
      ],
      "stateMutability": "view",
      "type": "function"
    },
    {
      "inputs": [
        {
          "internalType": "uint256",
          "name": "tokenId",
          "type": "uint256"
        }
      ],
      "name": "tokenURI",
      "outputs": [
        {
          "internalType": "string",
          "name": "",
          "type": "string"
        }
      ],
      "stateMutability": "view",
      "type": "function"
    },
    {
      "inputs": [
        {
          "internalType": "address",
          "name": "from",
          "type": "address"
        },
        {
          "internalType": "address",
          "name": "to",
          "type": "address"
        },
        {
          "internalType": "uint256",
          "name": "tokenId",
          "type": "uint256"
        }
      ],
      "name": "transferFrom",
      "outputs": [],
      "stateMutability": "nonpayable",
      "type": "function"
    },
    {
      "inputs": [
        {
          "internalType": "uint256",
          "name": "_cp",
          "type": "uint256"
        }
      ],
      "name": "updateCommissionFee",
      "outputs": [],
      "stateMutability": "payable",
      "type": "function"
    }
  ],
  "bytecode": "0x608060405273f24cb2fdfd344e748871d0747c67473b7d0b71f0600760006101000a81548173ffffffffffffffffffffffffffffffffffffffff021916908373ffffffffffffffffffffffffffffffffffffffff1602179055506611c37937e08000600b556040516200007290620001c5565b604051809103906000f0801580156200008f573d6000803e3d6000fd5b50600c60006101000a81548173ffffffffffffffffffffffffffffffffffffffff021916908373ffffffffffffffffffffffffffffffffffffffff160217905550348015620000dd57600080fd5b506040518060400160405280600e81526020017f4e46544d61726b6574706c6163650000000000000000000000000000000000008152506040518060400160405280600481526020017f4e46544d00000000000000000000000000000000000000000000000000000000815250816000908051906020019062000162929190620001d3565b5080600190805190602001906200017b929190620001d3565b50505033600a60006101000a81548173ffffffffffffffffffffffffffffffffffffffff021916908373ffffffffffffffffffffffffffffffffffffffff160217905550620002e8565b6110978062005f0a83390190565b828054620001e19062000283565b90600052602060002090601f01602090048101928262000205576000855562000251565b82601f106200022057805160ff191683800117855562000251565b8280016001018555821562000251579182015b828111156200025057825182559160200191906001019062000233565b5b50905062000260919062000264565b5090565b5b808211156200027f57600081600090555060010162000265565b5090565b600060028204905060018216806200029c57607f821691505b60208210811415620002b357620002b2620002b9565b5b50919050565b7f4e487b7100000000000000000000000000000000000000000000000000000000600052602260045260246000fd5b615c1280620002f86000396000f3fe6080604052600436106102045760003560e01c806364edc20f11610118578063c87b56dd116100a0578063e57a497a1161006f578063e57a497a146107c1578063e985e9c514610802578063f5f680e01461083f578063fb645bd81461086a578063fd4f0b4f1461089357610204565b8063c87b56dd146106f1578063cea62a1b1461072e578063d5606fbf14610759578063e0391b091461079657610204565b8063a22cb465116100e7578063a22cb465146105fc578063b13d3ecc14610625578063b46c9ac71461064e578063b88d4fde1461068b578063c23697a8146106b457610204565b806364edc20f1461054d578063653721471461056957806370a082311461059457806395d89b41146105d157610204565b806327bbc10d1161019b57806345576f941161016a57806345576f941461044d5780634558593e1461047d57806356d01613146104ba578063629cb2e4146104e55780636352211e1461051057610204565b806327bbc10d1461039357806334020f4b146103d057806338d5d325146103fb57806342842e0e1461042457610204565b8063095ea7b3116101d7578063095ea7b3146102d957806310e22d41146103025780631cdaea221461032d57806323b872dd1461036a57610204565b806301ffc9a71461020957806302000bd41461024657806306fdde0314610271578063081812fc1461029c575b600080fd5b34801561021557600080fd5b50610230600480360381019061022b91906143ea565b6108af565b60405161023d9190614cf8565b60405180910390f35b34801561025257600080fd5b5061025b610991565b6040516102689190614fd5565b60405180910390f35b34801561027d57600080fd5b5061028661099e565b6040516102939190614d13565b60405180910390f35b3480156102a857600080fd5b506102c360048036038101906102be919061447d565b610a30565b6040516102d09190614c23565b60405180910390f35b3480156102e557600080fd5b5061030060048036038101906102fb9190614385565b610a76565b005b34801561030e57600080fd5b50610317610b8e565b6040516103249190614fd5565b60405180910390f35b34801561033957600080fd5b50610354600480360381019061034f919061447d565b610b94565b6040516103619190614fd5565b60405180910390f35b34801561037657600080fd5b50610391600480360381019061038c919061427f565b610bb8565b005b34801561039f57600080fd5b506103ba60048036038101906103b5919061447d565b610c18565b6040516103c79190614fd5565b60405180910390f35b3480156103dc57600080fd5b506103e5610c3c565b6040516103f29190614fd5565b60405180910390f35b34801561040757600080fd5b50610422600480360381019061041d919061447d565b610c49565b005b34801561043057600080fd5b5061044b6004803603810190610446919061427f565b610dad565b005b6104676004803603810190610462919061443c565b610dcd565b6040516104749190614fd5565b60405180910390f35b34801561048957600080fd5b506104a4600480360381019061049f919061450b565b610f95565b6040516104b19190614cf8565b60405180910390f35b3480156104c657600080fd5b506104cf61102f565b6040516104dc9190614fd5565b60405180910390f35b3480156104f157600080fd5b506104fa611035565b6040516105079190614cd6565b60405180910390f35b34801561051c57600080fd5b506105376004803603810190610532919061447d565b6113ae565b6040516105449190614c23565b60405180910390f35b6105676004803603810190610562919061447d565b611460565b005b34801561057557600080fd5b5061057e6114c4565b60405161058b9190614d13565b60405180910390f35b3480156105a057600080fd5b506105bb60048036038101906105b6919061421a565b611552565b6040516105c89190614fd5565b60405180910390f35b3480156105dd57600080fd5b506105e661160a565b6040516105f39190614d13565b60405180910390f35b34801561060857600080fd5b50610623600480360381019061061e9190614349565b61169c565b005b34801561063157600080fd5b5061064c6004803603810190610647919061447d565b6116b2565b005b34801561065a57600080fd5b50610675600480360381019061067091906144cf565b611816565b6040516106829190614fd5565b60405180910390f35b34801561069757600080fd5b506106b260048036038101906106ad91906142ce565b6118cd565b005b3480156106c057600080fd5b506106db60048036038101906106d6919061421a565b61192f565b6040516106e89190614cf8565b60405180910390f35b3480156106fd57600080fd5b506107186004803603810190610713919061447d565b6119e3565b6040516107259190614d13565b60405180910390f35b34801561073a57600080fd5b50610743611af6565b6040516107509190614fd5565b60405180910390f35b34801561076557600080fd5b50610780600480360381019061077b919061447d565b611b03565b60405161078d9190614fd5565b60405180910390f35b3480156107a257600080fd5b506107ab611b27565b6040516107b89190614cd6565b60405180910390f35b3480156107cd57600080fd5b506107e860048036038101906107e3919061447d565b611d81565b6040516107f9959493929190615019565b60405180910390f35b34801561080e57600080fd5b5061082960048036038101906108249190614243565b611e6c565b6040516108369190614cf8565b60405180910390f35b34801561084b57600080fd5b50610854611f00565b6040516108619190614fd5565b60405180910390f35b34801561087657600080fd5b50610891600480360381019061088c919061447d565b611f06565b005b6108ad60048036038101906108a891906144cf565b61206a565b005b60007f80ac58cd000000000000000000000000000000000000000000000000000000007bffffffffffffffffffffffffffffffffffffffffffffffffffffffff1916827bffffffffffffffffffffffffffffffffffffffffffffffffffffffff1916148061097a57507f5b5e139f000000000000000000000000000000000000000000000000000000007bffffffffffffffffffffffffffffffffffffffffffffffffffffffff1916827bffffffffffffffffffffffffffffffffffffffffffffffffffffffff1916145b8061098a57506109898261257f565b5b9050919050565b6000600d80549050905090565b6060600080546109ad906153cb565b80601f01602080910402602001604051908101604052809291908181526020018280546109d9906153cb565b8015610a265780601f106109fb57610100808354040283529160200191610a26565b820191906000526020600020905b815481529060010190602001808311610a0957829003601f168201915b5050505050905090565b6000610a3b826125e9565b6004600083815260200190815260200160002060009054906101000a900473ffffffffffffffffffffffffffffffffffffffff169050919050565b6000610a81826113ae565b90508073ffffffffffffffffffffffffffffffffffffffff168373ffffffffffffffffffffffffffffffffffffffff161415610af2576040517f08c379a0000000000000000000000000000000000000000000000000000000008152600401610ae990614f75565b60405180910390fd5b8073ffffffffffffffffffffffffffffffffffffffff16610b11612634565b73ffffffffffffffffffffffffffffffffffffffff161480610b405750610b3f81610b3a612634565b611e6c565b5b610b7f576040517f08c379a0000000000000000000000000000000000000000000000000000000008152600401610b7690614ef5565b60405180910390fd5b610b89838361263c565b505050565b60125481565b600f8181548110610ba457600080fd5b906000526020600020016000915090505481565b610bc9610bc3612634565b826126f5565b610c08576040517f08c379a0000000000000000000000000000000000000000000000000000000008152600401610bff90614fb5565b60405180910390fd5b610c1383838361278a565b505050565b600d8181548110610c2857600080fd5b906000526020600020016000915090505481565b6000600e80549050905090565b600f805490508110610c90576040517f08c379a0000000000000000000000000000000000000000000000000000000008152600401610c8790614f35565b60405180910390fd5b60008190505b6001600f80549050610ca891906152b3565b811015610d5b57600f600182610cbe919061522c565b81548110610cf5577f4e487b7100000000000000000000000000000000000000000000000000000000600052603260045260246000fd5b9060005260206000200154600f8281548110610d3a577f4e487b7100000000000000000000000000000000000000000000000000000000600052603260045260246000fd5b90600052602060002001819055508080610d5390615448565b915050610c96565b50600f805480610d94577f4e487b7100000000000000000000000000000000000000000000000000000000600052603160045260246000fd5b6001900381819060005260206000200160009055905550565b610dc8838383604051806020016040528060008152506118cd565b505050565b6000610dd960086129f1565b6000610de56008612a07565b9050610df13382612a15565b610dfb8184612a33565b60006040518060400160405280600781526020017f50656e64696e670000000000000000000000000000000000000000000000000081525090506040518060a001604052808381526020013373ffffffffffffffffffffffffffffffffffffffff16815260200142815260200182815260200160011515815250601160008481526020019081526020016000206000820151816000015560208201518160010160006101000a81548173ffffffffffffffffffffffffffffffffffffffff021916908373ffffffffffffffffffffffffffffffffffffffff160217905550604082015181600201556060820151816003019080519060200190610eff929190613fcd565b5060808201518160040160006101000a81548160ff021916908315150217905550905050600e829080600181540180825580915050600190039060005260206000200160009091909190915055817f6e22b084a5f448e7b37abdf4bb505723438e4f4f4a4d96f9b60b0b14e93a4c643342846001604051610f839493929190614c8a565b60405180910390a28192505050919050565b6000600a60009054906101000a900473ffffffffffffffffffffffffffffffffffffffff1673ffffffffffffffffffffffffffffffffffffffff163373ffffffffffffffffffffffffffffffffffffffff1614610ff157600080fd5b8160116000858152602001908152602001600020600301908051906020019061101b929190613fcd565b5061102583612aa7565b6001905092915050565b600b5481565b606060006110436008612a07565b9050600080600080600090505b848110156110f1573373ffffffffffffffffffffffffffffffffffffffff1660116000600184611080919061522c565b815260200190815260200160002060010160009054906101000a900473ffffffffffffffffffffffffffffffffffffffff1673ffffffffffffffffffffffffffffffffffffffff1614156110de576001846110db919061522c565b93505b80806110e990615448565b915050611050565b5060008367ffffffffffffffff811115611134577f4e487b7100000000000000000000000000000000000000000000000000000000600052604160045260246000fd5b60405190808252806020026020018201604052801561116d57816020015b61115a614053565b8152602001906001900390816111525790505b50905060005b858110156113a2573373ffffffffffffffffffffffffffffffffffffffff16601160006001846111a3919061522c565b815260200190815260200160002060010160009054906101000a900473ffffffffffffffffffffffffffffffffffffffff1673ffffffffffffffffffffffffffffffffffffffff16141561138f576001816111fe919061522c565b92506000601160008581526020019081526020016000209050806040518060a0016040529081600082015481526020016001820160009054906101000a900473ffffffffffffffffffffffffffffffffffffffff1673ffffffffffffffffffffffffffffffffffffffff1673ffffffffffffffffffffffffffffffffffffffff1681526020016002820154815260200160038201805461129d906153cb565b80601f01602080910402602001604051908101604052809291908181526020018280546112c9906153cb565b80156113165780601f106112eb57610100808354040283529160200191611316565b820191906000526020600020905b8154815290600101906020018083116112f957829003601f168201915b505050505081526020016004820160009054906101000a900460ff161515151581525050838681518110611373577f4e487b7100000000000000000000000000000000000000000000000000000000600052603260045260246000fd5b602002602001018190525060018561138b919061522c565b9450505b808061139a90615448565b915050611173565b50809550505050505090565b6000806002600084815260200190815260200160002060009054906101000a900473ffffffffffffffffffffffffffffffffffffffff169050600073ffffffffffffffffffffffffffffffffffffffff168173ffffffffffffffffffffffffffffffffffffffff161415611457576040517f08c379a000000000000000000000000000000000000000000000000000000000815260040161144e90614f55565b60405180910390fd5b80915050919050565b600a60009054906101000a900473ffffffffffffffffffffffffffffffffffffffff1673ffffffffffffffffffffffffffffffffffffffff163373ffffffffffffffffffffffffffffffffffffffff16146114ba57600080fd5b80600b8190555050565b601080546114d1906153cb565b80601f01602080910402602001604051908101604052809291908181526020018280546114fd906153cb565b801561154a5780601f1061151f5761010080835404028352916020019161154a565b820191906000526020600020905b81548152906001019060200180831161152d57829003601f168201915b505050505081565b60008073ffffffffffffffffffffffffffffffffffffffff168273ffffffffffffffffffffffffffffffffffffffff1614156115c3576040517f08c379a00000000000000000000000000000000000000000000000000000000081526004016115ba90614e55565b60405180910390fd5b600360008373ffffffffffffffffffffffffffffffffffffffff1673ffffffffffffffffffffffffffffffffffffffff168152602001908152602001600020549050919050565b606060018054611619906153cb565b80601f0160208091040260200160405190810160405280929190818152602001828054611645906153cb565b80156116925780601f1061166757610100808354040283529160200191611692565b820191906000526020600020905b81548152906001019060200180831161167557829003601f168201915b5050505050905090565b6116ae6116a7612634565b83836136b1565b5050565b600e8054905081106116f9576040517f08c379a00000000000000000000000000000000000000000000000000000000081526004016116f090614f35565b60405180910390fd5b60008190505b6001600e8054905061171191906152b3565b8110156117c457600e600182611727919061522c565b8154811061175e577f4e487b7100000000000000000000000000000000000000000000000000000000600052603260045260246000fd5b9060005260206000200154600e82815481106117a3577f4e487b7100000000000000000000000000000000000000000000000000000000600052603260045260246000fd5b906000526020600020018190555080806117bc90615448565b9150506116ff565b50600e8054806117fd577f4e487b7100000000000000000000000000000000000000000000000000000000600052603160045260246000fd5b6001900381819060005260206000200160009055905550565b6000600760009054906101000a900473ffffffffffffffffffffffffffffffffffffffff1673ffffffffffffffffffffffffffffffffffffffff16639f04996d84846040518363ffffffff1660e01b8152600401611875929190614ff0565b60206040518083038186803b15801561188d57600080fd5b505afa1580156118a1573d6000803e3d6000fd5b505050506040513d601f19601f820116820180604052508101906118c591906144a6565b905092915050565b6118de6118d8612634565b836126f5565b61191d576040517f08c379a000000000000000000000000000000000000000000000000000000000815260040161191490614fb5565b60405180910390fd5b6119298484848461381e565b50505050565b6000600760009054906101000a900473ffffffffffffffffffffffffffffffffffffffff1673ffffffffffffffffffffffffffffffffffffffff166319fde1f6836040518263ffffffff1660e01b815260040161198c9190614c23565b60206040518083038186803b1580156119a457600080fd5b505afa1580156119b8573d6000803e3d6000fd5b505050506040513d601f19601f820116820180604052508101906119dc91906143c1565b9050919050565b60606119ee826125e9565b6000600660008481526020019081526020016000208054611a0e906153cb565b80601f0160208091040260200160405190810160405280929190818152602001828054611a3a906153cb565b8015611a875780601f10611a5c57610100808354040283529160200191611a87565b820191906000526020600020905b815481529060010190602001808311611a6a57829003601f168201915b505050505090506000611a9861387a565b9050600081511415611aae578192505050611af1565b600082511115611ae3578082604051602001611acb929190614bc0565b60405160208183030381529060405292505050611af1565b611aec84613891565b925050505b919050565b6000600f80549050905090565b600e8181548110611b1357600080fd5b906000526020600020016000915090505481565b60606000611b356008612a07565b905060008167ffffffffffffffff811115611b79577f4e487b7100000000000000000000000000000000000000000000000000000000600052604160045260246000fd5b604051908082528060200260200182016040528015611bb257816020015b611b9f614053565b815260200190600190039081611b975790505b50905060008080600090505b84811015611d7657600181611bd3919061522c565b91506000601160008481526020019081526020016000209050806040518060a0016040529081600082015481526020016001820160009054906101000a900473ffffffffffffffffffffffffffffffffffffffff1673ffffffffffffffffffffffffffffffffffffffff1673ffffffffffffffffffffffffffffffffffffffff16815260200160028201548152602001600382018054611c72906153cb565b80601f0160208091040260200160405190810160405280929190818152602001828054611c9e906153cb565b8015611ceb5780601f10611cc057610100808354040283529160200191611ceb565b820191906000526020600020905b815481529060010190602001808311611cce57829003601f168201915b505050505081526020016004820160009054906101000a900460ff161515151581525050858581518110611d48577f4e487b7100000000000000000000000000000000000000000000000000000000600052603260045260246000fd5b6020026020010181905250600184611d60919061522c565b9350508080611d6e90615448565b915050611bbe565b508294505050505090565b60116020528060005260406000206000915090508060000154908060010160009054906101000a900473ffffffffffffffffffffffffffffffffffffffff1690806002015490806003018054611dd6906153cb565b80601f0160208091040260200160405190810160405280929190818152602001828054611e02906153cb565b8015611e4f5780601f10611e2457610100808354040283529160200191611e4f565b820191906000526020600020905b815481529060010190602001808311611e3257829003601f168201915b5050505050908060040160009054906101000a900460ff16905085565b6000600560008473ffffffffffffffffffffffffffffffffffffffff1673ffffffffffffffffffffffffffffffffffffffff16815260200190815260200160002060008373ffffffffffffffffffffffffffffffffffffffff1673ffffffffffffffffffffffffffffffffffffffff16815260200190815260200160002060009054906101000a900460ff16905092915050565b60135481565b600d805490508110611f4d576040517f08c379a0000000000000000000000000000000000000000000000000000000008152600401611f4490614f35565b60405180910390fd5b60008190505b6001600d80549050611f6591906152b3565b81101561201857600d600182611f7b919061522c565b81548110611fb2577f4e487b7100000000000000000000000000000000000000000000000000000000600052603260045260246000fd5b9060005260206000200154600d8281548110611ff7577f4e487b7100000000000000000000000000000000000000000000000000000000600052603260045260246000fd5b9060005260206000200181905550808061201090615448565b915050611f53565b50600d805480612051577f4e487b7100000000000000000000000000000000000000000000000000000000600052603160045260246000fd5b6001900381819060005260206000200160009055905550565b6000600760009054906101000a900473ffffffffffffffffffffffffffffffffffffffff1673ffffffffffffffffffffffffffffffffffffffff16639f04996d84846040518363ffffffff1660e01b81526004016120c9929190614ff0565b60206040518083038186803b1580156120e157600080fd5b505afa1580156120f5573d6000803e3d6000fd5b505050506040513d601f19601f8201168201806040525081019061211991906144a6565b90506121596040518060400160405280601781526020017f6e6f626f6479206973207468726561746e696e67206d650000000000000000008152506138f9565b612162836113ae565b73ffffffffffffffffffffffffffffffffffffffff163373ffffffffffffffffffffffffffffffffffffffff16146121cf576040517f08c379a00000000000000000000000000000000000000000000000000000000081526004016121c690614f95565b60405180910390fd5b803414612211576040517f08c379a000000000000000000000000000000000000000000000000000000000815260040161220890614ed5565b60405180910390fd5b61221a8261192f565b612259576040517f08c379a000000000000000000000000000000000000000000000000000000000815260040161225090614e35565b60405180910390fd5b3373ffffffffffffffffffffffffffffffffffffffff16612279846113ae565b73ffffffffffffffffffffffffffffffffffffffff16146122cf576040517f08c379a00000000000000000000000000000000000000000000000000000000081526004016122c690614eb5565b60405180910390fd5b6000600a60009054906101000a900473ffffffffffffffffffffffffffffffffffffffff1673ffffffffffffffffffffffffffffffffffffffff16311161234b576040517f08c379a000000000000000000000000000000000000000000000000000000000815260040161234290614d95565b60405180910390fd5b60006011600085815260200190815260200160002060010160009054906101000a900473ffffffffffffffffffffffffffffffffffffffff16905060016011600086815260200190815260200160002060040160006101000a81548160ff021916908315150217905550336011600086815260200190815260200160002060010160006101000a81548173ffffffffffffffffffffffffffffffffffffffff021916908373ffffffffffffffffffffffffffffffffffffffff16021790555061241460096129f1565b61241f33848661278a565b6000600b548361242f91906152b3565b9050600b549250600a60009054906101000a900473ffffffffffffffffffffffffffffffffffffffff1673ffffffffffffffffffffffffffffffffffffffff166108fc849081150290604051600060405180830381858888f1935050505015801561249e573d6000803e3d6000fd5b508173ffffffffffffffffffffffffffffffffffffffff166108fc829081150290604051600060405180830381858888f193505050501580156124e5573d6000803e3d6000fd5b50600760009054906101000a900473ffffffffffffffffffffffffffffffffffffffff1673ffffffffffffffffffffffffffffffffffffffff166396dc503b868660006040518463ffffffff1660e01b815260040161254693929190615073565b600060405180830381600087803b15801561256057600080fd5b505af1158015612574573d6000803e3d6000fd5b505050505050505050565b60007f01ffc9a7000000000000000000000000000000000000000000000000000000007bffffffffffffffffffffffffffffffffffffffffffffffffffffffff1916827bffffffffffffffffffffffffffffffffffffffffffffffffffffffff1916149050919050565b6125f281613992565b612631576040517f08c379a000000000000000000000000000000000000000000000000000000000815260040161262890614f55565b60405180910390fd5b50565b600033905090565b816004600083815260200190815260200160002060006101000a81548173ffffffffffffffffffffffffffffffffffffffff021916908373ffffffffffffffffffffffffffffffffffffffff160217905550808273ffffffffffffffffffffffffffffffffffffffff166126af836113ae565b73ffffffffffffffffffffffffffffffffffffffff167f8c5be1e5ebec7d5bd14f71427d1e84f3dd0314c0f7b2291e5b200ac8c7c3b92560405160405180910390a45050565b600080612701836113ae565b90508073ffffffffffffffffffffffffffffffffffffffff168473ffffffffffffffffffffffffffffffffffffffff16148061274357506127428185611e6c565b5b8061278157508373ffffffffffffffffffffffffffffffffffffffff1661276984610a30565b73ffffffffffffffffffffffffffffffffffffffff16145b91505092915050565b8273ffffffffffffffffffffffffffffffffffffffff166127aa826113ae565b73ffffffffffffffffffffffffffffffffffffffff1614612800576040517f08c379a00000000000000000000000000000000000000000000000000000000081526004016127f790614d55565b60405180910390fd5b600073ffffffffffffffffffffffffffffffffffffffff168273ffffffffffffffffffffffffffffffffffffffff161415612870576040517f08c379a000000000000000000000000000000000000000000000000000000000815260040161286790614df5565b60405180910390fd5b61287b8383836139fe565b61288660008261263c565b6001600360008573ffffffffffffffffffffffffffffffffffffffff1673ffffffffffffffffffffffffffffffffffffffff16815260200190815260200160002060008282546128d691906152b3565b925050819055506001600360008473ffffffffffffffffffffffffffffffffffffffff1673ffffffffffffffffffffffffffffffffffffffff168152602001908152602001600020600082825461292d919061522c565b92505081905550816002600083815260200190815260200160002060006101000a81548173ffffffffffffffffffffffffffffffffffffffff021916908373ffffffffffffffffffffffffffffffffffffffff160217905550808273ffffffffffffffffffffffffffffffffffffffff168473ffffffffffffffffffffffffffffffffffffffff167fddf252ad1be2c89b69c2b068fc378daa952ba7f163c4a11628f55a4df523b3ef60405160405180910390a46129ec838383613a03565b505050565b6001816000016000828254019250508190555050565b600081600001549050919050565b612a2f828260405180602001604052806000815250613a08565b5050565b612a3c82613992565b612a7b576040517f08c379a0000000000000000000000000000000000000000000000000000000008152600401612a7290614e95565b60405180910390fd5b80600660008481526020019081526020016000209080519060200190612aa2929190613fcd565b505050565b6000601160008381526020019081526020016000206003018054612aca906153cb565b80601f0160208091040260200160405190810160405280929190818152602001828054612af6906153cb565b8015612b435780601f10612b1857610100808354040283529160200191612b43565b820191906000526020600020905b815481529060010190602001808311612b2657829003601f168201915b50505050509050604051602001612b5990614c0e565b6040516020818303038152906040528051906020012081604051602001612b809190614ba9565b604051602081830303815290604052805190602001201415612f13576000600c60009054906101000a900473ffffffffffffffffffffffffffffffffffffffff1673ffffffffffffffffffffffffffffffffffffffff166319d5880c84600d6040518363ffffffff1660e01b8152600401612bfc9291906150aa565b60206040518083038186803b158015612c1457600080fd5b505afa158015612c28573d6000803e3d6000fd5b505050506040513d601f19601f82011682018060405250810190612c4c91906143c1565b90506001604051602001612c609190614b8e565b6040516020818303038152906040528051906020012081604051602001612c879190614b8e565b604051602081830303815290604052805190602001201415612cde576040517f08c379a0000000000000000000000000000000000000000000000000000000008152600401612cd590614db5565b60405180910390fd5b600d8390806001815401808255809150506001900390600052602060002001600090919091909150556000600c60009054906101000a900473ffffffffffffffffffffffffffffffffffffffff1673ffffffffffffffffffffffffffffffffffffffff166321772a4485600e6040518363ffffffff1660e01b8152600401612d679291906150aa565b60206040518083038186803b158015612d7f57600080fd5b505afa158015612d93573d6000803e3d6000fd5b505050506040513d601f19601f82011682018060405250810190612db791906144a6565b90506000600c60009054906101000a900473ffffffffffffffffffffffffffffffffffffffff1673ffffffffffffffffffffffffffffffffffffffff1663d25a84eb86600f6040518363ffffffff1660e01b8152600401612e199291906150aa565b60206040518083038186803b158015612e3157600080fd5b505afa158015612e45573d6000803e3d6000fd5b505050506040513d601f19601f82011682018060405250810190612e6991906144a6565b9050848214158015612e7b5750848114155b15612e9357612e89826116b2565b612e9281610c49565b5b848214612ea857612ea3826116b2565b612f0b565b848114612ebd57612eb881610c49565b612f0a565b6040518060400160405280600981526020017f6e6f7420666f756e64000000000000000000000000000000000000000000000081525060109080519060200190612f08929190613fcd565b505b5b5050506136ad565b604051602001612f2290614bf9565b6040516020818303038152906040528051906020012081604051602001612f499190614ba9565b6040516020818303038152906040528051906020012014156132e1576000600c60009054906101000a900473ffffffffffffffffffffffffffffffffffffffff1673ffffffffffffffffffffffffffffffffffffffff166332a5d17084600e6040518363ffffffff1660e01b8152600401612fc59291906150aa565b60206040518083038186803b158015612fdd57600080fd5b505afa158015612ff1573d6000803e3d6000fd5b505050506040513d601f19601f8201168201806040525081019061301591906143c1565b905060016040516020016130299190614b8e565b60405160208183030381529060405280519060200120816040516020016130509190614b8e565b6040516020818303038152906040528051906020012014156130a7576040517f08c379a000000000000000000000000000000000000000000000000000000000815260040161309e90614dd5565b60405180910390fd5b600e8390806001815401808255809150506001900390600052602060002001600090919091909150556000600c60009054906101000a900473ffffffffffffffffffffffffffffffffffffffff1673ffffffffffffffffffffffffffffffffffffffff1663d25a84eb85600d6040518363ffffffff1660e01b81526004016131309291906150aa565b60206040518083038186803b15801561314857600080fd5b505afa15801561315c573d6000803e3d6000fd5b505050506040513d601f19601f8201168201806040525081019061318091906144a6565b90506000600c60009054906101000a900473ffffffffffffffffffffffffffffffffffffffff1673ffffffffffffffffffffffffffffffffffffffff1663a28a348086600f6040518363ffffffff1660e01b81526004016131e29291906150aa565b60206040518083038186803b1580156131fa57600080fd5b505afa15801561320e573d6000803e3d6000fd5b505050506040513d601f19601f8201168201806040525081019061323291906144a6565b90508482141580156132445750848114155b156132605761325282611f06565b61325b81610c49565b6132d9565b8482146132755761327082611f06565b6132d8565b84811461328a5761328581610c49565b6132d7565b6040518060400160405280600981526020017f6e6f7420666f756e640000000000000000000000000000000000000000000000815250601090805190602001906132d5929190613fcd565b505b5b5b5050506136ac565b6040516020016132f090614be4565b60405160208183030381529060405280519060200120816040516020016133179190614ba9565b6040516020818303038152906040528051906020012014156136ab576000600c60009054906101000a900473ffffffffffffffffffffffffffffffffffffffff1673ffffffffffffffffffffffffffffffffffffffff16637ef1cd4b84600f6040518363ffffffff1660e01b81526004016133939291906150aa565b60206040518083038186803b1580156133ab57600080fd5b505afa1580156133bf573d6000803e3d6000fd5b505050506040513d601f19601f820116820180604052508101906133e391906143c1565b905060016040516020016133f79190614b8e565b604051602081830303815290604052805190602001208160405160200161341e9190614b8e565b604051602081830303815290604052805190602001201415613475576040517f08c379a000000000000000000000000000000000000000000000000000000000815260040161346c90614e75565b60405180910390fd5b600f8390806001815401808255809150506001900390600052602060002001600090919091909150556000600c60009054906101000a900473ffffffffffffffffffffffffffffffffffffffff1673ffffffffffffffffffffffffffffffffffffffff1663d25a84eb85600d6040518363ffffffff1660e01b81526004016134fe9291906150aa565b60206040518083038186803b15801561351657600080fd5b505afa15801561352a573d6000803e3d6000fd5b505050506040513d601f19601f8201168201806040525081019061354e91906144a6565b90506000600c60009054906101000a900473ffffffffffffffffffffffffffffffffffffffff1673ffffffffffffffffffffffffffffffffffffffff166321772a4486600e6040518363ffffffff1660e01b81526004016135b09291906150aa565b60206040518083038186803b1580156135c857600080fd5b505afa1580156135dc573d6000803e3d6000fd5b505050506040513d601f19601f8201168201806040525081019061360091906144a6565b90508482141580156136125750848114155b1561362e5761362082611f06565b613629816116b2565b6136a7565b8482146136435761363e82611f06565b6136a6565b84811461365857613653816116b2565b6136a5565b6040518060400160405280600981526020017f6e6f7420666f756e640000000000000000000000000000000000000000000000815250601090805190602001906136a3929190613fcd565b505b5b5b5050505b5b5b5050565b8173ffffffffffffffffffffffffffffffffffffffff168373ffffffffffffffffffffffffffffffffffffffff161415613720576040517f08c379a000000000000000000000000000000000000000000000000000000000815260040161371790614e15565b60405180910390fd5b80600560008573ffffffffffffffffffffffffffffffffffffffff1673ffffffffffffffffffffffffffffffffffffffff16815260200190815260200160002060008473ffffffffffffffffffffffffffffffffffffffff1673ffffffffffffffffffffffffffffffffffffffff16815260200190815260200160002060006101000a81548160ff0219169083151502179055508173ffffffffffffffffffffffffffffffffffffffff168373ffffffffffffffffffffffffffffffffffffffff167f17307eab39ab6107e8899845ad3d59bd9653f200f220920489ca2b5937696c31836040516138119190614cf8565b60405180910390a3505050565b61382984848461278a565b61383584848484613a63565b613874576040517f08c379a000000000000000000000000000000000000000000000000000000000815260040161386b90614d35565b60405180910390fd5b50505050565b606060405180602001604052806000815250905090565b606061389c826125e9565b60006138a661387a565b905060008151116138c657604051806020016040528060008152506138f1565b806138d084613bfa565b6040516020016138e1929190614bc0565b6040516020818303038152906040525b915050919050565b61398f8160405160240161390d9190614d13565b6040516020818303038152906040527f41304fac000000000000000000000000000000000000000000000000000000007bffffffffffffffffffffffffffffffffffffffffffffffffffffffff19166020820180517bffffffffffffffffffffffffffffffffffffffffffffffffffffffff8381831617835250505050613da7565b50565b60008073ffffffffffffffffffffffffffffffffffffffff166002600084815260200190815260200160002060009054906101000a900473ffffffffffffffffffffffffffffffffffffffff1673ffffffffffffffffffffffffffffffffffffffff1614159050919050565b505050565b505050565b613a128383613dd0565b613a1f6000848484613a63565b613a5e576040517f08c379a0000000000000000000000000000000000000000000000000000000008152600401613a5590614d35565b60405180910390fd5b505050565b6000613a848473ffffffffffffffffffffffffffffffffffffffff16613faa565b15613bed578373ffffffffffffffffffffffffffffffffffffffff1663150b7a02613aad612634565b8786866040518563ffffffff1660e01b8152600401613acf9493929190614c3e565b602060405180830381600087803b158015613ae957600080fd5b505af1925050508015613b1a57506040513d601f19601f82011682018060405250810190613b179190614413565b60015b613b9d573d8060008114613b4a576040519150601f19603f3d011682016040523d82523d6000602084013e613b4f565b606091505b50600081511415613b95576040517f08c379a0000000000000000000000000000000000000000000000000000000008152600401613b8c90614d35565b60405180910390fd5b805181602001fd5b63150b7a0260e01b7bffffffffffffffffffffffffffffffffffffffffffffffffffffffff1916817bffffffffffffffffffffffffffffffffffffffffffffffffffffffff191614915050613bf2565b600190505b949350505050565b60606000821415613c42576040518060400160405280600181526020017f30000000000000000000000000000000000000000000000000000000000000008152509050613da2565b600082905060005b60008214613c74578080613c5d90615448565b915050600a82613c6d9190615282565b9150613c4a565b60008167ffffffffffffffff811115613cb6577f4e487b7100000000000000000000000000000000000000000000000000000000600052604160045260246000fd5b6040519080825280601f01601f191660200182016040528015613ce85781602001600182028036833780820191505090505b5090505b60008514613d9b57600182613d0191906152b3565b9150600a85613d1091906154b5565b6030613d1c919061522c565b60f81b818381518110613d58577f4e487b7100000000000000000000000000000000000000000000000000000000600052603260045260246000fd5b60200101907effffffffffffffffffffffffffffffffffffffffffffffffffffffffffffff1916908160001a905350600a85613d949190615282565b9450613cec565b8093505050505b919050565b60008151905060006a636f6e736f6c652e6c6f679050602083016000808483855afa5050505050565b600073ffffffffffffffffffffffffffffffffffffffff168273ffffffffffffffffffffffffffffffffffffffff161415613e40576040517f08c379a0000000000000000000000000000000000000000000000000000000008152600401613e3790614f15565b60405180910390fd5b613e4981613992565b15613e89576040517f08c379a0000000000000000000000000000000000000000000000000000000008152600401613e8090614d75565b60405180910390fd5b613e95600083836139fe565b6001600360008473ffffffffffffffffffffffffffffffffffffffff1673ffffffffffffffffffffffffffffffffffffffff1681526020019081526020016000206000828254613ee5919061522c565b92505081905550816002600083815260200190815260200160002060006101000a81548173ffffffffffffffffffffffffffffffffffffffff021916908373ffffffffffffffffffffffffffffffffffffffff160217905550808273ffffffffffffffffffffffffffffffffffffffff16600073ffffffffffffffffffffffffffffffffffffffff167fddf252ad1be2c89b69c2b068fc378daa952ba7f163c4a11628f55a4df523b3ef60405160405180910390a4613fa660008383613a03565b5050565b6000808273ffffffffffffffffffffffffffffffffffffffff163b119050919050565b828054613fd9906153cb565b90600052602060002090601f016020900481019282613ffb5760008555614042565b82601f1061401457805160ff1916838001178555614042565b82800160010185558215614042579182015b82811115614041578251825591602001919060010190614026565b5b50905061404f919061409a565b5090565b6040518060a0016040528060008152602001600073ffffffffffffffffffffffffffffffffffffffff16815260200160008152602001606081526020016000151581525090565b5b808211156140b357600081600090555060010161409b565b5090565b60006140ca6140c5846150ff565b6150da565b9050828152602081018484840111156140e257600080fd5b6140ed848285615389565b509392505050565b600061410861410384615130565b6150da565b90508281526020810184848401111561412057600080fd5b61412b848285615389565b509392505050565b60008135905061414281615b80565b92915050565b60008135905061415781615b97565b92915050565b60008151905061416c81615b97565b92915050565b60008135905061418181615bae565b92915050565b60008151905061419681615bae565b92915050565b600082601f8301126141ad57600080fd5b81356141bd8482602086016140b7565b91505092915050565b600082601f8301126141d757600080fd5b81356141e78482602086016140f5565b91505092915050565b6000813590506141ff81615bc5565b92915050565b60008151905061421481615bc5565b92915050565b60006020828403121561422c57600080fd5b600061423a84828501614133565b91505092915050565b6000806040838503121561425657600080fd5b600061426485828601614133565b925050602061427585828601614133565b9150509250929050565b60008060006060848603121561429457600080fd5b60006142a286828701614133565b93505060206142b386828701614133565b92505060406142c4868287016141f0565b9150509250925092565b600080600080608085870312156142e457600080fd5b60006142f287828801614133565b945050602061430387828801614133565b9350506040614314878288016141f0565b925050606085013567ffffffffffffffff81111561433157600080fd5b61433d8782880161419c565b91505092959194509250565b6000806040838503121561435c57600080fd5b600061436a85828601614133565b925050602061437b85828601614148565b9150509250929050565b6000806040838503121561439857600080fd5b60006143a685828601614133565b92505060206143b7858286016141f0565b9150509250929050565b6000602082840312156143d357600080fd5b60006143e18482850161415d565b91505092915050565b6000602082840312156143fc57600080fd5b600061440a84828501614172565b91505092915050565b60006020828403121561442557600080fd5b600061443384828501614187565b91505092915050565b60006020828403121561444e57600080fd5b600082013567ffffffffffffffff81111561446857600080fd5b614474848285016141c6565b91505092915050565b60006020828403121561448f57600080fd5b600061449d848285016141f0565b91505092915050565b6000602082840312156144b857600080fd5b60006144c684828501614205565b91505092915050565b600080604083850312156144e257600080fd5b60006144f0858286016141f0565b925050602061450185828601614133565b9150509250929050565b6000806040838503121561451e57600080fd5b600061452c858286016141f0565b925050602083013567ffffffffffffffff81111561454957600080fd5b614555858286016141c6565b9150509250929050565b600061456b8383614afa565b905092915050565b600061457f8383614b70565b60208301905092915050565b61459481615303565b82525050565b6145a381615303565b82525050565b6145b2816152f1565b82525050565b60006145c382615186565b6145cd81856151cc565b9350836020820285016145df85615161565b8060005b8581101561461b57848403895281516145fc858261455f565b9450614607836151b2565b925060208a019950506001810190506145e3565b50829750879550505050505092915050565b600061463882615191565b61464281856151dd565b935061464d83615171565b8060005b8381101561468557614662826155a2565b61466c8882614573565b9750614677836151bf565b925050600181019050614651565b5085935050505092915050565b61469b81615315565b82525050565b6146aa81615315565b82525050565b6146c16146bc82615315565b615491565b82525050565b60006146d28261519c565b6146dc81856151ee565b93506146ec818560208601615398565b6146f5816155b5565b840191505092915050565b61470981615377565b82525050565b600061471a826151a7565b61472481856151ff565b9350614734818560208601615398565b61473d816155b5565b840191505092915050565b6000614753826151a7565b61475d8185615210565b935061476d818560208601615398565b614776816155b5565b840191505092915050565b600061478c826151a7565b6147968185615221565b93506147a6818560208601615398565b80840191505092915050565b60006147bf600883615221565b91506147ca826155e0565b600882019050919050565b60006147e2603283615210565b91506147ed82615609565b604082019050919050565b6000614805602583615210565b915061481082615658565b604082019050919050565b6000614828601c83615210565b9150614833826156a7565b602082019050919050565b600061484b601083615210565b9150614856826156d0565b602082019050919050565b600061486e601883615210565b9150614879826156f9565b602082019050919050565b6000614891601783615210565b915061489c82615722565b602082019050919050565b60006148b4602483615210565b91506148bf8261574b565b604082019050919050565b60006148d7601983615210565b91506148e28261579a565b602082019050919050565b60006148fa600783615221565b9150614905826157c3565b600782019050919050565b600061491d602383615210565b9150614928826157ec565b604082019050919050565b6000614940602983615210565b915061494b8261583b565b604082019050919050565b6000614963601883615210565b915061496e8261588a565b602082019050919050565b6000614986600883615221565b9150614991826158b3565b600882019050919050565b60006149a9602e83615210565b91506149b4826158dc565b604082019050919050565b60006149cc602883615210565b91506149d78261592b565b604082019050919050565b60006149ef604083615210565b91506149fa8261597a565b604082019050919050565b6000614a12603e83615210565b9150614a1d826159c9565b604082019050919050565b6000614a35602083615210565b9150614a4082615a18565b602082019050919050565b6000614a58601283615210565b9150614a6382615a41565b602082019050919050565b6000614a7b601883615210565b9150614a8682615a6a565b602082019050919050565b6000614a9e602183615210565b9150614aa982615a93565b604082019050919050565b6000614ac1602383615210565b9150614acc82615ae2565b604082019050919050565b6000614ae4602e83615210565b9150614aef82615b31565b604082019050919050565b600060a083016000830151614b126000860182614b70565b506020830151614b25602086018261458b565b506040830151614b386040860182614b70565b5060608301518482036060860152614b50828261470f565b9150506080830151614b656080860182614692565b508091505092915050565b614b798161536d565b82525050565b614b888161536d565b82525050565b6000614b9a82846146b0565b60018201915081905092915050565b6000614bb58284614781565b915081905092915050565b6000614bcc8285614781565b9150614bd88284614781565b91508190509392505050565b6000614bef826147b2565b9150819050919050565b6000614c04826148ed565b9150819050919050565b6000614c1982614979565b9150819050919050565b6000602082019050614c3860008301846145a9565b92915050565b6000608082019050614c5360008301876145a9565b614c6060208301866145a9565b614c6d6040830185614b7f565b8181036060830152614c7f81846146c7565b905095945050505050565b6000608082019050614c9f60008301876145a9565b614cac6020830186614b7f565b8181036040830152614cbe8185614748565b9050614ccd60608301846146a1565b95945050505050565b60006020820190508181036000830152614cf081846145b8565b905092915050565b6000602082019050614d0d60008301846146a1565b92915050565b60006020820190508181036000830152614d2d8184614748565b905092915050565b60006020820190508181036000830152614d4e816147d5565b9050919050565b60006020820190508181036000830152614d6e816147f8565b9050919050565b60006020820190508181036000830152614d8e8161481b565b9050919050565b60006020820190508181036000830152614dae8161483e565b9050919050565b60006020820190508181036000830152614dce81614861565b9050919050565b60006020820190508181036000830152614dee81614884565b9050919050565b60006020820190508181036000830152614e0e816148a7565b9050919050565b60006020820190508181036000830152614e2e816148ca565b9050919050565b60006020820190508181036000830152614e4e81614910565b9050919050565b60006020820190508181036000830152614e6e81614933565b9050919050565b60006020820190508181036000830152614e8e81614956565b9050919050565b60006020820190508181036000830152614eae8161499c565b9050919050565b60006020820190508181036000830152614ece816149bf565b9050919050565b60006020820190508181036000830152614eee816149e2565b9050919050565b60006020820190508181036000830152614f0e81614a05565b9050919050565b60006020820190508181036000830152614f2e81614a28565b9050919050565b60006020820190508181036000830152614f4e81614a4b565b9050919050565b60006020820190508181036000830152614f6e81614a6e565b9050919050565b60006020820190508181036000830152614f8e81614a91565b9050919050565b60006020820190508181036000830152614fae81614ab4565b9050919050565b60006020820190508181036000830152614fce81614ad7565b9050919050565b6000602082019050614fea6000830184614b7f565b92915050565b60006040820190506150056000830185614b7f565b61501260208301846145a9565b9392505050565b600060a08201905061502e6000830188614b7f565b61503b602083018761459a565b6150486040830186614b7f565b818103606083015261505a8185614748565b905061506960808301846146a1565b9695505050505050565b60006060820190506150886000830186614b7f565b61509560208301856145a9565b6150a26040830184614700565b949350505050565b60006040820190506150bf6000830185614b7f565b81810360208301526150d1818461462d565b90509392505050565b60006150e46150f5565b90506150f08282615417565b919050565b6000604051905090565b600067ffffffffffffffff82111561511a57615119615573565b5b615123826155b5565b9050602081019050919050565b600067ffffffffffffffff82111561514b5761514a615573565b5b615154826155b5565b9050602081019050919050565b6000819050602082019050919050565b60008190508160005260206000209050919050565b600081519050919050565b600081549050919050565b600081519050919050565b600081519050919050565b6000602082019050919050565b6000600182019050919050565b600082825260208201905092915050565b600082825260208201905092915050565b600082825260208201905092915050565b600082825260208201905092915050565b600082825260208201905092915050565b600081905092915050565b60006152378261536d565b91506152428361536d565b9250827fffffffffffffffffffffffffffffffffffffffffffffffffffffffffffffffff03821115615277576152766154e6565b5b828201905092915050565b600061528d8261536d565b91506152988361536d565b9250826152a8576152a7615515565b5b828204905092915050565b60006152be8261536d565b91506152c98361536d565b9250828210156152dc576152db6154e6565b5b828203905092915050565b6000819050919050565b60006152fc8261534d565b9050919050565b600061530e8261534d565b9050919050565b60008115159050919050565b60007fffffffff0000000000000000000000000000000000000000000000000000000082169050919050565b600073ffffffffffffffffffffffffffffffffffffffff82169050919050565b6000819050919050565b60006153828261536d565b9050919050565b82818337600083830152505050565b60005b838110156153b657808201518184015260208101905061539b565b838111156153c5576000848401525b50505050565b600060028204905060018216806153e357607f821691505b602082108114156153f7576153f6615544565b5b50919050565b600061541061540b836155d3565b6152e7565b9050919050565b615420826155b5565b810181811067ffffffffffffffff8211171561543f5761543e615573565b5b80604052505050565b60006154538261536d565b91507fffffffffffffffffffffffffffffffffffffffffffffffffffffffffffffffff821415615486576154856154e6565b5b600182019050919050565b600061549c826154a3565b9050919050565b60006154ae826155c6565b9050919050565b60006154c08261536d565b91506154cb8361536d565b9250826154db576154da615515565b5b828206905092915050565b7f4e487b7100000000000000000000000000000000000000000000000000000000600052601160045260246000fd5b7f4e487b7100000000000000000000000000000000000000000000000000000000600052601260045260246000fd5b7f4e487b7100000000000000000000000000000000000000000000000000000000600052602260045260246000fd5b7f4e487b7100000000000000000000000000000000000000000000000000000000600052604160045260246000fd5b60006155ae82546153fd565b9050919050565b6000601f19601f8301169050919050565b60008160f81b9050919050565b60008160001c9050919050565b7f52656a6563746564000000000000000000000000000000000000000000000000600082015250565b7f4552433732313a207472616e7366657220746f206e6f6e20455243373231526560008201527f63656976657220696d706c656d656e7465720000000000000000000000000000602082015250565b7f4552433732313a207472616e736665722066726f6d20696e636f72726563742060008201527f6f776e6572000000000000000000000000000000000000000000000000000000602082015250565b7f4552433732313a20746f6b656e20616c7265616479206d696e74656400000000600082015250565b7f4e6f7420656e6f7567682066756e647300000000000000000000000000000000600082015250565b7f4164647265737320616c72656164792061636365707465640000000000000000600082015250565b7f4164647265737320616c72656164792070656e64696e67000000000000000000600082015250565b7f4552433732313a207472616e7366657220746f20746865207a65726f2061646460008201527f7265737300000000000000000000000000000000000000000000000000000000602082015250565b7f4552433732313a20617070726f766520746f2063616c6c657200000000000000600082015250565b7f50656e64696e6700000000000000000000000000000000000000000000000000600082015250565b7f54686973206164647265737320646964206e6f7420626964206f6e207468697360008201527f2049500000000000000000000000000000000000000000000000000000000000602082015250565b7f4552433732313a2061646472657373207a65726f206973206e6f74206120766160008201527f6c6964206f776e65720000000000000000000000000000000000000000000000602082015250565b7f4164647265737320616c72656164792072656a65637465640000000000000000600082015250565b7f4163636570746564000000000000000000000000000000000000000000000000600082015250565b7f45524337323155524953746f726167653a2055524920736574206f66206e6f6e60008201527f6578697374656e7420746f6b656e000000000000000000000000000000000000602082015250565b7f596f757220617265206e6f7420746865206f776e6572206f662074686973207460008201527f6f6b656e204e4654000000000000000000000000000000000000000000000000602082015250565b7f506c65617365207375626d6974207468652061736b696e67207072696365206960008201527f6e206f7264657220746f20636f6d706c65746520746865207075726368617365602082015250565b7f4552433732313a20617070726f76652063616c6c6572206973206e6f7420746f60008201527f6b656e206f776e6572206e6f7220617070726f76656420666f7220616c6c0000602082015250565b7f4552433732313a206d696e7420746f20746865207a65726f2061646472657373600082015250565b7f696e646578206f7574206f6620626f756e640000000000000000000000000000600082015250565b7f4552433732313a20696e76616c696420746f6b656e2049440000000000000000600082015250565b7f4552433732313a20617070726f76616c20746f2063757272656e74206f776e6560008201527f7200000000000000000000000000000000000000000000000000000000000000602082015250565b7f596f7520617265206e6f7420746865206f776e6572206f66207468652049502060008201527f6e66740000000000000000000000000000000000000000000000000000000000602082015250565b7f4552433732313a2063616c6c6572206973206e6f7420746f6b656e206f776e6560008201527f72206e6f7220617070726f766564000000000000000000000000000000000000602082015250565b615b89816152f1565b8114615b9457600080fd5b50565b615ba081615315565b8114615bab57600080fd5b50565b615bb781615321565b8114615bc257600080fd5b50565b615bce8161536d565b8114615bd957600080fd5b5056fea2646970667358221220cbf748163af5a30e0e88ab92e2fb1c58b61e815e692a36ad7024d4a86cfd471064736f6c63430008010033608060405234801561001057600080fd5b50611077806100206000396000f3fe608060405234801561001057600080fd5b50600436106100885760003560e01c80637ef1cd4b1161005b5780637ef1cd4b1461014d578063a28a34801461017d578063d25a84eb146101ad578063fc966d45146101dd57610088565b806319d5880c1461008d57806321772a44146100bd57806332a5d170146100ed57806379cd90551461011d575b600080fd5b6100a760048036038101906100a29190610a19565b61020d565b6040516100b49190610af6565b60405180910390f35b6100d760048036038101906100d29190610a19565b6102db565b6040516100e49190610b33565b60405180910390f35b61010760048036038101906101029190610a19565b61035b565b6040516101149190610af6565b60405180910390f35b610137600480360381019061013291906109af565b610429565b6040516101449190610b33565b60405180910390f35b61016760048036038101906101629190610a19565b610509565b6040516101749190610af6565b60405180910390f35b61019760048036038101906101929190610a19565b6105d7565b6040516101a49190610b33565b60405180910390f35b6101c760048036038101906101c29190610a19565b610657565b6040516101d49190610b33565b60405180910390f35b6101f760048036038101906101f291906109f0565b6106d7565b6040516102049190610b11565b60405180910390f35b600080600190505b82518110156102cf578360405160200161022f9190610adb565b6040516020818303038152906040528051906020012083828151811061027e577f4e487b7100000000000000000000000000000000000000000000000000000000600052603260045260246000fd5b60200260200101516040516020016102969190610adb565b6040516020818303038152906040528051906020012014156102bc5760019150506102d5565b80806102c790610efb565b915050610215565b50600090505b92915050565b600080600090505b82518110156103505783838281518110610326577f4e487b7100000000000000000000000000000000000000000000000000000000600052603260045260246000fd5b6020026020010151141561033d5780915050610355565b808061034890610efb565b9150506102e3565b508290505b92915050565b600080600190505b825181101561041d578360405160200161037d9190610adb565b604051602081830303815290604052805190602001208382815181106103cc577f4e487b7100000000000000000000000000000000000000000000000000000000600052603260045260246000fd5b60200260200101516040516020016103e49190610adb565b60405160208183030381529060405280519060200120141561040a576001915050610423565b808061041590610efb565b915050610363565b50600090505b92915050565b60008060009050600083905060005b81518110156104fe5760008183516104509190610e3e565b9050600083838151811061048d577f4e487b7100000000000000000000000000000000000000000000000000000000600052603260045260246000fd5b602001015160f81c60f81b905060008160f81c9050600060308260ff166104b49190610e3e565b90506001846104c39190610e3e565b600a6104cf9190610cc6565b816104da9190610de4565b876104e59190610bec565b96505050505080806104f690610efb565b915050610438565b508192505050919050565b600080600190505b82518110156105cb578360405160200161052b9190610adb565b6040516020818303038152906040528051906020012083828151811061057a577f4e487b7100000000000000000000000000000000000000000000000000000000600052603260045260246000fd5b60200260200101516040516020016105929190610adb565b6040516020818303038152906040528051906020012014156105b85760019150506105d1565b80806105c390610efb565b915050610511565b50600090505b92915050565b600080600090505b825181101561064c5783838281518110610622577f4e487b7100000000000000000000000000000000000000000000000000000000600052603260045260246000fd5b602002602001015114156106395780915050610651565b808061064490610efb565b9150506105df565b508290505b92915050565b600080600090505b82518110156106cc57838382815181106106a2577f4e487b7100000000000000000000000000000000000000000000000000000000600052603260045260246000fd5b602002602001015114156106b957809150506106d1565b80806106c490610efb565b91505061065f565b508290505b92915050565b606060006106e4836106ef565b905080915050919050565b60606000821415610737576040518060400160405280600181526020017f30000000000000000000000000000000000000000000000000000000000000008152509050610897565b600082905060005b6000821461076957808061075290610efb565b915050600a826107629190610c42565b915061073f565b60008167ffffffffffffffff8111156107ab577f4e487b7100000000000000000000000000000000000000000000000000000000600052604160045260246000fd5b6040519080825280601f01601f1916602001820160405280156107dd5781602001600182028036833780820191505090505b5090505b60008514610890576001826107f69190610e3e565b9150600a856108059190610f4e565b60306108119190610bec565b60f81b81838151811061084d577f4e487b7100000000000000000000000000000000000000000000000000000000600052603260045260246000fd5b60200101907effffffffffffffffffffffffffffffffffffffffffffffffffffffffffffff1916908160001a905350600a856108899190610c42565b94506107e1565b8093505050505b919050565b60006108af6108aa84610b73565b610b4e565b905080838252602082019050828560208602820111156108ce57600080fd5b60005b858110156108fe57816108e4888261099a565b8452602084019350602083019250506001810190506108d1565b5050509392505050565b600061091b61091684610b9f565b610b4e565b90508281526020810184848401111561093357600080fd5b61093e848285610e88565b509392505050565b600082601f83011261095757600080fd5b813561096784826020860161089c565b91505092915050565b600082601f83011261098157600080fd5b8135610991848260208601610908565b91505092915050565b6000813590506109a98161102a565b92915050565b6000602082840312156109c157600080fd5b600082013567ffffffffffffffff8111156109db57600080fd5b6109e784828501610970565b91505092915050565b600060208284031215610a0257600080fd5b6000610a108482850161099a565b91505092915050565b60008060408385031215610a2c57600080fd5b6000610a3a8582860161099a565b925050602083013567ffffffffffffffff811115610a5757600080fd5b610a6385828601610946565b9150509250929050565b610a7681610e72565b82525050565b6000610a8782610bd0565b610a918185610bdb565b9350610aa1818560208601610e97565b610aaa8161100c565b840191505092915050565b610abe81610e7e565b82525050565b610ad5610ad082610e7e565b610f44565b82525050565b6000610ae78284610ac4565b60208201915081905092915050565b6000602082019050610b0b6000830184610a6d565b92915050565b60006020820190508181036000830152610b2b8184610a7c565b905092915050565b6000602082019050610b486000830184610ab5565b92915050565b6000610b58610b69565b9050610b648282610eca565b919050565b6000604051905090565b600067ffffffffffffffff821115610b8e57610b8d610fdd565b5b602082029050602081019050919050565b600067ffffffffffffffff821115610bba57610bb9610fdd565b5b610bc38261100c565b9050602081019050919050565b600081519050919050565b600082825260208201905092915050565b6000610bf782610e7e565b9150610c0283610e7e565b9250827fffffffffffffffffffffffffffffffffffffffffffffffffffffffffffffffff03821115610c3757610c36610f7f565b5b828201905092915050565b6000610c4d82610e7e565b9150610c5883610e7e565b925082610c6857610c67610fae565b5b828204905092915050565b6000808291508390505b6001851115610cbd57808604811115610c9957610c98610f7f565b5b6001851615610ca85780820291505b8081029050610cb68561101d565b9450610c7d565b94509492505050565b6000610cd182610e7e565b9150610cdc83610e7e565b9250610d097fffffffffffffffffffffffffffffffffffffffffffffffffffffffffffffffff8484610d11565b905092915050565b600082610d215760019050610ddd565b81610d2f5760009050610ddd565b8160018114610d455760028114610d4f57610d7e565b6001915050610ddd565b60ff841115610d6157610d60610f7f565b5b8360020a915084821115610d7857610d77610f7f565b5b50610ddd565b5060208310610133831016604e8410600b8410161715610db35782820a905083811115610dae57610dad610f7f565b5b610ddd565b610dc08484846001610c73565b92509050818404811115610dd757610dd6610f7f565b5b81810290505b9392505050565b6000610def82610e7e565b9150610dfa83610e7e565b9250817fffffffffffffffffffffffffffffffffffffffffffffffffffffffffffffffff0483118215151615610e3357610e32610f7f565b5b828202905092915050565b6000610e4982610e7e565b9150610e5483610e7e565b925082821015610e6757610e66610f7f565b5b828203905092915050565b60008115159050919050565b6000819050919050565b82818337600083830152505050565b60005b83811015610eb5578082015181840152602081019050610e9a565b83811115610ec4576000848401525b50505050565b610ed38261100c565b810181811067ffffffffffffffff82111715610ef257610ef1610fdd565b5b80604052505050565b6000610f0682610e7e565b91507fffffffffffffffffffffffffffffffffffffffffffffffffffffffffffffffff821415610f3957610f38610f7f565b5b600182019050919050565b6000819050919050565b6000610f5982610e7e565b9150610f6483610e7e565b925082610f7457610f73610fae565b5b828206905092915050565b7f4e487b7100000000000000000000000000000000000000000000000000000000600052601160045260246000fd5b7f4e487b7100000000000000000000000000000000000000000000000000000000600052601260045260246000fd5b7f4e487b7100000000000000000000000000000000000000000000000000000000600052604160045260246000fd5b6000601f19601f8301169050919050565b60008160011c9050919050565b61103381610e7e565b811461103e57600080fd5b5056fea26469706673582212205942c2f8a71e8acddd94f54d6a92b5997d47a59760d368633ecbc3ef2985ae1064736f6c63430008010033",
  "linkReferences": {},
  "deployedLinkReferences": {}
}