{
  "_format": "hh-sol-artifact-1",
  "contractName": "IP",
  "sourceName": "contracts/IP.sol",
  "abi": [
    {
      "inputs": [],
      "stateMutability": "nonpayable",
      "type": "constructor"
    },
    {
      "inputs": [],
      "name": "AllIps",
      "outputs": [
        {
          "components": [
            {
              "internalType": "address",
              "name": "user",
              "type": "address"
            },
            {
              "internalType": "string",
              "name": "IPname",
              "type": "string"
            },
            {
              "internalType": "string",
              "name": "fullname",
              "type": "string"
            },
            {
              "internalType": "string",
              "name": "country",
              "type": "string"
            },
            {
              "internalType": "string",
              "name": "addressplace",
              "type": "string"
            },
            {
              "internalType": "string",
              "name": "allIpInfoURL",
              "type": "string"
            },
            {
              "internalType": "uint256",
              "name": "timestamp",
              "type": "uint256"
            },
            {
              "internalType": "enum IP.Status[]",
              "name": "status",
              "type": "uint8[]"
            },
            {
              "internalType": "bool",
              "name": "isRegistered",
              "type": "bool"
            }
          ],
          "internalType": "struct IP.IParameter[]",
          "name": "",
          "type": "tuple[]"
        }
      ],
      "stateMutability": "view",
      "type": "function"
    },
    {
      "inputs": [
        {
          "internalType": "uint256",
          "name": "",
          "type": "uint256"
        }
      ],
      "name": "acceptedIps",
      "outputs": [
        {
          "internalType": "uint256",
          "name": "",
          "type": "uint256"
        }
      ],
      "stateMutability": "view",
      "type": "function"
    },
    {
      "inputs": [],
      "name": "bidCount",
      "outputs": [
        {
          "internalType": "uint256",
          "name": "",
          "type": "uint256"
        }
      ],
      "stateMutability": "view",
      "type": "function"
    },
    {
      "inputs": [
        {
          "internalType": "uint256",
          "name": "i",
          "type": "uint256"
        },
        {
          "internalType": "enum IP.Status",
          "name": "val",
          "type": "uint8"
        }
      ],
      "name": "changeStatus",
      "outputs": [
        {
          "internalType": "bool",
          "name": "",
          "type": "bool"
        }
      ],
      "stateMutability": "nonpayable",
      "type": "function"
    },
    {
      "inputs": [
        {
          "internalType": "uint256",
          "name": "i",
          "type": "uint256"
        }
      ],
      "name": "conditionStatus",
      "outputs": [],
      "stateMutability": "nonpayable",
      "type": "function"
    },
    {
      "inputs": [],
      "name": "countAcceptedIPs",
      "outputs": [
        {
          "internalType": "uint256",
          "name": "",
          "type": "uint256"
        }
      ],
      "stateMutability": "view",
      "type": "function"
    },
    {
      "inputs": [
        {
          "internalType": "address",
          "name": "_address",
          "type": "address"
        }
      ],
      "name": "countBids",
      "outputs": [
        {
          "internalType": "uint256",
          "name": "",
          "type": "uint256"
        }
      ],
      "stateMutability": "view",
      "type": "function"
    },
    {
      "inputs": [],
      "name": "countPendingIPs",
      "outputs": [
        {
          "internalType": "uint256",
          "name": "",
          "type": "uint256"
        }
      ],
      "stateMutability": "view",
      "type": "function"
    },
    {
      "inputs": [],
      "name": "countRejectedIPs",
      "outputs": [
        {
          "internalType": "uint256",
          "name": "",
          "type": "uint256"
        }
      ],
      "stateMutability": "view",
      "type": "function"
    },
    {
      "inputs": [],
      "name": "getAcceptIP",
      "outputs": [
        {
          "internalType": "uint256[]",
          "name": "",
          "type": "uint256[]"
        }
      ],
      "stateMutability": "view",
      "type": "function"
    },
    {
      "inputs": [
        {
          "internalType": "uint256",
          "name": "i",
          "type": "uint256"
        }
      ],
      "name": "getIP",
      "outputs": [
        {
          "internalType": "string",
          "name": "",
          "type": "string"
        },
        {
          "internalType": "string",
          "name": "",
          "type": "string"
        },
        {
          "internalType": "string",
          "name": "",
          "type": "string"
        },
        {
          "internalType": "string",
          "name": "",
          "type": "string"
        },
        {
          "internalType": "string",
          "name": "",
          "type": "string"
        }
      ],
      "stateMutability": "view",
      "type": "function"
    },
    {
      "inputs": [],
      "name": "getPendingIP",
      "outputs": [
        {
          "internalType": "uint256[]",
          "name": "",
          "type": "uint256[]"
        }
      ],
      "stateMutability": "view",
      "type": "function"
    },
    {
      "inputs": [],
      "name": "getRejectIP",
      "outputs": [
        {
          "internalType": "uint256[]",
          "name": "",
          "type": "uint256[]"
        }
      ],
      "stateMutability": "view",
      "type": "function"
    },
    {
      "inputs": [
        {
          "internalType": "uint256",
          "name": "i",
          "type": "uint256"
        }
      ],
      "name": "getStatus",
      "outputs": [
        {
          "internalType": "enum IP.Status",
          "name": "status",
          "type": "uint8"
        }
      ],
      "stateMutability": "view",
      "type": "function"
    },
    {
      "inputs": [
        {
          "internalType": "address",
          "name": "_address",
          "type": "address"
        }
      ],
      "name": "getbidderinfo",
      "outputs": [
        {
          "components": [
            {
              "internalType": "string",
              "name": "ownerIPname",
              "type": "string"
            },
            {
              "internalType": "uint256",
              "name": "bidValue",
              "type": "uint256"
            },
            {
              "internalType": "address",
              "name": "bidderAddress",
              "type": "address"
            }
          ],
          "internalType": "struct IP.IPowner[]",
          "name": "",
          "type": "tuple[]"
        }
      ],
      "stateMutability": "view",
      "type": "function"
    },
    {
      "inputs": [],
      "name": "ipCount",
      "outputs": [
        {
          "internalType": "uint256",
          "name": "",
          "type": "uint256"
        }
      ],
      "stateMutability": "view",
      "type": "function"
    },
    {
      "inputs": [
        {
          "internalType": "address",
          "name": "",
          "type": "address"
        },
        {
          "internalType": "uint256",
          "name": "",
          "type": "uint256"
        }
      ],
      "name": "ipowner",
      "outputs": [
        {
          "internalType": "string",
          "name": "ownerIPname",
          "type": "string"
        },
        {
          "internalType": "uint256",
          "name": "bidValue",
          "type": "uint256"
        },
        {
          "internalType": "address",
          "name": "bidderAddress",
          "type": "address"
        }
      ],
      "stateMutability": "view",
      "type": "function"
    },
    {
      "inputs": [
        {
          "internalType": "uint256",
          "name": "index",
          "type": "uint256"
        },
        {
          "internalType": "address",
          "name": "owneradd",
          "type": "address"
        },
        {
          "internalType": "string",
          "name": "tokenURI",
          "type": "string"
        }
      ],
      "name": "mintnft",
      "outputs": [
        {
          "internalType": "uint256",
          "name": "",
          "type": "uint256"
        }
      ],
      "stateMutability": "nonpayable",
      "type": "function"
    },
    {
      "inputs": [],
      "name": "nameOfnft",
      "outputs": [
        {
          "internalType": "string",
          "name": "",
          "type": "string"
        }
      ],
      "stateMutability": "view",
      "type": "function"
    },
    {
      "inputs": [],
      "name": "owner",
      "outputs": [
        {
          "internalType": "address",
          "name": "",
          "type": "address"
        }
      ],
      "stateMutability": "view",
      "type": "function"
    },
    {
      "inputs": [
        {
          "internalType": "uint256",
          "name": "tokenId",
          "type": "uint256"
        }
      ],
      "name": "ownerOfnft",
      "outputs": [
        {
          "internalType": "address",
          "name": "",
          "type": "address"
        }
      ],
      "stateMutability": "view",
      "type": "function"
    },
    {
      "inputs": [
        {
          "internalType": "uint256",
          "name": "",
          "type": "uint256"
        }
      ],
      "name": "pendingIps",
      "outputs": [
        {
          "internalType": "uint256",
          "name": "",
          "type": "uint256"
        }
      ],
      "stateMutability": "view",
      "type": "function"
    },
    {
      "inputs": [
        {
          "internalType": "uint256",
          "name": "",
          "type": "uint256"
        }
      ],
      "name": "property",
      "outputs": [
        {
          "internalType": "address",
          "name": "user",
          "type": "address"
        },
        {
          "internalType": "string",
          "name": "IPname",
          "type": "string"
        },
        {
          "internalType": "string",
          "name": "fullname",
          "type": "string"
        },
        {
          "internalType": "string",
          "name": "country",
          "type": "string"
        },
        {
          "internalType": "string",
          "name": "addressplace",
          "type": "string"
        },
        {
          "internalType": "string",
          "name": "allIpInfoURL",
          "type": "string"
        },
        {
          "internalType": "uint256",
          "name": "timestamp",
          "type": "uint256"
        },
        {
          "internalType": "bool",
          "name": "isRegistered",
          "type": "bool"
        }
      ],
      "stateMutability": "view",
      "type": "function"
    },
    {
      "inputs": [
        {
          "internalType": "uint256",
          "name": "",
          "type": "uint256"
        }
      ],
      "name": "rejectedIps",
      "outputs": [
        {
          "internalType": "uint256",
          "name": "",
          "type": "uint256"
        }
      ],
      "stateMutability": "view",
      "type": "function"
    },
    {
      "inputs": [
        {
          "internalType": "uint256",
          "name": "_index",
          "type": "uint256"
        }
      ],
      "name": "removeAccepted",
      "outputs": [],
      "stateMutability": "nonpayable",
      "type": "function"
    },
    {
      "inputs": [
        {
          "internalType": "uint256",
          "name": "_index",
          "type": "uint256"
        }
      ],
      "name": "removePending",
      "outputs": [],
      "stateMutability": "nonpayable",
      "type": "function"
    },
    {
      "inputs": [
        {
          "internalType": "uint256",
          "name": "_index",
          "type": "uint256"
        }
      ],
      "name": "removeRejected",
      "outputs": [],
      "stateMutability": "nonpayable",
      "type": "function"
    },
    {
      "inputs": [],
      "name": "result",
      "outputs": [
        {
          "internalType": "string",
          "name": "",
          "type": "string"
        }
      ],
      "stateMutability": "view",
      "type": "function"
    },
    {
      "inputs": [
        {
          "internalType": "address",
          "name": "from",
          "type": "address"
        },
        {
          "internalType": "address",
          "name": "to",
          "type": "address"
        },
        {
          "internalType": "uint256",
          "name": "tokenId",
          "type": "uint256"
        },
        {
          "internalType": "bytes",
          "name": "data",
          "type": "bytes"
        }
      ],
      "name": "safeTransferFrom",
      "outputs": [],
      "stateMutability": "nonpayable",
      "type": "function"
    },
    {
      "inputs": [
        {
          "internalType": "address",
          "name": "_address",
          "type": "address"
        },
        {
          "internalType": "string",
          "name": "_IPname",
          "type": "string"
        },
        {
          "internalType": "string",
          "name": "_fullname",
          "type": "string"
        },
        {
          "internalType": "string",
          "name": "_country",
          "type": "string"
        },
        {
          "internalType": "string",
          "name": "_addressplace",
          "type": "string"
        },
        {
          "internalType": "string",
          "name": "_allIpInfoURL",
          "type": "string"
        }
      ],
      "name": "setIP",
      "outputs": [],
      "stateMutability": "nonpayable",
      "type": "function"
    },
    {
      "inputs": [
        {
          "internalType": "address",
          "name": "_address",
          "type": "address"
        },
        {
          "internalType": "string",
          "name": "_ownerIPname",
          "type": "string"
        },
        {
          "internalType": "uint256",
          "name": "_bidvalue",
          "type": "uint256"
        },
        {
          "internalType": "address",
          "name": "_bidderaddress",
          "type": "address"
        }
      ],
      "name": "setIPbidder1",
      "outputs": [],
      "stateMutability": "nonpayable",
      "type": "function"
    },
    {
      "inputs": [],
      "name": "symbolOfnft",
      "outputs": [
        {
          "internalType": "string",
          "name": "",
          "type": "string"
        }
      ],
      "stateMutability": "view",
      "type": "function"
    }
  ],
  "bytecode": "0x6080604052604051620000129062000140565b604051809103906000f0801580156200002f573d6000803e3d6000fd5b506000806101000a81548173ffffffffffffffffffffffffffffffffffffffff021916908373ffffffffffffffffffffffffffffffffffffffff1602179055506040516200007d906200014e565b604051809103906000f0801580156200009a573d6000803e3d6000fd5b50600160006101000a81548173ffffffffffffffffffffffffffffffffffffffff021916908373ffffffffffffffffffffffffffffffffffffffff160217905550348015620000e857600080fd5b5033600260006101000a81548173ffffffffffffffffffffffffffffffffffffffff021916908373ffffffffffffffffffffffffffffffffffffffff16021790555060006005819055506000600a819055506200015c565b612a4e806200585983390190565b61123b80620082a783390190565b6156ed806200016c6000396000f3fe608060405234801561001057600080fd5b50600436106101f05760003560e01c80636fa6bd471161010f578063b40a5627116100a2578063cea62a1b11610071578063cea62a1b146105f2578063d5606fbf14610610578063ebc0ba6d14610640578063fb645bd814610670576101f0565b8063b40a56271461056a578063b69d008b14610588578063b88d4fde146105a6578063c5a8a2ab146105c2576101f0565b80639c8228a1116100de5780639c8228a1146104e4578063a5bfeaa814610502578063a62e915214610532578063b13d3ecc1461054e576101f0565b80636fa6bd47146104465780638da5cb5b14610478578063907e67fe1461049657806396a4d5c4146104b4576101f0565b806338d5d32511610187578063612cba6711610156578063612cba67146103c057806363817a10146103dc578063653721471461040c5780636b9eca4c1461042a576101f0565b806338d5d32514610322578063436aa76c1461033e57806343c682e7146103725780635c622a0e14610390576101f0565b80631efc9314116101c35780631efc93141461027f57806327bbc10d1461029d57806330e1ad32146102cd57806334020f4b14610304576101f0565b806302000bd4146101f557806306457ba61461021357806319db8a05146102315780631cdaea221461024f575b600080fd5b6101fd61068c565b60405161020a9190614fd4565b60405180910390f35b61021b610699565b6040516102289190614e06565b60405180910390f35b6102396106f1565b6040516102469190614e5e565b60405180910390f35b61026960048036038101906102649190614576565b61079b565b6040516102769190614fd4565b60405180910390f35b6102876107bf565b6040516102949190614e06565b60405180910390f35b6102b760048036038101906102b29190614576565b610817565b6040516102c49190614fd4565b60405180910390f35b6102e760048036038101906102e29190614576565b61083b565b6040516102fb989796959493929190614d21565b60405180910390f35b61030c610b58565b6040516103199190614fd4565b60405180910390f35b61033c60048036038101906103379190614576565b610b65565b005b61035860048036038101906103539190614576565b610cc9565b604051610369959493929190614e80565b60405180910390f35b61037a611129565b6040516103879190614dc2565b60405180910390f35b6103aa60048036038101906103a59190614576565b61163e565b6040516103b79190614e43565b60405180910390f35b6103da60048036038101906103d59190614576565b6116cb565b005b6103f660048036038101906103f191906145c8565b61302f565b6040516104039190614fd4565b60405180910390f35b610414613228565b6040516104219190614e5e565b60405180910390f35b610444600480360381019061043f9190614354565b6132b6565b005b610460600480360381019061045b91906144d0565b613538565b60405161046f93929190614ef6565b60405180910390f35b610480613627565b60405161048d9190614c8a565b60405180910390f35b61049e61364d565b6040516104ab9190614fd4565b60405180910390f35b6104ce60048036038101906104c99190614287565b613653565b6040516104db9190614de4565b60405180910390f35b6104ec6137e3565b6040516104f99190614e5e565b60405180910390f35b61051c60048036038101906105179190614287565b61388d565b6040516105299190614fd4565b60405180910390f35b61054c60048036038101906105479190614455565b6138d9565b005b61056860048036038101906105639190614576565b613a00565b005b610572613b64565b60405161057f9190614fd4565b60405180910390f35b610590613b6a565b60405161059d9190614e06565b60405180910390f35b6105c060048036038101906105bb91906142d9565b613bc2565b005b6105dc60048036038101906105d7919061462f565b613c59565b6040516105e99190614e28565b60405180910390f35b6105fa613d82565b6040516106079190614fd4565b60405180910390f35b61062a60048036038101906106259190614576565b613d8f565b6040516106379190614fd4565b60405180910390f35b61065a60048036038101906106559190614576565b613db3565b6040516106679190614c8a565b60405180910390f35b61068a60048036038101906106859190614576565b613e66565b005b6000600780549050905090565b606060098054806020026020016040519081016040528092919081815260200182805480156106e757602002820191906000526020600020905b8154815260200190600101908083116106d3575b5050505050905090565b606060008054906101000a900473ffffffffffffffffffffffffffffffffffffffff1673ffffffffffffffffffffffffffffffffffffffff166306fdde036040518163ffffffff1660e01b815260040160006040518083038186803b15801561075957600080fd5b505afa15801561076d573d6000803e3d6000fd5b505050506040513d6000823e3d601f19601f820116820180604052508101906107969190614535565b905090565b600981815481106107ab57600080fd5b906000526020600020016000915090505481565b6060600780548060200260200160405190810160405280929190818152602001828054801561080d57602002820191906000526020600020905b8154815260200190600101908083116107f9575b5050505050905090565b6007818154811061082757600080fd5b906000526020600020016000915090505481565b60066020528060005260406000206000915090508060000160009054906101000a900473ffffffffffffffffffffffffffffffffffffffff16908060010180546108849061534e565b80601f01602080910402602001604051908101604052809291908181526020018280546108b09061534e565b80156108fd5780601f106108d2576101008083540402835291602001916108fd565b820191906000526020600020905b8154815290600101906020018083116108e057829003601f168201915b5050505050908060020180546109129061534e565b80601f016020809104026020016040519081016040528092919081815260200182805461093e9061534e565b801561098b5780601f106109605761010080835404028352916020019161098b565b820191906000526020600020905b81548152906001019060200180831161096e57829003601f168201915b5050505050908060030180546109a09061534e565b80601f01602080910402602001604051908101604052809291908181526020018280546109cc9061534e565b8015610a195780601f106109ee57610100808354040283529160200191610a19565b820191906000526020600020905b8154815290600101906020018083116109fc57829003601f168201915b505050505090806004018054610a2e9061534e565b80601f0160208091040260200160405190810160405280929190818152602001828054610a5a9061534e565b8015610aa75780601f10610a7c57610100808354040283529160200191610aa7565b820191906000526020600020905b815481529060010190602001808311610a8a57829003601f168201915b505050505090806005018054610abc9061534e565b80601f0160208091040260200160405190810160405280929190818152602001828054610ae89061534e565b8015610b355780601f10610b0a57610100808354040283529160200191610b35565b820191906000526020600020905b815481529060010190602001808311610b1857829003601f168201915b5050505050908060060154908060080160009054906101000a900460ff16905088565b6000600880549050905090565b6009805490508110610bac576040517f08c379a0000000000000000000000000000000000000000000000000000000008152600401610ba390614fb4565b60405180910390fd5b60008190505b6001600980549050610bc49190615261565b811015610c77576009600182610bda919061520b565b81548110610c11577f4e487b7100000000000000000000000000000000000000000000000000000000600052603260045260246000fd5b906000526020600020015460098281548110610c56577f4e487b7100000000000000000000000000000000000000000000000000000000600052603260045260246000fd5b90600052602060002001819055508080610c6f906153cb565b915050610bb2565b506009805480610cb0577f4e487b7100000000000000000000000000000000000000000000000000000000600052603160045260246000fd5b6001900381819060005260206000200160009055905550565b6060806060806060600060066000888152602001908152602001600020604051806101200160405290816000820160009054906101000a900473ffffffffffffffffffffffffffffffffffffffff1673ffffffffffffffffffffffffffffffffffffffff1673ffffffffffffffffffffffffffffffffffffffff168152602001600182018054610d589061534e565b80601f0160208091040260200160405190810160405280929190818152602001828054610d849061534e565b8015610dd15780601f10610da657610100808354040283529160200191610dd1565b820191906000526020600020905b815481529060010190602001808311610db457829003601f168201915b50505050508152602001600282018054610dea9061534e565b80601f0160208091040260200160405190810160405280929190818152602001828054610e169061534e565b8015610e635780601f10610e3857610100808354040283529160200191610e63565b820191906000526020600020905b815481529060010190602001808311610e4657829003601f168201915b50505050508152602001600382018054610e7c9061534e565b80601f0160208091040260200160405190810160405280929190818152602001828054610ea89061534e565b8015610ef55780601f10610eca57610100808354040283529160200191610ef5565b820191906000526020600020905b815481529060010190602001808311610ed857829003601f168201915b50505050508152602001600482018054610f0e9061534e565b80601f0160208091040260200160405190810160405280929190818152602001828054610f3a9061534e565b8015610f875780601f10610f5c57610100808354040283529160200191610f87565b820191906000526020600020905b815481529060010190602001808311610f6a57829003601f168201915b50505050508152602001600582018054610fa09061534e565b80601f0160208091040260200160405190810160405280929190818152602001828054610fcc9061534e565b80156110195780601f10610fee57610100808354040283529160200191611019565b820191906000526020600020905b815481529060010190602001808311610ffc57829003601f168201915b5050505050815260200160068201548152602001600782018054806020026020016040519081016040528092919081815260200182805480156110d657602002820191906000526020600020906000905b82829054906101000a900460ff1660028111156110b0577f4e487b7100000000000000000000000000000000000000000000000000000000600052602160045260246000fd5b8152602001906001019060208260000104928301926001038202915080841161106a5790505b505050505081526020016008820160009054906101000a900460ff161515151581525050905080602001518160400151826060015183608001518460a00151955095509550955095505091939590929450565b6060600060055467ffffffffffffffff81111561116f577f4e487b7100000000000000000000000000000000000000000000000000000000600052604160045260246000fd5b6040519080825280602002602001820160405280156111a857816020015b611195613fca565b81526020019060019003908161118d5790505b50905060005b6005548110156116365760066000828152602001908152602001600020604051806101200160405290816000820160009054906101000a900473ffffffffffffffffffffffffffffffffffffffff1673ffffffffffffffffffffffffffffffffffffffff1673ffffffffffffffffffffffffffffffffffffffff16815260200160018201805461123d9061534e565b80601f01602080910402602001604051908101604052809291908181526020018280546112699061534e565b80156112b65780601f1061128b576101008083540402835291602001916112b6565b820191906000526020600020905b81548152906001019060200180831161129957829003601f168201915b505050505081526020016002820180546112cf9061534e565b80601f01602080910402602001604051908101604052809291908181526020018280546112fb9061534e565b80156113485780601f1061131d57610100808354040283529160200191611348565b820191906000526020600020905b81548152906001019060200180831161132b57829003601f168201915b505050505081526020016003820180546113619061534e565b80601f016020809104026020016040519081016040528092919081815260200182805461138d9061534e565b80156113da5780601f106113af576101008083540402835291602001916113da565b820191906000526020600020905b8154815290600101906020018083116113bd57829003601f168201915b505050505081526020016004820180546113f39061534e565b80601f016020809104026020016040519081016040528092919081815260200182805461141f9061534e565b801561146c5780601f106114415761010080835404028352916020019161146c565b820191906000526020600020905b81548152906001019060200180831161144f57829003601f168201915b505050505081526020016005820180546114859061534e565b80601f01602080910402602001604051908101604052809291908181526020018280546114b19061534e565b80156114fe5780601f106114d3576101008083540402835291602001916114fe565b820191906000526020600020905b8154815290600101906020018083116114e157829003601f168201915b5050505050815260200160068201548152602001600782018054806020026020016040519081016040528092919081815260200182805480156115bb57602002820191906000526020600020906000905b82829054906101000a900460ff166002811115611595577f4e487b7100000000000000000000000000000000000000000000000000000000600052602160045260246000fd5b8152602001906001019060208260000104928301926001038202915080841161154f5790505b505050505081526020016008820160009054906101000a900460ff161515151581525050828281518110611618577f4e487b7100000000000000000000000000000000000000000000000000000000600052603260045260246000fd5b6020026020010181905250808061162e906153cb565b9150506111ae565b508091505090565b6000600660008381526020019081526020016000206007016004600084815260200190815260200160002060000154815481106116a4577f4e487b7100000000000000000000000000000000000000000000000000000000600052603260045260246000fd5b90600052602060002090602091828204019190069054906101000a900460ff169050919050565b60006004600083815260200190815260200160002060000154905060016002811115611720577f4e487b7100000000000000000000000000000000000000000000000000000000600052602160045260246000fd5b60066000848152602001908152602001600020600701828154811061176e577f4e487b7100000000000000000000000000000000000000000000000000000000600052603260045260246000fd5b90600052602060002090602091828204019190069054906101000a900460ff1660028111156117c6577f4e487b7100000000000000000000000000000000000000000000000000000000600052602160045260246000fd5b1415611f3a576000600160009054906101000a900473ffffffffffffffffffffffffffffffffffffffff1673ffffffffffffffffffffffffffffffffffffffff166319d5880c8460076040518363ffffffff1660e01b815260040161182c929190614fef565b60206040518083038186803b15801561184457600080fd5b505afa158015611858573d6000803e3d6000fd5b505050506040513d601f19601f8201168201806040525081019061187c919061450c565b905060016040516020016118909190614c43565b60405160208183030381529060405280519060200120816040516020016118b79190614c43565b60405160208183030381529060405280519060200120141561190e576040517f08c379a000000000000000000000000000000000000000000000000000000000815260040161190590614f54565b60405180910390fd5b60078390806001815401808255809150506001900390600052602060002001600090919091909150556000600160009054906101000a900473ffffffffffffffffffffffffffffffffffffffff1673ffffffffffffffffffffffffffffffffffffffff166321772a448560086040518363ffffffff1660e01b8152600401611997929190614fef565b60006040518083038186803b1580156119af57600080fd5b505afa1580156119c3573d6000803e3d6000fd5b505050506040513d6000823e3d601f19601f820116820180604052508101906119ec9190614535565b90506000600160009054906101000a900473ffffffffffffffffffffffffffffffffffffffff1673ffffffffffffffffffffffffffffffffffffffff1663a28a34808660096040518363ffffffff1660e01b8152600401611a4e929190614fef565b60006040518083038186803b158015611a6657600080fd5b505afa158015611a7a573d6000803e3d6000fd5b505050506040513d6000823e3d601f19601f82011682018060405250810190611aa39190614535565b9050604051602001611ab490614c75565b6040516020818303038152906040528051906020012082604051602001611adb9190614c5e565b6040516020818303038152906040528051906020012014158015611b495750604051602001611b0990614c75565b6040516020818303038152906040528051906020012081604051602001611b309190614c5e565b6040516020818303038152906040528051906020012014155b15611cc5576000600160009054906101000a900473ffffffffffffffffffffffffffffffffffffffff1673ffffffffffffffffffffffffffffffffffffffff166379cd9055846040518263ffffffff1660e01b8152600401611bab9190614e5e565b60206040518083038186803b158015611bc357600080fd5b505afa158015611bd7573d6000803e3d6000fd5b505050506040513d601f19601f82011682018060405250810190611bfb919061459f565b90506000600160009054906101000a900473ffffffffffffffffffffffffffffffffffffffff1673ffffffffffffffffffffffffffffffffffffffff166379cd9055846040518263ffffffff1660e01b8152600401611c5a9190614e5e565b60206040518083038186803b158015611c7257600080fd5b505afa158015611c86573d6000803e3d6000fd5b505050506040513d601f19601f82011682018060405250810190611caa919061459f565b9050611cb582613a00565b611cbe81610b65565b5050611f32565b604051602001611cd490614c75565b6040516020818303038152906040528051906020012082604051602001611cfb9190614c5e565b6040516020818303038152906040528051906020012014611dd4576000600160009054906101000a900473ffffffffffffffffffffffffffffffffffffffff1673ffffffffffffffffffffffffffffffffffffffff166379cd9055846040518263ffffffff1660e01b8152600401611d739190614e5e565b60206040518083038186803b158015611d8b57600080fd5b505afa158015611d9f573d6000803e3d6000fd5b505050506040513d601f19601f82011682018060405250810190611dc3919061459f565b9050611dce81613a00565b50611f31565b604051602001611de390614c75565b6040516020818303038152906040528051906020012081604051602001611e0a9190614c5e565b6040516020818303038152906040528051906020012014611ee3576000600160009054906101000a900473ffffffffffffffffffffffffffffffffffffffff1673ffffffffffffffffffffffffffffffffffffffff166379cd9055836040518263ffffffff1660e01b8152600401611e829190614e5e565b60206040518083038186803b158015611e9a57600080fd5b505afa158015611eae573d6000803e3d6000fd5b505050506040513d601f19601f82011682018060405250810190611ed2919061459f565b9050611edd81610b65565b50611f30565b6040518060400160405280600981526020017f6e6f7420666f756e64000000000000000000000000000000000000000000000081525060039080519060200190611f2e92919061402e565b505b5b5b50505061302b565b60006002811115611f74577f4e487b7100000000000000000000000000000000000000000000000000000000600052602160045260246000fd5b600660008481526020019081526020016000206007018281548110611fc2577f4e487b7100000000000000000000000000000000000000000000000000000000600052603260045260246000fd5b90600052602060002090602091828204019190069054906101000a900460ff16600281111561201a577f4e487b7100000000000000000000000000000000000000000000000000000000600052602160045260246000fd5b14156127da576000600160009054906101000a900473ffffffffffffffffffffffffffffffffffffffff1673ffffffffffffffffffffffffffffffffffffffff166332a5d1708460086040518363ffffffff1660e01b8152600401612080929190614fef565b60206040518083038186803b15801561209857600080fd5b505afa1580156120ac573d6000803e3d6000fd5b505050506040513d601f19601f820116820180604052508101906120d0919061450c565b905060016040516020016120e49190614c43565b604051602081830303815290604052805190602001208160405160200161210b9190614c43565b604051602081830303815290604052805190602001201415612162576040517f08c379a000000000000000000000000000000000000000000000000000000000815260040161215990614f74565b60405180910390fd5b60088390806001815401808255809150506001900390600052602060002001600090919091909150556000600160009054906101000a900473ffffffffffffffffffffffffffffffffffffffff1673ffffffffffffffffffffffffffffffffffffffff1663d25a84eb8560076040518363ffffffff1660e01b81526004016121eb929190614fef565b60006040518083038186803b15801561220357600080fd5b505afa158015612217573d6000803e3d6000fd5b505050506040513d6000823e3d601f19601f820116820180604052508101906122409190614535565b90506000600160009054906101000a900473ffffffffffffffffffffffffffffffffffffffff1673ffffffffffffffffffffffffffffffffffffffff1663a28a34808660096040518363ffffffff1660e01b81526004016122a2929190614fef565b60006040518083038186803b1580156122ba57600080fd5b505afa1580156122ce573d6000803e3d6000fd5b505050506040513d6000823e3d601f19601f820116820180604052508101906122f79190614535565b905060405160200161230890614c75565b604051602081830303815290604052805190602001208260405160200161232f9190614c5e565b604051602081830303815290604052805190602001201415801561239d575060405160200161235d90614c75565b60405160208183030381529060405280519060200120816040516020016123849190614c5e565b6040516020818303038152906040528051906020012014155b15612519576000600160009054906101000a900473ffffffffffffffffffffffffffffffffffffffff1673ffffffffffffffffffffffffffffffffffffffff166379cd9055846040518263ffffffff1660e01b81526004016123ff9190614e5e565b60206040518083038186803b15801561241757600080fd5b505afa15801561242b573d6000803e3d6000fd5b505050506040513d601f19601f8201168201806040525081019061244f919061459f565b90506000600160009054906101000a900473ffffffffffffffffffffffffffffffffffffffff1673ffffffffffffffffffffffffffffffffffffffff166379cd9055846040518263ffffffff1660e01b81526004016124ae9190614e5e565b60206040518083038186803b1580156124c657600080fd5b505afa1580156124da573d6000803e3d6000fd5b505050506040513d601f19601f820116820180604052508101906124fe919061459f565b905061250982613e66565b61251281610b65565b50506127d2565b60405160200161252890614c75565b604051602081830303815290604052805190602001208260405160200161254f9190614c5e565b6040516020818303038152906040528051906020012014612674576000600160009054906101000a900473ffffffffffffffffffffffffffffffffffffffff1673ffffffffffffffffffffffffffffffffffffffff166379cd9055846040518263ffffffff1660e01b81526004016125c79190614e5e565b60206040518083038186803b1580156125df57600080fd5b505afa1580156125f3573d6000803e3d6000fd5b505050506040513d601f19601f82011682018060405250810190612617919061459f565b905061262281613e66565b6040518060400160405280600381526020017f6f6e6500000000000000000000000000000000000000000000000000000000008152506003908051906020019061266d92919061402e565b50506127d1565b60405160200161268390614c75565b60405160208183030381529060405280519060200120816040516020016126aa9190614c5e565b6040516020818303038152906040528051906020012014612783576000600160009054906101000a900473ffffffffffffffffffffffffffffffffffffffff1673ffffffffffffffffffffffffffffffffffffffff166379cd9055836040518263ffffffff1660e01b81526004016127229190614e5e565b60206040518083038186803b15801561273a57600080fd5b505afa15801561274e573d6000803e3d6000fd5b505050506040513d601f19601f82011682018060405250810190612772919061459f565b905061277d81610b65565b506127d0565b6040518060400160405280600981526020017f6e6f7420666f756e640000000000000000000000000000000000000000000000815250600390805190602001906127ce92919061402e565b505b5b5b50505061302a565b600280811115612813577f4e487b7100000000000000000000000000000000000000000000000000000000600052602160045260246000fd5b600660008481526020019081526020016000206007018281548110612861577f4e487b7100000000000000000000000000000000000000000000000000000000600052603260045260246000fd5b90600052602060002090602091828204019190069054906101000a900460ff1660028111156128b9577f4e487b7100000000000000000000000000000000000000000000000000000000600052602160045260246000fd5b1415613029576000600160009054906101000a900473ffffffffffffffffffffffffffffffffffffffff1673ffffffffffffffffffffffffffffffffffffffff16637ef1cd4b8460096040518363ffffffff1660e01b815260040161291f929190614fef565b60206040518083038186803b15801561293757600080fd5b505afa15801561294b573d6000803e3d6000fd5b505050506040513d601f19601f8201168201806040525081019061296f919061450c565b905060016040516020016129839190614c43565b60405160208183030381529060405280519060200120816040516020016129aa9190614c43565b604051602081830303815290604052805190602001201415612a01576040517f08c379a00000000000000000000000000000000000000000000000000000000081526004016129f890614f94565b60405180910390fd5b60098390806001815401808255809150506001900390600052602060002001600090919091909150556000600160009054906101000a900473ffffffffffffffffffffffffffffffffffffffff1673ffffffffffffffffffffffffffffffffffffffff1663d25a84eb8560076040518363ffffffff1660e01b8152600401612a8a929190614fef565b60006040518083038186803b158015612aa257600080fd5b505afa158015612ab6573d6000803e3d6000fd5b505050506040513d6000823e3d601f19601f82011682018060405250810190612adf9190614535565b90506000600160009054906101000a900473ffffffffffffffffffffffffffffffffffffffff1673ffffffffffffffffffffffffffffffffffffffff166321772a448660086040518363ffffffff1660e01b8152600401612b41929190614fef565b60006040518083038186803b158015612b5957600080fd5b505afa158015612b6d573d6000803e3d6000fd5b505050506040513d6000823e3d601f19601f82011682018060405250810190612b969190614535565b9050604051602001612ba790614c75565b6040516020818303038152906040528051906020012082604051602001612bce9190614c5e565b6040516020818303038152906040528051906020012014158015612c3c5750604051602001612bfc90614c75565b6040516020818303038152906040528051906020012081604051602001612c239190614c5e565b6040516020818303038152906040528051906020012014155b15612db8576000600160009054906101000a900473ffffffffffffffffffffffffffffffffffffffff1673ffffffffffffffffffffffffffffffffffffffff166379cd9055846040518263ffffffff1660e01b8152600401612c9e9190614e5e565b60206040518083038186803b158015612cb657600080fd5b505afa158015612cca573d6000803e3d6000fd5b505050506040513d601f19601f82011682018060405250810190612cee919061459f565b90506000600160009054906101000a900473ffffffffffffffffffffffffffffffffffffffff1673ffffffffffffffffffffffffffffffffffffffff166379cd9055846040518263ffffffff1660e01b8152600401612d4d9190614e5e565b60206040518083038186803b158015612d6557600080fd5b505afa158015612d79573d6000803e3d6000fd5b505050506040513d601f19601f82011682018060405250810190612d9d919061459f565b9050612da882613e66565b612db181613a00565b5050613025565b604051602001612dc790614c75565b6040516020818303038152906040528051906020012082604051602001612dee9190614c5e565b6040516020818303038152906040528051906020012014612ec7576000600160009054906101000a900473ffffffffffffffffffffffffffffffffffffffff1673ffffffffffffffffffffffffffffffffffffffff166379cd9055846040518263ffffffff1660e01b8152600401612e669190614e5e565b60206040518083038186803b158015612e7e57600080fd5b505afa158015612e92573d6000803e3d6000fd5b505050506040513d601f19601f82011682018060405250810190612eb6919061459f565b9050612ec181613e66565b50613024565b604051602001612ed690614c75565b6040516020818303038152906040528051906020012081604051602001612efd9190614c5e565b6040516020818303038152906040528051906020012014612fd6576000600160009054906101000a900473ffffffffffffffffffffffffffffffffffffffff1673ffffffffffffffffffffffffffffffffffffffff166379cd9055836040518263ffffffff1660e01b8152600401612f759190614e5e565b60206040518083038186803b158015612f8d57600080fd5b505afa158015612fa1573d6000803e3d6000fd5b505050506040513d601f19601f82011682018060405250810190612fc5919061459f565b9050612fd081613a00565b50613023565b6040518060400160405280600981526020017f6e6f7420666f756e6400000000000000000000000000000000000000000000008152506003908051906020019061302192919061402e565b505b5b5b5050505b5b5b5050565b600080600160009054906101000a900473ffffffffffffffffffffffffffffffffffffffff1673ffffffffffffffffffffffffffffffffffffffff166319d5880c8660076040518363ffffffff1660e01b8152600401613090929190614fef565b60206040518083038186803b1580156130a857600080fd5b505afa1580156130bc573d6000803e3d6000fd5b505050506040513d601f19601f820116820180604052508101906130e0919061450c565b905060016040516020016130f49190614c43565b604051602081830303815290604052805190602001208160405160200161311b9190614c43565b6040516020818303038152906040528051906020012014613171576040517f08c379a000000000000000000000000000000000000000000000000000000000815260040161316890614f34565b60405180910390fd5b60008054906101000a900473ffffffffffffffffffffffffffffffffffffffff1673ffffffffffffffffffffffffffffffffffffffff1663925eb15285856040518363ffffffff1660e01b81526004016131cc929190614cf1565b602060405180830381600087803b1580156131e657600080fd5b505af11580156131fa573d6000803e3d6000fd5b505050506040513d601f19601f8201168201806040525081019061321e919061459f565b9150509392505050565b600380546132359061534e565b80601f01602080910402602001604051908101604052809291908181526020018280546132619061534e565b80156132ae5780601f10613283576101008083540402835291602001916132ae565b820191906000526020600020905b81548152906001019060200180831161329157829003601f168201915b505050505081565b60008660066000600554815260200190815260200160002060000160006101000a81548173ffffffffffffffffffffffffffffffffffffffff021916908373ffffffffffffffffffffffffffffffffffffffff16021790555085600660006005548152602001908152602001600020600101908051906020019061333b92919061402e565b5084600660006005548152602001908152602001600020600201908051906020019061336892919061402e565b5083600660006005548152602001908152602001600020600301908051906020019061339592919061402e565b508260066000600554815260200190815260200160002060040190805190602001906133c292919061402e565b508160066000600554815260200190815260200160002060050190805190602001906133ef92919061402e565b5042600660006005548152602001908152602001600020600601819055506006600060055481526020019081526020016000206007018190806001815401808255809150506001900390600052602060002090602091828204019190069091909190916101000a81548160ff02191690836002811115613498577f4e487b7100000000000000000000000000000000000000000000000000000000600052602160045260246000fd5b0217905550600060046000600554815260200190815260200160002060000181905550600160066000600554815260200190815260200160002060080160006101000a81548160ff021916908315150217905550600860055490806001815401808255809150506001900390600052602060002001600090919091909150556005600081548092919061352a906153cb565b919050555050505050505050565b600b602052816000526040600020818154811061355457600080fd5b9060005260206000209060030201600091509150508060000180546135789061534e565b80601f01602080910402602001604051908101604052809291908181526020018280546135a49061534e565b80156135f15780601f106135c6576101008083540402835291602001916135f1565b820191906000526020600020905b8154815290600101906020018083116135d457829003601f168201915b5050505050908060010154908060020160009054906101000a900473ffffffffffffffffffffffffffffffffffffffff16905083565b600260009054906101000a900473ffffffffffffffffffffffffffffffffffffffff1681565b60055481565b6060600b60008373ffffffffffffffffffffffffffffffffffffffff1673ffffffffffffffffffffffffffffffffffffffff168152602001908152602001600020805480602002602001604051908101604052809291908181526020016000905b828210156137d857838290600052602060002090600302016040518060600160405290816000820180546136e79061534e565b80601f01602080910402602001604051908101604052809291908181526020018280546137139061534e565b80156137605780601f1061373557610100808354040283529160200191613760565b820191906000526020600020905b81548152906001019060200180831161374357829003601f168201915b50505050508152602001600182015481526020016002820160009054906101000a900473ffffffffffffffffffffffffffffffffffffffff1673ffffffffffffffffffffffffffffffffffffffff1673ffffffffffffffffffffffffffffffffffffffff1681525050815260200190600101906136b4565b505050509050919050565b606060008054906101000a900473ffffffffffffffffffffffffffffffffffffffff1673ffffffffffffffffffffffffffffffffffffffff166395d89b416040518163ffffffff1660e01b815260040160006040518083038186803b15801561384b57600080fd5b505afa15801561385f573d6000803e3d6000fd5b505050506040513d6000823e3d601f19601f820116820180604052508101906138889190614535565b905090565b6000600b60008373ffffffffffffffffffffffffffffffffffffffff1673ffffffffffffffffffffffffffffffffffffffff168152602001908152602001600020805490509050919050565b600b60008573ffffffffffffffffffffffffffffffffffffffff1673ffffffffffffffffffffffffffffffffffffffff16815260200190815260200160002060405180606001604052808581526020018481526020018373ffffffffffffffffffffffffffffffffffffffff168152509080600181540180825580915050600190039060005260206000209060030201600090919091909150600082015181600001908051906020019061398e92919061402e565b506020820151816001015560408201518160020160006101000a81548173ffffffffffffffffffffffffffffffffffffffff021916908373ffffffffffffffffffffffffffffffffffffffff1602179055505050600a60008154809291906139f5906153cb565b919050555050505050565b6008805490508110613a47576040517f08c379a0000000000000000000000000000000000000000000000000000000008152600401613a3e90614fb4565b60405180910390fd5b60008190505b6001600880549050613a5f9190615261565b811015613b12576008600182613a75919061520b565b81548110613aac577f4e487b7100000000000000000000000000000000000000000000000000000000600052603260045260246000fd5b906000526020600020015460088281548110613af1577f4e487b7100000000000000000000000000000000000000000000000000000000600052603260045260246000fd5b90600052602060002001819055508080613b0a906153cb565b915050613a4d565b506008805480613b4b577f4e487b7100000000000000000000000000000000000000000000000000000000600052603160045260246000fd5b6001900381819060005260206000200160009055905550565b600a5481565b60606008805480602002602001604051908101604052809291908181526020018280548015613bb857602002820191906000526020600020905b815481526020019060010190808311613ba4575b5050505050905090565b60008054906101000a900473ffffffffffffffffffffffffffffffffffffffff1673ffffffffffffffffffffffffffffffffffffffff1663b88d4fde858585856040518563ffffffff1660e01b8152600401613c219493929190614ca5565b600060405180830381600087803b158015613c3b57600080fd5b505af1158015613c4f573d6000803e3d6000fd5b5050505050505050565b6000600260009054906101000a900473ffffffffffffffffffffffffffffffffffffffff1673ffffffffffffffffffffffffffffffffffffffff163373ffffffffffffffffffffffffffffffffffffffff1614613cb557600080fd5b600660008481526020019081526020016000206007018290806001815401808255809150506001900390600052602060002090602091828204019190069091909190916101000a81548160ff02191690836002811115613d3e577f4e487b7100000000000000000000000000000000000000000000000000000000600052602160045260246000fd5b0217905550600460008481526020019081526020016000206000016000815480929190613d6a906153cb565b9190505550613d78836116cb565b6001905092915050565b6000600980549050905090565b60088181548110613d9f57600080fd5b906000526020600020016000915090505481565b60008060009054906101000a900473ffffffffffffffffffffffffffffffffffffffff1673ffffffffffffffffffffffffffffffffffffffff16636352211e836040518263ffffffff1660e01b8152600401613e0f9190614fd4565b60206040518083038186803b158015613e2757600080fd5b505afa158015613e3b573d6000803e3d6000fd5b505050506040513d601f19601f82011682018060405250810190613e5f91906142b0565b9050919050565b6007805490508110613ead576040517f08c379a0000000000000000000000000000000000000000000000000000000008152600401613ea490614fb4565b60405180910390fd5b60008190505b6001600780549050613ec59190615261565b811015613f78576007600182613edb919061520b565b81548110613f12577f4e487b7100000000000000000000000000000000000000000000000000000000600052603260045260246000fd5b906000526020600020015460078281548110613f57577f4e487b7100000000000000000000000000000000000000000000000000000000600052603260045260246000fd5b90600052602060002001819055508080613f70906153cb565b915050613eb3565b506007805480613fb1577f4e487b7100000000000000000000000000000000000000000000000000000000600052603160045260246000fd5b6001900381819060005260206000200160009055905550565b604051806101200160405280600073ffffffffffffffffffffffffffffffffffffffff168152602001606081526020016060815260200160608152602001606081526020016060815260200160008152602001606081526020016000151581525090565b82805461403a9061534e565b90600052602060002090601f01602090048101928261405c57600085556140a3565b82601f1061407557805160ff19168380011785556140a3565b828001600101855582156140a3579182015b828111156140a2578251825591602001919060010190614087565b5b5090506140b091906140b4565b5090565b5b808211156140cd5760008160009055506001016140b5565b5090565b60006140e46140df84615044565b61501f565b9050828152602081018484840111156140fc57600080fd5b61410784828561530c565b509392505050565b600061412261411d84615075565b61501f565b90508281526020810184848401111561413a57600080fd5b61414584828561530c565b509392505050565b600061416061415b84615075565b61501f565b90508281526020810184848401111561417857600080fd5b61418384828561531b565b509392505050565b60008135905061419a81615662565b92915050565b6000815190506141af81615662565b92915050565b6000815190506141c481615679565b92915050565b600082601f8301126141db57600080fd5b81356141eb8482602086016140d1565b91505092915050565b60008135905061420381615690565b92915050565b600082601f83011261421a57600080fd5b813561422a84826020860161410f565b91505092915050565b600082601f83011261424457600080fd5b815161425484826020860161414d565b91505092915050565b60008135905061426c816156a0565b92915050565b600081519050614281816156a0565b92915050565b60006020828403121561429957600080fd5b60006142a78482850161418b565b91505092915050565b6000602082840312156142c257600080fd5b60006142d0848285016141a0565b91505092915050565b600080600080608085870312156142ef57600080fd5b60006142fd8782880161418b565b945050602061430e8782880161418b565b935050604061431f8782880161425d565b925050606085013567ffffffffffffffff81111561433c57600080fd5b614348878288016141ca565b91505092959194509250565b60008060008060008060c0878903121561436d57600080fd5b600061437b89828a0161418b565b965050602087013567ffffffffffffffff81111561439857600080fd5b6143a489828a01614209565b955050604087013567ffffffffffffffff8111156143c157600080fd5b6143cd89828a01614209565b945050606087013567ffffffffffffffff8111156143ea57600080fd5b6143f689828a01614209565b935050608087013567ffffffffffffffff81111561441357600080fd5b61441f89828a01614209565b92505060a087013567ffffffffffffffff81111561443c57600080fd5b61444889828a01614209565b9150509295509295509295565b6000806000806080858703121561446b57600080fd5b60006144798782880161418b565b945050602085013567ffffffffffffffff81111561449657600080fd5b6144a287828801614209565b93505060406144b38782880161425d565b92505060606144c48782880161418b565b91505092959194509250565b600080604083850312156144e357600080fd5b60006144f18582860161418b565b92505060206145028582860161425d565b9150509250929050565b60006020828403121561451e57600080fd5b600061452c848285016141b5565b91505092915050565b60006020828403121561454757600080fd5b600082015167ffffffffffffffff81111561456157600080fd5b61456d84828501614233565b91505092915050565b60006020828403121561458857600080fd5b60006145968482850161425d565b91505092915050565b6000602082840312156145b157600080fd5b60006145bf84828501614272565b91505092915050565b6000806000606084860312156145dd57600080fd5b60006145eb8682870161425d565b93505060206145fc8682870161418b565b925050604084013567ffffffffffffffff81111561461957600080fd5b61462586828701614209565b9150509250925092565b6000806040838503121561464257600080fd5b60006146508582860161425d565b9250506020614661858286016141f4565b9150509250929050565b6000614677838361495a565b60208301905092915050565b600061468f8383614aed565b905092915050565b60006146a38383614bd5565b905092915050565b60006146b78383614c25565b60208301905092915050565b6146cc8161529f565b82525050565b6146db8161529f565b82525050565b60006146ec826150fb565b6146f681856151bc565b9350614701836150a6565b8060005b83811015614732578151614719888261466b565b975061472483615148565b925050600181019050614705565b5085935050505092915050565b600061474a82615106565b6147548185615189565b935083602082028501614766856150b6565b8060005b858110156147a257848403895281516147838582614683565b945061478e83615155565b925060208a0199505060018101905061476a565b50829750879550505050505092915050565b60006147bf82615111565b6147c9818561519a565b9350836020820285016147db856150c6565b8060005b8581101561481757848403895281516147f88582614697565b945061480383615162565b925060208a019950506001810190506147df565b50829750879550505050505092915050565b60006148348261511c565b61483e81856151ab565b9350614849836150d6565b8060005b8381101561487a57815161486188826146ab565b975061486c8361516f565b92505060018101905061484d565b5085935050505092915050565b600061489282615127565b61489c81856151ab565b93506148a7836150e6565b8060005b838110156148df576148bc826154f4565b6148c688826146ab565b97506148d18361517c565b9250506001810190506148ab565b5085935050505092915050565b6148f5816152b1565b82525050565b614904816152b1565b82525050565b61491b614916826152b1565b615414565b82525050565b600061492c82615132565b61493681856151cd565b935061494681856020860161531b565b61494f81615507565b840191505092915050565b614963816152fa565b82525050565b614972816152fa565b82525050565b60006149838261513d565b61498d81856151de565b935061499d81856020860161531b565b6149a681615507565b840191505092915050565b60006149bc8261513d565b6149c681856151ef565b93506149d681856020860161531b565b6149df81615507565b840191505092915050565b60006149f58261513d565b6149ff8185615200565b9350614a0f81856020860161531b565b80840191505092915050565b6000614a286022836151ef565b9150614a3382615532565b604082019050919050565b6000614a4b6018836151ef565b9150614a5682615581565b602082019050919050565b6000614a6e6017836151ef565b9150614a79826155aa565b602082019050919050565b6000614a916018836151ef565b9150614a9c826155d3565b602082019050919050565b6000614ab4600983615200565b9150614abf826155fc565b600982019050919050565b6000614ad76012836151ef565b9150614ae282615625565b602082019050919050565b600061012083016000830151614b0660008601826146c3565b5060208301518482036020860152614b1e8282614978565b91505060408301518482036040860152614b388282614978565b91505060608301518482036060860152614b528282614978565b91505060808301518482036080860152614b6c8282614978565b91505060a083015184820360a0860152614b868282614978565b91505060c0830151614b9b60c0860182614c25565b5060e083015184820360e0860152614bb382826146e1565b915050610100830151614bca6101008601826148ec565b508091505092915050565b60006060830160008301518482036000860152614bf28282614978565b9150506020830151614c076020860182614c25565b506040830151614c1a60408601826146c3565b508091505092915050565b614c2e816152f0565b82525050565b614c3d816152f0565b82525050565b6000614c4f828461490a565b60018201915081905092915050565b6000614c6a82846149ea565b915081905092915050565b6000614c8082614aa7565b9150819050919050565b6000602082019050614c9f60008301846146d2565b92915050565b6000608082019050614cba60008301876146d2565b614cc760208301866146d2565b614cd46040830185614c34565b8181036060830152614ce68184614921565b905095945050505050565b6000604082019050614d0660008301856146d2565b8181036020830152614d1881846149b1565b90509392505050565b600061010082019050614d37600083018b6146d2565b8181036020830152614d49818a6149b1565b90508181036040830152614d5d81896149b1565b90508181036060830152614d7181886149b1565b90508181036080830152614d8581876149b1565b905081810360a0830152614d9981866149b1565b9050614da860c0830185614c34565b614db560e08301846148fb565b9998505050505050505050565b60006020820190508181036000830152614ddc818461473f565b905092915050565b60006020820190508181036000830152614dfe81846147b4565b905092915050565b60006020820190508181036000830152614e208184614829565b905092915050565b6000602082019050614e3d60008301846148fb565b92915050565b6000602082019050614e586000830184614969565b92915050565b60006020820190508181036000830152614e7881846149b1565b905092915050565b600060a0820190508181036000830152614e9a81886149b1565b90508181036020830152614eae81876149b1565b90508181036040830152614ec281866149b1565b90508181036060830152614ed681856149b1565b90508181036080830152614eea81846149b1565b90509695505050505050565b60006060820190508181036000830152614f1081866149b1565b9050614f1f6020830185614c34565b614f2c60408301846146d2565b949350505050565b60006020820190508181036000830152614f4d81614a1b565b9050919050565b60006020820190508181036000830152614f6d81614a3e565b9050919050565b60006020820190508181036000830152614f8d81614a61565b9050919050565b60006020820190508181036000830152614fad81614a84565b9050919050565b60006020820190508181036000830152614fcd81614aca565b9050919050565b6000602082019050614fe96000830184614c34565b92915050565b60006040820190506150046000830185614c34565b81810360208301526150168184614887565b90509392505050565b600061502961503a565b9050615035828261539a565b919050565b6000604051905090565b600067ffffffffffffffff82111561505f5761505e6154c5565b5b61506882615507565b9050602081019050919050565b600067ffffffffffffffff8211156150905761508f6154c5565b5b61509982615507565b9050602081019050919050565b6000819050602082019050919050565b6000819050602082019050919050565b6000819050602082019050919050565b6000819050602082019050919050565b60008190508160005260206000209050919050565b600081519050919050565b600081519050919050565b600081519050919050565b600081519050919050565b600081549050919050565b600081519050919050565b600081519050919050565b6000602082019050919050565b6000602082019050919050565b6000602082019050919050565b6000602082019050919050565b6000600182019050919050565b600082825260208201905092915050565b600082825260208201905092915050565b600082825260208201905092915050565b600082825260208201905092915050565b600082825260208201905092915050565b600082825260208201905092915050565b600082825260208201905092915050565b600081905092915050565b6000615216826152f0565b9150615221836152f0565b9250827fffffffffffffffffffffffffffffffffffffffffffffffffffffffffffffffff0382111561525657615255615438565b5b828201905092915050565b600061526c826152f0565b9150615277836152f0565b92508282101561528a57615289615438565b5b828203905092915050565b6000819050919050565b60006152aa826152d0565b9050919050565b60008115159050919050565b60008190506152cb8261564e565b919050565b600073ffffffffffffffffffffffffffffffffffffffff82169050919050565b6000819050919050565b6000615305826152bd565b9050919050565b82818337600083830152505050565b60005b8381101561533957808201518184015260208101905061531e565b83811115615348576000848401525b50505050565b6000600282049050600182168061536657607f821691505b6020821081141561537a57615379615496565b5b50919050565b600061539361538e83615525565b615295565b9050919050565b6153a382615507565b810181811067ffffffffffffffff821117156153c2576153c16154c5565b5b80604052505050565b60006153d6826152f0565b91507fffffffffffffffffffffffffffffffffffffffffffffffffffffffffffffffff82141561540957615408615438565b5b600182019050919050565b600061541f82615426565b9050919050565b600061543182615518565b9050919050565b7f4e487b7100000000000000000000000000000000000000000000000000000000600052601160045260246000fd5b7f4e487b7100000000000000000000000000000000000000000000000000000000600052602160045260246000fd5b7f4e487b7100000000000000000000000000000000000000000000000000000000600052602260045260246000fd5b7f4e487b7100000000000000000000000000000000000000000000000000000000600052604160045260246000fd5b60006155008254615380565b9050919050565b6000601f19601f8301169050919050565b60008160f81b9050919050565b60008160001c9050919050565b7f496e74656c6c65637475616c2070726f7065727479206e6f742061636365707460008201527f6564000000000000000000000000000000000000000000000000000000000000602082015250565b7f4164647265737320616c72656164792061636365707465640000000000000000600082015250565b7f4164647265737320616c72656164792070656e64696e67000000000000000000600082015250565b7f4164647265737320616c72656164792072656a65637465640000000000000000600082015250565b7f6e6f7420666f756e640000000000000000000000000000000000000000000000600082015250565b7f696e646578206f7574206f6620626f756e640000000000000000000000000000600082015250565b6003811061565f5761565e615467565b5b50565b61566b8161529f565b811461567657600080fd5b50565b615682816152b1565b811461568d57600080fd5b50565b6003811061569d57600080fd5b50565b6156a9816152f0565b81146156b457600080fd5b5056fea2646970667358221220bbf41265fbd2f446656a78ead3b02efd6254cf98d2a46ff078827176f03d8ebe64736f6c6343000801003360806040523480156200001157600080fd5b506040518060400160405280600681526020017f49704974656d00000000000000000000000000000000000000000000000000008152506040518060400160405280600481526020017f49704d7400000000000000000000000000000000000000000000000000000000815250816000908051906020019062000096929190620000b8565b508060019080519060200190620000af929190620000b8565b505050620001cd565b828054620000c69062000168565b90600052602060002090601f016020900481019282620000ea576000855562000136565b82601f106200010557805160ff191683800117855562000136565b8280016001018555821562000136579182015b828111156200013557825182559160200191906001019062000118565b5b50905062000145919062000149565b5090565b5b80821115620001645760008160009055506001016200014a565b5090565b600060028204905060018216806200018157607f821691505b602082108114156200019857620001976200019e565b5b50919050565b7f4e487b7100000000000000000000000000000000000000000000000000000000600052602260045260246000fd5b61287180620001dd6000396000f3fe608060405234801561001057600080fd5b50600436106100ea5760003560e01c806370a082311161008c578063a22cb46511610066578063a22cb4651461026f578063b88d4fde1461028b578063c87b56dd146102a7578063e985e9c5146102d7576100ea565b806370a08231146101f1578063925eb1521461022157806395d89b4114610251576100ea565b8063095ea7b3116100c8578063095ea7b31461016d57806323b872dd1461018957806342842e0e146101a55780636352211e146101c1576100ea565b806301ffc9a7146100ef57806306fdde031461011f578063081812fc1461013d575b600080fd5b61010960048036038101906101049190611b8c565b610307565b6040516101169190611f06565b60405180910390f35b6101276103e9565b6040516101349190611f21565b60405180910390f35b61015760048036038101906101529190611bde565b61047b565b6040516101649190611e9f565b60405180910390f35b61018760048036038101906101829190611b50565b6104c1565b005b6101a3600480360381019061019e91906119f6565b6105d9565b005b6101bf60048036038101906101ba91906119f6565b610639565b005b6101db60048036038101906101d69190611bde565b610659565b6040516101e89190611e9f565b60405180910390f35b61020b60048036038101906102069190611991565b61070b565b60405161021891906120c3565b60405180910390f35b61023b60048036038101906102369190611afc565b6107c3565b60405161024891906120c3565b60405180910390f35b6102596107fb565b6040516102669190611f21565b60405180910390f35b61028960048036038101906102849190611ac0565b61088d565b005b6102a560048036038101906102a09190611a45565b6108a3565b005b6102c160048036038101906102bc9190611bde565b610905565b6040516102ce9190611f21565b60405180910390f35b6102f160048036038101906102ec91906119ba565b610a18565b6040516102fe9190611f06565b60405180910390f35b60007f80ac58cd000000000000000000000000000000000000000000000000000000007bffffffffffffffffffffffffffffffffffffffffffffffffffffffff1916827bffffffffffffffffffffffffffffffffffffffffffffffffffffffff191614806103d257507f5b5e139f000000000000000000000000000000000000000000000000000000007bffffffffffffffffffffffffffffffffffffffffffffffffffffffff1916827bffffffffffffffffffffffffffffffffffffffffffffffffffffffff1916145b806103e257506103e182610aac565b5b9050919050565b6060600080546103f890612319565b80601f016020809104026020016040519081016040528092919081815260200182805461042490612319565b80156104715780601f1061044657610100808354040283529160200191610471565b820191906000526020600020905b81548152906001019060200180831161045457829003601f168201915b5050505050905090565b600061048682610b16565b6004600083815260200190815260200160002060009054906101000a900473ffffffffffffffffffffffffffffffffffffffff169050919050565b60006104cc82610659565b90508073ffffffffffffffffffffffffffffffffffffffff168373ffffffffffffffffffffffffffffffffffffffff16141561053d576040517f08c379a000000000000000000000000000000000000000000000000000000000815260040161053490612083565b60405180910390fd5b8073ffffffffffffffffffffffffffffffffffffffff1661055c610b61565b73ffffffffffffffffffffffffffffffffffffffff16148061058b575061058a81610585610b61565b610a18565b5b6105ca576040517f08c379a00000000000000000000000000000000000000000000000000000000081526004016105c190612023565b60405180910390fd5b6105d48383610b69565b505050565b6105ea6105e4610b61565b82610c22565b610629576040517f08c379a0000000000000000000000000000000000000000000000000000000008152600401610620906120a3565b60405180910390fd5b610634838383610cb7565b505050565b610654838383604051806020016040528060008152506108a3565b505050565b6000806002600084815260200190815260200160002060009054906101000a900473ffffffffffffffffffffffffffffffffffffffff169050600073ffffffffffffffffffffffffffffffffffffffff168173ffffffffffffffffffffffffffffffffffffffff161415610702576040517f08c379a00000000000000000000000000000000000000000000000000000000081526004016106f990612063565b60405180910390fd5b80915050919050565b60008073ffffffffffffffffffffffffffffffffffffffff168273ffffffffffffffffffffffffffffffffffffffff16141561077c576040517f08c379a000000000000000000000000000000000000000000000000000000000815260040161077390611fe3565b60405180910390fd5b600360008373ffffffffffffffffffffffffffffffffffffffff1673ffffffffffffffffffffffffffffffffffffffff168152602001908152602001600020549050919050565b60006107cf6007610f1e565b60006107db6007610f34565b90506107e78482610f42565b6107f1818461111c565b8091505092915050565b60606001805461080a90612319565b80601f016020809104026020016040519081016040528092919081815260200182805461083690612319565b80156108835780601f1061085857610100808354040283529160200191610883565b820191906000526020600020905b81548152906001019060200180831161086657829003601f168201915b5050505050905090565b61089f610898610b61565b8383611190565b5050565b6108b46108ae610b61565b83610c22565b6108f3576040517f08c379a00000000000000000000000000000000000000000000000000000000081526004016108ea906120a3565b60405180910390fd5b6108ff848484846112fd565b50505050565b606061091082610b16565b600060066000848152602001908152602001600020805461093090612319565b80601f016020809104026020016040519081016040528092919081815260200182805461095c90612319565b80156109a95780601f1061097e576101008083540402835291602001916109a9565b820191906000526020600020905b81548152906001019060200180831161098c57829003601f168201915b5050505050905060006109ba611359565b90506000815114156109d0578192505050610a13565b600082511115610a055780826040516020016109ed929190611e7b565b60405160208183030381529060405292505050610a13565b610a0e84611370565b925050505b919050565b6000600560008473ffffffffffffffffffffffffffffffffffffffff1673ffffffffffffffffffffffffffffffffffffffff16815260200190815260200160002060008373ffffffffffffffffffffffffffffffffffffffff1673ffffffffffffffffffffffffffffffffffffffff16815260200190815260200160002060009054906101000a900460ff16905092915050565b60007f01ffc9a7000000000000000000000000000000000000000000000000000000007bffffffffffffffffffffffffffffffffffffffffffffffffffffffff1916827bffffffffffffffffffffffffffffffffffffffffffffffffffffffff1916149050919050565b610b1f816113d8565b610b5e576040517f08c379a0000000000000000000000000000000000000000000000000000000008152600401610b5590612063565b60405180910390fd5b50565b600033905090565b816004600083815260200190815260200160002060006101000a81548173ffffffffffffffffffffffffffffffffffffffff021916908373ffffffffffffffffffffffffffffffffffffffff160217905550808273ffffffffffffffffffffffffffffffffffffffff16610bdc83610659565b73ffffffffffffffffffffffffffffffffffffffff167f8c5be1e5ebec7d5bd14f71427d1e84f3dd0314c0f7b2291e5b200ac8c7c3b92560405160405180910390a45050565b600080610c2e83610659565b90508073ffffffffffffffffffffffffffffffffffffffff168473ffffffffffffffffffffffffffffffffffffffff161480610c705750610c6f8185610a18565b5b80610cae57508373ffffffffffffffffffffffffffffffffffffffff16610c968461047b565b73ffffffffffffffffffffffffffffffffffffffff16145b91505092915050565b8273ffffffffffffffffffffffffffffffffffffffff16610cd782610659565b73ffffffffffffffffffffffffffffffffffffffff1614610d2d576040517f08c379a0000000000000000000000000000000000000000000000000000000008152600401610d2490611f63565b60405180910390fd5b600073ffffffffffffffffffffffffffffffffffffffff168273ffffffffffffffffffffffffffffffffffffffff161415610d9d576040517f08c379a0000000000000000000000000000000000000000000000000000000008152600401610d9490611fa3565b60405180910390fd5b610da8838383611444565b610db3600082610b69565b6001600360008573ffffffffffffffffffffffffffffffffffffffff1673ffffffffffffffffffffffffffffffffffffffff1681526020019081526020016000206000828254610e03919061222f565b925050819055506001600360008473ffffffffffffffffffffffffffffffffffffffff1673ffffffffffffffffffffffffffffffffffffffff1681526020019081526020016000206000828254610e5a91906121a8565b92505081905550816002600083815260200190815260200160002060006101000a81548173ffffffffffffffffffffffffffffffffffffffff021916908373ffffffffffffffffffffffffffffffffffffffff160217905550808273ffffffffffffffffffffffffffffffffffffffff168473ffffffffffffffffffffffffffffffffffffffff167fddf252ad1be2c89b69c2b068fc378daa952ba7f163c4a11628f55a4df523b3ef60405160405180910390a4610f19838383611449565b505050565b6001816000016000828254019250508190555050565b600081600001549050919050565b600073ffffffffffffffffffffffffffffffffffffffff168273ffffffffffffffffffffffffffffffffffffffff161415610fb2576040517f08c379a0000000000000000000000000000000000000000000000000000000008152600401610fa990612043565b60405180910390fd5b610fbb816113d8565b15610ffb576040517f08c379a0000000000000000000000000000000000000000000000000000000008152600401610ff290611f83565b60405180910390fd5b61100760008383611444565b6001600360008473ffffffffffffffffffffffffffffffffffffffff1673ffffffffffffffffffffffffffffffffffffffff168152602001908152602001600020600082825461105791906121a8565b92505081905550816002600083815260200190815260200160002060006101000a81548173ffffffffffffffffffffffffffffffffffffffff021916908373ffffffffffffffffffffffffffffffffffffffff160217905550808273ffffffffffffffffffffffffffffffffffffffff16600073ffffffffffffffffffffffffffffffffffffffff167fddf252ad1be2c89b69c2b068fc378daa952ba7f163c4a11628f55a4df523b3ef60405160405180910390a461111860008383611449565b5050565b611125826113d8565b611164576040517f08c379a000000000000000000000000000000000000000000000000000000000815260040161115b90612003565b60405180910390fd5b8060066000848152602001908152602001600020908051906020019061118b9291906117b5565b505050565b8173ffffffffffffffffffffffffffffffffffffffff168373ffffffffffffffffffffffffffffffffffffffff1614156111ff576040517f08c379a00000000000000000000000000000000000000000000000000000000081526004016111f690611fc3565b60405180910390fd5b80600560008573ffffffffffffffffffffffffffffffffffffffff1673ffffffffffffffffffffffffffffffffffffffff16815260200190815260200160002060008473ffffffffffffffffffffffffffffffffffffffff1673ffffffffffffffffffffffffffffffffffffffff16815260200190815260200160002060006101000a81548160ff0219169083151502179055508173ffffffffffffffffffffffffffffffffffffffff168373ffffffffffffffffffffffffffffffffffffffff167f17307eab39ab6107e8899845ad3d59bd9653f200f220920489ca2b5937696c31836040516112f09190611f06565b60405180910390a3505050565b611308848484610cb7565b6113148484848461144e565b611353576040517f08c379a000000000000000000000000000000000000000000000000000000000815260040161134a90611f43565b60405180910390fd5b50505050565b606060405180602001604052806000815250905090565b606061137b82610b16565b6000611385611359565b905060008151116113a557604051806020016040528060008152506113d0565b806113af846115e5565b6040516020016113c0929190611e7b565b6040516020818303038152906040525b915050919050565b60008073ffffffffffffffffffffffffffffffffffffffff166002600084815260200190815260200160002060009054906101000a900473ffffffffffffffffffffffffffffffffffffffff1673ffffffffffffffffffffffffffffffffffffffff1614159050919050565b505050565b505050565b600061146f8473ffffffffffffffffffffffffffffffffffffffff16611792565b156115d8578373ffffffffffffffffffffffffffffffffffffffff1663150b7a02611498610b61565b8786866040518563ffffffff1660e01b81526004016114ba9493929190611eba565b602060405180830381600087803b1580156114d457600080fd5b505af192505050801561150557506040513d601f19601f820116820180604052508101906115029190611bb5565b60015b611588573d8060008114611535576040519150601f19603f3d011682016040523d82523d6000602084013e61153a565b606091505b50600081511415611580576040517f08c379a000000000000000000000000000000000000000000000000000000000815260040161157790611f43565b60405180910390fd5b805181602001fd5b63150b7a0260e01b7bffffffffffffffffffffffffffffffffffffffffffffffffffffffff1916817bffffffffffffffffffffffffffffffffffffffffffffffffffffffff1916149150506115dd565b600190505b949350505050565b6060600082141561162d576040518060400160405280600181526020017f3000000000000000000000000000000000000000000000000000000000000000815250905061178d565b600082905060005b6000821461165f5780806116489061237c565b915050600a8261165891906121fe565b9150611635565b60008167ffffffffffffffff8111156116a1577f4e487b7100000000000000000000000000000000000000000000000000000000600052604160045260246000fd5b6040519080825280601f01601f1916602001820160405280156116d35781602001600182028036833780820191505090505b5090505b60008514611786576001826116ec919061222f565b9150600a856116fb91906123c5565b603061170791906121a8565b60f81b818381518110611743577f4e487b7100000000000000000000000000000000000000000000000000000000600052603260045260246000fd5b60200101907effffffffffffffffffffffffffffffffffffffffffffffffffffffffffffff1916908160001a905350600a8561177f91906121fe565b94506116d7565b8093505050505b919050565b6000808273ffffffffffffffffffffffffffffffffffffffff163b119050919050565b8280546117c190612319565b90600052602060002090601f0160209004810192826117e3576000855561182a565b82601f106117fc57805160ff191683800117855561182a565b8280016001018555821561182a579182015b8281111561182957825182559160200191906001019061180e565b5b509050611837919061183b565b5090565b5b8082111561185457600081600090555060010161183c565b5090565b600061186b61186684612103565b6120de565b90508281526020810184848401111561188357600080fd5b61188e8482856122d7565b509392505050565b60006118a96118a484612134565b6120de565b9050828152602081018484840111156118c157600080fd5b6118cc8482856122d7565b509392505050565b6000813590506118e3816127df565b92915050565b6000813590506118f8816127f6565b92915050565b60008135905061190d8161280d565b92915050565b6000815190506119228161280d565b92915050565b600082601f83011261193957600080fd5b8135611949848260208601611858565b91505092915050565b600082601f83011261196357600080fd5b8135611973848260208601611896565b91505092915050565b60008135905061198b81612824565b92915050565b6000602082840312156119a357600080fd5b60006119b1848285016118d4565b91505092915050565b600080604083850312156119cd57600080fd5b60006119db858286016118d4565b92505060206119ec858286016118d4565b9150509250929050565b600080600060608486031215611a0b57600080fd5b6000611a19868287016118d4565b9350506020611a2a868287016118d4565b9250506040611a3b8682870161197c565b9150509250925092565b60008060008060808587031215611a5b57600080fd5b6000611a69878288016118d4565b9450506020611a7a878288016118d4565b9350506040611a8b8782880161197c565b925050606085013567ffffffffffffffff811115611aa857600080fd5b611ab487828801611928565b91505092959194509250565b60008060408385031215611ad357600080fd5b6000611ae1858286016118d4565b9250506020611af2858286016118e9565b9150509250929050565b60008060408385031215611b0f57600080fd5b6000611b1d858286016118d4565b925050602083013567ffffffffffffffff811115611b3a57600080fd5b611b4685828601611952565b9150509250929050565b60008060408385031215611b6357600080fd5b6000611b71858286016118d4565b9250506020611b828582860161197c565b9150509250929050565b600060208284031215611b9e57600080fd5b6000611bac848285016118fe565b91505092915050565b600060208284031215611bc757600080fd5b6000611bd584828501611913565b91505092915050565b600060208284031215611bf057600080fd5b6000611bfe8482850161197c565b91505092915050565b611c1081612263565b82525050565b611c1f81612275565b82525050565b6000611c3082612165565b611c3a818561217b565b9350611c4a8185602086016122e6565b611c53816124b2565b840191505092915050565b6000611c6982612170565b611c73818561218c565b9350611c838185602086016122e6565b611c8c816124b2565b840191505092915050565b6000611ca282612170565b611cac818561219d565b9350611cbc8185602086016122e6565b80840191505092915050565b6000611cd560328361218c565b9150611ce0826124c3565b604082019050919050565b6000611cf860258361218c565b9150611d0382612512565b604082019050919050565b6000611d1b601c8361218c565b9150611d2682612561565b602082019050919050565b6000611d3e60248361218c565b9150611d498261258a565b604082019050919050565b6000611d6160198361218c565b9150611d6c826125d9565b602082019050919050565b6000611d8460298361218c565b9150611d8f82612602565b604082019050919050565b6000611da7602e8361218c565b9150611db282612651565b604082019050919050565b6000611dca603e8361218c565b9150611dd5826126a0565b604082019050919050565b6000611ded60208361218c565b9150611df8826126ef565b602082019050919050565b6000611e1060188361218c565b9150611e1b82612718565b602082019050919050565b6000611e3360218361218c565b9150611e3e82612741565b604082019050919050565b6000611e56602e8361218c565b9150611e6182612790565b604082019050919050565b611e75816122cd565b82525050565b6000611e878285611c97565b9150611e938284611c97565b91508190509392505050565b6000602082019050611eb46000830184611c07565b92915050565b6000608082019050611ecf6000830187611c07565b611edc6020830186611c07565b611ee96040830185611e6c565b8181036060830152611efb8184611c25565b905095945050505050565b6000602082019050611f1b6000830184611c16565b92915050565b60006020820190508181036000830152611f3b8184611c5e565b905092915050565b60006020820190508181036000830152611f5c81611cc8565b9050919050565b60006020820190508181036000830152611f7c81611ceb565b9050919050565b60006020820190508181036000830152611f9c81611d0e565b9050919050565b60006020820190508181036000830152611fbc81611d31565b9050919050565b60006020820190508181036000830152611fdc81611d54565b9050919050565b60006020820190508181036000830152611ffc81611d77565b9050919050565b6000602082019050818103600083015261201c81611d9a565b9050919050565b6000602082019050818103600083015261203c81611dbd565b9050919050565b6000602082019050818103600083015261205c81611de0565b9050919050565b6000602082019050818103600083015261207c81611e03565b9050919050565b6000602082019050818103600083015261209c81611e26565b9050919050565b600060208201905081810360008301526120bc81611e49565b9050919050565b60006020820190506120d86000830184611e6c565b92915050565b60006120e86120f9565b90506120f4828261234b565b919050565b6000604051905090565b600067ffffffffffffffff82111561211e5761211d612483565b5b612127826124b2565b9050602081019050919050565b600067ffffffffffffffff82111561214f5761214e612483565b5b612158826124b2565b9050602081019050919050565b600081519050919050565b600081519050919050565b600082825260208201905092915050565b600082825260208201905092915050565b600081905092915050565b60006121b3826122cd565b91506121be836122cd565b9250827fffffffffffffffffffffffffffffffffffffffffffffffffffffffffffffffff038211156121f3576121f26123f6565b5b828201905092915050565b6000612209826122cd565b9150612214836122cd565b92508261222457612223612425565b5b828204905092915050565b600061223a826122cd565b9150612245836122cd565b925082821015612258576122576123f6565b5b828203905092915050565b600061226e826122ad565b9050919050565b60008115159050919050565b60007fffffffff0000000000000000000000000000000000000000000000000000000082169050919050565b600073ffffffffffffffffffffffffffffffffffffffff82169050919050565b6000819050919050565b82818337600083830152505050565b60005b838110156123045780820151818401526020810190506122e9565b83811115612313576000848401525b50505050565b6000600282049050600182168061233157607f821691505b6020821081141561234557612344612454565b5b50919050565b612354826124b2565b810181811067ffffffffffffffff8211171561237357612372612483565b5b80604052505050565b6000612387826122cd565b91507fffffffffffffffffffffffffffffffffffffffffffffffffffffffffffffffff8214156123ba576123b96123f6565b5b600182019050919050565b60006123d0826122cd565b91506123db836122cd565b9250826123eb576123ea612425565b5b828206905092915050565b7f4e487b7100000000000000000000000000000000000000000000000000000000600052601160045260246000fd5b7f4e487b7100000000000000000000000000000000000000000000000000000000600052601260045260246000fd5b7f4e487b7100000000000000000000000000000000000000000000000000000000600052602260045260246000fd5b7f4e487b7100000000000000000000000000000000000000000000000000000000600052604160045260246000fd5b6000601f19601f8301169050919050565b7f4552433732313a207472616e7366657220746f206e6f6e20455243373231526560008201527f63656976657220696d706c656d656e7465720000000000000000000000000000602082015250565b7f4552433732313a207472616e736665722066726f6d20696e636f72726563742060008201527f6f776e6572000000000000000000000000000000000000000000000000000000602082015250565b7f4552433732313a20746f6b656e20616c7265616479206d696e74656400000000600082015250565b7f4552433732313a207472616e7366657220746f20746865207a65726f2061646460008201527f7265737300000000000000000000000000000000000000000000000000000000602082015250565b7f4552433732313a20617070726f766520746f2063616c6c657200000000000000600082015250565b7f4552433732313a2061646472657373207a65726f206973206e6f74206120766160008201527f6c6964206f776e65720000000000000000000000000000000000000000000000602082015250565b7f45524337323155524953746f726167653a2055524920736574206f66206e6f6e60008201527f6578697374656e7420746f6b656e000000000000000000000000000000000000602082015250565b7f4552433732313a20617070726f76652063616c6c6572206973206e6f7420746f60008201527f6b656e206f776e6572206e6f7220617070726f76656420666f7220616c6c0000602082015250565b7f4552433732313a206d696e7420746f20746865207a65726f2061646472657373600082015250565b7f4552433732313a20696e76616c696420746f6b656e2049440000000000000000600082015250565b7f4552433732313a20617070726f76616c20746f2063757272656e74206f776e6560008201527f7200000000000000000000000000000000000000000000000000000000000000602082015250565b7f4552433732313a2063616c6c6572206973206e6f7420746f6b656e206f776e6560008201527f72206e6f7220617070726f766564000000000000000000000000000000000000602082015250565b6127e881612263565b81146127f357600080fd5b50565b6127ff81612275565b811461280a57600080fd5b50565b61281681612281565b811461282157600080fd5b50565b61282d816122cd565b811461283857600080fd5b5056fea2646970667358221220fc95de87265422ea0aa9a6bc665ff15e90a9aae5afb630122f643204ef5e58e264736f6c63430008010033608060405234801561001057600080fd5b5061121b806100206000396000f3fe608060405234801561001057600080fd5b50600436106100885760003560e01c80637ef1cd4b1161005b5780637ef1cd4b1461014d578063a28a34801461017d578063d25a84eb146101ad578063fc966d45146101dd57610088565b806319d5880c1461008d57806321772a44146100bd57806332a5d170146100ed57806379cd90551461011d575b600080fd5b6100a760048036038101906100a29190610bbd565b61020d565b6040516100b49190610c9a565b60405180910390f35b6100d760048036038101906100d29190610bbd565b6102db565b6040516100e49190610cb5565b60405180910390f35b61010760048036038101906101029190610bbd565b6103e7565b6040516101149190610c9a565b60405180910390f35b61013760048036038101906101329190610b53565b6104b5565b6040516101449190610cd7565b60405180910390f35b61016760048036038101906101629190610bbd565b610595565b6040516101749190610c9a565b60405180910390f35b61019760048036038101906101929190610bbd565b610663565b6040516101a49190610cb5565b60405180910390f35b6101c760048036038101906101c29190610bbd565b61076f565b6040516101d49190610cb5565b60405180910390f35b6101f760048036038101906101f29190610b94565b61087b565b6040516102049190610cb5565b60405180910390f35b600080600090505b82518110156102cf578360405160200161022f9190610c7f565b6040516020818303038152906040528051906020012083828151811061027e577f4e487b7100000000000000000000000000000000000000000000000000000000600052603260045260246000fd5b60200260200101516040516020016102969190610c7f565b6040516020818303038152906040528051906020012014156102bc5760019150506102d5565b80806102c79061109f565b915050610215565b50600090505b92915050565b606060005b82518110156103a757836040516020016102fa9190610c7f565b60405160208183030381529060405280519060200120838281518110610349577f4e487b7100000000000000000000000000000000000000000000000000000000600052603260045260246000fd5b60200260200101516040516020016103619190610c7f565b6040516020818303038152906040528051906020012014156103945760006103888261087b565b905080925050506103e1565b808061039f9061109f565b9150506102e0565b506040518060400160405280600981526020017f6e6f7420666f756e64000000000000000000000000000000000000000000000081525090505b92915050565b600080600090505b82518110156104a957836040516020016104099190610c7f565b60405160208183030381529060405280519060200120838281518110610458577f4e487b7100000000000000000000000000000000000000000000000000000000600052603260045260246000fd5b60200260200101516040516020016104709190610c7f565b6040516020818303038152906040528051906020012014156104965760019150506104af565b80806104a19061109f565b9150506103ef565b50600090505b92915050565b60008060009050600083905060005b815181101561058a5760008183516104dc9190610fe2565b90506000838381518110610519577f4e487b7100000000000000000000000000000000000000000000000000000000600052603260045260246000fd5b602001015160f81c60f81b905060008160f81c9050600060308260ff166105409190610fe2565b905060018461054f9190610fe2565b600a61055b9190610e6a565b816105669190610f88565b876105719190610d90565b96505050505080806105829061109f565b9150506104c4565b508192505050919050565b600080600090505b825181101561065757836040516020016105b79190610c7f565b60405160208183030381529060405280519060200120838281518110610606577f4e487b7100000000000000000000000000000000000000000000000000000000600052603260045260246000fd5b602002602001015160405160200161061e9190610c7f565b60405160208183030381529060405280519060200120141561064457600191505061065d565b808061064f9061109f565b91505061059d565b50600090505b92915050565b606060005b825181101561072f57836040516020016106829190610c7f565b604051602081830303815290604052805190602001208382815181106106d1577f4e487b7100000000000000000000000000000000000000000000000000000000600052603260045260246000fd5b60200260200101516040516020016106e99190610c7f565b60405160208183030381529060405280519060200120141561071c5760006107108261087b565b90508092505050610769565b80806107279061109f565b915050610668565b506040518060400160405280600981526020017f6e6f7420666f756e64000000000000000000000000000000000000000000000081525090505b92915050565b606060005b825181101561083b578360405160200161078e9190610c7f565b604051602081830303815290604052805190602001208382815181106107dd577f4e487b7100000000000000000000000000000000000000000000000000000000600052603260045260246000fd5b60200260200101516040516020016107f59190610c7f565b60405160208183030381529060405280519060200120141561082857600061081c8261087b565b90508092505050610875565b80806108339061109f565b915050610774565b506040518060400160405280600981526020017f6e6f7420666f756e64000000000000000000000000000000000000000000000081525090505b92915050565b6060600061088883610893565b905080915050919050565b606060008214156108db576040518060400160405280600181526020017f30000000000000000000000000000000000000000000000000000000000000008152509050610a3b565b600082905060005b6000821461090d5780806108f69061109f565b915050600a826109069190610de6565b91506108e3565b60008167ffffffffffffffff81111561094f577f4e487b7100000000000000000000000000000000000000000000000000000000600052604160045260246000fd5b6040519080825280601f01601f1916602001820160405280156109815781602001600182028036833780820191505090505b5090505b60008514610a345760018261099a9190610fe2565b9150600a856109a991906110f2565b60306109b59190610d90565b60f81b8183815181106109f1577f4e487b7100000000000000000000000000000000000000000000000000000000600052603260045260246000fd5b60200101907effffffffffffffffffffffffffffffffffffffffffffffffffffffffffffff1916908160001a905350600a85610a2d9190610de6565b9450610985565b8093505050505b919050565b6000610a53610a4e84610d17565b610cf2565b90508083825260208201905082856020860282011115610a7257600080fd5b60005b85811015610aa25781610a888882610b3e565b845260208401935060208301925050600181019050610a75565b5050509392505050565b6000610abf610aba84610d43565b610cf2565b905082815260208101848484011115610ad757600080fd5b610ae284828561102c565b509392505050565b600082601f830112610afb57600080fd5b8135610b0b848260208601610a40565b91505092915050565b600082601f830112610b2557600080fd5b8135610b35848260208601610aac565b91505092915050565b600081359050610b4d816111ce565b92915050565b600060208284031215610b6557600080fd5b600082013567ffffffffffffffff811115610b7f57600080fd5b610b8b84828501610b14565b91505092915050565b600060208284031215610ba657600080fd5b6000610bb484828501610b3e565b91505092915050565b60008060408385031215610bd057600080fd5b6000610bde85828601610b3e565b925050602083013567ffffffffffffffff811115610bfb57600080fd5b610c0785828601610aea565b9150509250929050565b610c1a81611016565b82525050565b6000610c2b82610d74565b610c358185610d7f565b9350610c4581856020860161103b565b610c4e816111b0565b840191505092915050565b610c6281611022565b82525050565b610c79610c7482611022565b6110e8565b82525050565b6000610c8b8284610c68565b60208201915081905092915050565b6000602082019050610caf6000830184610c11565b92915050565b60006020820190508181036000830152610ccf8184610c20565b905092915050565b6000602082019050610cec6000830184610c59565b92915050565b6000610cfc610d0d565b9050610d08828261106e565b919050565b6000604051905090565b600067ffffffffffffffff821115610d3257610d31611181565b5b602082029050602081019050919050565b600067ffffffffffffffff821115610d5e57610d5d611181565b5b610d67826111b0565b9050602081019050919050565b600081519050919050565b600082825260208201905092915050565b6000610d9b82611022565b9150610da683611022565b9250827fffffffffffffffffffffffffffffffffffffffffffffffffffffffffffffffff03821115610ddb57610dda611123565b5b828201905092915050565b6000610df182611022565b9150610dfc83611022565b925082610e0c57610e0b611152565b5b828204905092915050565b6000808291508390505b6001851115610e6157808604811115610e3d57610e3c611123565b5b6001851615610e4c5780820291505b8081029050610e5a856111c1565b9450610e21565b94509492505050565b6000610e7582611022565b9150610e8083611022565b9250610ead7fffffffffffffffffffffffffffffffffffffffffffffffffffffffffffffffff8484610eb5565b905092915050565b600082610ec55760019050610f81565b81610ed35760009050610f81565b8160018114610ee95760028114610ef357610f22565b6001915050610f81565b60ff841115610f0557610f04611123565b5b8360020a915084821115610f1c57610f1b611123565b5b50610f81565b5060208310610133831016604e8410600b8410161715610f575782820a905083811115610f5257610f51611123565b5b610f81565b610f648484846001610e17565b92509050818404811115610f7b57610f7a611123565b5b81810290505b9392505050565b6000610f9382611022565b9150610f9e83611022565b9250817fffffffffffffffffffffffffffffffffffffffffffffffffffffffffffffffff0483118215151615610fd757610fd6611123565b5b828202905092915050565b6000610fed82611022565b9150610ff883611022565b92508282101561100b5761100a611123565b5b828203905092915050565b60008115159050919050565b6000819050919050565b82818337600083830152505050565b60005b8381101561105957808201518184015260208101905061103e565b83811115611068576000848401525b50505050565b611077826111b0565b810181811067ffffffffffffffff8211171561109657611095611181565b5b80604052505050565b60006110aa82611022565b91507fffffffffffffffffffffffffffffffffffffffffffffffffffffffffffffffff8214156110dd576110dc611123565b5b600182019050919050565b6000819050919050565b60006110fd82611022565b915061110883611022565b92508261111857611117611152565b5b828206905092915050565b7f4e487b7100000000000000000000000000000000000000000000000000000000600052601160045260246000fd5b7f4e487b7100000000000000000000000000000000000000000000000000000000600052601260045260246000fd5b7f4e487b7100000000000000000000000000000000000000000000000000000000600052604160045260246000fd5b6000601f19601f8301169050919050565b60008160011c9050919050565b6111d781611022565b81146111e257600080fd5b5056fea26469706673582212204c031b9f81b76e4fecd0978c36dcee34d3815bd2371e5f359f47edc313111fe864736f6c63430008010033",
  "linkReferences": {},
  "deployedLinkReferences": {}
}