{
    "_format": "hh-sol-artifact-1",
    "contractName": "IPbidder",
    "sourceName": "contracts/IP.sol",
    "abi": [
        {
            "inputs": [],
            "stateMutability": "nonpayable",
            "type": "constructor"
        },
        {
            "inputs": [],
            "name": "bidCount",
            "outputs": [
                {
                    "internalType": "uint256",
                    "name": "",
                    "type": "uint256"
                }
            ],
            "stateMutability": "view",
            "type": "function"
        },
        {
            "inputs": [
                {
                    "internalType": "address",
                    "name": "_address",
                    "type": "address"
                }
            ],
            "name": "bidLoop",
            "outputs": [
                {
                    "components": [
                        {
                            "internalType": "string",
                            "name": "ownerIPname",
                            "type": "string"
                        },
                        {
                            "internalType": "uint256",
                            "name": "bidValue",
                            "type": "uint256"
                        },
                        {
                            "internalType": "address",
                            "name": "bidderAddress",
                            "type": "address"
                        }
                    ],
                    "internalType": "struct IPbidder.IPowner[]",
                    "name": "",
                    "type": "tuple[]"
                }
            ],
            "stateMutability": "view",
            "type": "function"
        },
        {
            "inputs": [],
            "name": "countJars",
            "outputs": [
                {
                    "internalType": "uint256",
                    "name": "",
                    "type": "uint256"
                }
            ],
            "stateMutability": "view",
            "type": "function"
        },
        {
            "inputs": [
                {
                    "internalType": "address",
                    "name": "_address",
                    "type": "address"
                },
                {
                    "internalType": "uint256",
                    "name": "i",
                    "type": "uint256"
                }
            ],
            "name": "getbidderinfo",
            "outputs": [
                {
                    "components": [
                        {
                            "internalType": "string",
                            "name": "ownerIPname",
                            "type": "string"
                        },
                        {
                            "internalType": "uint256",
                            "name": "bidValue",
                            "type": "uint256"
                        },
                        {
                            "internalType": "address",
                            "name": "bidderAddress",
                            "type": "address"
                        }
                    ],
                    "internalType": "struct IPbidder.IPowner[]",
                    "name": "",
                    "type": "tuple[]"
                }
            ],
            "stateMutability": "view",
            "type": "function"
        },
        {
            "inputs": [
                {
                    "internalType": "address",
                    "name": "",
                    "type": "address"
                },
                {
                    "internalType": "string",
                    "name": "",
                    "type": "string"
                },
                {
                    "internalType": "uint256",
                    "name": "",
                    "type": "uint256"
                }
            ],
            "name": "ips",
            "outputs": [
                {
                    "internalType": "string",
                    "name": "ownerIPname",
                    "type": "string"
                },
                {
                    "internalType": "uint256",
                    "name": "bidValue",
                    "type": "uint256"
                },
                {
                    "internalType": "address",
                    "name": "bidderAddress",
                    "type": "address"
                }
            ],
            "stateMutability": "view",
            "type": "function"
        },
        {
            "inputs": [
                {
                    "internalType": "address",
                    "name": "_address",
                    "type": "address"
                },
                {
                    "internalType": "uint256",
                    "name": "_id",
                    "type": "uint256"
                },
                {
                    "internalType": "string",
                    "name": "_ownerIPname",
                    "type": "string"
                },
                {
                    "internalType": "uint256",
                    "name": "_bidvalue",
                    "type": "uint256"
                },
                {
                    "internalType": "address",
                    "name": "_bidderaddress",
                    "type": "address"
                }
            ],
            "name": "setIPbidder",
            "outputs": [],
            "stateMutability": "nonpayable",
            "type": "function"
        },
        {
            "inputs": [
                {
                    "internalType": "address",
                    "name": "_address",
                    "type": "address"
                },
                {
                    "internalType": "string",
                    "name": "_ownerIPname",
                    "type": "string"
                },
                {
                    "internalType": "uint256",
                    "name": "_bidvalue",
                    "type": "uint256"
                },
                {
                    "internalType": "address",
                    "name": "_bidderaddress",
                    "type": "address"
                }
            ],
            "name": "setIPbidder",
            "outputs": [],
            "stateMutability": "nonpayable",
            "type": "function"
        }
    ],
    "bytecode": "0x608060405234801561001057600080fd5b5060006001819055506111ce806100286000396000f3fe608060405234801561001057600080fd5b506004361061007d5760003560e01c8063ace8586e1161005b578063ace8586e14610100578063b40a56271461011e578063e8da70be1461013c578063ed458b6b1461016c5761007d565b8063021a83701461008257806325af422c146100b25780639d48351b146100e4575b600080fd5b61009c60048036038101906100979190610abb565b610188565b6040516100a99190610e60565b60405180910390f35b6100cc60048036038101906100c79190610ae4565b610407565b6040516100db93929190610e82565b60405180910390f35b6100fe60048036038101906100f99190610c02565b610509565b005b61010861061e565b6040516101159190610ec0565b60405180910390f35b61012661062a565b6040516101339190610ec0565b60405180910390f35b61015660048036038101906101519190610bc6565b610630565b6040516101639190610e60565b60405180910390f35b61018660048036038101906101819190610b4b565b610806565b005b6060600060015467ffffffffffffffff8111156101ce577f4e487b7100000000000000000000000000000000000000000000000000000000600052604160045260246000fd5b60405190808252806020026020018201604052801561020757816020015b6101f461094f565b8152602001906001900390816101ec5790505b50905060005b6001548110156103fd576000808281548110610252577f4e487b7100000000000000000000000000000000000000000000000000000000600052603260045260246000fd5b9060005260206000200190508060000160008673ffffffffffffffffffffffffffffffffffffffff1673ffffffffffffffffffffffffffffffffffffffff168152602001908152602001600020805480602002602001604051908101604052809291908181526020016000905b828210156103e357838290600052602060002090600302016040518060600160405290816000820180546102f290611020565b80601f016020809104026020016040519081016040528092919081815260200182805461031e90611020565b801561036b5780601f106103405761010080835404028352916020019161036b565b820191906000526020600020905b81548152906001019060200180831161034e57829003601f168201915b50505050508152602001600182015481526020016002820160009054906101000a900473ffffffffffffffffffffffffffffffffffffffff1673ffffffffffffffffffffffffffffffffffffffff1673ffffffffffffffffffffffffffffffffffffffff1681525050815260200190600101906102bf565b5050505092505080806103f590611083565b91505061020d565b5080915050919050565b600260205282600052604060002082805160208101820180518482526020830160208501208183528095505050505050602052806000526040600020600092509250505080600001805461045a90611020565b80601f016020809104026020016040519081016040528092919081815260200182805461048690611020565b80156104d35780601f106104a8576101008083540402835291602001916104d3565b820191906000526020600020905b8154815290600101906020018083116104b657829003601f168201915b5050505050908060010154908060020160009054906101000a900473ffffffffffffffffffffffffffffffffffffffff16905083565b60405180606001604052808481526020018381526020018273ffffffffffffffffffffffffffffffffffffffff16815250600260008773ffffffffffffffffffffffffffffffffffffffff1673ffffffffffffffffffffffffffffffffffffffff168152602001908152602001600020846040516105879190610e49565b9081526020016040518091039020600086815260200190815260200160002060008201518160000190805190602001906105c2929190610986565b506020820151816001015560408201518160020160006101000a81548173ffffffffffffffffffffffffffffffffffffffff021916908373ffffffffffffffffffffffffffffffffffffffff1602179055509050505050505050565b60008080549050905090565b60015481565b60606000828154811061066c577f4e487b7100000000000000000000000000000000000000000000000000000000600052603260045260246000fd5b9060005260206000200160000160008473ffffffffffffffffffffffffffffffffffffffff1673ffffffffffffffffffffffffffffffffffffffff168152602001908152602001600020805480602002602001604051908101604052809291908181526020016000905b828210156107fa578382906000526020600020906003020160405180606001604052908160008201805461070990611020565b80601f016020809104026020016040519081016040528092919081815260200182805461073590611020565b80156107825780601f1061075757610100808354040283529160200191610782565b820191906000526020600020905b81548152906001019060200180831161076557829003601f168201915b50505050508152602001600182015481526020016002820160009054906101000a900473ffffffffffffffffffffffffffffffffffffffff1673ffffffffffffffffffffffffffffffffffffffff1673ffffffffffffffffffffffffffffffffffffffff1681525050815260200190600101906106d6565b50505050905092915050565b600080600181600181540180825580915050039060005260206000200190508060000160008673ffffffffffffffffffffffffffffffffffffffff1673ffffffffffffffffffffffffffffffffffffffff16815260200190815260200160002060405180606001604052808681526020018581526020018473ffffffffffffffffffffffffffffffffffffffff16815250908060018154018082558091505060019003906000526020600020906003020160009091909190915060008201518160000190805190602001906108dc929190610986565b506020820151816001015560408201518160020160006101000a81548173ffffffffffffffffffffffffffffffffffffffff021916908373ffffffffffffffffffffffffffffffffffffffff16021790555050506001600081548092919061094390611083565b91905055505050505050565b60405180606001604052806060815260200160008152602001600073ffffffffffffffffffffffffffffffffffffffff1681525090565b82805461099290611020565b90600052602060002090601f0160209004810192826109b457600085556109fb565b82601f106109cd57805160ff19168380011785556109fb565b828001600101855582156109fb579182015b828111156109fa5782518255916020019190600101906109df565b5b509050610a089190610a0c565b5090565b5b80821115610a25576000816000905550600101610a0d565b5090565b6000610a3c610a3784610f00565b610edb565b905082815260208101848484011115610a5457600080fd5b610a5f848285610fde565b509392505050565b600081359050610a768161116a565b92915050565b600082601f830112610a8d57600080fd5b8135610a9d848260208601610a29565b91505092915050565b600081359050610ab581611181565b92915050565b600060208284031215610acd57600080fd5b6000610adb84828501610a67565b91505092915050565b600080600060608486031215610af957600080fd5b6000610b0786828701610a67565b935050602084013567ffffffffffffffff811115610b2457600080fd5b610b3086828701610a7c565b9250506040610b4186828701610aa6565b9150509250925092565b60008060008060808587031215610b6157600080fd5b6000610b6f87828801610a67565b945050602085013567ffffffffffffffff811115610b8c57600080fd5b610b9887828801610a7c565b9350506040610ba987828801610aa6565b9250506060610bba87828801610a67565b91505092959194509250565b60008060408385031215610bd957600080fd5b6000610be785828601610a67565b9250506020610bf885828601610aa6565b9150509250929050565b600080600080600060a08688031215610c1a57600080fd5b6000610c2888828901610a67565b9550506020610c3988828901610aa6565b945050604086013567ffffffffffffffff811115610c5657600080fd5b610c6288828901610a7c565b9350506060610c7388828901610aa6565b9250506080610c8488828901610a67565b9150509295509295909350565b6000610c9d8383610ddb565b905092915050565b610cae81610fa2565b82525050565b610cbd81610fa2565b82525050565b6000610cce82610f41565b610cd88185610f64565b935083602082028501610cea85610f31565b8060005b85811015610d265784840389528151610d078582610c91565b9450610d1283610f57565b925060208a01995050600181019050610cee565b50829750879550505050505092915050565b6000610d4382610f4c565b610d4d8185610f75565b9350610d5d818560208601610fed565b610d6681611159565b840191505092915050565b6000610d7c82610f4c565b610d868185610f86565b9350610d96818560208601610fed565b610d9f81611159565b840191505092915050565b6000610db582610f4c565b610dbf8185610f97565b9350610dcf818560208601610fed565b80840191505092915050565b60006060830160008301518482036000860152610df88282610d38565b9150506020830151610e0d6020860182610e2b565b506040830151610e206040860182610ca5565b508091505092915050565b610e3481610fd4565b82525050565b610e4381610fd4565b82525050565b6000610e558284610daa565b915081905092915050565b60006020820190508181036000830152610e7a8184610cc3565b905092915050565b60006060820190508181036000830152610e9c8186610d71565b9050610eab6020830185610e3a565b610eb86040830184610cb4565b949350505050565b6000602082019050610ed56000830184610e3a565b92915050565b6000610ee5610ef6565b9050610ef18282611052565b919050565b6000604051905090565b600067ffffffffffffffff821115610f1b57610f1a61112a565b5b610f2482611159565b9050602081019050919050565b6000819050602082019050919050565b600081519050919050565b600081519050919050565b6000602082019050919050565b600082825260208201905092915050565b600082825260208201905092915050565b600082825260208201905092915050565b600081905092915050565b6000610fad82610fb4565b9050919050565b600073ffffffffffffffffffffffffffffffffffffffff82169050919050565b6000819050919050565b82818337600083830152505050565b60005b8381101561100b578082015181840152602081019050610ff0565b8381111561101a576000848401525b50505050565b6000600282049050600182168061103857607f821691505b6020821081141561104c5761104b6110fb565b5b50919050565b61105b82611159565b810181811067ffffffffffffffff8211171561107a5761107961112a565b5b80604052505050565b600061108e82610fd4565b91507fffffffffffffffffffffffffffffffffffffffffffffffffffffffffffffffff8214156110c1576110c06110cc565b5b600182019050919050565b7f4e487b7100000000000000000000000000000000000000000000000000000000600052601160045260246000fd5b7f4e487b7100000000000000000000000000000000000000000000000000000000600052602260045260246000fd5b7f4e487b7100000000000000000000000000000000000000000000000000000000600052604160045260246000fd5b6000601f19601f8301169050919050565b61117381610fa2565b811461117e57600080fd5b50565b61118a81610fd4565b811461119557600080fd5b5056fea26469706673582212206461d5207d2d6aaeed32d85ca20e5eb1ba7bb3fa94d4a4e593317b89f31af7eb64736f6c63430008010033",
    "linkReferences": {},
    "deployedLinkReferences": {}
}