{
  "_format": "hh-sol-artifact-1",
  "contractName": "Ipbidder",
  "sourceName": "contracts/Ipbidder.sol",
  "abi": [
    {
      "anonymous": false,
      "inputs": [
        {
          "indexed": false,
          "internalType": "address",
          "name": "sender",
          "type": "address"
        },
        {
          "indexed": false,
          "internalType": "uint256",
          "name": "amount",
          "type": "uint256"
        }
      ],
      "name": "LogReceivedFunds",
      "type": "event"
    },
    {
      "anonymous": false,
      "inputs": [
        {
          "indexed": false,
          "internalType": "address",
          "name": "recipient",
          "type": "address"
        },
        {
          "indexed": false,
          "internalType": "uint256",
          "name": "amount",
          "type": "uint256"
        }
      ],
      "name": "LogReturnedFunds",
      "type": "event"
    },
    {
      "inputs": [
        {
          "internalType": "uint256",
          "name": "",
          "type": "uint256"
        },
        {
          "internalType": "address",
          "name": "",
          "type": "address"
        }
      ],
      "name": "bid",
      "outputs": [
        {
          "internalType": "uint256",
          "name": "",
          "type": "uint256"
        }
      ],
      "stateMutability": "view",
      "type": "function"
    },
    {
      "inputs": [
        {
          "internalType": "uint256",
          "name": "tokenId",
          "type": "uint256"
        }
      ],
      "name": "bidderDeposit",
      "outputs": [
        {
          "internalType": "bool",
          "name": "success",
          "type": "bool"
        }
      ],
      "stateMutability": "payable",
      "type": "function"
    },
    {
      "inputs": [
        {
          "internalType": "uint256",
          "name": "",
          "type": "uint256"
        }
      ],
      "name": "bidderList",
      "outputs": [
        {
          "internalType": "address",
          "name": "",
          "type": "address"
        }
      ],
      "stateMutability": "view",
      "type": "function"
    },
    {
      "inputs": [
        {
          "internalType": "address",
          "name": "",
          "type": "address"
        }
      ],
      "name": "biddersList",
      "outputs": [
        {
          "internalType": "uint256",
          "name": "received",
          "type": "uint256"
        },
        {
          "internalType": "uint256",
          "name": "returned",
          "type": "uint256"
        },
        {
          "internalType": "uint256",
          "name": "clientListPointer",
          "type": "uint256"
        }
      ],
      "stateMutability": "view",
      "type": "function"
    },
    {
      "inputs": [
        {
          "internalType": "uint256",
          "name": "",
          "type": "uint256"
        }
      ],
      "name": "bids",
      "outputs": [
        {
          "internalType": "uint256",
          "name": "received",
          "type": "uint256"
        },
        {
          "internalType": "uint256",
          "name": "returned",
          "type": "uint256"
        },
        {
          "internalType": "uint256",
          "name": "clientListPointer",
          "type": "uint256"
        }
      ],
      "stateMutability": "view",
      "type": "function"
    },
    {
      "inputs": [
        {
          "internalType": "address",
          "name": "bidder",
          "type": "address"
        }
      ],
      "name": "isBidder",
      "outputs": [
        {
          "internalType": "bool",
          "name": "isIndeed",
          "type": "bool"
        }
      ],
      "stateMutability": "view",
      "type": "function"
    },
    {
      "inputs": [
        {
          "internalType": "uint256",
          "name": "amountToWithdraw",
          "type": "uint256"
        },
        {
          "internalType": "uint256",
          "name": "tokenId",
          "type": "uint256"
        }
      ],
      "name": "refundDeposit",
      "outputs": [
        {
          "internalType": "bool",
          "name": "success",
          "type": "bool"
        }
      ],
      "stateMutability": "payable",
      "type": "function"
    },
    {
      "inputs": [
        {
          "internalType": "uint256",
          "name": "tokenId",
          "type": "uint256"
        },
        {
          "internalType": "address",
          "name": "bidAdd",
          "type": "address"
        },
        {
          "internalType": "uint256",
          "name": "value",
          "type": "uint256"
        }
      ],
      "name": "valueChange",
      "outputs": [],
      "stateMutability": "nonpayable",
      "type": "function"
    }
  ],
  "bytecode": "0x608060405234801561001057600080fd5b50610e5f806100206000396000f3fe60806040526004361061007b5760003560e01c806396dc503b1161004e57806396dc503b1461016b5780639f04996d14610194578063be85aa29146101d1578063d3584e84146102015761007b565b806319fde1f6146100805780634423c5f1146100bd5780636df38c6a146100fc5780636e3bc76b1461012c575b600080fd5b34801561008c57600080fd5b506100a760048036038101906100a2919061093c565b61023e565b6040516100b49190610b2f565b60405180910390f35b3480156100c957600080fd5b506100e460048036038101906100df9190610965565b610332565b6040516100f393929190610bc5565b60405180910390f35b61011660048036038101906101119190610965565b61035c565b6040516101239190610b2f565b60405180910390f35b34801561013857600080fd5b50610153600480360381019061014e919061093c565b61056a565b60405161016293929190610bc5565b60405180910390f35b34801561017757600080fd5b50610192600480360381019061018d91906109ca565b610594565b005b3480156101a057600080fd5b506101bb60048036038101906101b6919061098e565b6105ee565b6040516101c89190610baa565b60405180910390f35b6101eb60048036038101906101e69190610a19565b610613565b6040516101f89190610b2f565b60405180910390f35b34801561020d57600080fd5b5061022860048036038101906102239190610965565b6108d3565b6040516102359190610aeb565b60405180910390f35b6000806003805490501415610256576000905061032d565b8173ffffffffffffffffffffffffffffffffffffffff1660036000808573ffffffffffffffffffffffffffffffffffffffff1673ffffffffffffffffffffffffffffffffffffffff16815260200190815260200160002060020154815481106102e8577f4e487b7100000000000000000000000000000000000000000000000000000000600052603260045260246000fd5b9060005260206000200160009054906101000a900473ffffffffffffffffffffffffffffffffffffffff1673ffffffffffffffffffffffffffffffffffffffff161490505b919050565b60016020528060005260406000206000915090508060000154908060010154908060020154905083565b60008034116103a0576040517f08c379a000000000000000000000000000000000000000000000000000000000815260040161039790610b6a565b60405180910390fd5b346002600084815260200190815260200160002060003373ffffffffffffffffffffffffffffffffffffffff1673ffffffffffffffffffffffffffffffffffffffff16815260200190815260200160002060008282546104009190610c0d565b925050819055506003339080600181540180825580915050600190039060005260206000200160009091909190916101000a81548173ffffffffffffffffffffffffffffffffffffffff021916908373ffffffffffffffffffffffffffffffffffffffff1602179055506000600160038054905061047e9190610c63565b9050604051806060016040528034815260200160008152602001828152506001600085815260200190815260200160002060008201518160000155602082015181600101556040820151816002015590505060016003805490506104e29190610c63565b6000803373ffffffffffffffffffffffffffffffffffffffff1673ffffffffffffffffffffffffffffffffffffffff168152602001908152602001600020600201819055507f81d2c188629cc4a1c694d285150cb5fa3dde3157a2684460d3ac7a1e331f61643334604051610558929190610b06565b60405180910390a16001915050919050565b60006020528060005260406000206000915090508060000154908060010154908060020154905083565b806002600085815260200190815260200160002060008473ffffffffffffffffffffffffffffffffffffffff1673ffffffffffffffffffffffffffffffffffffffff16815260200190815260200160002081905550505050565b6002602052816000526040600020602052806000526040600020600091509150505481565b6000806002600084815260200190815260200160002060003373ffffffffffffffffffffffffffffffffffffffff1673ffffffffffffffffffffffffffffffffffffffff1681526020019081526020016000205414156106a8576040517f08c379a000000000000000000000000000000000000000000000000000000000815260040161069f90610b8a565b60405180910390fd5b826002600084815260200190815260200160002060003373ffffffffffffffffffffffffffffffffffffffff1673ffffffffffffffffffffffffffffffffffffffff16815260200190815260200160002054101561073b576040517f08c379a000000000000000000000000000000000000000000000000000000000815260040161073290610b4a565b60405180910390fd5b60006002600084815260200190815260200160002060003373ffffffffffffffffffffffffffffffffffffffff1673ffffffffffffffffffffffffffffffffffffffff1681526020019081526020016000205490507fe0e5873eb9d996d2ab087b071a9a50522121c02b43308c8728c06739f52b3f8733856040516107c1929190610b06565b60405180910390a18084116108c8573373ffffffffffffffffffffffffffffffffffffffff166108fc859081150290604051600060405180830381858888f19350505050158015610816573d6000803e3d6000fd5b50836002600085815260200190815260200160002060003373ffffffffffffffffffffffffffffffffffffffff1673ffffffffffffffffffffffffffffffffffffffff168152602001908152602001600020546108739190610c63565b6002600085815260200190815260200160002060003373ffffffffffffffffffffffffffffffffffffffff1673ffffffffffffffffffffffffffffffffffffffff168152602001908152602001600020819055505b600191505092915050565b600381815481106108e357600080fd5b906000526020600020016000915054906101000a900473ffffffffffffffffffffffffffffffffffffffff1681565b60008135905061092181610dfb565b92915050565b60008135905061093681610e12565b92915050565b60006020828403121561094e57600080fd5b600061095c84828501610912565b91505092915050565b60006020828403121561097757600080fd5b600061098584828501610927565b91505092915050565b600080604083850312156109a157600080fd5b60006109af85828601610927565b92505060206109c085828601610912565b9150509250929050565b6000806000606084860312156109df57600080fd5b60006109ed86828701610927565b93505060206109fe86828701610912565b9250506040610a0f86828701610927565b9150509250925092565b60008060408385031215610a2c57600080fd5b6000610a3a85828601610927565b9250506020610a4b85828601610927565b9150509250929050565b610a5e81610c97565b82525050565b610a6d81610ca9565b82525050565b6000610a80605183610bfc565b9150610a8b82610d0e565b606082019050919050565b6000610aa3603883610bfc565b9150610aae82610d83565b604082019050919050565b6000610ac6601b83610bfc565b9150610ad182610dd2565b602082019050919050565b610ae581610cd5565b82525050565b6000602082019050610b006000830184610a55565b92915050565b6000604082019050610b1b6000830185610a55565b610b286020830184610adc565b9392505050565b6000602082019050610b446000830184610a64565b92915050565b60006020820190508181036000830152610b6381610a73565b9050919050565b60006020820190508181036000830152610b8381610a96565b9050919050565b60006020820190508181036000830152610ba381610ab9565b9050919050565b6000602082019050610bbf6000830184610adc565b92915050565b6000606082019050610bda6000830186610adc565b610be76020830185610adc565b610bf46040830184610adc565b949350505050565b600082825260208201905092915050565b6000610c1882610cd5565b9150610c2383610cd5565b9250827fffffffffffffffffffffffffffffffffffffffffffffffffffffffffffffffff03821115610c5857610c57610cdf565b5b828201905092915050565b6000610c6e82610cd5565b9150610c7983610cd5565b925082821015610c8c57610c8b610cdf565b5b828203905092915050565b6000610ca282610cb5565b9050919050565b60008115159050919050565b600073ffffffffffffffffffffffffffffffffffffffff82169050919050565b6000819050919050565b7f4e487b7100000000000000000000000000000000000000000000000000000000600052601160045260246000fd5b7f416d6f756e742069732067726561746572207468616e207768617420796f752060008201527f68617665206f7220796f7520616c72656164792077697468647261776e20616c60208201527f6c206f6620796f7572206465706f736974000000000000000000000000000000604082015250565b7f596f75722062696464696e672076616c7565206d75737420626520677265617460008201527f6572207468616e207a65726f2c2074727920616761696e2e0000000000000000602082015250565b7f596f75206469646e277420626964206f6e2074686973206974656d0000000000600082015250565b610e0481610c97565b8114610e0f57600080fd5b50565b610e1b81610cd5565b8114610e2657600080fd5b5056fea2646970667358221220bbbb4d526666101235e24828e8c8c074215dcc8d955541821c567704de7f518564736f6c63430008010033",
  "linkReferences": {},
  "deployedLinkReferences": {}
}