{
  "_format": "hh-sol-artifact-1",
  "contractName": "Ipbidder",
  "sourceName": "contracts/Ipbidder.sol",
  "abi": [
    {
      "inputs": [],
      "stateMutability": "nonpayable",
      "type": "constructor"
    },
    {
      "anonymous": false,
      "inputs": [
        {
          "indexed": false,
          "internalType": "address",
          "name": "sender",
          "type": "address"
        },
        {
          "indexed": false,
          "internalType": "uint256",
          "name": "amount",
          "type": "uint256"
        }
      ],
      "name": "LogReceivedFunds",
      "type": "event"
    },
    {
      "anonymous": false,
      "inputs": [
        {
          "indexed": false,
          "internalType": "address",
          "name": "recipient",
          "type": "address"
        },
        {
          "indexed": false,
          "internalType": "uint256",
          "name": "amount",
          "type": "uint256"
        }
      ],
      "name": "LogReturnedFunds",
      "type": "event"
    },
    {
      "inputs": [
        {
          "internalType": "uint256",
          "name": "",
          "type": "uint256"
        },
        {
          "internalType": "address",
          "name": "",
          "type": "address"
        }
      ],
      "name": "bid",
      "outputs": [
        {
          "internalType": "uint256",
          "name": "",
          "type": "uint256"
        }
      ],
      "stateMutability": "view",
      "type": "function"
    },
    {
      "inputs": [],
      "name": "bidCount",
      "outputs": [
        {
          "internalType": "uint256",
          "name": "",
          "type": "uint256"
        }
      ],
      "stateMutability": "view",
      "type": "function"
    },
    {
      "inputs": [
        {
          "internalType": "uint256",
          "name": "tokenId",
          "type": "uint256"
        },
        {
          "internalType": "address",
          "name": "_owneraddress",
          "type": "address"
        },
        {
          "internalType": "string",
          "name": "_ownerIPname",
          "type": "string"
        }
      ],
      "name": "bidderDeposit",
      "outputs": [
        {
          "internalType": "bool",
          "name": "success",
          "type": "bool"
        }
      ],
      "stateMutability": "payable",
      "type": "function"
    },
    {
      "inputs": [
        {
          "internalType": "uint256",
          "name": "",
          "type": "uint256"
        }
      ],
      "name": "bidderList",
      "outputs": [
        {
          "internalType": "address",
          "name": "",
          "type": "address"
        }
      ],
      "stateMutability": "view",
      "type": "function"
    },
    {
      "inputs": [
        {
          "internalType": "address",
          "name": "",
          "type": "address"
        }
      ],
      "name": "biddersList",
      "outputs": [
        {
          "internalType": "uint256",
          "name": "received",
          "type": "uint256"
        },
        {
          "internalType": "uint256",
          "name": "returned",
          "type": "uint256"
        },
        {
          "internalType": "uint256",
          "name": "clientListPointer",
          "type": "uint256"
        }
      ],
      "stateMutability": "view",
      "type": "function"
    },
    {
      "inputs": [
        {
          "internalType": "uint256",
          "name": "",
          "type": "uint256"
        }
      ],
      "name": "bids",
      "outputs": [
        {
          "internalType": "uint256",
          "name": "received",
          "type": "uint256"
        },
        {
          "internalType": "uint256",
          "name": "returned",
          "type": "uint256"
        },
        {
          "internalType": "uint256",
          "name": "clientListPointer",
          "type": "uint256"
        }
      ],
      "stateMutability": "view",
      "type": "function"
    },
    {
      "inputs": [],
      "name": "getMyBidders",
      "outputs": [
        {
          "components": [
            {
              "internalType": "uint256",
              "name": "tokenID",
              "type": "uint256"
            },
            {
              "internalType": "address",
              "name": "owneraddress",
              "type": "address"
            },
            {
              "internalType": "string",
              "name": "ownerIPname",
              "type": "string"
            },
            {
              "internalType": "uint256",
              "name": "bidValue",
              "type": "uint256"
            },
            {
              "internalType": "address",
              "name": "bidderAddress",
              "type": "address"
            }
          ],
          "internalType": "struct Ipbidder.IPownerBidders[]",
          "name": "",
          "type": "tuple[]"
        }
      ],
      "stateMutability": "view",
      "type": "function"
    },
    {
      "inputs": [
        {
          "internalType": "uint256",
          "name": "",
          "type": "uint256"
        }
      ],
      "name": "ipbidders",
      "outputs": [
        {
          "internalType": "uint256",
          "name": "tokenID",
          "type": "uint256"
        },
        {
          "internalType": "address",
          "name": "owneraddress",
          "type": "address"
        },
        {
          "internalType": "string",
          "name": "ownerIPname",
          "type": "string"
        },
        {
          "internalType": "uint256",
          "name": "bidValue",
          "type": "uint256"
        },
        {
          "internalType": "address",
          "name": "bidderAddress",
          "type": "address"
        }
      ],
      "stateMutability": "view",
      "type": "function"
    },
    {
      "inputs": [
        {
          "internalType": "address",
          "name": "bidder",
          "type": "address"
        }
      ],
      "name": "isBidder",
      "outputs": [
        {
          "internalType": "bool",
          "name": "isIndeed",
          "type": "bool"
        }
      ],
      "stateMutability": "view",
      "type": "function"
    },
    {
      "inputs": [
        {
          "internalType": "uint256",
          "name": "amountToWithdraw",
          "type": "uint256"
        },
        {
          "internalType": "uint256",
          "name": "tokenId",
          "type": "uint256"
        }
      ],
      "name": "refundDeposit",
      "outputs": [
        {
          "internalType": "bool",
          "name": "success",
          "type": "bool"
        }
      ],
      "stateMutability": "payable",
      "type": "function"
    },
    {
      "inputs": [
        {
          "internalType": "uint256",
          "name": "tokenId",
          "type": "uint256"
        },
        {
          "internalType": "address",
          "name": "bidAdd",
          "type": "address"
        },
        {
          "internalType": "uint256",
          "name": "value",
          "type": "uint256"
        }
      ],
      "name": "valueChange",
      "outputs": [],
      "stateMutability": "nonpayable",
      "type": "function"
    }
  ],
  "bytecode": "0x608060405234801561001057600080fd5b506001600081905550611bb5806100286000396000f3fe60806040526004361061009c5760003560e01c806396dc503b1161006457806396dc503b146101c85780639f04996d146101f1578063a0e1a8a71461022e578063b40a56271461025e578063be85aa2914610289578063d3584e84146102b95761009c565b806319fde1f6146100a15780634423c5f1146100de578063495fd8bd1461011d5780636e3bc76b1461015e57806385d637f31461019d575b600080fd5b3480156100ad57600080fd5b506100c860048036038101906100c39190611218565b6102f6565b6040516100d59190611623565b60405180910390f35b3480156100ea57600080fd5b5061010560048036038101906101009190611241565b6103eb565b60405161011493929190611713565b60405180910390f35b34801561012957600080fd5b50610144600480360381019061013f9190611241565b610415565b6040516101559594939291906116b9565b60405180910390f35b34801561016a57600080fd5b5061018560048036038101906101809190611218565b610513565b60405161019493929190611713565b60405180910390f35b3480156101a957600080fd5b506101b261053d565b6040516101bf9190611601565b60405180910390f35b3480156101d457600080fd5b506101ef60048036038101906101ea919061130d565b6108e6565b005b3480156101fd57600080fd5b506102186004803603810190610213919061126a565b610940565b604051610225919061169e565b60405180910390f35b610248600480360381019061024391906112a6565b610965565b6040516102559190611623565b60405180910390f35b34801561026a57600080fd5b50610273610d05565b604051610280919061169e565b60405180910390f35b6102a3600480360381019061029e919061135c565b610d0b565b6040516102b09190611623565b60405180910390f35b3480156102c557600080fd5b506102e060048036038101906102db9190611241565b611049565b6040516102ed91906115bd565b60405180910390f35b600080600580549050141561030e57600090506103e6565b8173ffffffffffffffffffffffffffffffffffffffff166005600260008573ffffffffffffffffffffffffffffffffffffffff1673ffffffffffffffffffffffffffffffffffffffff16815260200190815260200160002060020154815481106103a1577f4e487b7100000000000000000000000000000000000000000000000000000000600052603260045260246000fd5b9060005260206000200160009054906101000a900473ffffffffffffffffffffffffffffffffffffffff1673ffffffffffffffffffffffffffffffffffffffff161490505b919050565b60036020528060005260406000206000915090508060000154908060010154908060020154905083565b60016020528060005260406000206000915090508060000154908060010160009054906101000a900473ffffffffffffffffffffffffffffffffffffffff16908060020180546104649061191a565b80601f01602080910402602001604051908101604052809291908181526020018280546104909061191a565b80156104dd5780601f106104b2576101008083540402835291602001916104dd565b820191906000526020600020905b8154815290600101906020018083116104c057829003601f168201915b5050505050908060030154908060040160009054906101000a900473ffffffffffffffffffffffffffffffffffffffff16905085565b60026020528060005260406000206000915090508060000154908060010154908060020154905083565b6060600080600080600090505b6000548110156105ed573373ffffffffffffffffffffffffffffffffffffffff166001600060018461057c9190611806565b815260200190815260200160002060010160009054906101000a900473ffffffffffffffffffffffffffffffffffffffff1673ffffffffffffffffffffffffffffffffffffffff1614156105da576001846105d79190611806565b93505b80806105e59061197d565b91505061054a565b5060008367ffffffffffffffff811115610630577f4e487b7100000000000000000000000000000000000000000000000000000000600052604160045260246000fd5b60405190808252806020026020018201604052801561066957816020015b610656611088565b81526020019060019003908161064e5790505b50905060005b6000548110156108db573373ffffffffffffffffffffffffffffffffffffffff16600160006001846106a19190611806565b815260200190815260200160002060010160009054906101000a900473ffffffffffffffffffffffffffffffffffffffff1673ffffffffffffffffffffffffffffffffffffffff1614156108c8576001816106fc9190611806565b92506000600160008581526020019081526020016000209050806040518060a0016040529081600082015481526020016001820160009054906101000a900473ffffffffffffffffffffffffffffffffffffffff1673ffffffffffffffffffffffffffffffffffffffff1673ffffffffffffffffffffffffffffffffffffffff1681526020016002820180546107919061191a565b80601f01602080910402602001604051908101604052809291908181526020018280546107bd9061191a565b801561080a5780601f106107df5761010080835404028352916020019161080a565b820191906000526020600020905b8154815290600101906020018083116107ed57829003601f168201915b50505050508152602001600382015481526020016004820160009054906101000a900473ffffffffffffffffffffffffffffffffffffffff1673ffffffffffffffffffffffffffffffffffffffff1673ffffffffffffffffffffffffffffffffffffffff16815250508386815181106108ac577f4e487b7100000000000000000000000000000000000000000000000000000000600052603260045260246000fd5b60200260200101819052506001856108c49190611806565b9450505b80806108d39061197d565b91505061066f565b508094505050505090565b806004600085815260200190815260200160002060008473ffffffffffffffffffffffffffffffffffffffff1673ffffffffffffffffffffffffffffffffffffffff16815260200190815260200160002081905550505050565b6004602052816000526040600020602052806000526040600020600091509150505481565b60008034116109a9576040517f08c379a00000000000000000000000000000000000000000000000000000000081526004016109a09061165e565b60405180910390fd5b346004600086815260200190815260200160002060003373ffffffffffffffffffffffffffffffffffffffff1673ffffffffffffffffffffffffffffffffffffffff1681526020019081526020016000206000828254610a099190611806565b925050819055506040518060a001604052808581526020018473ffffffffffffffffffffffffffffffffffffffff1681526020018381526020016004600087815260200190815260200160002060003373ffffffffffffffffffffffffffffffffffffffff1673ffffffffffffffffffffffffffffffffffffffff1681526020019081526020016000205481526020013373ffffffffffffffffffffffffffffffffffffffff16815250600160008681526020019081526020016000206000820151816000015560208201518160010160006101000a81548173ffffffffffffffffffffffffffffffffffffffff021916908373ffffffffffffffffffffffffffffffffffffffff1602179055506040820151816002019080519060200190610b339291906110e3565b506060820151816003015560808201518160040160006101000a81548173ffffffffffffffffffffffffffffffffffffffff021916908373ffffffffffffffffffffffffffffffffffffffff160217905550905050600080815480929190610b9a9061197d565b91905055506005339080600181540180825580915050600190039060005260206000200160009091909190916101000a81548173ffffffffffffffffffffffffffffffffffffffff021916908373ffffffffffffffffffffffffffffffffffffffff16021790555060006001600580549050610c16919061185c565b905060405180606001604052803481526020016000815260200182815250600360008781526020019081526020016000206000820151816000015560208201518160010155604082015181600201559050506001600580549050610c7a919061185c565b600260003373ffffffffffffffffffffffffffffffffffffffff1673ffffffffffffffffffffffffffffffffffffffff168152602001908152602001600020600201819055507f81d2c188629cc4a1c694d285150cb5fa3dde3157a2684460d3ac7a1e331f61643334604051610cf19291906115d8565b60405180910390a160019150509392505050565b60005481565b6000610d16336102f6565b610d1f57600080fd5b60006004600084815260200190815260200160002060003373ffffffffffffffffffffffffffffffffffffffff1673ffffffffffffffffffffffffffffffffffffffff168152602001908152602001600020541415610db3576040517f08c379a0000000000000000000000000000000000000000000000000000000008152600401610daa9061167e565b60405180910390fd5b826004600084815260200190815260200160002060003373ffffffffffffffffffffffffffffffffffffffff1673ffffffffffffffffffffffffffffffffffffffff168152602001908152602001600020541015610e46576040517f08c379a0000000000000000000000000000000000000000000000000000000008152600401610e3d9061163e565b60405180910390fd5b60006004600084815260200190815260200160002060003373ffffffffffffffffffffffffffffffffffffffff1673ffffffffffffffffffffffffffffffffffffffff1681526020019081526020016000205490507fe0e5873eb9d996d2ab087b071a9a50522121c02b43308c8728c06739f52b3f873385604051610ecc9291906115d8565b60405180910390a180841161103e573373ffffffffffffffffffffffffffffffffffffffff166108fc859081150290604051600060405180830381858888f19350505050158015610f21573d6000803e3d6000fd5b50836004600085815260200190815260200160002060003373ffffffffffffffffffffffffffffffffffffffff1673ffffffffffffffffffffffffffffffffffffffff16815260200190815260200160002054610f7e919061185c565b6004600085815260200190815260200160002060003373ffffffffffffffffffffffffffffffffffffffff1673ffffffffffffffffffffffffffffffffffffffff168152602001908152602001600020819055506004600084815260200190815260200160002060003373ffffffffffffffffffffffffffffffffffffffff1673ffffffffffffffffffffffffffffffffffffffff1681526020019081526020016000205460016000858152602001908152602001600020600301819055505b600191505092915050565b6005818154811061105957600080fd5b906000526020600020016000915054906101000a900473ffffffffffffffffffffffffffffffffffffffff1681565b6040518060a0016040528060008152602001600073ffffffffffffffffffffffffffffffffffffffff1681526020016060815260200160008152602001600073ffffffffffffffffffffffffffffffffffffffff1681525090565b8280546110ef9061191a565b90600052602060002090601f0160209004810192826111115760008555611158565b82601f1061112a57805160ff1916838001178555611158565b82800160010185558215611158579182015b8281111561115757825182559160200191906001019061113c565b5b5090506111659190611169565b5090565b5b8082111561118257600081600090555060010161116a565b5090565b60006111996111948461176f565b61174a565b9050828152602081018484840111156111b157600080fd5b6111bc8482856118d8565b509392505050565b6000813590506111d381611b51565b92915050565b600082601f8301126111ea57600080fd5b81356111fa848260208601611186565b91505092915050565b60008135905061121281611b68565b92915050565b60006020828403121561122a57600080fd5b6000611238848285016111c4565b91505092915050565b60006020828403121561125357600080fd5b600061126184828501611203565b91505092915050565b6000806040838503121561127d57600080fd5b600061128b85828601611203565b925050602061129c858286016111c4565b9150509250929050565b6000806000606084860312156112bb57600080fd5b60006112c986828701611203565b93505060206112da868287016111c4565b925050604084013567ffffffffffffffff8111156112f757600080fd5b611303868287016111d9565b9150509250925092565b60008060006060848603121561132257600080fd5b600061133086828701611203565b9350506020611341868287016111c4565b925050604061135286828701611203565b9150509250925092565b6000806040838503121561136f57600080fd5b600061137d85828601611203565b925050602061138e85828601611203565b9150509250929050565b60006113a48383611529565b905092915050565b6113b581611890565b82525050565b6113c481611890565b82525050565b60006113d5826117b0565b6113df81856117d3565b9350836020820285016113f1856117a0565b8060005b8581101561142d578484038952815161140e8582611398565b9450611419836117c6565b925060208a019950506001810190506113f5565b50829750879550505050505092915050565b611448816118a2565b82525050565b6000611459826117bb565b61146381856117e4565b93506114738185602086016118e7565b61147c81611a53565b840191505092915050565b6000611492826117bb565b61149c81856117f5565b93506114ac8185602086016118e7565b6114b581611a53565b840191505092915050565b60006114cd6051836117f5565b91506114d882611a64565b606082019050919050565b60006114f06038836117f5565b91506114fb82611ad9565b604082019050919050565b6000611513601b836117f5565b915061151e82611b28565b602082019050919050565b600060a083016000830151611541600086018261159f565b50602083015161155460208601826113ac565b506040830151848203604086015261156c828261144e565b9150506060830151611581606086018261159f565b50608083015161159460808601826113ac565b508091505092915050565b6115a8816118ce565b82525050565b6115b7816118ce565b82525050565b60006020820190506115d260008301846113bb565b92915050565b60006040820190506115ed60008301856113bb565b6115fa60208301846115ae565b9392505050565b6000602082019050818103600083015261161b81846113ca565b905092915050565b6000602082019050611638600083018461143f565b92915050565b60006020820190508181036000830152611657816114c0565b9050919050565b60006020820190508181036000830152611677816114e3565b9050919050565b6000602082019050818103600083015261169781611506565b9050919050565b60006020820190506116b360008301846115ae565b92915050565b600060a0820190506116ce60008301886115ae565b6116db60208301876113bb565b81810360408301526116ed8186611487565b90506116fc60608301856115ae565b61170960808301846113bb565b9695505050505050565b600060608201905061172860008301866115ae565b61173560208301856115ae565b61174260408301846115ae565b949350505050565b6000611754611765565b9050611760828261194c565b919050565b6000604051905090565b600067ffffffffffffffff82111561178a57611789611a24565b5b61179382611a53565b9050602081019050919050565b6000819050602082019050919050565b600081519050919050565b600081519050919050565b6000602082019050919050565b600082825260208201905092915050565b600082825260208201905092915050565b600082825260208201905092915050565b6000611811826118ce565b915061181c836118ce565b9250827fffffffffffffffffffffffffffffffffffffffffffffffffffffffffffffffff03821115611851576118506119c6565b5b828201905092915050565b6000611867826118ce565b9150611872836118ce565b925082821015611885576118846119c6565b5b828203905092915050565b600061189b826118ae565b9050919050565b60008115159050919050565b600073ffffffffffffffffffffffffffffffffffffffff82169050919050565b6000819050919050565b82818337600083830152505050565b60005b838110156119055780820151818401526020810190506118ea565b83811115611914576000848401525b50505050565b6000600282049050600182168061193257607f821691505b60208210811415611946576119456119f5565b5b50919050565b61195582611a53565b810181811067ffffffffffffffff8211171561197457611973611a24565b5b80604052505050565b6000611988826118ce565b91507fffffffffffffffffffffffffffffffffffffffffffffffffffffffffffffffff8214156119bb576119ba6119c6565b5b600182019050919050565b7f4e487b7100000000000000000000000000000000000000000000000000000000600052601160045260246000fd5b7f4e487b7100000000000000000000000000000000000000000000000000000000600052602260045260246000fd5b7f4e487b7100000000000000000000000000000000000000000000000000000000600052604160045260246000fd5b6000601f19601f8301169050919050565b7f416d6f756e742069732067726561746572207468616e207768617420796f752060008201527f68617665206f7220796f7520616c72656164792077697468647261776e20616c60208201527f6c206f6620796f7572206465706f736974000000000000000000000000000000604082015250565b7f596f75722062696464696e672076616c7565206d75737420626520677265617460008201527f6572207468616e207a65726f2c2074727920616761696e2e0000000000000000602082015250565b7f596f75206469646e277420626964206f6e2074686973206974656d0000000000600082015250565b611b5a81611890565b8114611b6557600080fd5b50565b611b71816118ce565b8114611b7c57600080fd5b5056fea264697066735822122030a7e02ffaebea5bd8f6c5aadd22454764e2b50b3318defc4a28542d61dcfa2f64736f6c63430008010033",
  "linkReferences": {},
  "deployedLinkReferences": {}
}