{
  "_format": "hh-sol-artifact-1",
  "contractName": "Ipbidder",
  "sourceName": "contracts/Ipbidder.sol",
  "abi": [
    {
      "inputs": [],
      "stateMutability": "nonpayable",
      "type": "constructor"
    },
    {
      "anonymous": false,
      "inputs": [
        {
          "indexed": false,
          "internalType": "address",
          "name": "sender",
          "type": "address"
        },
        {
          "indexed": false,
          "internalType": "uint256",
          "name": "amount",
          "type": "uint256"
        }
      ],
      "name": "LogReceivedFunds",
      "type": "event"
    },
    {
      "anonymous": false,
      "inputs": [
        {
          "indexed": false,
          "internalType": "address",
          "name": "recipient",
          "type": "address"
        },
        {
          "indexed": false,
          "internalType": "uint256",
          "name": "amount",
          "type": "uint256"
        }
      ],
      "name": "LogReturnedFunds",
      "type": "event"
    },
    {
      "inputs": [
        {
          "internalType": "uint256",
          "name": "",
          "type": "uint256"
        },
        {
          "internalType": "address",
          "name": "",
          "type": "address"
        }
      ],
      "name": "bid",
      "outputs": [
        {
          "internalType": "uint256",
          "name": "",
          "type": "uint256"
        }
      ],
      "stateMutability": "view",
      "type": "function"
    },
    {
      "inputs": [],
      "name": "bidCount",
      "outputs": [
        {
          "internalType": "uint256",
          "name": "",
          "type": "uint256"
        }
      ],
      "stateMutability": "view",
      "type": "function"
    },
    {
      "inputs": [
        {
          "internalType": "uint256",
          "name": "tokenId",
          "type": "uint256"
        },
        {
          "internalType": "address",
          "name": "_owneraddress",
          "type": "address"
        },
        {
          "internalType": "string",
          "name": "_ownerIPname",
          "type": "string"
        }
      ],
      "name": "bidderDeposit",
      "outputs": [
        {
          "internalType": "bool",
          "name": "success",
          "type": "bool"
        }
      ],
      "stateMutability": "payable",
      "type": "function"
    },
    {
      "inputs": [
        {
          "internalType": "uint256",
          "name": "",
          "type": "uint256"
        }
      ],
      "name": "bidderList",
      "outputs": [
        {
          "internalType": "address",
          "name": "",
          "type": "address"
        }
      ],
      "stateMutability": "view",
      "type": "function"
    },
    {
      "inputs": [
        {
          "internalType": "address",
          "name": "",
          "type": "address"
        }
      ],
      "name": "biddersList",
      "outputs": [
        {
          "internalType": "uint256",
          "name": "received",
          "type": "uint256"
        },
        {
          "internalType": "uint256",
          "name": "returned",
          "type": "uint256"
        },
        {
          "internalType": "uint256",
          "name": "clientListPointer",
          "type": "uint256"
        }
      ],
      "stateMutability": "view",
      "type": "function"
    },
    {
      "inputs": [
        {
          "internalType": "uint256",
          "name": "",
          "type": "uint256"
        }
      ],
      "name": "bids",
      "outputs": [
        {
          "internalType": "uint256",
          "name": "received",
          "type": "uint256"
        },
        {
          "internalType": "uint256",
          "name": "returned",
          "type": "uint256"
        },
        {
          "internalType": "uint256",
          "name": "clientListPointer",
          "type": "uint256"
        }
      ],
      "stateMutability": "view",
      "type": "function"
    },
    {
      "inputs": [],
      "name": "getMyBidders",
      "outputs": [
        {
          "components": [
            {
              "internalType": "uint256",
              "name": "tokenID",
              "type": "uint256"
            },
            {
              "internalType": "address",
              "name": "owneraddress",
              "type": "address"
            },
            {
              "internalType": "string",
              "name": "ownerIPname",
              "type": "string"
            },
            {
              "internalType": "uint256",
              "name": "bidValue",
              "type": "uint256"
            },
            {
              "internalType": "address",
              "name": "bidderAddress",
              "type": "address"
            },
            {
              "internalType": "bool",
              "name": "bidAccepted",
              "type": "bool"
            },
            {
              "internalType": "uint256",
              "name": "timestamp",
              "type": "uint256"
            }
          ],
          "internalType": "struct Ipbidder.IPownerBidders[]",
          "name": "",
          "type": "tuple[]"
        }
      ],
      "stateMutability": "view",
      "type": "function"
    },
    {
      "inputs": [],
      "name": "getMyBids",
      "outputs": [
        {
          "components": [
            {
              "internalType": "uint256",
              "name": "tokenID",
              "type": "uint256"
            },
            {
              "internalType": "address",
              "name": "owneraddress",
              "type": "address"
            },
            {
              "internalType": "string",
              "name": "ownerIPname",
              "type": "string"
            },
            {
              "internalType": "uint256",
              "name": "bidValue",
              "type": "uint256"
            },
            {
              "internalType": "address",
              "name": "bidderAddress",
              "type": "address"
            },
            {
              "internalType": "bool",
              "name": "bidAccepted",
              "type": "bool"
            },
            {
              "internalType": "uint256",
              "name": "timestamp",
              "type": "uint256"
            }
          ],
          "internalType": "struct Ipbidder.IPownerBidders[]",
          "name": "",
          "type": "tuple[]"
        }
      ],
      "stateMutability": "view",
      "type": "function"
    },
    {
      "inputs": [
        {
          "internalType": "uint256",
          "name": "",
          "type": "uint256"
        }
      ],
      "name": "ipbidders",
      "outputs": [
        {
          "internalType": "uint256",
          "name": "tokenID",
          "type": "uint256"
        },
        {
          "internalType": "address",
          "name": "owneraddress",
          "type": "address"
        },
        {
          "internalType": "string",
          "name": "ownerIPname",
          "type": "string"
        },
        {
          "internalType": "uint256",
          "name": "bidValue",
          "type": "uint256"
        },
        {
          "internalType": "address",
          "name": "bidderAddress",
          "type": "address"
        },
        {
          "internalType": "bool",
          "name": "bidAccepted",
          "type": "bool"
        },
        {
          "internalType": "uint256",
          "name": "timestamp",
          "type": "uint256"
        }
      ],
      "stateMutability": "view",
      "type": "function"
    },
    {
      "inputs": [
        {
          "internalType": "address",
          "name": "bidder",
          "type": "address"
        }
      ],
      "name": "isBidder",
      "outputs": [
        {
          "internalType": "bool",
          "name": "isIndeed",
          "type": "bool"
        }
      ],
      "stateMutability": "view",
      "type": "function"
    },
    {
      "inputs": [
        {
          "internalType": "uint256",
          "name": "amountToWithdraw",
          "type": "uint256"
        },
        {
          "internalType": "uint256",
          "name": "tokenId",
          "type": "uint256"
        }
      ],
      "name": "refundDeposit",
      "outputs": [
        {
          "internalType": "bool",
          "name": "success",
          "type": "bool"
        }
      ],
      "stateMutability": "payable",
      "type": "function"
    },
    {
      "inputs": [
        {
          "internalType": "uint256",
          "name": "tokenId",
          "type": "uint256"
        },
        {
          "internalType": "address",
          "name": "bidAdd",
          "type": "address"
        },
        {
          "internalType": "bool",
          "name": "text",
          "type": "bool"
        },
        {
          "internalType": "uint256",
          "name": "value",
          "type": "uint256"
        }
      ],
      "name": "valueChange",
      "outputs": [],
      "stateMutability": "nonpayable",
      "type": "function"
    }
  ],
  "bytecode": "0x608060405234801561001057600080fd5b50600160008190555061211d806100286000396000f3fe6080604052600436106100a75760003560e01c806385d637f31161006457806385d637f3146101fe5780639f04996d14610229578063a0e1a8a714610266578063b40a562714610296578063be85aa29146102c1578063d3584e84146102f1576100a7565b806319fde1f6146100ac5780634423c5f1146100e9578063495fd8bd146101285780636e3bc76b1461016b578063788077a7146101aa57806381d38f8c146101d5575b600080fd5b3480156100b857600080fd5b506100d360048036038101906100ce9190611704565b61032e565b6040516100e09190611b58565b60405180910390f35b3480156100f557600080fd5b50610110600480360381019061010b919061172d565b610423565b60405161011f93929190611c64565b60405180910390f35b34801561013457600080fd5b5061014f600480360381019061014a919061172d565b61044d565b6040516101629796959493929190611bee565b60405180910390f35b34801561017757600080fd5b50610192600480360381019061018d9190611704565b610564565b6040516101a193929190611c64565b60405180910390f35b3480156101b657600080fd5b506101bf61058e565b6040516101cc9190611b36565b60405180910390f35b3480156101e157600080fd5b506101fc60048036038101906101f79190611792565b61095c565b005b34801561020a57600080fd5b50610213610a00565b6040516102209190611b36565b60405180910390f35b34801561023557600080fd5b50610250600480360381019061024b9190611756565b610dce565b60405161025d9190611bd3565b60405180910390f35b610280600480360381019061027b91906117f5565b610df3565b60405161028d9190611b58565b60405180910390f35b3480156102a257600080fd5b506102ab6111cc565b6040516102b89190611bd3565b60405180910390f35b6102db60048036038101906102d6919061185c565b6111d2565b6040516102e89190611b58565b60405180910390f35b3480156102fd57600080fd5b506103186004803603810190610313919061172d565b611510565b6040516103259190611af2565b60405180910390f35b6000806005805490501415610346576000905061041e565b8173ffffffffffffffffffffffffffffffffffffffff166005600260008573ffffffffffffffffffffffffffffffffffffffff1673ffffffffffffffffffffffffffffffffffffffff16815260200190815260200160002060020154815481106103d9577f4e487b7100000000000000000000000000000000000000000000000000000000600052603260045260246000fd5b9060005260206000200160009054906101000a900473ffffffffffffffffffffffffffffffffffffffff1673ffffffffffffffffffffffffffffffffffffffff161490505b919050565b60036020528060005260406000206000915090508060000154908060010154908060020154905083565b60016020528060005260406000206000915090508060000154908060010160009054906101000a900473ffffffffffffffffffffffffffffffffffffffff169080600201805461049c90611e6b565b80601f01602080910402602001604051908101604052809291908181526020018280546104c890611e6b565b80156105155780601f106104ea57610100808354040283529160200191610515565b820191906000526020600020905b8154815290600101906020018083116104f857829003601f168201915b5050505050908060030154908060040160009054906101000a900473ffffffffffffffffffffffffffffffffffffffff16908060040160149054906101000a900460ff16908060050154905087565b60026020528060005260406000206000915090508060000154908060010154908060020154905083565b6060600080600080600090505b60005481101561063e573373ffffffffffffffffffffffffffffffffffffffff16600160006001846105cd9190611d57565b815260200190815260200160002060040160009054906101000a900473ffffffffffffffffffffffffffffffffffffffff1673ffffffffffffffffffffffffffffffffffffffff16141561062b576001846106289190611d57565b93505b808061063690611ece565b91505061059b565b5060008367ffffffffffffffff811115610681577f4e487b7100000000000000000000000000000000000000000000000000000000600052604160045260246000fd5b6040519080825280602002602001820160405280156106ba57816020015b6106a761154f565b81526020019060019003908161069f5790505b50905060005b600054811015610951573373ffffffffffffffffffffffffffffffffffffffff16600160006001846106f29190611d57565b815260200190815260200160002060040160009054906101000a900473ffffffffffffffffffffffffffffffffffffffff1673ffffffffffffffffffffffffffffffffffffffff16141561093e5760018161074d9190611d57565b92506000600160008581526020019081526020016000209050806040518060e0016040529081600082015481526020016001820160009054906101000a900473ffffffffffffffffffffffffffffffffffffffff1673ffffffffffffffffffffffffffffffffffffffff1673ffffffffffffffffffffffffffffffffffffffff1681526020016002820180546107e290611e6b565b80601f016020809104026020016040519081016040528092919081815260200182805461080e90611e6b565b801561085b5780601f106108305761010080835404028352916020019161085b565b820191906000526020600020905b81548152906001019060200180831161083e57829003601f168201915b50505050508152602001600382015481526020016004820160009054906101000a900473ffffffffffffffffffffffffffffffffffffffff1673ffffffffffffffffffffffffffffffffffffffff1673ffffffffffffffffffffffffffffffffffffffff1681526020016004820160149054906101000a900460ff16151515158152602001600582015481525050838681518110610922577f4e487b7100000000000000000000000000000000000000000000000000000000600052603260045260246000fd5b602002602001018190525060018561093a9190611d57565b9450505b808061094990611ece565b9150506106c0565b508094505050505090565b806004600086815260200190815260200160002060008573ffffffffffffffffffffffffffffffffffffffff1673ffffffffffffffffffffffffffffffffffffffff16815260200190815260200160002081905550806001600086815260200190815260200160002060030181905550816001600086815260200190815260200160002060040160146101000a81548160ff02191690831515021790555050505050565b6060600080600080600090505b600054811015610ab0573373ffffffffffffffffffffffffffffffffffffffff1660016000600184610a3f9190611d57565b815260200190815260200160002060010160009054906101000a900473ffffffffffffffffffffffffffffffffffffffff1673ffffffffffffffffffffffffffffffffffffffff161415610a9d57600184610a9a9190611d57565b93505b8080610aa890611ece565b915050610a0d565b5060008367ffffffffffffffff811115610af3577f4e487b7100000000000000000000000000000000000000000000000000000000600052604160045260246000fd5b604051908082528060200260200182016040528015610b2c57816020015b610b1961154f565b815260200190600190039081610b115790505b50905060005b600054811015610dc3573373ffffffffffffffffffffffffffffffffffffffff1660016000600184610b649190611d57565b815260200190815260200160002060010160009054906101000a900473ffffffffffffffffffffffffffffffffffffffff1673ffffffffffffffffffffffffffffffffffffffff161415610db057600181610bbf9190611d57565b92506000600160008581526020019081526020016000209050806040518060e0016040529081600082015481526020016001820160009054906101000a900473ffffffffffffffffffffffffffffffffffffffff1673ffffffffffffffffffffffffffffffffffffffff1673ffffffffffffffffffffffffffffffffffffffff168152602001600282018054610c5490611e6b565b80601f0160208091040260200160405190810160405280929190818152602001828054610c8090611e6b565b8015610ccd5780601f10610ca257610100808354040283529160200191610ccd565b820191906000526020600020905b815481529060010190602001808311610cb057829003601f168201915b50505050508152602001600382015481526020016004820160009054906101000a900473ffffffffffffffffffffffffffffffffffffffff1673ffffffffffffffffffffffffffffffffffffffff1673ffffffffffffffffffffffffffffffffffffffff1681526020016004820160149054906101000a900460ff16151515158152602001600582015481525050838681518110610d94577f4e487b7100000000000000000000000000000000000000000000000000000000600052603260045260246000fd5b6020026020010181905250600185610dac9190611d57565b9450505b8080610dbb90611ece565b915050610b32565b508094505050505090565b6004602052816000526040600020602052806000526040600020600091509150505481565b6000803411610e37576040517f08c379a0000000000000000000000000000000000000000000000000000000008152600401610e2e90611b93565b60405180910390fd5b346004600086815260200190815260200160002060003373ffffffffffffffffffffffffffffffffffffffff1673ffffffffffffffffffffffffffffffffffffffff1681526020019081526020016000206000828254610e979190611d57565b925050819055506040518060e001604052808581526020018473ffffffffffffffffffffffffffffffffffffffff1681526020018381526020016004600087815260200190815260200160002060003373ffffffffffffffffffffffffffffffffffffffff1673ffffffffffffffffffffffffffffffffffffffff1681526020019081526020016000205481526020013373ffffffffffffffffffffffffffffffffffffffff16815260200160001515815260200142815250600160008681526020019081526020016000206000820151816000015560208201518160010160006101000a81548173ffffffffffffffffffffffffffffffffffffffff021916908373ffffffffffffffffffffffffffffffffffffffff1602179055506040820151816002019080519060200190610fd09291906115ba565b506060820151816003015560808201518160040160006101000a81548173ffffffffffffffffffffffffffffffffffffffff021916908373ffffffffffffffffffffffffffffffffffffffff16021790555060a08201518160040160146101000a81548160ff02191690831515021790555060c0820151816005015590505060008081548092919061106190611ece565b91905055506005339080600181540180825580915050600190039060005260206000200160009091909190916101000a81548173ffffffffffffffffffffffffffffffffffffffff021916908373ffffffffffffffffffffffffffffffffffffffff160217905550600060016005805490506110dd9190611dad565b9050604051806060016040528034815260200160008152602001828152506003600087815260200190815260200160002060008201518160000155602082015181600101556040820151816002015590505060016005805490506111419190611dad565b600260003373ffffffffffffffffffffffffffffffffffffffff1673ffffffffffffffffffffffffffffffffffffffff168152602001908152602001600020600201819055507f81d2c188629cc4a1c694d285150cb5fa3dde3157a2684460d3ac7a1e331f616433346040516111b8929190611b0d565b60405180910390a160019150509392505050565b60005481565b60006111dd3361032e565b6111e657600080fd5b60006004600084815260200190815260200160002060003373ffffffffffffffffffffffffffffffffffffffff1673ffffffffffffffffffffffffffffffffffffffff16815260200190815260200160002054141561127a576040517f08c379a000000000000000000000000000000000000000000000000000000000815260040161127190611bb3565b60405180910390fd5b826004600084815260200190815260200160002060003373ffffffffffffffffffffffffffffffffffffffff1673ffffffffffffffffffffffffffffffffffffffff16815260200190815260200160002054101561130d576040517f08c379a000000000000000000000000000000000000000000000000000000000815260040161130490611b73565b60405180910390fd5b60006004600084815260200190815260200160002060003373ffffffffffffffffffffffffffffffffffffffff1673ffffffffffffffffffffffffffffffffffffffff1681526020019081526020016000205490507fe0e5873eb9d996d2ab087b071a9a50522121c02b43308c8728c06739f52b3f873385604051611393929190611b0d565b60405180910390a1808411611505573373ffffffffffffffffffffffffffffffffffffffff166108fc859081150290604051600060405180830381858888f193505050501580156113e8573d6000803e3d6000fd5b50836004600085815260200190815260200160002060003373ffffffffffffffffffffffffffffffffffffffff1673ffffffffffffffffffffffffffffffffffffffff168152602001908152602001600020546114459190611dad565b6004600085815260200190815260200160002060003373ffffffffffffffffffffffffffffffffffffffff1673ffffffffffffffffffffffffffffffffffffffff168152602001908152602001600020819055506004600084815260200190815260200160002060003373ffffffffffffffffffffffffffffffffffffffff1673ffffffffffffffffffffffffffffffffffffffff1681526020019081526020016000205460016000858152602001908152602001600020600301819055505b600191505092915050565b6005818154811061152057600080fd5b906000526020600020016000915054906101000a900473ffffffffffffffffffffffffffffffffffffffff1681565b6040518060e0016040528060008152602001600073ffffffffffffffffffffffffffffffffffffffff1681526020016060815260200160008152602001600073ffffffffffffffffffffffffffffffffffffffff168152602001600015158152602001600081525090565b8280546115c690611e6b565b90600052602060002090601f0160209004810192826115e8576000855561162f565b82601f1061160157805160ff191683800117855561162f565b8280016001018555821561162f579182015b8281111561162e578251825591602001919060010190611613565b5b50905061163c9190611640565b5090565b5b80821115611659576000816000905550600101611641565b5090565b600061167061166b84611cc0565b611c9b565b90508281526020810184848401111561168857600080fd5b611693848285611e29565b509392505050565b6000813590506116aa816120a2565b92915050565b6000813590506116bf816120b9565b92915050565b600082601f8301126116d657600080fd5b81356116e684826020860161165d565b91505092915050565b6000813590506116fe816120d0565b92915050565b60006020828403121561171657600080fd5b60006117248482850161169b565b91505092915050565b60006020828403121561173f57600080fd5b600061174d848285016116ef565b91505092915050565b6000806040838503121561176957600080fd5b6000611777858286016116ef565b92505060206117888582860161169b565b9150509250929050565b600080600080608085870312156117a857600080fd5b60006117b6878288016116ef565b94505060206117c78782880161169b565b93505060406117d8878288016116b0565b92505060606117e9878288016116ef565b91505092959194509250565b60008060006060848603121561180a57600080fd5b6000611818868287016116ef565b93505060206118298682870161169b565b925050604084013567ffffffffffffffff81111561184657600080fd5b611852868287016116c5565b9150509250925092565b6000806040838503121561186f57600080fd5b600061187d858286016116ef565b925050602061188e858286016116ef565b9150509250929050565b60006118a48383611a38565b905092915050565b6118b581611de1565b82525050565b6118c481611de1565b82525050565b60006118d582611d01565b6118df8185611d24565b9350836020820285016118f185611cf1565b8060005b8581101561192d578484038952815161190e8582611898565b945061191983611d17565b925060208a019950506001810190506118f5565b50829750879550505050505092915050565b61194881611df3565b82525050565b61195781611df3565b82525050565b600061196882611d0c565b6119728185611d35565b9350611982818560208601611e38565b61198b81611fa4565b840191505092915050565b60006119a182611d0c565b6119ab8185611d46565b93506119bb818560208601611e38565b6119c481611fa4565b840191505092915050565b60006119dc605183611d46565b91506119e782611fb5565b606082019050919050565b60006119ff603883611d46565b9150611a0a8261202a565b604082019050919050565b6000611a22601b83611d46565b9150611a2d82612079565b602082019050919050565b600060e083016000830151611a506000860182611ad4565b506020830151611a6360208601826118ac565b5060408301518482036040860152611a7b828261195d565b9150506060830151611a906060860182611ad4565b506080830151611aa360808601826118ac565b5060a0830151611ab660a086018261193f565b5060c0830151611ac960c0860182611ad4565b508091505092915050565b611add81611e1f565b82525050565b611aec81611e1f565b82525050565b6000602082019050611b0760008301846118bb565b92915050565b6000604082019050611b2260008301856118bb565b611b2f6020830184611ae3565b9392505050565b60006020820190508181036000830152611b5081846118ca565b905092915050565b6000602082019050611b6d600083018461194e565b92915050565b60006020820190508181036000830152611b8c816119cf565b9050919050565b60006020820190508181036000830152611bac816119f2565b9050919050565b60006020820190508181036000830152611bcc81611a15565b9050919050565b6000602082019050611be86000830184611ae3565b92915050565b600060e082019050611c03600083018a611ae3565b611c1060208301896118bb565b8181036040830152611c228188611996565b9050611c316060830187611ae3565b611c3e60808301866118bb565b611c4b60a083018561194e565b611c5860c0830184611ae3565b98975050505050505050565b6000606082019050611c796000830186611ae3565b611c866020830185611ae3565b611c936040830184611ae3565b949350505050565b6000611ca5611cb6565b9050611cb18282611e9d565b919050565b6000604051905090565b600067ffffffffffffffff821115611cdb57611cda611f75565b5b611ce482611fa4565b9050602081019050919050565b6000819050602082019050919050565b600081519050919050565b600081519050919050565b6000602082019050919050565b600082825260208201905092915050565b600082825260208201905092915050565b600082825260208201905092915050565b6000611d6282611e1f565b9150611d6d83611e1f565b9250827fffffffffffffffffffffffffffffffffffffffffffffffffffffffffffffffff03821115611da257611da1611f17565b5b828201905092915050565b6000611db882611e1f565b9150611dc383611e1f565b925082821015611dd657611dd5611f17565b5b828203905092915050565b6000611dec82611dff565b9050919050565b60008115159050919050565b600073ffffffffffffffffffffffffffffffffffffffff82169050919050565b6000819050919050565b82818337600083830152505050565b60005b83811015611e56578082015181840152602081019050611e3b565b83811115611e65576000848401525b50505050565b60006002820490506001821680611e8357607f821691505b60208210811415611e9757611e96611f46565b5b50919050565b611ea682611fa4565b810181811067ffffffffffffffff82111715611ec557611ec4611f75565b5b80604052505050565b6000611ed982611e1f565b91507fffffffffffffffffffffffffffffffffffffffffffffffffffffffffffffffff821415611f0c57611f0b611f17565b5b600182019050919050565b7f4e487b7100000000000000000000000000000000000000000000000000000000600052601160045260246000fd5b7f4e487b7100000000000000000000000000000000000000000000000000000000600052602260045260246000fd5b7f4e487b7100000000000000000000000000000000000000000000000000000000600052604160045260246000fd5b6000601f19601f8301169050919050565b7f416d6f756e742069732067726561746572207468616e207768617420796f752060008201527f68617665206f7220796f7520616c72656164792077697468647261776e20616c60208201527f6c206f6620796f7572206465706f736974000000000000000000000000000000604082015250565b7f596f75722062696464696e672076616c7565206d75737420626520677265617460008201527f6572207468616e207a65726f2c2074727920616761696e2e0000000000000000602082015250565b7f596f75206469646e277420626964206f6e2074686973206974656d0000000000600082015250565b6120ab81611de1565b81146120b657600080fd5b50565b6120c281611df3565b81146120cd57600080fd5b50565b6120d981611e1f565b81146120e457600080fd5b5056fea264697066735822122047e8c5017903193c45c959c78e9142750566cb637ce73ca6657d663379e21f3564736f6c63430008010033",
  "linkReferences": {},
  "deployedLinkReferences": {}
}