{
  "_format": "hh-sol-artifact-1",
  "contractName": "Ipbidder",
  "sourceName": "contracts/Ipbidder.sol",
  "abi": [
    {
      "inputs": [],
      "stateMutability": "nonpayable",
      "type": "constructor"
    },
    {
      "anonymous": false,
      "inputs": [
        {
          "indexed": false,
          "internalType": "address",
          "name": "sender",
          "type": "address"
        },
        {
          "indexed": false,
          "internalType": "uint256",
          "name": "amount",
          "type": "uint256"
        }
      ],
      "name": "LogReceivedFunds",
      "type": "event"
    },
    {
      "anonymous": false,
      "inputs": [
        {
          "indexed": false,
          "internalType": "address",
          "name": "recipient",
          "type": "address"
        },
        {
          "indexed": false,
          "internalType": "uint256",
          "name": "amount",
          "type": "uint256"
        }
      ],
      "name": "LogReturnedFunds",
      "type": "event"
    },
    {
      "inputs": [
        {
          "internalType": "uint256",
          "name": "",
          "type": "uint256"
        },
        {
          "internalType": "address",
          "name": "",
          "type": "address"
        }
      ],
      "name": "bid",
      "outputs": [
        {
          "internalType": "uint256",
          "name": "",
          "type": "uint256"
        }
      ],
      "stateMutability": "view",
      "type": "function"
    },
    {
      "inputs": [],
      "name": "bidCount",
      "outputs": [
        {
          "internalType": "uint256",
          "name": "",
          "type": "uint256"
        }
      ],
      "stateMutability": "view",
      "type": "function"
    },
    {
      "inputs": [
        {
          "internalType": "uint256",
          "name": "tokenId",
          "type": "uint256"
        },
        {
          "internalType": "address",
          "name": "_owneraddress",
          "type": "address"
        },
        {
          "internalType": "string",
          "name": "_ownerIPname",
          "type": "string"
        }
      ],
      "name": "bidderDeposit",
      "outputs": [
        {
          "internalType": "bool",
          "name": "success",
          "type": "bool"
        }
      ],
      "stateMutability": "payable",
      "type": "function"
    },
    {
      "inputs": [
        {
          "internalType": "uint256",
          "name": "",
          "type": "uint256"
        }
      ],
      "name": "bidderList",
      "outputs": [
        {
          "internalType": "address",
          "name": "",
          "type": "address"
        }
      ],
      "stateMutability": "view",
      "type": "function"
    },
    {
      "inputs": [
        {
          "internalType": "address",
          "name": "",
          "type": "address"
        }
      ],
      "name": "biddersList",
      "outputs": [
        {
          "internalType": "uint256",
          "name": "received",
          "type": "uint256"
        },
        {
          "internalType": "uint256",
          "name": "returned",
          "type": "uint256"
        },
        {
          "internalType": "uint256",
          "name": "clientListPointer",
          "type": "uint256"
        }
      ],
      "stateMutability": "view",
      "type": "function"
    },
    {
      "inputs": [
        {
          "internalType": "uint256",
          "name": "",
          "type": "uint256"
        }
      ],
      "name": "bids",
      "outputs": [
        {
          "internalType": "uint256",
          "name": "received",
          "type": "uint256"
        },
        {
          "internalType": "uint256",
          "name": "returned",
          "type": "uint256"
        },
        {
          "internalType": "uint256",
          "name": "clientListPointer",
          "type": "uint256"
        }
      ],
      "stateMutability": "view",
      "type": "function"
    },
    {
      "inputs": [],
      "name": "getMyBidders",
      "outputs": [
        {
          "components": [
            {
              "internalType": "uint256",
              "name": "tokenID",
              "type": "uint256"
            },
            {
              "internalType": "address",
              "name": "owneraddress",
              "type": "address"
            },
            {
              "internalType": "string",
              "name": "ownerIPname",
              "type": "string"
            },
            {
              "internalType": "uint256",
              "name": "bidValue",
              "type": "uint256"
            },
            {
              "internalType": "address",
              "name": "bidderAddress",
              "type": "address"
            },
            {
              "internalType": "bool",
              "name": "bidAccepted",
              "type": "bool"
            },
            {
              "internalType": "uint256",
              "name": "timestamp",
              "type": "uint256"
            }
          ],
          "internalType": "struct Ipbidder.IPownerBidders[]",
          "name": "",
          "type": "tuple[]"
        }
      ],
      "stateMutability": "view",
      "type": "function"
    },
    {
      "inputs": [
        {
          "internalType": "uint256",
          "name": "",
          "type": "uint256"
        }
      ],
      "name": "ipbidders",
      "outputs": [
        {
          "internalType": "uint256",
          "name": "tokenID",
          "type": "uint256"
        },
        {
          "internalType": "address",
          "name": "owneraddress",
          "type": "address"
        },
        {
          "internalType": "string",
          "name": "ownerIPname",
          "type": "string"
        },
        {
          "internalType": "uint256",
          "name": "bidValue",
          "type": "uint256"
        },
        {
          "internalType": "address",
          "name": "bidderAddress",
          "type": "address"
        },
        {
          "internalType": "bool",
          "name": "bidAccepted",
          "type": "bool"
        },
        {
          "internalType": "uint256",
          "name": "timestamp",
          "type": "uint256"
        }
      ],
      "stateMutability": "view",
      "type": "function"
    },
    {
      "inputs": [
        {
          "internalType": "address",
          "name": "bidder",
          "type": "address"
        }
      ],
      "name": "isBidder",
      "outputs": [
        {
          "internalType": "bool",
          "name": "isIndeed",
          "type": "bool"
        }
      ],
      "stateMutability": "view",
      "type": "function"
    },
    {
      "inputs": [
        {
          "internalType": "uint256",
          "name": "amountToWithdraw",
          "type": "uint256"
        },
        {
          "internalType": "uint256",
          "name": "tokenId",
          "type": "uint256"
        }
      ],
      "name": "refundDeposit",
      "outputs": [
        {
          "internalType": "bool",
          "name": "success",
          "type": "bool"
        }
      ],
      "stateMutability": "payable",
      "type": "function"
    },
    {
      "inputs": [
        {
          "internalType": "uint256",
          "name": "tokenId",
          "type": "uint256"
        },
        {
          "internalType": "address",
          "name": "bidAdd",
          "type": "address"
        },
        {
          "internalType": "bool",
          "name": "text",
          "type": "bool"
        },
        {
          "internalType": "uint256",
          "name": "value",
          "type": "uint256"
        }
      ],
      "name": "valueChange",
      "outputs": [],
      "stateMutability": "nonpayable",
      "type": "function"
    }
  ],
  "bytecode": "0x608060405234801561001057600080fd5b506001600081905550611d19806100286000396000f3fe60806040526004361061009c5760003560e01c806385d637f31161006457806385d637f3146101c85780639f04996d146101f3578063a0e1a8a714610230578063b40a562714610260578063be85aa291461028b578063d3584e84146102bb5761009c565b806319fde1f6146100a15780634423c5f1146100de578063495fd8bd1461011d5780636e3bc76b1461016057806381d38f8c1461019f575b600080fd5b3480156100ad57600080fd5b506100c860048036038101906100c39190611300565b6102f8565b6040516100d59190611754565b60405180910390f35b3480156100ea57600080fd5b5061010560048036038101906101009190611329565b6103ed565b60405161011493929190611860565b60405180910390f35b34801561012957600080fd5b50610144600480360381019061013f9190611329565b610417565b60405161015797969594939291906117ea565b60405180910390f35b34801561016c57600080fd5b5061018760048036038101906101829190611300565b61052e565b60405161019693929190611860565b60405180910390f35b3480156101ab57600080fd5b506101c660048036038101906101c1919061138e565b610558565b005b3480156101d457600080fd5b506101dd6105fc565b6040516101ea9190611732565b60405180910390f35b3480156101ff57600080fd5b5061021a60048036038101906102159190611352565b6109ca565b60405161022791906117cf565b60405180910390f35b61024a600480360381019061024591906113f1565b6109ef565b6040516102579190611754565b60405180910390f35b34801561026c57600080fd5b50610275610dc8565b60405161028291906117cf565b60405180910390f35b6102a560048036038101906102a09190611458565b610dce565b6040516102b29190611754565b60405180910390f35b3480156102c757600080fd5b506102e260048036038101906102dd9190611329565b61110c565b6040516102ef91906116ee565b60405180910390f35b600080600580549050141561031057600090506103e8565b8173ffffffffffffffffffffffffffffffffffffffff166005600260008573ffffffffffffffffffffffffffffffffffffffff1673ffffffffffffffffffffffffffffffffffffffff16815260200190815260200160002060020154815481106103a3577f4e487b7100000000000000000000000000000000000000000000000000000000600052603260045260246000fd5b9060005260206000200160009054906101000a900473ffffffffffffffffffffffffffffffffffffffff1673ffffffffffffffffffffffffffffffffffffffff161490505b919050565b60036020528060005260406000206000915090508060000154908060010154908060020154905083565b60016020528060005260406000206000915090508060000154908060010160009054906101000a900473ffffffffffffffffffffffffffffffffffffffff169080600201805461046690611a67565b80601f016020809104026020016040519081016040528092919081815260200182805461049290611a67565b80156104df5780601f106104b4576101008083540402835291602001916104df565b820191906000526020600020905b8154815290600101906020018083116104c257829003601f168201915b5050505050908060030154908060040160009054906101000a900473ffffffffffffffffffffffffffffffffffffffff16908060040160149054906101000a900460ff16908060050154905087565b60026020528060005260406000206000915090508060000154908060010154908060020154905083565b806004600086815260200190815260200160002060008573ffffffffffffffffffffffffffffffffffffffff1673ffffffffffffffffffffffffffffffffffffffff16815260200190815260200160002081905550806001600086815260200190815260200160002060030181905550816001600086815260200190815260200160002060040160146101000a81548160ff02191690831515021790555050505050565b6060600080600080600090505b6000548110156106ac573373ffffffffffffffffffffffffffffffffffffffff166001600060018461063b9190611953565b815260200190815260200160002060010160009054906101000a900473ffffffffffffffffffffffffffffffffffffffff1673ffffffffffffffffffffffffffffffffffffffff161415610699576001846106969190611953565b93505b80806106a490611aca565b915050610609565b5060008367ffffffffffffffff8111156106ef577f4e487b7100000000000000000000000000000000000000000000000000000000600052604160045260246000fd5b60405190808252806020026020018201604052801561072857816020015b61071561114b565b81526020019060019003908161070d5790505b50905060005b6000548110156109bf573373ffffffffffffffffffffffffffffffffffffffff16600160006001846107609190611953565b815260200190815260200160002060010160009054906101000a900473ffffffffffffffffffffffffffffffffffffffff1673ffffffffffffffffffffffffffffffffffffffff1614156109ac576001816107bb9190611953565b92506000600160008581526020019081526020016000209050806040518060e0016040529081600082015481526020016001820160009054906101000a900473ffffffffffffffffffffffffffffffffffffffff1673ffffffffffffffffffffffffffffffffffffffff1673ffffffffffffffffffffffffffffffffffffffff16815260200160028201805461085090611a67565b80601f016020809104026020016040519081016040528092919081815260200182805461087c90611a67565b80156108c95780601f1061089e576101008083540402835291602001916108c9565b820191906000526020600020905b8154815290600101906020018083116108ac57829003601f168201915b50505050508152602001600382015481526020016004820160009054906101000a900473ffffffffffffffffffffffffffffffffffffffff1673ffffffffffffffffffffffffffffffffffffffff1673ffffffffffffffffffffffffffffffffffffffff1681526020016004820160149054906101000a900460ff16151515158152602001600582015481525050838681518110610990577f4e487b7100000000000000000000000000000000000000000000000000000000600052603260045260246000fd5b60200260200101819052506001856109a89190611953565b9450505b80806109b790611aca565b91505061072e565b508094505050505090565b6004602052816000526040600020602052806000526040600020600091509150505481565b6000803411610a33576040517f08c379a0000000000000000000000000000000000000000000000000000000008152600401610a2a9061178f565b60405180910390fd5b346004600086815260200190815260200160002060003373ffffffffffffffffffffffffffffffffffffffff1673ffffffffffffffffffffffffffffffffffffffff1681526020019081526020016000206000828254610a939190611953565b925050819055506040518060e001604052808581526020018473ffffffffffffffffffffffffffffffffffffffff1681526020018381526020016004600087815260200190815260200160002060003373ffffffffffffffffffffffffffffffffffffffff1673ffffffffffffffffffffffffffffffffffffffff1681526020019081526020016000205481526020013373ffffffffffffffffffffffffffffffffffffffff16815260200160001515815260200142815250600160008681526020019081526020016000206000820151816000015560208201518160010160006101000a81548173ffffffffffffffffffffffffffffffffffffffff021916908373ffffffffffffffffffffffffffffffffffffffff1602179055506040820151816002019080519060200190610bcc9291906111b6565b506060820151816003015560808201518160040160006101000a81548173ffffffffffffffffffffffffffffffffffffffff021916908373ffffffffffffffffffffffffffffffffffffffff16021790555060a08201518160040160146101000a81548160ff02191690831515021790555060c08201518160050155905050600080815480929190610c5d90611aca565b91905055506005339080600181540180825580915050600190039060005260206000200160009091909190916101000a81548173ffffffffffffffffffffffffffffffffffffffff021916908373ffffffffffffffffffffffffffffffffffffffff16021790555060006001600580549050610cd991906119a9565b905060405180606001604052803481526020016000815260200182815250600360008781526020019081526020016000206000820151816000015560208201518160010155604082015181600201559050506001600580549050610d3d91906119a9565b600260003373ffffffffffffffffffffffffffffffffffffffff1673ffffffffffffffffffffffffffffffffffffffff168152602001908152602001600020600201819055507f81d2c188629cc4a1c694d285150cb5fa3dde3157a2684460d3ac7a1e331f61643334604051610db4929190611709565b60405180910390a160019150509392505050565b60005481565b6000610dd9336102f8565b610de257600080fd5b60006004600084815260200190815260200160002060003373ffffffffffffffffffffffffffffffffffffffff1673ffffffffffffffffffffffffffffffffffffffff168152602001908152602001600020541415610e76576040517f08c379a0000000000000000000000000000000000000000000000000000000008152600401610e6d906117af565b60405180910390fd5b826004600084815260200190815260200160002060003373ffffffffffffffffffffffffffffffffffffffff1673ffffffffffffffffffffffffffffffffffffffff168152602001908152602001600020541015610f09576040517f08c379a0000000000000000000000000000000000000000000000000000000008152600401610f009061176f565b60405180910390fd5b60006004600084815260200190815260200160002060003373ffffffffffffffffffffffffffffffffffffffff1673ffffffffffffffffffffffffffffffffffffffff1681526020019081526020016000205490507fe0e5873eb9d996d2ab087b071a9a50522121c02b43308c8728c06739f52b3f873385604051610f8f929190611709565b60405180910390a1808411611101573373ffffffffffffffffffffffffffffffffffffffff166108fc859081150290604051600060405180830381858888f19350505050158015610fe4573d6000803e3d6000fd5b50836004600085815260200190815260200160002060003373ffffffffffffffffffffffffffffffffffffffff1673ffffffffffffffffffffffffffffffffffffffff1681526020019081526020016000205461104191906119a9565b6004600085815260200190815260200160002060003373ffffffffffffffffffffffffffffffffffffffff1673ffffffffffffffffffffffffffffffffffffffff168152602001908152602001600020819055506004600084815260200190815260200160002060003373ffffffffffffffffffffffffffffffffffffffff1673ffffffffffffffffffffffffffffffffffffffff1681526020019081526020016000205460016000858152602001908152602001600020600301819055505b600191505092915050565b6005818154811061111c57600080fd5b906000526020600020016000915054906101000a900473ffffffffffffffffffffffffffffffffffffffff1681565b6040518060e0016040528060008152602001600073ffffffffffffffffffffffffffffffffffffffff1681526020016060815260200160008152602001600073ffffffffffffffffffffffffffffffffffffffff168152602001600015158152602001600081525090565b8280546111c290611a67565b90600052602060002090601f0160209004810192826111e4576000855561122b565b82601f106111fd57805160ff191683800117855561122b565b8280016001018555821561122b579182015b8281111561122a57825182559160200191906001019061120f565b5b509050611238919061123c565b5090565b5b8082111561125557600081600090555060010161123d565b5090565b600061126c611267846118bc565b611897565b90508281526020810184848401111561128457600080fd5b61128f848285611a25565b509392505050565b6000813590506112a681611c9e565b92915050565b6000813590506112bb81611cb5565b92915050565b600082601f8301126112d257600080fd5b81356112e2848260208601611259565b91505092915050565b6000813590506112fa81611ccc565b92915050565b60006020828403121561131257600080fd5b600061132084828501611297565b91505092915050565b60006020828403121561133b57600080fd5b6000611349848285016112eb565b91505092915050565b6000806040838503121561136557600080fd5b6000611373858286016112eb565b925050602061138485828601611297565b9150509250929050565b600080600080608085870312156113a457600080fd5b60006113b2878288016112eb565b94505060206113c387828801611297565b93505060406113d4878288016112ac565b92505060606113e5878288016112eb565b91505092959194509250565b60008060006060848603121561140657600080fd5b6000611414868287016112eb565b935050602061142586828701611297565b925050604084013567ffffffffffffffff81111561144257600080fd5b61144e868287016112c1565b9150509250925092565b6000806040838503121561146b57600080fd5b6000611479858286016112eb565b925050602061148a858286016112eb565b9150509250929050565b60006114a08383611634565b905092915050565b6114b1816119dd565b82525050565b6114c0816119dd565b82525050565b60006114d1826118fd565b6114db8185611920565b9350836020820285016114ed856118ed565b8060005b85811015611529578484038952815161150a8582611494565b945061151583611913565b925060208a019950506001810190506114f1565b50829750879550505050505092915050565b611544816119ef565b82525050565b611553816119ef565b82525050565b600061156482611908565b61156e8185611931565b935061157e818560208601611a34565b61158781611ba0565b840191505092915050565b600061159d82611908565b6115a78185611942565b93506115b7818560208601611a34565b6115c081611ba0565b840191505092915050565b60006115d8605183611942565b91506115e382611bb1565b606082019050919050565b60006115fb603883611942565b915061160682611c26565b604082019050919050565b600061161e601b83611942565b915061162982611c75565b602082019050919050565b600060e08301600083015161164c60008601826116d0565b50602083015161165f60208601826114a8565b50604083015184820360408601526116778282611559565b915050606083015161168c60608601826116d0565b50608083015161169f60808601826114a8565b5060a08301516116b260a086018261153b565b5060c08301516116c560c08601826116d0565b508091505092915050565b6116d981611a1b565b82525050565b6116e881611a1b565b82525050565b600060208201905061170360008301846114b7565b92915050565b600060408201905061171e60008301856114b7565b61172b60208301846116df565b9392505050565b6000602082019050818103600083015261174c81846114c6565b905092915050565b6000602082019050611769600083018461154a565b92915050565b60006020820190508181036000830152611788816115cb565b9050919050565b600060208201905081810360008301526117a8816115ee565b9050919050565b600060208201905081810360008301526117c881611611565b9050919050565b60006020820190506117e460008301846116df565b92915050565b600060e0820190506117ff600083018a6116df565b61180c60208301896114b7565b818103604083015261181e8188611592565b905061182d60608301876116df565b61183a60808301866114b7565b61184760a083018561154a565b61185460c08301846116df565b98975050505050505050565b600060608201905061187560008301866116df565b61188260208301856116df565b61188f60408301846116df565b949350505050565b60006118a16118b2565b90506118ad8282611a99565b919050565b6000604051905090565b600067ffffffffffffffff8211156118d7576118d6611b71565b5b6118e082611ba0565b9050602081019050919050565b6000819050602082019050919050565b600081519050919050565b600081519050919050565b6000602082019050919050565b600082825260208201905092915050565b600082825260208201905092915050565b600082825260208201905092915050565b600061195e82611a1b565b915061196983611a1b565b9250827fffffffffffffffffffffffffffffffffffffffffffffffffffffffffffffffff0382111561199e5761199d611b13565b5b828201905092915050565b60006119b482611a1b565b91506119bf83611a1b565b9250828210156119d2576119d1611b13565b5b828203905092915050565b60006119e8826119fb565b9050919050565b60008115159050919050565b600073ffffffffffffffffffffffffffffffffffffffff82169050919050565b6000819050919050565b82818337600083830152505050565b60005b83811015611a52578082015181840152602081019050611a37565b83811115611a61576000848401525b50505050565b60006002820490506001821680611a7f57607f821691505b60208210811415611a9357611a92611b42565b5b50919050565b611aa282611ba0565b810181811067ffffffffffffffff82111715611ac157611ac0611b71565b5b80604052505050565b6000611ad582611a1b565b91507fffffffffffffffffffffffffffffffffffffffffffffffffffffffffffffffff821415611b0857611b07611b13565b5b600182019050919050565b7f4e487b7100000000000000000000000000000000000000000000000000000000600052601160045260246000fd5b7f4e487b7100000000000000000000000000000000000000000000000000000000600052602260045260246000fd5b7f4e487b7100000000000000000000000000000000000000000000000000000000600052604160045260246000fd5b6000601f19601f8301169050919050565b7f416d6f756e742069732067726561746572207468616e207768617420796f752060008201527f68617665206f7220796f7520616c72656164792077697468647261776e20616c60208201527f6c206f6620796f7572206465706f736974000000000000000000000000000000604082015250565b7f596f75722062696464696e672076616c7565206d75737420626520677265617460008201527f6572207468616e207a65726f2c2074727920616761696e2e0000000000000000602082015250565b7f596f75206469646e277420626964206f6e2074686973206974656d0000000000600082015250565b611ca7816119dd565b8114611cb257600080fd5b50565b611cbe816119ef565b8114611cc957600080fd5b50565b611cd581611a1b565b8114611ce057600080fd5b5056fea2646970667358221220d4d5908d6328d3c1b949d2acba5bd2cfeb87a256f89b7d2dfc73922d62b1586064736f6c63430008010033",
  "linkReferences": {},
  "deployedLinkReferences": {}
}