{
  "_format": "hh-sol-artifact-1",
  "contractName": "IP",
  "sourceName": "contracts/IP.sol",
  "abi": [
    {
      "inputs": [],
      "stateMutability": "nonpayable",
      "type": "constructor"
    },
    {
      "inputs": [],
      "name": "AllIps",
      "outputs": [
        {
          "components": [
            {
              "internalType": "address",
              "name": "user",
              "type": "address"
            },
            {
              "internalType": "string",
              "name": "IPname",
              "type": "string"
            },
            {
              "internalType": "string",
              "name": "fullname",
              "type": "string"
            },
            {
              "internalType": "string",
              "name": "country",
              "type": "string"
            },
            {
              "internalType": "string",
              "name": "addressplace",
              "type": "string"
            },
            {
              "internalType": "string",
              "name": "allIpInfoURL",
              "type": "string"
            },
            {
              "internalType": "uint256",
              "name": "timestamp",
              "type": "uint256"
            },
            {
              "internalType": "enum IP.Status[]",
              "name": "status",
              "type": "uint8[]"
            },
            {
              "internalType": "bool",
              "name": "isRegistered",
              "type": "bool"
            }
          ],
          "internalType": "struct IP.IParameter[]",
          "name": "",
          "type": "tuple[]"
        }
      ],
      "stateMutability": "view",
      "type": "function"
    },
    {
      "inputs": [
        {
          "internalType": "uint256",
          "name": "",
          "type": "uint256"
        }
      ],
      "name": "acceptedIps",
      "outputs": [
        {
          "internalType": "uint256",
          "name": "",
          "type": "uint256"
        }
      ],
      "stateMutability": "view",
      "type": "function"
    },
    {
      "inputs": [],
      "name": "bidCount",
      "outputs": [
        {
          "internalType": "uint256",
          "name": "",
          "type": "uint256"
        }
      ],
      "stateMutability": "view",
      "type": "function"
    },
    {
      "inputs": [
        {
          "internalType": "uint256",
          "name": "i",
          "type": "uint256"
        },
        {
          "internalType": "enum IP.Status",
          "name": "val",
          "type": "uint8"
        }
      ],
      "name": "changeStatus",
      "outputs": [
        {
          "internalType": "bool",
          "name": "",
          "type": "bool"
        }
      ],
      "stateMutability": "nonpayable",
      "type": "function"
    },
    {
      "inputs": [
        {
          "internalType": "uint256",
          "name": "i",
          "type": "uint256"
        }
      ],
      "name": "conditionStatus",
      "outputs": [],
      "stateMutability": "nonpayable",
      "type": "function"
    },
    {
      "inputs": [],
      "name": "countAcceptedIPs",
      "outputs": [
        {
          "internalType": "uint256",
          "name": "",
          "type": "uint256"
        }
      ],
      "stateMutability": "view",
      "type": "function"
    },
    {
      "inputs": [
        {
          "internalType": "address",
          "name": "_address",
          "type": "address"
        }
      ],
      "name": "countBids",
      "outputs": [
        {
          "internalType": "uint256",
          "name": "",
          "type": "uint256"
        }
      ],
      "stateMutability": "view",
      "type": "function"
    },
    {
      "inputs": [],
      "name": "countPendingIPs",
      "outputs": [
        {
          "internalType": "uint256",
          "name": "",
          "type": "uint256"
        }
      ],
      "stateMutability": "view",
      "type": "function"
    },
    {
      "inputs": [],
      "name": "countRejectedIPs",
      "outputs": [
        {
          "internalType": "uint256",
          "name": "",
          "type": "uint256"
        }
      ],
      "stateMutability": "view",
      "type": "function"
    },
    {
      "inputs": [
        {
          "internalType": "uint256",
          "name": "i",
          "type": "uint256"
        }
      ],
      "name": "getIP",
      "outputs": [
        {
          "internalType": "string",
          "name": "",
          "type": "string"
        },
        {
          "internalType": "string",
          "name": "",
          "type": "string"
        },
        {
          "internalType": "string",
          "name": "",
          "type": "string"
        },
        {
          "internalType": "string",
          "name": "",
          "type": "string"
        },
        {
          "internalType": "string",
          "name": "",
          "type": "string"
        }
      ],
      "stateMutability": "view",
      "type": "function"
    },
    {
      "inputs": [
        {
          "internalType": "uint256",
          "name": "i",
          "type": "uint256"
        }
      ],
      "name": "getStatus",
      "outputs": [
        {
          "internalType": "enum IP.Status",
          "name": "status",
          "type": "uint8"
        }
      ],
      "stateMutability": "view",
      "type": "function"
    },
    {
      "inputs": [
        {
          "internalType": "address",
          "name": "_address",
          "type": "address"
        }
      ],
      "name": "getbidderinfo",
      "outputs": [
        {
          "components": [
            {
              "internalType": "string",
              "name": "ownerIPname",
              "type": "string"
            },
            {
              "internalType": "uint256",
              "name": "bidValue",
              "type": "uint256"
            },
            {
              "internalType": "address",
              "name": "bidderAddress",
              "type": "address"
            }
          ],
          "internalType": "struct IP.IPowner[]",
          "name": "",
          "type": "tuple[]"
        }
      ],
      "stateMutability": "view",
      "type": "function"
    },
    {
      "inputs": [],
      "name": "ipCount",
      "outputs": [
        {
          "internalType": "uint256",
          "name": "",
          "type": "uint256"
        }
      ],
      "stateMutability": "view",
      "type": "function"
    },
    {
      "inputs": [
        {
          "internalType": "address",
          "name": "",
          "type": "address"
        },
        {
          "internalType": "uint256",
          "name": "",
          "type": "uint256"
        }
      ],
      "name": "ipowner",
      "outputs": [
        {
          "internalType": "string",
          "name": "ownerIPname",
          "type": "string"
        },
        {
          "internalType": "uint256",
          "name": "bidValue",
          "type": "uint256"
        },
        {
          "internalType": "address",
          "name": "bidderAddress",
          "type": "address"
        }
      ],
      "stateMutability": "view",
      "type": "function"
    },
    {
      "inputs": [
        {
          "internalType": "uint256",
          "name": "index",
          "type": "uint256"
        },
        {
          "internalType": "address",
          "name": "owneradd",
          "type": "address"
        },
        {
          "internalType": "string",
          "name": "tokenURI",
          "type": "string"
        }
      ],
      "name": "mintnft",
      "outputs": [
        {
          "internalType": "uint256",
          "name": "",
          "type": "uint256"
        }
      ],
      "stateMutability": "nonpayable",
      "type": "function"
    },
    {
      "inputs": [],
      "name": "nameOfnft",
      "outputs": [
        {
          "internalType": "string",
          "name": "",
          "type": "string"
        }
      ],
      "stateMutability": "view",
      "type": "function"
    },
    {
      "inputs": [],
      "name": "owner",
      "outputs": [
        {
          "internalType": "address",
          "name": "",
          "type": "address"
        }
      ],
      "stateMutability": "view",
      "type": "function"
    },
    {
      "inputs": [
        {
          "internalType": "uint256",
          "name": "tokenId",
          "type": "uint256"
        }
      ],
      "name": "ownerOfnft",
      "outputs": [
        {
          "internalType": "address",
          "name": "",
          "type": "address"
        }
      ],
      "stateMutability": "view",
      "type": "function"
    },
    {
      "inputs": [
        {
          "internalType": "uint256",
          "name": "",
          "type": "uint256"
        }
      ],
      "name": "pendingIps",
      "outputs": [
        {
          "internalType": "uint256",
          "name": "",
          "type": "uint256"
        }
      ],
      "stateMutability": "view",
      "type": "function"
    },
    {
      "inputs": [
        {
          "internalType": "uint256",
          "name": "",
          "type": "uint256"
        }
      ],
      "name": "property",
      "outputs": [
        {
          "internalType": "address",
          "name": "user",
          "type": "address"
        },
        {
          "internalType": "string",
          "name": "IPname",
          "type": "string"
        },
        {
          "internalType": "string",
          "name": "fullname",
          "type": "string"
        },
        {
          "internalType": "string",
          "name": "country",
          "type": "string"
        },
        {
          "internalType": "string",
          "name": "addressplace",
          "type": "string"
        },
        {
          "internalType": "string",
          "name": "allIpInfoURL",
          "type": "string"
        },
        {
          "internalType": "uint256",
          "name": "timestamp",
          "type": "uint256"
        },
        {
          "internalType": "bool",
          "name": "isRegistered",
          "type": "bool"
        }
      ],
      "stateMutability": "view",
      "type": "function"
    },
    {
      "inputs": [
        {
          "internalType": "uint256",
          "name": "",
          "type": "uint256"
        }
      ],
      "name": "rejectedIps",
      "outputs": [
        {
          "internalType": "uint256",
          "name": "",
          "type": "uint256"
        }
      ],
      "stateMutability": "view",
      "type": "function"
    },
    {
      "inputs": [
        {
          "internalType": "uint256",
          "name": "_index",
          "type": "uint256"
        }
      ],
      "name": "removeAccepted",
      "outputs": [],
      "stateMutability": "nonpayable",
      "type": "function"
    },
    {
      "inputs": [
        {
          "internalType": "uint256",
          "name": "_index",
          "type": "uint256"
        }
      ],
      "name": "removePending",
      "outputs": [],
      "stateMutability": "nonpayable",
      "type": "function"
    },
    {
      "inputs": [
        {
          "internalType": "uint256",
          "name": "_index",
          "type": "uint256"
        }
      ],
      "name": "removeRejected",
      "outputs": [],
      "stateMutability": "nonpayable",
      "type": "function"
    },
    {
      "inputs": [],
      "name": "result",
      "outputs": [
        {
          "internalType": "string",
          "name": "",
          "type": "string"
        }
      ],
      "stateMutability": "view",
      "type": "function"
    },
    {
      "inputs": [
        {
          "internalType": "address",
          "name": "from",
          "type": "address"
        },
        {
          "internalType": "address",
          "name": "to",
          "type": "address"
        },
        {
          "internalType": "uint256",
          "name": "tokenId",
          "type": "uint256"
        },
        {
          "internalType": "bytes",
          "name": "data",
          "type": "bytes"
        }
      ],
      "name": "safeTransferFrom",
      "outputs": [],
      "stateMutability": "nonpayable",
      "type": "function"
    },
    {
      "inputs": [
        {
          "internalType": "address",
          "name": "_address",
          "type": "address"
        },
        {
          "internalType": "string",
          "name": "_IPname",
          "type": "string"
        },
        {
          "internalType": "string",
          "name": "_fullname",
          "type": "string"
        },
        {
          "internalType": "string",
          "name": "_country",
          "type": "string"
        },
        {
          "internalType": "string",
          "name": "_addressplace",
          "type": "string"
        },
        {
          "internalType": "string",
          "name": "_allIpInfoURL",
          "type": "string"
        }
      ],
      "name": "setIP",
      "outputs": [],
      "stateMutability": "nonpayable",
      "type": "function"
    },
    {
      "inputs": [
        {
          "internalType": "address",
          "name": "_address",
          "type": "address"
        },
        {
          "internalType": "string",
          "name": "_ownerIPname",
          "type": "string"
        },
        {
          "internalType": "uint256",
          "name": "_bidvalue",
          "type": "uint256"
        },
        {
          "internalType": "address",
          "name": "_bidderaddress",
          "type": "address"
        }
      ],
      "name": "setIPbidder1",
      "outputs": [],
      "stateMutability": "nonpayable",
      "type": "function"
    },
    {
      "inputs": [],
      "name": "symbolOfnft",
      "outputs": [
        {
          "internalType": "string",
          "name": "",
          "type": "string"
        }
      ],
      "stateMutability": "view",
      "type": "function"
    }
  ],
  "bytecode": "0x6080604052604051620000129062000140565b604051809103906000f0801580156200002f573d6000803e3d6000fd5b506000806101000a81548173ffffffffffffffffffffffffffffffffffffffff021916908373ffffffffffffffffffffffffffffffffffffffff1602179055506040516200007d906200014e565b604051809103906000f0801580156200009a573d6000803e3d6000fd5b50600160006101000a81548173ffffffffffffffffffffffffffffffffffffffff021916908373ffffffffffffffffffffffffffffffffffffffff160217905550348015620000e857600080fd5b5033600260006101000a81548173ffffffffffffffffffffffffffffffffffffffff021916908373ffffffffffffffffffffffffffffffffffffffff16021790555060006005819055506000600a819055506200015c565b612a4e806200562e83390190565b61123b806200807c83390190565b6154c2806200016c6000396000f3fe608060405234801561001057600080fd5b50600436106101cf5760003560e01c80636fa6bd4711610104578063b13d3ecc116100a2578063cea62a1b11610071578063cea62a1b14610577578063d5606fbf14610595578063ebc0ba6d146105c5578063fb645bd8146105f5576101cf565b8063b13d3ecc146104f1578063b40a56271461050d578063b88d4fde1461052b578063c5a8a2ab14610547576101cf565b806396a4d5c4116100de57806396a4d5c4146104575780639c8228a114610487578063a5bfeaa8146104a5578063a62e9152146104d5576101cf565b80636fa6bd47146103e95780638da5cb5b1461041b578063907e67fe14610439576101cf565b8063436aa76c11610171578063612cba671161014b578063612cba671461036357806363817a101461037f57806365372147146103af5780636b9eca4c146103cd576101cf565b8063436aa76c146102e157806343c682e7146103155780635c622a0e14610333576101cf565b806327bbc10d116101ad57806327bbc10d1461024057806330e1ad321461027057806334020f4b146102a757806338d5d325146102c5576101cf565b806302000bd4146101d457806319db8a05146101f25780631cdaea2214610210575b600080fd5b6101dc610611565b6040516101e99190614dd1565b60405180910390f35b6101fa61061e565b6040516102079190614c5b565b60405180910390f35b61022a600480360381019061022591906143f3565b6106c8565b6040516102379190614dd1565b60405180910390f35b61025a600480360381019061025591906143f3565b6106ec565b6040516102679190614dd1565b60405180910390f35b61028a600480360381019061028591906143f3565b610710565b60405161029e989796959493929190614b40565b60405180910390f35b6102af610a2d565b6040516102bc9190614dd1565b60405180910390f35b6102df60048036038101906102da91906143f3565b610a3a565b005b6102fb60048036038101906102f691906143f3565b610b9e565b60405161030c959493929190614c7d565b60405180910390f35b61031d610ffe565b60405161032a9190614be1565b60405180910390f35b61034d600480360381019061034891906143f3565b611513565b60405161035a9190614c40565b60405180910390f35b61037d600480360381019061037891906143f3565b6115a0565b005b61039960048036038101906103949190614445565b612f04565b6040516103a69190614dd1565b60405180910390f35b6103b76130fd565b6040516103c49190614c5b565b60405180910390f35b6103e760048036038101906103e291906141d1565b61318b565b005b61040360048036038101906103fe919061434d565b61340d565b60405161041293929190614cf3565b60405180910390f35b6104236134fc565b6040516104309190614aa9565b60405180910390f35b610441613522565b60405161044e9190614dd1565b60405180910390f35b610471600480360381019061046c9190614104565b613528565b60405161047e9190614c03565b60405180910390f35b61048f6136b8565b60405161049c9190614c5b565b60405180910390f35b6104bf60048036038101906104ba9190614104565b613762565b6040516104cc9190614dd1565b60405180910390f35b6104ef60048036038101906104ea91906142d2565b6137ae565b005b61050b600480360381019061050691906143f3565b6138d5565b005b610515613a39565b6040516105229190614dd1565b60405180910390f35b61054560048036038101906105409190614156565b613a3f565b005b610561600480360381019061055c91906144ac565b613ad6565b60405161056e9190614c25565b60405180910390f35b61057f613bff565b60405161058c9190614dd1565b60405180910390f35b6105af60048036038101906105aa91906143f3565b613c0c565b6040516105bc9190614dd1565b60405180910390f35b6105df60048036038101906105da91906143f3565b613c30565b6040516105ec9190614aa9565b60405180910390f35b61060f600480360381019061060a91906143f3565b613ce3565b005b6000600780549050905090565b606060008054906101000a900473ffffffffffffffffffffffffffffffffffffffff1673ffffffffffffffffffffffffffffffffffffffff166306fdde036040518163ffffffff1660e01b815260040160006040518083038186803b15801561068657600080fd5b505afa15801561069a573d6000803e3d6000fd5b505050506040513d6000823e3d601f19601f820116820180604052508101906106c391906143b2565b905090565b600981815481106106d857600080fd5b906000526020600020016000915090505481565b600781815481106106fc57600080fd5b906000526020600020016000915090505481565b60066020528060005260406000206000915090508060000160009054906101000a900473ffffffffffffffffffffffffffffffffffffffff169080600101805461075990615123565b80601f016020809104026020016040519081016040528092919081815260200182805461078590615123565b80156107d25780601f106107a7576101008083540402835291602001916107d2565b820191906000526020600020905b8154815290600101906020018083116107b557829003601f168201915b5050505050908060020180546107e790615123565b80601f016020809104026020016040519081016040528092919081815260200182805461081390615123565b80156108605780601f1061083557610100808354040283529160200191610860565b820191906000526020600020905b81548152906001019060200180831161084357829003601f168201915b50505050509080600301805461087590615123565b80601f01602080910402602001604051908101604052809291908181526020018280546108a190615123565b80156108ee5780601f106108c3576101008083540402835291602001916108ee565b820191906000526020600020905b8154815290600101906020018083116108d157829003601f168201915b50505050509080600401805461090390615123565b80601f016020809104026020016040519081016040528092919081815260200182805461092f90615123565b801561097c5780601f106109515761010080835404028352916020019161097c565b820191906000526020600020905b81548152906001019060200180831161095f57829003601f168201915b50505050509080600501805461099190615123565b80601f01602080910402602001604051908101604052809291908181526020018280546109bd90615123565b8015610a0a5780601f106109df57610100808354040283529160200191610a0a565b820191906000526020600020905b8154815290600101906020018083116109ed57829003601f168201915b5050505050908060060154908060080160009054906101000a900460ff16905088565b6000600880549050905090565b6009805490508110610a81576040517f08c379a0000000000000000000000000000000000000000000000000000000008152600401610a7890614db1565b60405180910390fd5b60008190505b6001600980549050610a999190615036565b811015610b4c576009600182610aaf9190614fe0565b81548110610ae6577f4e487b7100000000000000000000000000000000000000000000000000000000600052603260045260246000fd5b906000526020600020015460098281548110610b2b577f4e487b7100000000000000000000000000000000000000000000000000000000600052603260045260246000fd5b90600052602060002001819055508080610b44906151a0565b915050610a87565b506009805480610b85577f4e487b7100000000000000000000000000000000000000000000000000000000600052603160045260246000fd5b6001900381819060005260206000200160009055905550565b6060806060806060600060066000888152602001908152602001600020604051806101200160405290816000820160009054906101000a900473ffffffffffffffffffffffffffffffffffffffff1673ffffffffffffffffffffffffffffffffffffffff1673ffffffffffffffffffffffffffffffffffffffff168152602001600182018054610c2d90615123565b80601f0160208091040260200160405190810160405280929190818152602001828054610c5990615123565b8015610ca65780601f10610c7b57610100808354040283529160200191610ca6565b820191906000526020600020905b815481529060010190602001808311610c8957829003601f168201915b50505050508152602001600282018054610cbf90615123565b80601f0160208091040260200160405190810160405280929190818152602001828054610ceb90615123565b8015610d385780601f10610d0d57610100808354040283529160200191610d38565b820191906000526020600020905b815481529060010190602001808311610d1b57829003601f168201915b50505050508152602001600382018054610d5190615123565b80601f0160208091040260200160405190810160405280929190818152602001828054610d7d90615123565b8015610dca5780601f10610d9f57610100808354040283529160200191610dca565b820191906000526020600020905b815481529060010190602001808311610dad57829003601f168201915b50505050508152602001600482018054610de390615123565b80601f0160208091040260200160405190810160405280929190818152602001828054610e0f90615123565b8015610e5c5780601f10610e3157610100808354040283529160200191610e5c565b820191906000526020600020905b815481529060010190602001808311610e3f57829003601f168201915b50505050508152602001600582018054610e7590615123565b80601f0160208091040260200160405190810160405280929190818152602001828054610ea190615123565b8015610eee5780601f10610ec357610100808354040283529160200191610eee565b820191906000526020600020905b815481529060010190602001808311610ed157829003601f168201915b505050505081526020016006820154815260200160078201805480602002602001604051908101604052809291908181526020018280548015610fab57602002820191906000526020600020906000905b82829054906101000a900460ff166002811115610f85577f4e487b7100000000000000000000000000000000000000000000000000000000600052602160045260246000fd5b81526020019060010190602082600001049283019260010382029150808411610f3f5790505b505050505081526020016008820160009054906101000a900460ff161515151581525050905080602001518160400151826060015183608001518460a00151955095509550955095505091939590929450565b6060600060055467ffffffffffffffff811115611044577f4e487b7100000000000000000000000000000000000000000000000000000000600052604160045260246000fd5b60405190808252806020026020018201604052801561107d57816020015b61106a613e47565b8152602001906001900390816110625790505b50905060005b60055481101561150b5760066000828152602001908152602001600020604051806101200160405290816000820160009054906101000a900473ffffffffffffffffffffffffffffffffffffffff1673ffffffffffffffffffffffffffffffffffffffff1673ffffffffffffffffffffffffffffffffffffffff16815260200160018201805461111290615123565b80601f016020809104026020016040519081016040528092919081815260200182805461113e90615123565b801561118b5780601f106111605761010080835404028352916020019161118b565b820191906000526020600020905b81548152906001019060200180831161116e57829003601f168201915b505050505081526020016002820180546111a490615123565b80601f01602080910402602001604051908101604052809291908181526020018280546111d090615123565b801561121d5780601f106111f25761010080835404028352916020019161121d565b820191906000526020600020905b81548152906001019060200180831161120057829003601f168201915b5050505050815260200160038201805461123690615123565b80601f016020809104026020016040519081016040528092919081815260200182805461126290615123565b80156112af5780601f10611284576101008083540402835291602001916112af565b820191906000526020600020905b81548152906001019060200180831161129257829003601f168201915b505050505081526020016004820180546112c890615123565b80601f01602080910402602001604051908101604052809291908181526020018280546112f490615123565b80156113415780601f1061131657610100808354040283529160200191611341565b820191906000526020600020905b81548152906001019060200180831161132457829003601f168201915b5050505050815260200160058201805461135a90615123565b80601f016020809104026020016040519081016040528092919081815260200182805461138690615123565b80156113d35780601f106113a8576101008083540402835291602001916113d3565b820191906000526020600020905b8154815290600101906020018083116113b657829003601f168201915b50505050508152602001600682015481526020016007820180548060200260200160405190810160405280929190818152602001828054801561149057602002820191906000526020600020906000905b82829054906101000a900460ff16600281111561146a577f4e487b7100000000000000000000000000000000000000000000000000000000600052602160045260246000fd5b815260200190600101906020826000010492830192600103820291508084116114245790505b505050505081526020016008820160009054906101000a900460ff1615151515815250508282815181106114ed577f4e487b7100000000000000000000000000000000000000000000000000000000600052603260045260246000fd5b60200260200101819052508080611503906151a0565b915050611083565b508091505090565b600060066000838152602001908152602001600020600701600460008481526020019081526020016000206000015481548110611579577f4e487b7100000000000000000000000000000000000000000000000000000000600052603260045260246000fd5b90600052602060002090602091828204019190069054906101000a900460ff169050919050565b600060046000838152602001908152602001600020600001549050600160028111156115f5577f4e487b7100000000000000000000000000000000000000000000000000000000600052602160045260246000fd5b600660008481526020019081526020016000206007018281548110611643577f4e487b7100000000000000000000000000000000000000000000000000000000600052603260045260246000fd5b90600052602060002090602091828204019190069054906101000a900460ff16600281111561169b577f4e487b7100000000000000000000000000000000000000000000000000000000600052602160045260246000fd5b1415611e0f576000600160009054906101000a900473ffffffffffffffffffffffffffffffffffffffff1673ffffffffffffffffffffffffffffffffffffffff166319d5880c8460076040518363ffffffff1660e01b8152600401611701929190614dec565b60206040518083038186803b15801561171957600080fd5b505afa15801561172d573d6000803e3d6000fd5b505050506040513d601f19601f820116820180604052508101906117519190614389565b905060016040516020016117659190614a62565b604051602081830303815290604052805190602001208160405160200161178c9190614a62565b6040516020818303038152906040528051906020012014156117e3576040517f08c379a00000000000000000000000000000000000000000000000000000000081526004016117da90614d51565b60405180910390fd5b60078390806001815401808255809150506001900390600052602060002001600090919091909150556000600160009054906101000a900473ffffffffffffffffffffffffffffffffffffffff1673ffffffffffffffffffffffffffffffffffffffff166321772a448560086040518363ffffffff1660e01b815260040161186c929190614dec565b60006040518083038186803b15801561188457600080fd5b505afa158015611898573d6000803e3d6000fd5b505050506040513d6000823e3d601f19601f820116820180604052508101906118c191906143b2565b90506000600160009054906101000a900473ffffffffffffffffffffffffffffffffffffffff1673ffffffffffffffffffffffffffffffffffffffff1663a28a34808660096040518363ffffffff1660e01b8152600401611923929190614dec565b60006040518083038186803b15801561193b57600080fd5b505afa15801561194f573d6000803e3d6000fd5b505050506040513d6000823e3d601f19601f8201168201806040525081019061197891906143b2565b905060405160200161198990614a94565b60405160208183030381529060405280519060200120826040516020016119b09190614a7d565b6040516020818303038152906040528051906020012014158015611a1e57506040516020016119de90614a94565b6040516020818303038152906040528051906020012081604051602001611a059190614a7d565b6040516020818303038152906040528051906020012014155b15611b9a576000600160009054906101000a900473ffffffffffffffffffffffffffffffffffffffff1673ffffffffffffffffffffffffffffffffffffffff166379cd9055846040518263ffffffff1660e01b8152600401611a809190614c5b565b60206040518083038186803b158015611a9857600080fd5b505afa158015611aac573d6000803e3d6000fd5b505050506040513d601f19601f82011682018060405250810190611ad0919061441c565b90506000600160009054906101000a900473ffffffffffffffffffffffffffffffffffffffff1673ffffffffffffffffffffffffffffffffffffffff166379cd9055846040518263ffffffff1660e01b8152600401611b2f9190614c5b565b60206040518083038186803b158015611b4757600080fd5b505afa158015611b5b573d6000803e3d6000fd5b505050506040513d601f19601f82011682018060405250810190611b7f919061441c565b9050611b8a826138d5565b611b9381610a3a565b5050611e07565b604051602001611ba990614a94565b6040516020818303038152906040528051906020012082604051602001611bd09190614a7d565b6040516020818303038152906040528051906020012014611ca9576000600160009054906101000a900473ffffffffffffffffffffffffffffffffffffffff1673ffffffffffffffffffffffffffffffffffffffff166379cd9055846040518263ffffffff1660e01b8152600401611c489190614c5b565b60206040518083038186803b158015611c6057600080fd5b505afa158015611c74573d6000803e3d6000fd5b505050506040513d601f19601f82011682018060405250810190611c98919061441c565b9050611ca3816138d5565b50611e06565b604051602001611cb890614a94565b6040516020818303038152906040528051906020012081604051602001611cdf9190614a7d565b6040516020818303038152906040528051906020012014611db8576000600160009054906101000a900473ffffffffffffffffffffffffffffffffffffffff1673ffffffffffffffffffffffffffffffffffffffff166379cd9055836040518263ffffffff1660e01b8152600401611d579190614c5b565b60206040518083038186803b158015611d6f57600080fd5b505afa158015611d83573d6000803e3d6000fd5b505050506040513d601f19601f82011682018060405250810190611da7919061441c565b9050611db281610a3a565b50611e05565b6040518060400160405280600981526020017f6e6f7420666f756e64000000000000000000000000000000000000000000000081525060039080519060200190611e03929190613eab565b505b5b5b505050612f00565b60006002811115611e49577f4e487b7100000000000000000000000000000000000000000000000000000000600052602160045260246000fd5b600660008481526020019081526020016000206007018281548110611e97577f4e487b7100000000000000000000000000000000000000000000000000000000600052603260045260246000fd5b90600052602060002090602091828204019190069054906101000a900460ff166002811115611eef577f4e487b7100000000000000000000000000000000000000000000000000000000600052602160045260246000fd5b14156126af576000600160009054906101000a900473ffffffffffffffffffffffffffffffffffffffff1673ffffffffffffffffffffffffffffffffffffffff166332a5d1708460086040518363ffffffff1660e01b8152600401611f55929190614dec565b60206040518083038186803b158015611f6d57600080fd5b505afa158015611f81573d6000803e3d6000fd5b505050506040513d601f19601f82011682018060405250810190611fa59190614389565b90506001604051602001611fb99190614a62565b6040516020818303038152906040528051906020012081604051602001611fe09190614a62565b604051602081830303815290604052805190602001201415612037576040517f08c379a000000000000000000000000000000000000000000000000000000000815260040161202e90614d71565b60405180910390fd5b60088390806001815401808255809150506001900390600052602060002001600090919091909150556000600160009054906101000a900473ffffffffffffffffffffffffffffffffffffffff1673ffffffffffffffffffffffffffffffffffffffff1663d25a84eb8560076040518363ffffffff1660e01b81526004016120c0929190614dec565b60006040518083038186803b1580156120d857600080fd5b505afa1580156120ec573d6000803e3d6000fd5b505050506040513d6000823e3d601f19601f8201168201806040525081019061211591906143b2565b90506000600160009054906101000a900473ffffffffffffffffffffffffffffffffffffffff1673ffffffffffffffffffffffffffffffffffffffff1663a28a34808660096040518363ffffffff1660e01b8152600401612177929190614dec565b60006040518083038186803b15801561218f57600080fd5b505afa1580156121a3573d6000803e3d6000fd5b505050506040513d6000823e3d601f19601f820116820180604052508101906121cc91906143b2565b90506040516020016121dd90614a94565b60405160208183030381529060405280519060200120826040516020016122049190614a7d565b6040516020818303038152906040528051906020012014158015612272575060405160200161223290614a94565b60405160208183030381529060405280519060200120816040516020016122599190614a7d565b6040516020818303038152906040528051906020012014155b156123ee576000600160009054906101000a900473ffffffffffffffffffffffffffffffffffffffff1673ffffffffffffffffffffffffffffffffffffffff166379cd9055846040518263ffffffff1660e01b81526004016122d49190614c5b565b60206040518083038186803b1580156122ec57600080fd5b505afa158015612300573d6000803e3d6000fd5b505050506040513d601f19601f82011682018060405250810190612324919061441c565b90506000600160009054906101000a900473ffffffffffffffffffffffffffffffffffffffff1673ffffffffffffffffffffffffffffffffffffffff166379cd9055846040518263ffffffff1660e01b81526004016123839190614c5b565b60206040518083038186803b15801561239b57600080fd5b505afa1580156123af573d6000803e3d6000fd5b505050506040513d601f19601f820116820180604052508101906123d3919061441c565b90506123de82613ce3565b6123e781610a3a565b50506126a7565b6040516020016123fd90614a94565b60405160208183030381529060405280519060200120826040516020016124249190614a7d565b6040516020818303038152906040528051906020012014612549576000600160009054906101000a900473ffffffffffffffffffffffffffffffffffffffff1673ffffffffffffffffffffffffffffffffffffffff166379cd9055846040518263ffffffff1660e01b815260040161249c9190614c5b565b60206040518083038186803b1580156124b457600080fd5b505afa1580156124c8573d6000803e3d6000fd5b505050506040513d601f19601f820116820180604052508101906124ec919061441c565b90506124f781613ce3565b6040518060400160405280600381526020017f6f6e65000000000000000000000000000000000000000000000000000000000081525060039080519060200190612542929190613eab565b50506126a6565b60405160200161255890614a94565b604051602081830303815290604052805190602001208160405160200161257f9190614a7d565b6040516020818303038152906040528051906020012014612658576000600160009054906101000a900473ffffffffffffffffffffffffffffffffffffffff1673ffffffffffffffffffffffffffffffffffffffff166379cd9055836040518263ffffffff1660e01b81526004016125f79190614c5b565b60206040518083038186803b15801561260f57600080fd5b505afa158015612623573d6000803e3d6000fd5b505050506040513d601f19601f82011682018060405250810190612647919061441c565b905061265281610a3a565b506126a5565b6040518060400160405280600981526020017f6e6f7420666f756e640000000000000000000000000000000000000000000000815250600390805190602001906126a3929190613eab565b505b5b5b505050612eff565b6002808111156126e8577f4e487b7100000000000000000000000000000000000000000000000000000000600052602160045260246000fd5b600660008481526020019081526020016000206007018281548110612736577f4e487b7100000000000000000000000000000000000000000000000000000000600052603260045260246000fd5b90600052602060002090602091828204019190069054906101000a900460ff16600281111561278e577f4e487b7100000000000000000000000000000000000000000000000000000000600052602160045260246000fd5b1415612efe576000600160009054906101000a900473ffffffffffffffffffffffffffffffffffffffff1673ffffffffffffffffffffffffffffffffffffffff16637ef1cd4b8460096040518363ffffffff1660e01b81526004016127f4929190614dec565b60206040518083038186803b15801561280c57600080fd5b505afa158015612820573d6000803e3d6000fd5b505050506040513d601f19601f820116820180604052508101906128449190614389565b905060016040516020016128589190614a62565b604051602081830303815290604052805190602001208160405160200161287f9190614a62565b6040516020818303038152906040528051906020012014156128d6576040517f08c379a00000000000000000000000000000000000000000000000000000000081526004016128cd90614d91565b60405180910390fd5b60098390806001815401808255809150506001900390600052602060002001600090919091909150556000600160009054906101000a900473ffffffffffffffffffffffffffffffffffffffff1673ffffffffffffffffffffffffffffffffffffffff1663d25a84eb8560076040518363ffffffff1660e01b815260040161295f929190614dec565b60006040518083038186803b15801561297757600080fd5b505afa15801561298b573d6000803e3d6000fd5b505050506040513d6000823e3d601f19601f820116820180604052508101906129b491906143b2565b90506000600160009054906101000a900473ffffffffffffffffffffffffffffffffffffffff1673ffffffffffffffffffffffffffffffffffffffff166321772a448660086040518363ffffffff1660e01b8152600401612a16929190614dec565b60006040518083038186803b158015612a2e57600080fd5b505afa158015612a42573d6000803e3d6000fd5b505050506040513d6000823e3d601f19601f82011682018060405250810190612a6b91906143b2565b9050604051602001612a7c90614a94565b6040516020818303038152906040528051906020012082604051602001612aa39190614a7d565b6040516020818303038152906040528051906020012014158015612b115750604051602001612ad190614a94565b6040516020818303038152906040528051906020012081604051602001612af89190614a7d565b6040516020818303038152906040528051906020012014155b15612c8d576000600160009054906101000a900473ffffffffffffffffffffffffffffffffffffffff1673ffffffffffffffffffffffffffffffffffffffff166379cd9055846040518263ffffffff1660e01b8152600401612b739190614c5b565b60206040518083038186803b158015612b8b57600080fd5b505afa158015612b9f573d6000803e3d6000fd5b505050506040513d601f19601f82011682018060405250810190612bc3919061441c565b90506000600160009054906101000a900473ffffffffffffffffffffffffffffffffffffffff1673ffffffffffffffffffffffffffffffffffffffff166379cd9055846040518263ffffffff1660e01b8152600401612c229190614c5b565b60206040518083038186803b158015612c3a57600080fd5b505afa158015612c4e573d6000803e3d6000fd5b505050506040513d601f19601f82011682018060405250810190612c72919061441c565b9050612c7d82613ce3565b612c86816138d5565b5050612efa565b604051602001612c9c90614a94565b6040516020818303038152906040528051906020012082604051602001612cc39190614a7d565b6040516020818303038152906040528051906020012014612d9c576000600160009054906101000a900473ffffffffffffffffffffffffffffffffffffffff1673ffffffffffffffffffffffffffffffffffffffff166379cd9055846040518263ffffffff1660e01b8152600401612d3b9190614c5b565b60206040518083038186803b158015612d5357600080fd5b505afa158015612d67573d6000803e3d6000fd5b505050506040513d601f19601f82011682018060405250810190612d8b919061441c565b9050612d9681613ce3565b50612ef9565b604051602001612dab90614a94565b6040516020818303038152906040528051906020012081604051602001612dd29190614a7d565b6040516020818303038152906040528051906020012014612eab576000600160009054906101000a900473ffffffffffffffffffffffffffffffffffffffff1673ffffffffffffffffffffffffffffffffffffffff166379cd9055836040518263ffffffff1660e01b8152600401612e4a9190614c5b565b60206040518083038186803b158015612e6257600080fd5b505afa158015612e76573d6000803e3d6000fd5b505050506040513d601f19601f82011682018060405250810190612e9a919061441c565b9050612ea5816138d5565b50612ef8565b6040518060400160405280600981526020017f6e6f7420666f756e64000000000000000000000000000000000000000000000081525060039080519060200190612ef6929190613eab565b505b5b5b5050505b5b5b5050565b600080600160009054906101000a900473ffffffffffffffffffffffffffffffffffffffff1673ffffffffffffffffffffffffffffffffffffffff166319d5880c8660076040518363ffffffff1660e01b8152600401612f65929190614dec565b60206040518083038186803b158015612f7d57600080fd5b505afa158015612f91573d6000803e3d6000fd5b505050506040513d601f19601f82011682018060405250810190612fb59190614389565b90506001604051602001612fc99190614a62565b6040516020818303038152906040528051906020012081604051602001612ff09190614a62565b6040516020818303038152906040528051906020012014613046576040517f08c379a000000000000000000000000000000000000000000000000000000000815260040161303d90614d31565b60405180910390fd5b60008054906101000a900473ffffffffffffffffffffffffffffffffffffffff1673ffffffffffffffffffffffffffffffffffffffff1663925eb15285856040518363ffffffff1660e01b81526004016130a1929190614b10565b602060405180830381600087803b1580156130bb57600080fd5b505af11580156130cf573d6000803e3d6000fd5b505050506040513d601f19601f820116820180604052508101906130f3919061441c565b9150509392505050565b6003805461310a90615123565b80601f016020809104026020016040519081016040528092919081815260200182805461313690615123565b80156131835780601f1061315857610100808354040283529160200191613183565b820191906000526020600020905b81548152906001019060200180831161316657829003601f168201915b505050505081565b60008660066000600554815260200190815260200160002060000160006101000a81548173ffffffffffffffffffffffffffffffffffffffff021916908373ffffffffffffffffffffffffffffffffffffffff160217905550856006600060055481526020019081526020016000206001019080519060200190613210929190613eab565b5084600660006005548152602001908152602001600020600201908051906020019061323d929190613eab565b5083600660006005548152602001908152602001600020600301908051906020019061326a929190613eab565b50826006600060055481526020019081526020016000206004019080519060200190613297929190613eab565b508160066000600554815260200190815260200160002060050190805190602001906132c4929190613eab565b5042600660006005548152602001908152602001600020600601819055506006600060055481526020019081526020016000206007018190806001815401808255809150506001900390600052602060002090602091828204019190069091909190916101000a81548160ff0219169083600281111561336d577f4e487b7100000000000000000000000000000000000000000000000000000000600052602160045260246000fd5b0217905550600060046000600554815260200190815260200160002060000181905550600160066000600554815260200190815260200160002060080160006101000a81548160ff02191690831515021790555060086005549080600181540180825580915050600190039060005260206000200160009091909190915055600560008154809291906133ff906151a0565b919050555050505050505050565b600b602052816000526040600020818154811061342957600080fd5b90600052602060002090600302016000915091505080600001805461344d90615123565b80601f016020809104026020016040519081016040528092919081815260200182805461347990615123565b80156134c65780601f1061349b576101008083540402835291602001916134c6565b820191906000526020600020905b8154815290600101906020018083116134a957829003601f168201915b5050505050908060010154908060020160009054906101000a900473ffffffffffffffffffffffffffffffffffffffff16905083565b600260009054906101000a900473ffffffffffffffffffffffffffffffffffffffff1681565b60055481565b6060600b60008373ffffffffffffffffffffffffffffffffffffffff1673ffffffffffffffffffffffffffffffffffffffff168152602001908152602001600020805480602002602001604051908101604052809291908181526020016000905b828210156136ad57838290600052602060002090600302016040518060600160405290816000820180546135bc90615123565b80601f01602080910402602001604051908101604052809291908181526020018280546135e890615123565b80156136355780601f1061360a57610100808354040283529160200191613635565b820191906000526020600020905b81548152906001019060200180831161361857829003601f168201915b50505050508152602001600182015481526020016002820160009054906101000a900473ffffffffffffffffffffffffffffffffffffffff1673ffffffffffffffffffffffffffffffffffffffff1673ffffffffffffffffffffffffffffffffffffffff168152505081526020019060010190613589565b505050509050919050565b606060008054906101000a900473ffffffffffffffffffffffffffffffffffffffff1673ffffffffffffffffffffffffffffffffffffffff166395d89b416040518163ffffffff1660e01b815260040160006040518083038186803b15801561372057600080fd5b505afa158015613734573d6000803e3d6000fd5b505050506040513d6000823e3d601f19601f8201168201806040525081019061375d91906143b2565b905090565b6000600b60008373ffffffffffffffffffffffffffffffffffffffff1673ffffffffffffffffffffffffffffffffffffffff168152602001908152602001600020805490509050919050565b600b60008573ffffffffffffffffffffffffffffffffffffffff1673ffffffffffffffffffffffffffffffffffffffff16815260200190815260200160002060405180606001604052808581526020018481526020018373ffffffffffffffffffffffffffffffffffffffff1681525090806001815401808255809150506001900390600052602060002090600302016000909190919091506000820151816000019080519060200190613863929190613eab565b506020820151816001015560408201518160020160006101000a81548173ffffffffffffffffffffffffffffffffffffffff021916908373ffffffffffffffffffffffffffffffffffffffff1602179055505050600a60008154809291906138ca906151a0565b919050555050505050565b600880549050811061391c576040517f08c379a000000000000000000000000000000000000000000000000000000000815260040161391390614db1565b60405180910390fd5b60008190505b60016008805490506139349190615036565b8110156139e757600860018261394a9190614fe0565b81548110613981577f4e487b7100000000000000000000000000000000000000000000000000000000600052603260045260246000fd5b9060005260206000200154600882815481106139c6577f4e487b7100000000000000000000000000000000000000000000000000000000600052603260045260246000fd5b906000526020600020018190555080806139df906151a0565b915050613922565b506008805480613a20577f4e487b7100000000000000000000000000000000000000000000000000000000600052603160045260246000fd5b6001900381819060005260206000200160009055905550565b600a5481565b60008054906101000a900473ffffffffffffffffffffffffffffffffffffffff1673ffffffffffffffffffffffffffffffffffffffff1663b88d4fde858585856040518563ffffffff1660e01b8152600401613a9e9493929190614ac4565b600060405180830381600087803b158015613ab857600080fd5b505af1158015613acc573d6000803e3d6000fd5b5050505050505050565b6000600260009054906101000a900473ffffffffffffffffffffffffffffffffffffffff1673ffffffffffffffffffffffffffffffffffffffff163373ffffffffffffffffffffffffffffffffffffffff1614613b3257600080fd5b600660008481526020019081526020016000206007018290806001815401808255809150506001900390600052602060002090602091828204019190069091909190916101000a81548160ff02191690836002811115613bbb577f4e487b7100000000000000000000000000000000000000000000000000000000600052602160045260246000fd5b0217905550600460008481526020019081526020016000206000016000815480929190613be7906151a0565b9190505550613bf5836115a0565b6001905092915050565b6000600980549050905090565b60088181548110613c1c57600080fd5b906000526020600020016000915090505481565b60008060009054906101000a900473ffffffffffffffffffffffffffffffffffffffff1673ffffffffffffffffffffffffffffffffffffffff16636352211e836040518263ffffffff1660e01b8152600401613c8c9190614dd1565b60206040518083038186803b158015613ca457600080fd5b505afa158015613cb8573d6000803e3d6000fd5b505050506040513d601f19601f82011682018060405250810190613cdc919061412d565b9050919050565b6007805490508110613d2a576040517f08c379a0000000000000000000000000000000000000000000000000000000008152600401613d2190614db1565b60405180910390fd5b60008190505b6001600780549050613d429190615036565b811015613df5576007600182613d589190614fe0565b81548110613d8f577f4e487b7100000000000000000000000000000000000000000000000000000000600052603260045260246000fd5b906000526020600020015460078281548110613dd4577f4e487b7100000000000000000000000000000000000000000000000000000000600052603260045260246000fd5b90600052602060002001819055508080613ded906151a0565b915050613d30565b506007805480613e2e577f4e487b7100000000000000000000000000000000000000000000000000000000600052603160045260246000fd5b6001900381819060005260206000200160009055905550565b604051806101200160405280600073ffffffffffffffffffffffffffffffffffffffff168152602001606081526020016060815260200160608152602001606081526020016060815260200160008152602001606081526020016000151581525090565b828054613eb790615123565b90600052602060002090601f016020900481019282613ed95760008555613f20565b82601f10613ef257805160ff1916838001178555613f20565b82800160010185558215613f20579182015b82811115613f1f578251825591602001919060010190613f04565b5b509050613f2d9190613f31565b5090565b5b80821115613f4a576000816000905550600101613f32565b5090565b6000613f61613f5c84614e41565b614e1c565b905082815260208101848484011115613f7957600080fd5b613f848482856150e1565b509392505050565b6000613f9f613f9a84614e72565b614e1c565b905082815260208101848484011115613fb757600080fd5b613fc28482856150e1565b509392505050565b6000613fdd613fd884614e72565b614e1c565b905082815260208101848484011115613ff557600080fd5b6140008482856150f0565b509392505050565b60008135905061401781615437565b92915050565b60008151905061402c81615437565b92915050565b6000815190506140418161544e565b92915050565b600082601f83011261405857600080fd5b8135614068848260208601613f4e565b91505092915050565b60008135905061408081615465565b92915050565b600082601f83011261409757600080fd5b81356140a7848260208601613f8c565b91505092915050565b600082601f8301126140c157600080fd5b81516140d1848260208601613fca565b91505092915050565b6000813590506140e981615475565b92915050565b6000815190506140fe81615475565b92915050565b60006020828403121561411657600080fd5b600061412484828501614008565b91505092915050565b60006020828403121561413f57600080fd5b600061414d8482850161401d565b91505092915050565b6000806000806080858703121561416c57600080fd5b600061417a87828801614008565b945050602061418b87828801614008565b935050604061419c878288016140da565b925050606085013567ffffffffffffffff8111156141b957600080fd5b6141c587828801614047565b91505092959194509250565b60008060008060008060c087890312156141ea57600080fd5b60006141f889828a01614008565b965050602087013567ffffffffffffffff81111561421557600080fd5b61422189828a01614086565b955050604087013567ffffffffffffffff81111561423e57600080fd5b61424a89828a01614086565b945050606087013567ffffffffffffffff81111561426757600080fd5b61427389828a01614086565b935050608087013567ffffffffffffffff81111561429057600080fd5b61429c89828a01614086565b92505060a087013567ffffffffffffffff8111156142b957600080fd5b6142c589828a01614086565b9150509295509295509295565b600080600080608085870312156142e857600080fd5b60006142f687828801614008565b945050602085013567ffffffffffffffff81111561431357600080fd5b61431f87828801614086565b9350506040614330878288016140da565b925050606061434187828801614008565b91505092959194509250565b6000806040838503121561436057600080fd5b600061436e85828601614008565b925050602061437f858286016140da565b9150509250929050565b60006020828403121561439b57600080fd5b60006143a984828501614032565b91505092915050565b6000602082840312156143c457600080fd5b600082015167ffffffffffffffff8111156143de57600080fd5b6143ea848285016140b0565b91505092915050565b60006020828403121561440557600080fd5b6000614413848285016140da565b91505092915050565b60006020828403121561442e57600080fd5b600061443c848285016140ef565b91505092915050565b60008060006060848603121561445a57600080fd5b6000614468868287016140da565b935050602061447986828701614008565b925050604084013567ffffffffffffffff81111561449657600080fd5b6144a286828701614086565b9150509250925092565b600080604083850312156144bf57600080fd5b60006144cd858286016140da565b92505060206144de85828601614071565b9150509250929050565b60006144f48383614779565b60208301905092915050565b600061450c838361490c565b905092915050565b600061452083836149f4565b905092915050565b60006145348383614a44565b60208301905092915050565b61454981615074565b82525050565b61455881615074565b82525050565b600061456982614ee8565b6145738185614f91565b935061457e83614ea3565b8060005b838110156145af57815161459688826144e8565b97506145a183614f2a565b925050600181019050614582565b5085935050505092915050565b60006145c782614ef3565b6145d18185614f5e565b9350836020820285016145e385614eb3565b8060005b8581101561461f57848403895281516146008582614500565b945061460b83614f37565b925060208a019950506001810190506145e7565b50829750879550505050505092915050565b600061463c82614efe565b6146468185614f6f565b93508360208202850161465885614ec3565b8060005b8581101561469457848403895281516146758582614514565b945061468083614f44565b925060208a0199505060018101905061465c565b50829750879550505050505092915050565b60006146b182614f09565b6146bb8185614f80565b93506146c683614ed3565b8060005b838110156146fe576146db826152c9565b6146e58882614528565b97506146f083614f51565b9250506001810190506146ca565b5085935050505092915050565b61471481615086565b82525050565b61472381615086565b82525050565b61473a61473582615086565b6151e9565b82525050565b600061474b82614f14565b6147558185614fa2565b93506147658185602086016150f0565b61476e816152dc565b840191505092915050565b614782816150cf565b82525050565b614791816150cf565b82525050565b60006147a282614f1f565b6147ac8185614fb3565b93506147bc8185602086016150f0565b6147c5816152dc565b840191505092915050565b60006147db82614f1f565b6147e58185614fc4565b93506147f58185602086016150f0565b6147fe816152dc565b840191505092915050565b600061481482614f1f565b61481e8185614fd5565b935061482e8185602086016150f0565b80840191505092915050565b6000614847602283614fc4565b915061485282615307565b604082019050919050565b600061486a601883614fc4565b915061487582615356565b602082019050919050565b600061488d601783614fc4565b91506148988261537f565b602082019050919050565b60006148b0601883614fc4565b91506148bb826153a8565b602082019050919050565b60006148d3600983614fd5565b91506148de826153d1565b600982019050919050565b60006148f6601283614fc4565b9150614901826153fa565b602082019050919050565b6000610120830160008301516149256000860182614540565b506020830151848203602086015261493d8282614797565b915050604083015184820360408601526149578282614797565b915050606083015184820360608601526149718282614797565b9150506080830151848203608086015261498b8282614797565b91505060a083015184820360a08601526149a58282614797565b91505060c08301516149ba60c0860182614a44565b5060e083015184820360e08601526149d2828261455e565b9150506101008301516149e961010086018261470b565b508091505092915050565b60006060830160008301518482036000860152614a118282614797565b9150506020830151614a266020860182614a44565b506040830151614a396040860182614540565b508091505092915050565b614a4d816150c5565b82525050565b614a5c816150c5565b82525050565b6000614a6e8284614729565b60018201915081905092915050565b6000614a898284614809565b915081905092915050565b6000614a9f826148c6565b9150819050919050565b6000602082019050614abe600083018461454f565b92915050565b6000608082019050614ad9600083018761454f565b614ae6602083018661454f565b614af36040830185614a53565b8181036060830152614b058184614740565b905095945050505050565b6000604082019050614b25600083018561454f565b8181036020830152614b3781846147d0565b90509392505050565b600061010082019050614b56600083018b61454f565b8181036020830152614b68818a6147d0565b90508181036040830152614b7c81896147d0565b90508181036060830152614b9081886147d0565b90508181036080830152614ba481876147d0565b905081810360a0830152614bb881866147d0565b9050614bc760c0830185614a53565b614bd460e083018461471a565b9998505050505050505050565b60006020820190508181036000830152614bfb81846145bc565b905092915050565b60006020820190508181036000830152614c1d8184614631565b905092915050565b6000602082019050614c3a600083018461471a565b92915050565b6000602082019050614c556000830184614788565b92915050565b60006020820190508181036000830152614c7581846147d0565b905092915050565b600060a0820190508181036000830152614c9781886147d0565b90508181036020830152614cab81876147d0565b90508181036040830152614cbf81866147d0565b90508181036060830152614cd381856147d0565b90508181036080830152614ce781846147d0565b90509695505050505050565b60006060820190508181036000830152614d0d81866147d0565b9050614d1c6020830185614a53565b614d29604083018461454f565b949350505050565b60006020820190508181036000830152614d4a8161483a565b9050919050565b60006020820190508181036000830152614d6a8161485d565b9050919050565b60006020820190508181036000830152614d8a81614880565b9050919050565b60006020820190508181036000830152614daa816148a3565b9050919050565b60006020820190508181036000830152614dca816148e9565b9050919050565b6000602082019050614de66000830184614a53565b92915050565b6000604082019050614e016000830185614a53565b8181036020830152614e1381846146a6565b90509392505050565b6000614e26614e37565b9050614e32828261516f565b919050565b6000604051905090565b600067ffffffffffffffff821115614e5c57614e5b61529a565b5b614e65826152dc565b9050602081019050919050565b600067ffffffffffffffff821115614e8d57614e8c61529a565b5b614e96826152dc565b9050602081019050919050565b6000819050602082019050919050565b6000819050602082019050919050565b6000819050602082019050919050565b60008190508160005260206000209050919050565b600081519050919050565b600081519050919050565b600081519050919050565b600081549050919050565b600081519050919050565b600081519050919050565b6000602082019050919050565b6000602082019050919050565b6000602082019050919050565b6000600182019050919050565b600082825260208201905092915050565b600082825260208201905092915050565b600082825260208201905092915050565b600082825260208201905092915050565b600082825260208201905092915050565b600082825260208201905092915050565b600082825260208201905092915050565b600081905092915050565b6000614feb826150c5565b9150614ff6836150c5565b9250827fffffffffffffffffffffffffffffffffffffffffffffffffffffffffffffffff0382111561502b5761502a61520d565b5b828201905092915050565b6000615041826150c5565b915061504c836150c5565b92508282101561505f5761505e61520d565b5b828203905092915050565b6000819050919050565b600061507f826150a5565b9050919050565b60008115159050919050565b60008190506150a082615423565b919050565b600073ffffffffffffffffffffffffffffffffffffffff82169050919050565b6000819050919050565b60006150da82615092565b9050919050565b82818337600083830152505050565b60005b8381101561510e5780820151818401526020810190506150f3565b8381111561511d576000848401525b50505050565b6000600282049050600182168061513b57607f821691505b6020821081141561514f5761514e61526b565b5b50919050565b6000615168615163836152fa565b61506a565b9050919050565b615178826152dc565b810181811067ffffffffffffffff821117156151975761519661529a565b5b80604052505050565b60006151ab826150c5565b91507fffffffffffffffffffffffffffffffffffffffffffffffffffffffffffffffff8214156151de576151dd61520d565b5b600182019050919050565b60006151f4826151fb565b9050919050565b6000615206826152ed565b9050919050565b7f4e487b7100000000000000000000000000000000000000000000000000000000600052601160045260246000fd5b7f4e487b7100000000000000000000000000000000000000000000000000000000600052602160045260246000fd5b7f4e487b7100000000000000000000000000000000000000000000000000000000600052602260045260246000fd5b7f4e487b7100000000000000000000000000000000000000000000000000000000600052604160045260246000fd5b60006152d58254615155565b9050919050565b6000601f19601f8301169050919050565b60008160f81b9050919050565b60008160001c9050919050565b7f496e74656c6c65637475616c2070726f7065727479206e6f742061636365707460008201527f6564000000000000000000000000000000000000000000000000000000000000602082015250565b7f4164647265737320616c72656164792061636365707465640000000000000000600082015250565b7f4164647265737320616c72656164792070656e64696e67000000000000000000600082015250565b7f4164647265737320616c72656164792072656a65637465640000000000000000600082015250565b7f6e6f7420666f756e640000000000000000000000000000000000000000000000600082015250565b7f696e646578206f7574206f6620626f756e640000000000000000000000000000600082015250565b600381106154345761543361523c565b5b50565b61544081615074565b811461544b57600080fd5b50565b61545781615086565b811461546257600080fd5b50565b6003811061547257600080fd5b50565b61547e816150c5565b811461548957600080fd5b5056fea2646970667358221220259fc5a77735db53ed97ea71117e06bf9deb06f608ed323265d1c7a0d60afe9e64736f6c6343000801003360806040523480156200001157600080fd5b506040518060400160405280600681526020017f49704974656d00000000000000000000000000000000000000000000000000008152506040518060400160405280600481526020017f49704d7400000000000000000000000000000000000000000000000000000000815250816000908051906020019062000096929190620000b8565b508060019080519060200190620000af929190620000b8565b505050620001cd565b828054620000c69062000168565b90600052602060002090601f016020900481019282620000ea576000855562000136565b82601f106200010557805160ff191683800117855562000136565b8280016001018555821562000136579182015b828111156200013557825182559160200191906001019062000118565b5b50905062000145919062000149565b5090565b5b80821115620001645760008160009055506001016200014a565b5090565b600060028204905060018216806200018157607f821691505b602082108114156200019857620001976200019e565b5b50919050565b7f4e487b7100000000000000000000000000000000000000000000000000000000600052602260045260246000fd5b61287180620001dd6000396000f3fe608060405234801561001057600080fd5b50600436106100ea5760003560e01c806370a082311161008c578063a22cb46511610066578063a22cb4651461026f578063b88d4fde1461028b578063c87b56dd146102a7578063e985e9c5146102d7576100ea565b806370a08231146101f1578063925eb1521461022157806395d89b4114610251576100ea565b8063095ea7b3116100c8578063095ea7b31461016d57806323b872dd1461018957806342842e0e146101a55780636352211e146101c1576100ea565b806301ffc9a7146100ef57806306fdde031461011f578063081812fc1461013d575b600080fd5b61010960048036038101906101049190611b8c565b610307565b6040516101169190611f06565b60405180910390f35b6101276103e9565b6040516101349190611f21565b60405180910390f35b61015760048036038101906101529190611bde565b61047b565b6040516101649190611e9f565b60405180910390f35b61018760048036038101906101829190611b50565b6104c1565b005b6101a3600480360381019061019e91906119f6565b6105d9565b005b6101bf60048036038101906101ba91906119f6565b610639565b005b6101db60048036038101906101d69190611bde565b610659565b6040516101e89190611e9f565b60405180910390f35b61020b60048036038101906102069190611991565b61070b565b60405161021891906120c3565b60405180910390f35b61023b60048036038101906102369190611afc565b6107c3565b60405161024891906120c3565b60405180910390f35b6102596107fb565b6040516102669190611f21565b60405180910390f35b61028960048036038101906102849190611ac0565b61088d565b005b6102a560048036038101906102a09190611a45565b6108a3565b005b6102c160048036038101906102bc9190611bde565b610905565b6040516102ce9190611f21565b60405180910390f35b6102f160048036038101906102ec91906119ba565b610a18565b6040516102fe9190611f06565b60405180910390f35b60007f80ac58cd000000000000000000000000000000000000000000000000000000007bffffffffffffffffffffffffffffffffffffffffffffffffffffffff1916827bffffffffffffffffffffffffffffffffffffffffffffffffffffffff191614806103d257507f5b5e139f000000000000000000000000000000000000000000000000000000007bffffffffffffffffffffffffffffffffffffffffffffffffffffffff1916827bffffffffffffffffffffffffffffffffffffffffffffffffffffffff1916145b806103e257506103e182610aac565b5b9050919050565b6060600080546103f890612319565b80601f016020809104026020016040519081016040528092919081815260200182805461042490612319565b80156104715780601f1061044657610100808354040283529160200191610471565b820191906000526020600020905b81548152906001019060200180831161045457829003601f168201915b5050505050905090565b600061048682610b16565b6004600083815260200190815260200160002060009054906101000a900473ffffffffffffffffffffffffffffffffffffffff169050919050565b60006104cc82610659565b90508073ffffffffffffffffffffffffffffffffffffffff168373ffffffffffffffffffffffffffffffffffffffff16141561053d576040517f08c379a000000000000000000000000000000000000000000000000000000000815260040161053490612083565b60405180910390fd5b8073ffffffffffffffffffffffffffffffffffffffff1661055c610b61565b73ffffffffffffffffffffffffffffffffffffffff16148061058b575061058a81610585610b61565b610a18565b5b6105ca576040517f08c379a00000000000000000000000000000000000000000000000000000000081526004016105c190612023565b60405180910390fd5b6105d48383610b69565b505050565b6105ea6105e4610b61565b82610c22565b610629576040517f08c379a0000000000000000000000000000000000000000000000000000000008152600401610620906120a3565b60405180910390fd5b610634838383610cb7565b505050565b610654838383604051806020016040528060008152506108a3565b505050565b6000806002600084815260200190815260200160002060009054906101000a900473ffffffffffffffffffffffffffffffffffffffff169050600073ffffffffffffffffffffffffffffffffffffffff168173ffffffffffffffffffffffffffffffffffffffff161415610702576040517f08c379a00000000000000000000000000000000000000000000000000000000081526004016106f990612063565b60405180910390fd5b80915050919050565b60008073ffffffffffffffffffffffffffffffffffffffff168273ffffffffffffffffffffffffffffffffffffffff16141561077c576040517f08c379a000000000000000000000000000000000000000000000000000000000815260040161077390611fe3565b60405180910390fd5b600360008373ffffffffffffffffffffffffffffffffffffffff1673ffffffffffffffffffffffffffffffffffffffff168152602001908152602001600020549050919050565b60006107cf6007610f1e565b60006107db6007610f34565b90506107e78482610f42565b6107f1818461111c565b8091505092915050565b60606001805461080a90612319565b80601f016020809104026020016040519081016040528092919081815260200182805461083690612319565b80156108835780601f1061085857610100808354040283529160200191610883565b820191906000526020600020905b81548152906001019060200180831161086657829003601f168201915b5050505050905090565b61089f610898610b61565b8383611190565b5050565b6108b46108ae610b61565b83610c22565b6108f3576040517f08c379a00000000000000000000000000000000000000000000000000000000081526004016108ea906120a3565b60405180910390fd5b6108ff848484846112fd565b50505050565b606061091082610b16565b600060066000848152602001908152602001600020805461093090612319565b80601f016020809104026020016040519081016040528092919081815260200182805461095c90612319565b80156109a95780601f1061097e576101008083540402835291602001916109a9565b820191906000526020600020905b81548152906001019060200180831161098c57829003601f168201915b5050505050905060006109ba611359565b90506000815114156109d0578192505050610a13565b600082511115610a055780826040516020016109ed929190611e7b565b60405160208183030381529060405292505050610a13565b610a0e84611370565b925050505b919050565b6000600560008473ffffffffffffffffffffffffffffffffffffffff1673ffffffffffffffffffffffffffffffffffffffff16815260200190815260200160002060008373ffffffffffffffffffffffffffffffffffffffff1673ffffffffffffffffffffffffffffffffffffffff16815260200190815260200160002060009054906101000a900460ff16905092915050565b60007f01ffc9a7000000000000000000000000000000000000000000000000000000007bffffffffffffffffffffffffffffffffffffffffffffffffffffffff1916827bffffffffffffffffffffffffffffffffffffffffffffffffffffffff1916149050919050565b610b1f816113d8565b610b5e576040517f08c379a0000000000000000000000000000000000000000000000000000000008152600401610b5590612063565b60405180910390fd5b50565b600033905090565b816004600083815260200190815260200160002060006101000a81548173ffffffffffffffffffffffffffffffffffffffff021916908373ffffffffffffffffffffffffffffffffffffffff160217905550808273ffffffffffffffffffffffffffffffffffffffff16610bdc83610659565b73ffffffffffffffffffffffffffffffffffffffff167f8c5be1e5ebec7d5bd14f71427d1e84f3dd0314c0f7b2291e5b200ac8c7c3b92560405160405180910390a45050565b600080610c2e83610659565b90508073ffffffffffffffffffffffffffffffffffffffff168473ffffffffffffffffffffffffffffffffffffffff161480610c705750610c6f8185610a18565b5b80610cae57508373ffffffffffffffffffffffffffffffffffffffff16610c968461047b565b73ffffffffffffffffffffffffffffffffffffffff16145b91505092915050565b8273ffffffffffffffffffffffffffffffffffffffff16610cd782610659565b73ffffffffffffffffffffffffffffffffffffffff1614610d2d576040517f08c379a0000000000000000000000000000000000000000000000000000000008152600401610d2490611f63565b60405180910390fd5b600073ffffffffffffffffffffffffffffffffffffffff168273ffffffffffffffffffffffffffffffffffffffff161415610d9d576040517f08c379a0000000000000000000000000000000000000000000000000000000008152600401610d9490611fa3565b60405180910390fd5b610da8838383611444565b610db3600082610b69565b6001600360008573ffffffffffffffffffffffffffffffffffffffff1673ffffffffffffffffffffffffffffffffffffffff1681526020019081526020016000206000828254610e03919061222f565b925050819055506001600360008473ffffffffffffffffffffffffffffffffffffffff1673ffffffffffffffffffffffffffffffffffffffff1681526020019081526020016000206000828254610e5a91906121a8565b92505081905550816002600083815260200190815260200160002060006101000a81548173ffffffffffffffffffffffffffffffffffffffff021916908373ffffffffffffffffffffffffffffffffffffffff160217905550808273ffffffffffffffffffffffffffffffffffffffff168473ffffffffffffffffffffffffffffffffffffffff167fddf252ad1be2c89b69c2b068fc378daa952ba7f163c4a11628f55a4df523b3ef60405160405180910390a4610f19838383611449565b505050565b6001816000016000828254019250508190555050565b600081600001549050919050565b600073ffffffffffffffffffffffffffffffffffffffff168273ffffffffffffffffffffffffffffffffffffffff161415610fb2576040517f08c379a0000000000000000000000000000000000000000000000000000000008152600401610fa990612043565b60405180910390fd5b610fbb816113d8565b15610ffb576040517f08c379a0000000000000000000000000000000000000000000000000000000008152600401610ff290611f83565b60405180910390fd5b61100760008383611444565b6001600360008473ffffffffffffffffffffffffffffffffffffffff1673ffffffffffffffffffffffffffffffffffffffff168152602001908152602001600020600082825461105791906121a8565b92505081905550816002600083815260200190815260200160002060006101000a81548173ffffffffffffffffffffffffffffffffffffffff021916908373ffffffffffffffffffffffffffffffffffffffff160217905550808273ffffffffffffffffffffffffffffffffffffffff16600073ffffffffffffffffffffffffffffffffffffffff167fddf252ad1be2c89b69c2b068fc378daa952ba7f163c4a11628f55a4df523b3ef60405160405180910390a461111860008383611449565b5050565b611125826113d8565b611164576040517f08c379a000000000000000000000000000000000000000000000000000000000815260040161115b90612003565b60405180910390fd5b8060066000848152602001908152602001600020908051906020019061118b9291906117b5565b505050565b8173ffffffffffffffffffffffffffffffffffffffff168373ffffffffffffffffffffffffffffffffffffffff1614156111ff576040517f08c379a00000000000000000000000000000000000000000000000000000000081526004016111f690611fc3565b60405180910390fd5b80600560008573ffffffffffffffffffffffffffffffffffffffff1673ffffffffffffffffffffffffffffffffffffffff16815260200190815260200160002060008473ffffffffffffffffffffffffffffffffffffffff1673ffffffffffffffffffffffffffffffffffffffff16815260200190815260200160002060006101000a81548160ff0219169083151502179055508173ffffffffffffffffffffffffffffffffffffffff168373ffffffffffffffffffffffffffffffffffffffff167f17307eab39ab6107e8899845ad3d59bd9653f200f220920489ca2b5937696c31836040516112f09190611f06565b60405180910390a3505050565b611308848484610cb7565b6113148484848461144e565b611353576040517f08c379a000000000000000000000000000000000000000000000000000000000815260040161134a90611f43565b60405180910390fd5b50505050565b606060405180602001604052806000815250905090565b606061137b82610b16565b6000611385611359565b905060008151116113a557604051806020016040528060008152506113d0565b806113af846115e5565b6040516020016113c0929190611e7b565b6040516020818303038152906040525b915050919050565b60008073ffffffffffffffffffffffffffffffffffffffff166002600084815260200190815260200160002060009054906101000a900473ffffffffffffffffffffffffffffffffffffffff1673ffffffffffffffffffffffffffffffffffffffff1614159050919050565b505050565b505050565b600061146f8473ffffffffffffffffffffffffffffffffffffffff16611792565b156115d8578373ffffffffffffffffffffffffffffffffffffffff1663150b7a02611498610b61565b8786866040518563ffffffff1660e01b81526004016114ba9493929190611eba565b602060405180830381600087803b1580156114d457600080fd5b505af192505050801561150557506040513d601f19601f820116820180604052508101906115029190611bb5565b60015b611588573d8060008114611535576040519150601f19603f3d011682016040523d82523d6000602084013e61153a565b606091505b50600081511415611580576040517f08c379a000000000000000000000000000000000000000000000000000000000815260040161157790611f43565b60405180910390fd5b805181602001fd5b63150b7a0260e01b7bffffffffffffffffffffffffffffffffffffffffffffffffffffffff1916817bffffffffffffffffffffffffffffffffffffffffffffffffffffffff1916149150506115dd565b600190505b949350505050565b6060600082141561162d576040518060400160405280600181526020017f3000000000000000000000000000000000000000000000000000000000000000815250905061178d565b600082905060005b6000821461165f5780806116489061237c565b915050600a8261165891906121fe565b9150611635565b60008167ffffffffffffffff8111156116a1577f4e487b7100000000000000000000000000000000000000000000000000000000600052604160045260246000fd5b6040519080825280601f01601f1916602001820160405280156116d35781602001600182028036833780820191505090505b5090505b60008514611786576001826116ec919061222f565b9150600a856116fb91906123c5565b603061170791906121a8565b60f81b818381518110611743577f4e487b7100000000000000000000000000000000000000000000000000000000600052603260045260246000fd5b60200101907effffffffffffffffffffffffffffffffffffffffffffffffffffffffffffff1916908160001a905350600a8561177f91906121fe565b94506116d7565b8093505050505b919050565b6000808273ffffffffffffffffffffffffffffffffffffffff163b119050919050565b8280546117c190612319565b90600052602060002090601f0160209004810192826117e3576000855561182a565b82601f106117fc57805160ff191683800117855561182a565b8280016001018555821561182a579182015b8281111561182957825182559160200191906001019061180e565b5b509050611837919061183b565b5090565b5b8082111561185457600081600090555060010161183c565b5090565b600061186b61186684612103565b6120de565b90508281526020810184848401111561188357600080fd5b61188e8482856122d7565b509392505050565b60006118a96118a484612134565b6120de565b9050828152602081018484840111156118c157600080fd5b6118cc8482856122d7565b509392505050565b6000813590506118e3816127df565b92915050565b6000813590506118f8816127f6565b92915050565b60008135905061190d8161280d565b92915050565b6000815190506119228161280d565b92915050565b600082601f83011261193957600080fd5b8135611949848260208601611858565b91505092915050565b600082601f83011261196357600080fd5b8135611973848260208601611896565b91505092915050565b60008135905061198b81612824565b92915050565b6000602082840312156119a357600080fd5b60006119b1848285016118d4565b91505092915050565b600080604083850312156119cd57600080fd5b60006119db858286016118d4565b92505060206119ec858286016118d4565b9150509250929050565b600080600060608486031215611a0b57600080fd5b6000611a19868287016118d4565b9350506020611a2a868287016118d4565b9250506040611a3b8682870161197c565b9150509250925092565b60008060008060808587031215611a5b57600080fd5b6000611a69878288016118d4565b9450506020611a7a878288016118d4565b9350506040611a8b8782880161197c565b925050606085013567ffffffffffffffff811115611aa857600080fd5b611ab487828801611928565b91505092959194509250565b60008060408385031215611ad357600080fd5b6000611ae1858286016118d4565b9250506020611af2858286016118e9565b9150509250929050565b60008060408385031215611b0f57600080fd5b6000611b1d858286016118d4565b925050602083013567ffffffffffffffff811115611b3a57600080fd5b611b4685828601611952565b9150509250929050565b60008060408385031215611b6357600080fd5b6000611b71858286016118d4565b9250506020611b828582860161197c565b9150509250929050565b600060208284031215611b9e57600080fd5b6000611bac848285016118fe565b91505092915050565b600060208284031215611bc757600080fd5b6000611bd584828501611913565b91505092915050565b600060208284031215611bf057600080fd5b6000611bfe8482850161197c565b91505092915050565b611c1081612263565b82525050565b611c1f81612275565b82525050565b6000611c3082612165565b611c3a818561217b565b9350611c4a8185602086016122e6565b611c53816124b2565b840191505092915050565b6000611c6982612170565b611c73818561218c565b9350611c838185602086016122e6565b611c8c816124b2565b840191505092915050565b6000611ca282612170565b611cac818561219d565b9350611cbc8185602086016122e6565b80840191505092915050565b6000611cd560328361218c565b9150611ce0826124c3565b604082019050919050565b6000611cf860258361218c565b9150611d0382612512565b604082019050919050565b6000611d1b601c8361218c565b9150611d2682612561565b602082019050919050565b6000611d3e60248361218c565b9150611d498261258a565b604082019050919050565b6000611d6160198361218c565b9150611d6c826125d9565b602082019050919050565b6000611d8460298361218c565b9150611d8f82612602565b604082019050919050565b6000611da7602e8361218c565b9150611db282612651565b604082019050919050565b6000611dca603e8361218c565b9150611dd5826126a0565b604082019050919050565b6000611ded60208361218c565b9150611df8826126ef565b602082019050919050565b6000611e1060188361218c565b9150611e1b82612718565b602082019050919050565b6000611e3360218361218c565b9150611e3e82612741565b604082019050919050565b6000611e56602e8361218c565b9150611e6182612790565b604082019050919050565b611e75816122cd565b82525050565b6000611e878285611c97565b9150611e938284611c97565b91508190509392505050565b6000602082019050611eb46000830184611c07565b92915050565b6000608082019050611ecf6000830187611c07565b611edc6020830186611c07565b611ee96040830185611e6c565b8181036060830152611efb8184611c25565b905095945050505050565b6000602082019050611f1b6000830184611c16565b92915050565b60006020820190508181036000830152611f3b8184611c5e565b905092915050565b60006020820190508181036000830152611f5c81611cc8565b9050919050565b60006020820190508181036000830152611f7c81611ceb565b9050919050565b60006020820190508181036000830152611f9c81611d0e565b9050919050565b60006020820190508181036000830152611fbc81611d31565b9050919050565b60006020820190508181036000830152611fdc81611d54565b9050919050565b60006020820190508181036000830152611ffc81611d77565b9050919050565b6000602082019050818103600083015261201c81611d9a565b9050919050565b6000602082019050818103600083015261203c81611dbd565b9050919050565b6000602082019050818103600083015261205c81611de0565b9050919050565b6000602082019050818103600083015261207c81611e03565b9050919050565b6000602082019050818103600083015261209c81611e26565b9050919050565b600060208201905081810360008301526120bc81611e49565b9050919050565b60006020820190506120d86000830184611e6c565b92915050565b60006120e86120f9565b90506120f4828261234b565b919050565b6000604051905090565b600067ffffffffffffffff82111561211e5761211d612483565b5b612127826124b2565b9050602081019050919050565b600067ffffffffffffffff82111561214f5761214e612483565b5b612158826124b2565b9050602081019050919050565b600081519050919050565b600081519050919050565b600082825260208201905092915050565b600082825260208201905092915050565b600081905092915050565b60006121b3826122cd565b91506121be836122cd565b9250827fffffffffffffffffffffffffffffffffffffffffffffffffffffffffffffffff038211156121f3576121f26123f6565b5b828201905092915050565b6000612209826122cd565b9150612214836122cd565b92508261222457612223612425565b5b828204905092915050565b600061223a826122cd565b9150612245836122cd565b925082821015612258576122576123f6565b5b828203905092915050565b600061226e826122ad565b9050919050565b60008115159050919050565b60007fffffffff0000000000000000000000000000000000000000000000000000000082169050919050565b600073ffffffffffffffffffffffffffffffffffffffff82169050919050565b6000819050919050565b82818337600083830152505050565b60005b838110156123045780820151818401526020810190506122e9565b83811115612313576000848401525b50505050565b6000600282049050600182168061233157607f821691505b6020821081141561234557612344612454565b5b50919050565b612354826124b2565b810181811067ffffffffffffffff8211171561237357612372612483565b5b80604052505050565b6000612387826122cd565b91507fffffffffffffffffffffffffffffffffffffffffffffffffffffffffffffffff8214156123ba576123b96123f6565b5b600182019050919050565b60006123d0826122cd565b91506123db836122cd565b9250826123eb576123ea612425565b5b828206905092915050565b7f4e487b7100000000000000000000000000000000000000000000000000000000600052601160045260246000fd5b7f4e487b7100000000000000000000000000000000000000000000000000000000600052601260045260246000fd5b7f4e487b7100000000000000000000000000000000000000000000000000000000600052602260045260246000fd5b7f4e487b7100000000000000000000000000000000000000000000000000000000600052604160045260246000fd5b6000601f19601f8301169050919050565b7f4552433732313a207472616e7366657220746f206e6f6e20455243373231526560008201527f63656976657220696d706c656d656e7465720000000000000000000000000000602082015250565b7f4552433732313a207472616e736665722066726f6d20696e636f72726563742060008201527f6f776e6572000000000000000000000000000000000000000000000000000000602082015250565b7f4552433732313a20746f6b656e20616c7265616479206d696e74656400000000600082015250565b7f4552433732313a207472616e7366657220746f20746865207a65726f2061646460008201527f7265737300000000000000000000000000000000000000000000000000000000602082015250565b7f4552433732313a20617070726f766520746f2063616c6c657200000000000000600082015250565b7f4552433732313a2061646472657373207a65726f206973206e6f74206120766160008201527f6c6964206f776e65720000000000000000000000000000000000000000000000602082015250565b7f45524337323155524953746f726167653a2055524920736574206f66206e6f6e60008201527f6578697374656e7420746f6b656e000000000000000000000000000000000000602082015250565b7f4552433732313a20617070726f76652063616c6c6572206973206e6f7420746f60008201527f6b656e206f776e6572206e6f7220617070726f76656420666f7220616c6c0000602082015250565b7f4552433732313a206d696e7420746f20746865207a65726f2061646472657373600082015250565b7f4552433732313a20696e76616c696420746f6b656e2049440000000000000000600082015250565b7f4552433732313a20617070726f76616c20746f2063757272656e74206f776e6560008201527f7200000000000000000000000000000000000000000000000000000000000000602082015250565b7f4552433732313a2063616c6c6572206973206e6f7420746f6b656e206f776e6560008201527f72206e6f7220617070726f766564000000000000000000000000000000000000602082015250565b6127e881612263565b81146127f357600080fd5b50565b6127ff81612275565b811461280a57600080fd5b50565b61281681612281565b811461282157600080fd5b50565b61282d816122cd565b811461283857600080fd5b5056fea2646970667358221220fc95de87265422ea0aa9a6bc665ff15e90a9aae5afb630122f643204ef5e58e264736f6c63430008010033608060405234801561001057600080fd5b5061121b806100206000396000f3fe608060405234801561001057600080fd5b50600436106100885760003560e01c80637ef1cd4b1161005b5780637ef1cd4b1461014d578063a28a34801461017d578063d25a84eb146101ad578063fc966d45146101dd57610088565b806319d5880c1461008d57806321772a44146100bd57806332a5d170146100ed57806379cd90551461011d575b600080fd5b6100a760048036038101906100a29190610bbd565b61020d565b6040516100b49190610c9a565b60405180910390f35b6100d760048036038101906100d29190610bbd565b6102db565b6040516100e49190610cb5565b60405180910390f35b61010760048036038101906101029190610bbd565b6103e7565b6040516101149190610c9a565b60405180910390f35b61013760048036038101906101329190610b53565b6104b5565b6040516101449190610cd7565b60405180910390f35b61016760048036038101906101629190610bbd565b610595565b6040516101749190610c9a565b60405180910390f35b61019760048036038101906101929190610bbd565b610663565b6040516101a49190610cb5565b60405180910390f35b6101c760048036038101906101c29190610bbd565b61076f565b6040516101d49190610cb5565b60405180910390f35b6101f760048036038101906101f29190610b94565b61087b565b6040516102049190610cb5565b60405180910390f35b600080600090505b82518110156102cf578360405160200161022f9190610c7f565b6040516020818303038152906040528051906020012083828151811061027e577f4e487b7100000000000000000000000000000000000000000000000000000000600052603260045260246000fd5b60200260200101516040516020016102969190610c7f565b6040516020818303038152906040528051906020012014156102bc5760019150506102d5565b80806102c79061109f565b915050610215565b50600090505b92915050565b606060005b82518110156103a757836040516020016102fa9190610c7f565b60405160208183030381529060405280519060200120838281518110610349577f4e487b7100000000000000000000000000000000000000000000000000000000600052603260045260246000fd5b60200260200101516040516020016103619190610c7f565b6040516020818303038152906040528051906020012014156103945760006103888261087b565b905080925050506103e1565b808061039f9061109f565b9150506102e0565b506040518060400160405280600981526020017f6e6f7420666f756e64000000000000000000000000000000000000000000000081525090505b92915050565b600080600090505b82518110156104a957836040516020016104099190610c7f565b60405160208183030381529060405280519060200120838281518110610458577f4e487b7100000000000000000000000000000000000000000000000000000000600052603260045260246000fd5b60200260200101516040516020016104709190610c7f565b6040516020818303038152906040528051906020012014156104965760019150506104af565b80806104a19061109f565b9150506103ef565b50600090505b92915050565b60008060009050600083905060005b815181101561058a5760008183516104dc9190610fe2565b90506000838381518110610519577f4e487b7100000000000000000000000000000000000000000000000000000000600052603260045260246000fd5b602001015160f81c60f81b905060008160f81c9050600060308260ff166105409190610fe2565b905060018461054f9190610fe2565b600a61055b9190610e6a565b816105669190610f88565b876105719190610d90565b96505050505080806105829061109f565b9150506104c4565b508192505050919050565b600080600090505b825181101561065757836040516020016105b79190610c7f565b60405160208183030381529060405280519060200120838281518110610606577f4e487b7100000000000000000000000000000000000000000000000000000000600052603260045260246000fd5b602002602001015160405160200161061e9190610c7f565b60405160208183030381529060405280519060200120141561064457600191505061065d565b808061064f9061109f565b91505061059d565b50600090505b92915050565b606060005b825181101561072f57836040516020016106829190610c7f565b604051602081830303815290604052805190602001208382815181106106d1577f4e487b7100000000000000000000000000000000000000000000000000000000600052603260045260246000fd5b60200260200101516040516020016106e99190610c7f565b60405160208183030381529060405280519060200120141561071c5760006107108261087b565b90508092505050610769565b80806107279061109f565b915050610668565b506040518060400160405280600981526020017f6e6f7420666f756e64000000000000000000000000000000000000000000000081525090505b92915050565b606060005b825181101561083b578360405160200161078e9190610c7f565b604051602081830303815290604052805190602001208382815181106107dd577f4e487b7100000000000000000000000000000000000000000000000000000000600052603260045260246000fd5b60200260200101516040516020016107f59190610c7f565b60405160208183030381529060405280519060200120141561082857600061081c8261087b565b90508092505050610875565b80806108339061109f565b915050610774565b506040518060400160405280600981526020017f6e6f7420666f756e64000000000000000000000000000000000000000000000081525090505b92915050565b6060600061088883610893565b905080915050919050565b606060008214156108db576040518060400160405280600181526020017f30000000000000000000000000000000000000000000000000000000000000008152509050610a3b565b600082905060005b6000821461090d5780806108f69061109f565b915050600a826109069190610de6565b91506108e3565b60008167ffffffffffffffff81111561094f577f4e487b7100000000000000000000000000000000000000000000000000000000600052604160045260246000fd5b6040519080825280601f01601f1916602001820160405280156109815781602001600182028036833780820191505090505b5090505b60008514610a345760018261099a9190610fe2565b9150600a856109a991906110f2565b60306109b59190610d90565b60f81b8183815181106109f1577f4e487b7100000000000000000000000000000000000000000000000000000000600052603260045260246000fd5b60200101907effffffffffffffffffffffffffffffffffffffffffffffffffffffffffffff1916908160001a905350600a85610a2d9190610de6565b9450610985565b8093505050505b919050565b6000610a53610a4e84610d17565b610cf2565b90508083825260208201905082856020860282011115610a7257600080fd5b60005b85811015610aa25781610a888882610b3e565b845260208401935060208301925050600181019050610a75565b5050509392505050565b6000610abf610aba84610d43565b610cf2565b905082815260208101848484011115610ad757600080fd5b610ae284828561102c565b509392505050565b600082601f830112610afb57600080fd5b8135610b0b848260208601610a40565b91505092915050565b600082601f830112610b2557600080fd5b8135610b35848260208601610aac565b91505092915050565b600081359050610b4d816111ce565b92915050565b600060208284031215610b6557600080fd5b600082013567ffffffffffffffff811115610b7f57600080fd5b610b8b84828501610b14565b91505092915050565b600060208284031215610ba657600080fd5b6000610bb484828501610b3e565b91505092915050565b60008060408385031215610bd057600080fd5b6000610bde85828601610b3e565b925050602083013567ffffffffffffffff811115610bfb57600080fd5b610c0785828601610aea565b9150509250929050565b610c1a81611016565b82525050565b6000610c2b82610d74565b610c358185610d7f565b9350610c4581856020860161103b565b610c4e816111b0565b840191505092915050565b610c6281611022565b82525050565b610c79610c7482611022565b6110e8565b82525050565b6000610c8b8284610c68565b60208201915081905092915050565b6000602082019050610caf6000830184610c11565b92915050565b60006020820190508181036000830152610ccf8184610c20565b905092915050565b6000602082019050610cec6000830184610c59565b92915050565b6000610cfc610d0d565b9050610d08828261106e565b919050565b6000604051905090565b600067ffffffffffffffff821115610d3257610d31611181565b5b602082029050602081019050919050565b600067ffffffffffffffff821115610d5e57610d5d611181565b5b610d67826111b0565b9050602081019050919050565b600081519050919050565b600082825260208201905092915050565b6000610d9b82611022565b9150610da683611022565b9250827fffffffffffffffffffffffffffffffffffffffffffffffffffffffffffffffff03821115610ddb57610dda611123565b5b828201905092915050565b6000610df182611022565b9150610dfc83611022565b925082610e0c57610e0b611152565b5b828204905092915050565b6000808291508390505b6001851115610e6157808604811115610e3d57610e3c611123565b5b6001851615610e4c5780820291505b8081029050610e5a856111c1565b9450610e21565b94509492505050565b6000610e7582611022565b9150610e8083611022565b9250610ead7fffffffffffffffffffffffffffffffffffffffffffffffffffffffffffffffff8484610eb5565b905092915050565b600082610ec55760019050610f81565b81610ed35760009050610f81565b8160018114610ee95760028114610ef357610f22565b6001915050610f81565b60ff841115610f0557610f04611123565b5b8360020a915084821115610f1c57610f1b611123565b5b50610f81565b5060208310610133831016604e8410600b8410161715610f575782820a905083811115610f5257610f51611123565b5b610f81565b610f648484846001610e17565b92509050818404811115610f7b57610f7a611123565b5b81810290505b9392505050565b6000610f9382611022565b9150610f9e83611022565b9250817fffffffffffffffffffffffffffffffffffffffffffffffffffffffffffffffff0483118215151615610fd757610fd6611123565b5b828202905092915050565b6000610fed82611022565b9150610ff883611022565b92508282101561100b5761100a611123565b5b828203905092915050565b60008115159050919050565b6000819050919050565b82818337600083830152505050565b60005b8381101561105957808201518184015260208101905061103e565b83811115611068576000848401525b50505050565b611077826111b0565b810181811067ffffffffffffffff8211171561109657611095611181565b5b80604052505050565b60006110aa82611022565b91507fffffffffffffffffffffffffffffffffffffffffffffffffffffffffffffffff8214156110dd576110dc611123565b5b600182019050919050565b6000819050919050565b60006110fd82611022565b915061110883611022565b92508261111857611117611152565b5b828206905092915050565b7f4e487b7100000000000000000000000000000000000000000000000000000000600052601160045260246000fd5b7f4e487b7100000000000000000000000000000000000000000000000000000000600052601260045260246000fd5b7f4e487b7100000000000000000000000000000000000000000000000000000000600052604160045260246000fd5b6000601f19601f8301169050919050565b60008160011c9050919050565b6111d781611022565b81146111e257600080fd5b5056fea26469706673582212204c031b9f81b76e4fecd0978c36dcee34d3815bd2371e5f359f47edc313111fe864736f6c63430008010033",
  "linkReferences": {},
  "deployedLinkReferences": {}
}