{
    "_format": "hh-sol-artifact-1",
    "contractName": "IP",
    "sourceName": "contracts/IP.sol",
    "abi": [
        {
            "inputs": [],
            "stateMutability": "nonpayable",
            "type": "constructor"
        },
        {
            "inputs": [
                {
                    "internalType": "uint256",
                    "name": "",
                    "type": "uint256"
                }
            ],
            "name": "bidProperty",
            "outputs": [
                {
                    "internalType": "address",
                    "name": "",
                    "type": "address"
                }
            ],
            "stateMutability": "view",
            "type": "function"
        },
        {
            "inputs": [
                {
                    "internalType": "uint256",
                    "name": "i",
                    "type": "uint256"
                },
                {
                    "internalType": "enum IP.Status",
                    "name": "val",
                    "type": "uint8"
                }
            ],
            "name": "changeStatus",
            "outputs": [
                {
                    "internalType": "bool",
                    "name": "",
                    "type": "bool"
                }
            ],
            "stateMutability": "nonpayable",
            "type": "function"
        },
        {
            "inputs": [],
            "name": "countIP",
            "outputs": [
                {
                    "internalType": "uint256",
                    "name": "",
                    "type": "uint256"
                }
            ],
            "stateMutability": "view",
            "type": "function"
        },
        {
            "inputs": [],
            "name": "getAllIP",
            "outputs": [
                {
                    "internalType": "address[]",
                    "name": "",
                    "type": "address[]"
                }
            ],
            "stateMutability": "view",
            "type": "function"
        },
        {
            "inputs": [],
            "name": "getAllbids",
            "outputs": [
                {
                    "internalType": "address[]",
                    "name": "",
                    "type": "address[]"
                }
            ],
            "stateMutability": "view",
            "type": "function"
        },
        {
            "inputs": [
                {
                    "internalType": "uint256",
                    "name": "i",
                    "type": "uint256"
                }
            ],
            "name": "getIP",
            "outputs": [
                {
                    "internalType": "string",
                    "name": "",
                    "type": "string"
                },
                {
                    "internalType": "string",
                    "name": "",
                    "type": "string"
                },
                {
                    "internalType": "string",
                    "name": "",
                    "type": "string"
                },
                {
                    "internalType": "string",
                    "name": "",
                    "type": "string"
                },
                {
                    "internalType": "string",
                    "name": "",
                    "type": "string"
                },
                {
                    "internalType": "uint256",
                    "name": "",
                    "type": "uint256"
                },
                {
                    "internalType": "enum IP.Status",
                    "name": "status",
                    "type": "uint8"
                }
            ],
            "stateMutability": "view",
            "type": "function"
        },
        {
            "inputs": [],
            "name": "getMember",
            "outputs": [
                {
                    "internalType": "address[]",
                    "name": "",
                    "type": "address[]"
                },
                {
                    "internalType": "string[]",
                    "name": "",
                    "type": "string[]"
                },
                {
                    "internalType": "string[]",
                    "name": "",
                    "type": "string[]"
                },
                {
                    "internalType": "string[]",
                    "name": "",
                    "type": "string[]"
                },
                {
                    "internalType": "string[]",
                    "name": "",
                    "type": "string[]"
                },
                {
                    "internalType": "string[]",
                    "name": "",
                    "type": "string[]"
                },
                {
                    "internalType": "uint256[]",
                    "name": "",
                    "type": "uint256[]"
                },
                {
                    "internalType": "enum IP.Status[]",
                    "name": "",
                    "type": "uint8[]"
                }
            ],
            "stateMutability": "view",
            "type": "function"
        },
        {
            "inputs": [
                {
                    "internalType": "uint256",
                    "name": "i",
                    "type": "uint256"
                }
            ],
            "name": "getStatus",
            "outputs": [
                {
                    "internalType": "enum IP.Status",
                    "name": "status",
                    "type": "uint8"
                }
            ],
            "stateMutability": "view",
            "type": "function"
        },
        {
            "inputs": [
                {
                    "internalType": "uint256",
                    "name": "",
                    "type": "uint256"
                }
            ],
            "name": "intelProperty",
            "outputs": [
                {
                    "internalType": "address",
                    "name": "",
                    "type": "address"
                }
            ],
            "stateMutability": "view",
            "type": "function"
        },
        {
            "inputs": [],
            "name": "ipCount",
            "outputs": [
                {
                    "internalType": "uint256",
                    "name": "",
                    "type": "uint256"
                }
            ],
            "stateMutability": "view",
            "type": "function"
        },
        {
            "inputs": [],
            "name": "owner",
            "outputs": [
                {
                    "internalType": "address",
                    "name": "",
                    "type": "address"
                }
            ],
            "stateMutability": "view",
            "type": "function"
        },
        {
            "inputs": [
                {
                    "internalType": "uint256",
                    "name": "",
                    "type": "uint256"
                }
            ],
            "name": "property",
            "outputs": [
                {
                    "internalType": "address",
                    "name": "user",
                    "type": "address"
                },
                {
                    "internalType": "string",
                    "name": "IPname",
                    "type": "string"
                },
                {
                    "internalType": "string",
                    "name": "fullname",
                    "type": "string"
                },
                {
                    "internalType": "string",
                    "name": "country",
                    "type": "string"
                },
                {
                    "internalType": "string",
                    "name": "addressplace",
                    "type": "string"
                },
                {
                    "internalType": "string",
                    "name": "symbol",
                    "type": "string"
                },
                {
                    "internalType": "uint256",
                    "name": "timestamp",
                    "type": "uint256"
                },
                {
                    "internalType": "bool",
                    "name": "isRegistered",
                    "type": "bool"
                }
            ],
            "stateMutability": "view",
            "type": "function"
        },
        {
            "inputs": [
                {
                    "internalType": "address",
                    "name": "_address",
                    "type": "address"
                },
                {
                    "internalType": "string",
                    "name": "_IPname",
                    "type": "string"
                },
                {
                    "internalType": "string",
                    "name": "_fullname",
                    "type": "string"
                },
                {
                    "internalType": "string",
                    "name": "_country",
                    "type": "string"
                },
                {
                    "internalType": "string",
                    "name": "_addressplace",
                    "type": "string"
                },
                {
                    "internalType": "string",
                    "name": "_symbol",
                    "type": "string"
                }
            ],
            "name": "setIP",
            "outputs": [],
            "stateMutability": "nonpayable",
            "type": "function"
        }
    ],
    "bytecode": "0x608060405234801561001057600080fd5b50336000806101000a81548173ffffffffffffffffffffffffffffffffffffffff021916908373ffffffffffffffffffffffffffffffffffffffff16021790555060006002819055506126f2806100686000396000f3fe608060405234801561001057600080fd5b50600436106100cf5760003560e01c80636c45c9471161008c578063907e67fe11610066578063907e67fe1461024e5780639d71bd251461026c578063c5a8a2ab1461028a578063e6111aa9146102ba576100cf565b80636c45c947146101e25780637ce9e707146102005780638da5cb5b14610230576100cf565b80630274c094146100d457806310aba822146100f957806330e1ad3214610129578063436aa76c146101605780635c622a0e146101965780636b9eca4c146101c6575b600080fd5b6100dc6102d8565b6040516100f0989796959493929190612142565b60405180910390f35b610113600480360381019061010e9190611d39565b610d2e565b6040516101209190612064565b60405180910390f35b610143600480360381019061013e9190611d39565b610d6d565b60405161015798979695949392919061207f565b60405180910390f35b61017a60048036038101906101759190611d39565b61108a565b60405161018d979695949392919061222e565b60405180910390f35b6101b060048036038101906101ab9190611d39565b611559565b6040516101bd9190612213565b60405180910390f35b6101e060048036038101906101db9190611c38565b6115e6565b005b6101ea61183d565b6040516101f791906122c0565b60405180910390f35b61021a60048036038101906102159190611d39565b61184a565b6040516102279190612064565b60405180910390f35b610238611889565b6040516102459190612064565b60405180910390f35b6102566118ad565b60405161026391906122c0565b60405180910390f35b6102746118b3565b6040516102819190612120565b60405180910390f35b6102a4600480360381019061029f9190611d62565b611941565b6040516102b191906121f8565b60405180910390f35b6102c2611a60565b6040516102cf9190612120565b60405180910390f35b606080606080606080606080600060025467ffffffffffffffff811115610328577f4e487b7100000000000000000000000000000000000000000000000000000000600052604160045260246000fd5b6040519080825280602002602001820160405280156103565781602001602082028036833780820191505090505b509050600060025467ffffffffffffffff81111561039d577f4e487b7100000000000000000000000000000000000000000000000000000000600052604160045260246000fd5b6040519080825280602002602001820160405280156103d057816020015b60608152602001906001900390816103bb5790505b509050600060025467ffffffffffffffff811115610417577f4e487b7100000000000000000000000000000000000000000000000000000000600052604160045260246000fd5b60405190808252806020026020018201604052801561044a57816020015b60608152602001906001900390816104355790505b509050600060025467ffffffffffffffff811115610491577f4e487b7100000000000000000000000000000000000000000000000000000000600052604160045260246000fd5b6040519080825280602002602001820160405280156104c457816020015b60608152602001906001900390816104af5790505b509050600060025467ffffffffffffffff81111561050b577f4e487b7100000000000000000000000000000000000000000000000000000000600052604160045260246000fd5b60405190808252806020026020018201604052801561053e57816020015b60608152602001906001900390816105295790505b509050600060025467ffffffffffffffff811115610585577f4e487b7100000000000000000000000000000000000000000000000000000000600052604160045260246000fd5b6040519080825280602002602001820160405280156105b857816020015b60608152602001906001900390816105a35790505b509050600060025467ffffffffffffffff8111156105ff577f4e487b7100000000000000000000000000000000000000000000000000000000600052604160045260246000fd5b60405190808252806020026020018201604052801561062d5781602001602082028036833780820191505090505b509050600060025467ffffffffffffffff811115610674577f4e487b7100000000000000000000000000000000000000000000000000000000600052604160045260246000fd5b6040519080825280602002602001820160405280156106a25781602001602082028036833780820191505090505b50905060005b600254811015610d035760006001600083815260200190815260200160002060000154905060006003600084815260200190815260200160002090508060000160009054906101000a900473ffffffffffffffffffffffffffffffffffffffff168b8481518110610742577f4e487b7100000000000000000000000000000000000000000000000000000000600052603260045260246000fd5b602002602001019073ffffffffffffffffffffffffffffffffffffffff16908173ffffffffffffffffffffffffffffffffffffffff168152505080600101805461078b906124f1565b80601f01602080910402602001604051908101604052809291908181526020018280546107b7906124f1565b80156108045780601f106107d957610100808354040283529160200191610804565b820191906000526020600020905b8154815290600101906020018083116107e757829003601f168201915b50505050508a8481518110610842577f4e487b7100000000000000000000000000000000000000000000000000000000600052603260045260246000fd5b602002602001018190525080600201805461085c906124f1565b80601f0160208091040260200160405190810160405280929190818152602001828054610888906124f1565b80156108d55780601f106108aa576101008083540402835291602001916108d5565b820191906000526020600020905b8154815290600101906020018083116108b857829003601f168201915b5050505050898481518110610913577f4e487b7100000000000000000000000000000000000000000000000000000000600052603260045260246000fd5b602002602001018190525080600301805461092d906124f1565b80601f0160208091040260200160405190810160405280929190818152602001828054610959906124f1565b80156109a65780601f1061097b576101008083540402835291602001916109a6565b820191906000526020600020905b81548152906001019060200180831161098957829003601f168201915b50505050508884815181106109e4577f4e487b7100000000000000000000000000000000000000000000000000000000600052603260045260246000fd5b60200260200101819052508060040180546109fe906124f1565b80601f0160208091040260200160405190810160405280929190818152602001828054610a2a906124f1565b8015610a775780601f10610a4c57610100808354040283529160200191610a77565b820191906000526020600020905b815481529060010190602001808311610a5a57829003601f168201915b5050505050878481518110610ab5577f4e487b7100000000000000000000000000000000000000000000000000000000600052603260045260246000fd5b6020026020010181905250806005018054610acf906124f1565b80601f0160208091040260200160405190810160405280929190818152602001828054610afb906124f1565b8015610b485780601f10610b1d57610100808354040283529160200191610b48565b820191906000526020600020905b815481529060010190602001808311610b2b57829003601f168201915b5050505050868481518110610b86577f4e487b7100000000000000000000000000000000000000000000000000000000600052603260045260246000fd5b60200260200101819052508060060154858481518110610bcf577f4e487b7100000000000000000000000000000000000000000000000000000000600052603260045260246000fd5b602002602001018181525050806007018281548110610c17577f4e487b7100000000000000000000000000000000000000000000000000000000600052603260045260246000fd5b90600052602060002090602091828204019190069054906101000a900460ff16848481518110610c70577f4e487b7100000000000000000000000000000000000000000000000000000000600052603260045260246000fd5b60200260200101906002811115610cb0577f4e487b7100000000000000000000000000000000000000000000000000000000600052602160045260246000fd5b90816002811115610cea577f4e487b7100000000000000000000000000000000000000000000000000000000600052602160045260246000fd5b8152505050508080610cfb90612554565b9150506106a8565b5087878787878787879f509f509f509f509f509f509f509f5050505050505050509091929394959697565b60058181548110610d3e57600080fd5b906000526020600020016000915054906101000a900473ffffffffffffffffffffffffffffffffffffffff1681565b60036020528060005260406000206000915090508060000160009054906101000a900473ffffffffffffffffffffffffffffffffffffffff1690806001018054610db6906124f1565b80601f0160208091040260200160405190810160405280929190818152602001828054610de2906124f1565b8015610e2f5780601f10610e0457610100808354040283529160200191610e2f565b820191906000526020600020905b815481529060010190602001808311610e1257829003601f168201915b505050505090806002018054610e44906124f1565b80601f0160208091040260200160405190810160405280929190818152602001828054610e70906124f1565b8015610ebd5780601f10610e9257610100808354040283529160200191610ebd565b820191906000526020600020905b815481529060010190602001808311610ea057829003601f168201915b505050505090806003018054610ed2906124f1565b80601f0160208091040260200160405190810160405280929190818152602001828054610efe906124f1565b8015610f4b5780601f10610f2057610100808354040283529160200191610f4b565b820191906000526020600020905b815481529060010190602001808311610f2e57829003601f168201915b505050505090806004018054610f60906124f1565b80601f0160208091040260200160405190810160405280929190818152602001828054610f8c906124f1565b8015610fd95780601f10610fae57610100808354040283529160200191610fd9565b820191906000526020600020905b815481529060010190602001808311610fbc57829003601f168201915b505050505090806005018054610fee906124f1565b80601f016020809104026020016040519081016040528092919081815260200182805461101a906124f1565b80156110675780601f1061103c57610100808354040283529160200191611067565b820191906000526020600020905b81548152906001019060200180831161104a57829003601f168201915b5050505050908060060154908060080160009054906101000a900460ff16905088565b60608060608060606000806000600160008a81526020019081526020016000206000015490506000600360008b8152602001908152602001600020604051806101200160405290816000820160009054906101000a900473ffffffffffffffffffffffffffffffffffffffff1673ffffffffffffffffffffffffffffffffffffffff1673ffffffffffffffffffffffffffffffffffffffff168152602001600182018054611137906124f1565b80601f0160208091040260200160405190810160405280929190818152602001828054611163906124f1565b80156111b05780601f10611185576101008083540402835291602001916111b0565b820191906000526020600020905b81548152906001019060200180831161119357829003601f168201915b505050505081526020016002820180546111c9906124f1565b80601f01602080910402602001604051908101604052809291908181526020018280546111f5906124f1565b80156112425780601f1061121757610100808354040283529160200191611242565b820191906000526020600020905b81548152906001019060200180831161122557829003601f168201915b5050505050815260200160038201805461125b906124f1565b80601f0160208091040260200160405190810160405280929190818152602001828054611287906124f1565b80156112d45780601f106112a9576101008083540402835291602001916112d4565b820191906000526020600020905b8154815290600101906020018083116112b757829003601f168201915b505050505081526020016004820180546112ed906124f1565b80601f0160208091040260200160405190810160405280929190818152602001828054611319906124f1565b80156113665780601f1061133b57610100808354040283529160200191611366565b820191906000526020600020905b81548152906001019060200180831161134957829003601f168201915b5050505050815260200160058201805461137f906124f1565b80601f01602080910402602001604051908101604052809291908181526020018280546113ab906124f1565b80156113f85780601f106113cd576101008083540402835291602001916113f8565b820191906000526020600020905b8154815290600101906020018083116113db57829003601f168201915b5050505050815260200160068201548152602001600782018054806020026020016040519081016040528092919081815260200182805480156114b557602002820191906000526020600020906000905b82829054906101000a900460ff16600281111561148f577f4e487b7100000000000000000000000000000000000000000000000000000000600052602160045260246000fd5b815260200190600101906020826000010492830192600103820291508084116114495790505b505050505081526020016008820160009054906101000a900460ff161515151581525050905080602001518160400151826060015183608001518460a001518560c001518660e001518881518110611536577f4e487b7100000000000000000000000000000000000000000000000000000000600052603260045260246000fd5b602002602001015198509850985098509850985098505050919395979092949650565b6000600360008381526020019081526020016000206007016001600084815260200190815260200160002060000154815481106115bf577f4e487b7100000000000000000000000000000000000000000000000000000000600052603260045260246000fd5b90600052602060002090602091828204019190069054906101000a900460ff169050919050565b60008660036000600254815260200190815260200160002060000160006101000a81548173ffffffffffffffffffffffffffffffffffffffff021916908373ffffffffffffffffffffffffffffffffffffffff16021790555085600360006002548152602001908152602001600020600101908051906020019061166b929190611aee565b50846003600060025481526020019081526020016000206002019080519060200190611698929190611aee565b508360036000600254815260200190815260200160002060030190805190602001906116c5929190611aee565b508260036000600254815260200190815260200160002060040190805190602001906116f2929190611aee565b5081600360006002548152602001908152602001600020600501908051906020019061171f929190611aee565b5042600360006002548152602001908152602001600020600601819055506003600060025481526020019081526020016000206007018190806001815401808255809150506001900390600052602060002090602091828204019190069091909190916101000a81548160ff021916908360028111156117c8577f4e487b7100000000000000000000000000000000000000000000000000000000600052602160045260246000fd5b0217905550600060016000600254815260200190815260200160002060000181905550600160036000600254815260200190815260200160002060080160006101000a81548160ff0219169083151502179055506002600081548092919061182f90612554565b919050555050505050505050565b6000600580549050905090565b6006818154811061185a57600080fd5b906000526020600020016000915054906101000a900473ffffffffffffffffffffffffffffffffffffffff1681565b60008054906101000a900473ffffffffffffffffffffffffffffffffffffffff1681565b60025481565b6060600580548060200260200160405190810160405280929190818152602001828054801561193757602002820191906000526020600020905b8160009054906101000a900473ffffffffffffffffffffffffffffffffffffffff1673ffffffffffffffffffffffffffffffffffffffff16815260200190600101908083116118ed575b5050505050905090565b60008060009054906101000a900473ffffffffffffffffffffffffffffffffffffffff1673ffffffffffffffffffffffffffffffffffffffff163373ffffffffffffffffffffffffffffffffffffffff161461199c57600080fd5b600360008481526020019081526020016000206007018290806001815401808255809150506001900390600052602060002090602091828204019190069091909190916101000a81548160ff02191690836002811115611a25577f4e487b7100000000000000000000000000000000000000000000000000000000600052602160045260246000fd5b0217905550600160008481526020019081526020016000206000016000815480929190611a5190612554565b91905055506001905092915050565b60606006805480602002602001604051908101604052809291908181526020018280548015611ae457602002820191906000526020600020905b8160009054906101000a900473ffffffffffffffffffffffffffffffffffffffff1673ffffffffffffffffffffffffffffffffffffffff1681526020019060010190808311611a9a575b5050505050905090565b828054611afa906124f1565b90600052602060002090601f016020900481019282611b1c5760008555611b63565b82601f10611b3557805160ff1916838001178555611b63565b82800160010185558215611b63579182015b82811115611b62578251825591602001919060010190611b47565b5b509050611b709190611b74565b5090565b5b80821115611b8d576000816000905550600101611b75565b5090565b6000611ba4611b9f84612300565b6122db565b905082815260208101848484011115611bbc57600080fd5b611bc78482856124af565b509392505050565b600081359050611bde8161267e565b92915050565b600081359050611bf381612695565b92915050565b600082601f830112611c0a57600080fd5b8135611c1a848260208601611b91565b91505092915050565b600081359050611c32816126a5565b92915050565b60008060008060008060c08789031215611c5157600080fd5b6000611c5f89828a01611bcf565b965050602087013567ffffffffffffffff811115611c7c57600080fd5b611c8889828a01611bf9565b955050604087013567ffffffffffffffff811115611ca557600080fd5b611cb189828a01611bf9565b945050606087013567ffffffffffffffff811115611cce57600080fd5b611cda89828a01611bf9565b935050608087013567ffffffffffffffff811115611cf757600080fd5b611d0389828a01611bf9565b92505060a087013567ffffffffffffffff811115611d2057600080fd5b611d2c89828a01611bf9565b9150509295509295509295565b600060208284031215611d4b57600080fd5b6000611d5984828501611c23565b91505092915050565b60008060408385031215611d7557600080fd5b6000611d8385828601611c23565b9250506020611d9485828601611be4565b9150509250929050565b6000611daa8383611dfa565b60208301905092915050565b6000611dc28383611fb6565b60208301905092915050565b6000611dda8383611fd4565b905092915050565b6000611dee8383612046565b60208301905092915050565b611e0381612442565b82525050565b611e1281612442565b82525050565b6000611e2382612371565b611e2d81856123dc565b9350611e3883612331565b8060005b83811015611e69578151611e508882611d9e565b9750611e5b836123a8565b925050600181019050611e3c565b5085935050505092915050565b6000611e818261237c565b611e8b818561240f565b9350611e9683612341565b8060005b83811015611ec7578151611eae8882611db6565b9750611eb9836123b5565b925050600181019050611e9a565b5085935050505092915050565b6000611edf82612387565b611ee981856123ed565b935083602082028501611efb85612351565b8060005b85811015611f375784840389528151611f188582611dce565b9450611f23836123c2565b925060208a01995050600181019050611eff565b50829750879550505050505092915050565b6000611f5482612392565b611f5e81856123fe565b9350611f6983612361565b8060005b83811015611f9a578151611f818882611de2565b9750611f8c836123cf565b925050600181019050611f6d565b5085935050505092915050565b611fb081612454565b82525050565b611fbf8161249d565b82525050565b611fce8161249d565b82525050565b6000611fdf8261239d565b611fe98185612420565b9350611ff98185602086016124be565b61200281612659565b840191505092915050565b60006120188261239d565b6120228185612431565b93506120328185602086016124be565b61203b81612659565b840191505092915050565b61204f81612493565b82525050565b61205e81612493565b82525050565b60006020820190506120796000830184611e09565b92915050565b600061010082019050612095600083018b611e09565b81810360208301526120a7818a61200d565b905081810360408301526120bb818961200d565b905081810360608301526120cf818861200d565b905081810360808301526120e3818761200d565b905081810360a08301526120f7818661200d565b905061210660c0830185612055565b61211360e0830184611fa7565b9998505050505050505050565b6000602082019050818103600083015261213a8184611e18565b905092915050565b600061010082019050818103600083015261215d818b611e18565b90508181036020830152612171818a611ed4565b905081810360408301526121858189611ed4565b905081810360608301526121998188611ed4565b905081810360808301526121ad8187611ed4565b905081810360a08301526121c18186611ed4565b905081810360c08301526121d58185611f49565b905081810360e08301526121e98184611e76565b90509998505050505050505050565b600060208201905061220d6000830184611fa7565b92915050565b60006020820190506122286000830184611fc5565b92915050565b600060e0820190508181036000830152612248818a61200d565b9050818103602083015261225c818961200d565b90508181036040830152612270818861200d565b90508181036060830152612284818761200d565b90508181036080830152612298818661200d565b90506122a760a0830185612055565b6122b460c0830184611fc5565b98975050505050505050565b60006020820190506122d56000830184612055565b92915050565b60006122e56122f6565b90506122f18282612523565b919050565b6000604051905090565b600067ffffffffffffffff82111561231b5761231a61262a565b5b61232482612659565b9050602081019050919050565b6000819050602082019050919050565b6000819050602082019050919050565b6000819050602082019050919050565b6000819050602082019050919050565b600081519050919050565b600081519050919050565b600081519050919050565b600081519050919050565b600081519050919050565b6000602082019050919050565b6000602082019050919050565b6000602082019050919050565b6000602082019050919050565b600082825260208201905092915050565b600082825260208201905092915050565b600082825260208201905092915050565b600082825260208201905092915050565b600082825260208201905092915050565b600082825260208201905092915050565b600061244d82612473565b9050919050565b60008115159050919050565b600081905061246e8261266a565b919050565b600073ffffffffffffffffffffffffffffffffffffffff82169050919050565b6000819050919050565b60006124a882612460565b9050919050565b82818337600083830152505050565b60005b838110156124dc5780820151818401526020810190506124c1565b838111156124eb576000848401525b50505050565b6000600282049050600182168061250957607f821691505b6020821081141561251d5761251c6125fb565b5b50919050565b61252c82612659565b810181811067ffffffffffffffff8211171561254b5761254a61262a565b5b80604052505050565b600061255f82612493565b91507fffffffffffffffffffffffffffffffffffffffffffffffffffffffffffffffff8214156125925761259161259d565b5b600182019050919050565b7f4e487b7100000000000000000000000000000000000000000000000000000000600052601160045260246000fd5b7f4e487b7100000000000000000000000000000000000000000000000000000000600052602160045260246000fd5b7f4e487b7100000000000000000000000000000000000000000000000000000000600052602260045260246000fd5b7f4e487b7100000000000000000000000000000000000000000000000000000000600052604160045260246000fd5b6000601f19601f8301169050919050565b6003811061267b5761267a6125cc565b5b50565b61268781612442565b811461269257600080fd5b50565b600381106126a257600080fd5b50565b6126ae81612493565b81146126b957600080fd5b5056fea264697066735822122031d438cf02f8cc3f536146babc1bc827b980baf32ab19e5d5a8c82529f788ab664736f6c63430008010033",
    "linkReferences": {},
    "deployedLinkReferences": {}
}