{
  "_format": "hh-sol-artifact-1",
  "contractName": "IP",
  "sourceName": "contracts/IP.sol",
  "abi": [
    {
      "inputs": [],
      "stateMutability": "nonpayable",
      "type": "constructor"
    },
    {
      "inputs": [
        {
          "internalType": "uint256",
          "name": "",
          "type": "uint256"
        }
      ],
      "name": "bidProperty",
      "outputs": [
        {
          "internalType": "address",
          "name": "",
          "type": "address"
        }
      ],
      "stateMutability": "view",
      "type": "function"
    },
    {
      "inputs": [
        {
          "internalType": "uint256",
          "name": "i",
          "type": "uint256"
        },
        {
          "internalType": "enum IP.Status",
          "name": "val",
          "type": "uint8"
        }
      ],
      "name": "changeStatus",
      "outputs": [
        {
          "internalType": "bool",
          "name": "",
          "type": "bool"
        }
      ],
      "stateMutability": "nonpayable",
      "type": "function"
    },
    {
      "inputs": [],
      "name": "countIP",
      "outputs": [
        {
          "internalType": "uint256",
          "name": "",
          "type": "uint256"
        }
      ],
      "stateMutability": "view",
      "type": "function"
    },
    {
      "inputs": [],
      "name": "getAllIP",
      "outputs": [
        {
          "internalType": "address[]",
          "name": "",
          "type": "address[]"
        }
      ],
      "stateMutability": "view",
      "type": "function"
    },
    {
      "inputs": [],
      "name": "getAllbids",
      "outputs": [
        {
          "internalType": "address[]",
          "name": "",
          "type": "address[]"
        }
      ],
      "stateMutability": "view",
      "type": "function"
    },
    {
      "inputs": [
        {
          "internalType": "uint256",
          "name": "i",
          "type": "uint256"
        }
      ],
      "name": "getIP",
      "outputs": [
        {
          "internalType": "string",
          "name": "",
          "type": "string"
        },
        {
          "internalType": "string",
          "name": "",
          "type": "string"
        },
        {
          "internalType": "string",
          "name": "",
          "type": "string"
        },
        {
          "internalType": "string",
          "name": "",
          "type": "string"
        },
        {
          "internalType": "string",
          "name": "",
          "type": "string"
        },
        {
          "internalType": "uint256",
          "name": "",
          "type": "uint256"
        },
        {
          "internalType": "enum IP.Status",
          "name": "status",
          "type": "uint8"
        }
      ],
      "stateMutability": "view",
      "type": "function"
    },
    {
      "inputs": [],
      "name": "getMember",
      "outputs": [
        {
          "internalType": "string[]",
          "name": "",
          "type": "string[]"
        },
        {
          "internalType": "string[]",
          "name": "",
          "type": "string[]"
        },
        {
          "internalType": "string[]",
          "name": "",
          "type": "string[]"
        },
        {
          "internalType": "string[]",
          "name": "",
          "type": "string[]"
        },
        {
          "internalType": "string[]",
          "name": "",
          "type": "string[]"
        },
        {
          "internalType": "enum IP.Status[]",
          "name": "",
          "type": "uint8[]"
        }
      ],
      "stateMutability": "view",
      "type": "function"
    },
    {
      "inputs": [
        {
          "internalType": "uint256",
          "name": "i",
          "type": "uint256"
        }
      ],
      "name": "getStatus",
      "outputs": [
        {
          "internalType": "enum IP.Status",
          "name": "status",
          "type": "uint8"
        }
      ],
      "stateMutability": "view",
      "type": "function"
    },
    {
      "inputs": [
        {
          "internalType": "uint256",
          "name": "",
          "type": "uint256"
        }
      ],
      "name": "intelProperty",
      "outputs": [
        {
          "internalType": "address",
          "name": "",
          "type": "address"
        }
      ],
      "stateMutability": "view",
      "type": "function"
    },
    {
      "inputs": [],
      "name": "ipCount",
      "outputs": [
        {
          "internalType": "uint256",
          "name": "",
          "type": "uint256"
        }
      ],
      "stateMutability": "view",
      "type": "function"
    },
    {
      "inputs": [],
      "name": "owner",
      "outputs": [
        {
          "internalType": "address",
          "name": "",
          "type": "address"
        }
      ],
      "stateMutability": "view",
      "type": "function"
    },
    {
      "inputs": [
        {
          "internalType": "uint256",
          "name": "",
          "type": "uint256"
        }
      ],
      "name": "property",
      "outputs": [
        {
          "internalType": "address",
          "name": "user",
          "type": "address"
        },
        {
          "internalType": "string",
          "name": "IPname",
          "type": "string"
        },
        {
          "internalType": "string",
          "name": "fullname",
          "type": "string"
        },
        {
          "internalType": "string",
          "name": "country",
          "type": "string"
        },
        {
          "internalType": "string",
          "name": "addressplace",
          "type": "string"
        },
        {
          "internalType": "string",
          "name": "symbol",
          "type": "string"
        },
        {
          "internalType": "uint256",
          "name": "timestamp",
          "type": "uint256"
        },
        {
          "internalType": "bool",
          "name": "isRegistered",
          "type": "bool"
        }
      ],
      "stateMutability": "view",
      "type": "function"
    },
    {
      "inputs": [
        {
          "internalType": "address",
          "name": "_address",
          "type": "address"
        },
        {
          "internalType": "string",
          "name": "_IPname",
          "type": "string"
        },
        {
          "internalType": "string",
          "name": "_fullname",
          "type": "string"
        },
        {
          "internalType": "string",
          "name": "_country",
          "type": "string"
        },
        {
          "internalType": "string",
          "name": "_addressplace",
          "type": "string"
        },
        {
          "internalType": "string",
          "name": "_symbol",
          "type": "string"
        }
      ],
      "name": "setIP",
      "outputs": [],
      "stateMutability": "nonpayable",
      "type": "function"
    }
  ],
  "bytecode": "0x608060405234801561001057600080fd5b50336000806101000a81548173ffffffffffffffffffffffffffffffffffffffff021916908373ffffffffffffffffffffffffffffffffffffffff160217905550600060028190555061242e806100686000396000f3fe608060405234801561001057600080fd5b50600436106100cf5760003560e01c80636c45c9471161008c578063907e67fe11610066578063907e67fe1461024c5780639d71bd251461026a578063c5a8a2ab14610288578063e6111aa9146102b8576100cf565b80636c45c947146101e05780637ce9e707146101fe5780638da5cb5b1461022e576100cf565b80630274c094146100d457806310aba822146100f757806330e1ad3214610127578063436aa76c1461015e5780635c622a0e146101945780636b9eca4c146101c4575b600080fd5b6100dc6102d6565b6040516100ee96959493929190611ee2565b60405180910390f35b610111600480360381019061010c9190611b5e565b610b53565b60405161011e9190611e04565b60405180910390f35b610141600480360381019061013c9190611b5e565b610b92565b604051610155989796959493929190611e1f565b60405180910390f35b61017860048036038101906101739190611b5e565b610eaf565b60405161018b9796959493929190611fa3565b60405180910390f35b6101ae60048036038101906101a99190611b5e565b61137e565b6040516101bb9190611f88565b60405180910390f35b6101de60048036038101906101d99190611a5d565b61140b565b005b6101e8611662565b6040516101f59190612035565b60405180910390f35b61021860048036038101906102139190611b5e565b61166f565b6040516102259190611e04565b60405180910390f35b6102366116ae565b6040516102439190611e04565b60405180910390f35b6102546116d2565b6040516102619190612035565b60405180910390f35b6102726116d8565b60405161027f9190611ec0565b60405180910390f35b6102a2600480360381019061029d9190611b87565b611766565b6040516102af9190611f6d565b60405180910390f35b6102c0611885565b6040516102cd9190611ec0565b60405180910390f35b606080606080606080600060025467ffffffffffffffff811115610323577f4e487b7100000000000000000000000000000000000000000000000000000000600052604160045260246000fd5b60405190808252806020026020018201604052801561035657816020015b60608152602001906001900390816103415790505b509050600060025467ffffffffffffffff81111561039d577f4e487b7100000000000000000000000000000000000000000000000000000000600052604160045260246000fd5b6040519080825280602002602001820160405280156103d057816020015b60608152602001906001900390816103bb5790505b509050600060025467ffffffffffffffff811115610417577f4e487b7100000000000000000000000000000000000000000000000000000000600052604160045260246000fd5b60405190808252806020026020018201604052801561044a57816020015b60608152602001906001900390816104355790505b509050600060025467ffffffffffffffff811115610491577f4e487b7100000000000000000000000000000000000000000000000000000000600052604160045260246000fd5b6040519080825280602002602001820160405280156104c457816020015b60608152602001906001900390816104af5790505b509050600060025467ffffffffffffffff81111561050b577f4e487b7100000000000000000000000000000000000000000000000000000000600052604160045260246000fd5b60405190808252806020026020018201604052801561053e57816020015b60608152602001906001900390816105295790505b509050600060025467ffffffffffffffff811115610585577f4e487b7100000000000000000000000000000000000000000000000000000000600052604160045260246000fd5b6040519080825280602002602001820160405280156105b35781602001602082028036833780820191505090505b50905060005b600254811015610b325760006001600083815260200190815260200160002060000154905060006003600084815260200190815260200160002090508060010180546106049061222d565b80601f01602080910402602001604051908101604052809291908181526020018280546106309061222d565b801561067d5780601f106106525761010080835404028352916020019161067d565b820191906000526020600020905b81548152906001019060200180831161066057829003601f168201915b50505050508984815181106106bb577f4e487b7100000000000000000000000000000000000000000000000000000000600052603260045260246000fd5b60200260200101819052508060020180546106d59061222d565b80601f01602080910402602001604051908101604052809291908181526020018280546107019061222d565b801561074e5780601f106107235761010080835404028352916020019161074e565b820191906000526020600020905b81548152906001019060200180831161073157829003601f168201915b505050505088848151811061078c577f4e487b7100000000000000000000000000000000000000000000000000000000600052603260045260246000fd5b60200260200101819052508060030180546107a69061222d565b80601f01602080910402602001604051908101604052809291908181526020018280546107d29061222d565b801561081f5780601f106107f45761010080835404028352916020019161081f565b820191906000526020600020905b81548152906001019060200180831161080257829003601f168201915b505050505087848151811061085d577f4e487b7100000000000000000000000000000000000000000000000000000000600052603260045260246000fd5b60200260200101819052508060040180546108779061222d565b80601f01602080910402602001604051908101604052809291908181526020018280546108a39061222d565b80156108f05780601f106108c5576101008083540402835291602001916108f0565b820191906000526020600020905b8154815290600101906020018083116108d357829003601f168201915b505050505086848151811061092e577f4e487b7100000000000000000000000000000000000000000000000000000000600052603260045260246000fd5b60200260200101819052508060050180546109489061222d565b80601f01602080910402602001604051908101604052809291908181526020018280546109749061222d565b80156109c15780601f10610996576101008083540402835291602001916109c1565b820191906000526020600020905b8154815290600101906020018083116109a457829003601f168201915b50505050508584815181106109ff577f4e487b7100000000000000000000000000000000000000000000000000000000600052603260045260246000fd5b6020026020010181905250806007018281548110610a46577f4e487b7100000000000000000000000000000000000000000000000000000000600052603260045260246000fd5b90600052602060002090602091828204019190069054906101000a900460ff16848481518110610a9f577f4e487b7100000000000000000000000000000000000000000000000000000000600052603260045260246000fd5b60200260200101906002811115610adf577f4e487b7100000000000000000000000000000000000000000000000000000000600052602160045260246000fd5b90816002811115610b19577f4e487b7100000000000000000000000000000000000000000000000000000000600052602160045260246000fd5b8152505050508080610b2a90612290565b9150506105b9565b508585858585859b509b509b509b509b509b50505050505050909192939495565b60058181548110610b6357600080fd5b906000526020600020016000915054906101000a900473ffffffffffffffffffffffffffffffffffffffff1681565b60036020528060005260406000206000915090508060000160009054906101000a900473ffffffffffffffffffffffffffffffffffffffff1690806001018054610bdb9061222d565b80601f0160208091040260200160405190810160405280929190818152602001828054610c079061222d565b8015610c545780601f10610c2957610100808354040283529160200191610c54565b820191906000526020600020905b815481529060010190602001808311610c3757829003601f168201915b505050505090806002018054610c699061222d565b80601f0160208091040260200160405190810160405280929190818152602001828054610c959061222d565b8015610ce25780601f10610cb757610100808354040283529160200191610ce2565b820191906000526020600020905b815481529060010190602001808311610cc557829003601f168201915b505050505090806003018054610cf79061222d565b80601f0160208091040260200160405190810160405280929190818152602001828054610d239061222d565b8015610d705780601f10610d4557610100808354040283529160200191610d70565b820191906000526020600020905b815481529060010190602001808311610d5357829003601f168201915b505050505090806004018054610d859061222d565b80601f0160208091040260200160405190810160405280929190818152602001828054610db19061222d565b8015610dfe5780601f10610dd357610100808354040283529160200191610dfe565b820191906000526020600020905b815481529060010190602001808311610de157829003601f168201915b505050505090806005018054610e139061222d565b80601f0160208091040260200160405190810160405280929190818152602001828054610e3f9061222d565b8015610e8c5780601f10610e6157610100808354040283529160200191610e8c565b820191906000526020600020905b815481529060010190602001808311610e6f57829003601f168201915b5050505050908060060154908060080160009054906101000a900460ff16905088565b60608060608060606000806000600160008a81526020019081526020016000206000015490506000600360008b8152602001908152602001600020604051806101200160405290816000820160009054906101000a900473ffffffffffffffffffffffffffffffffffffffff1673ffffffffffffffffffffffffffffffffffffffff1673ffffffffffffffffffffffffffffffffffffffff168152602001600182018054610f5c9061222d565b80601f0160208091040260200160405190810160405280929190818152602001828054610f889061222d565b8015610fd55780601f10610faa57610100808354040283529160200191610fd5565b820191906000526020600020905b815481529060010190602001808311610fb857829003601f168201915b50505050508152602001600282018054610fee9061222d565b80601f016020809104026020016040519081016040528092919081815260200182805461101a9061222d565b80156110675780601f1061103c57610100808354040283529160200191611067565b820191906000526020600020905b81548152906001019060200180831161104a57829003601f168201915b505050505081526020016003820180546110809061222d565b80601f01602080910402602001604051908101604052809291908181526020018280546110ac9061222d565b80156110f95780601f106110ce576101008083540402835291602001916110f9565b820191906000526020600020905b8154815290600101906020018083116110dc57829003601f168201915b505050505081526020016004820180546111129061222d565b80601f016020809104026020016040519081016040528092919081815260200182805461113e9061222d565b801561118b5780601f106111605761010080835404028352916020019161118b565b820191906000526020600020905b81548152906001019060200180831161116e57829003601f168201915b505050505081526020016005820180546111a49061222d565b80601f01602080910402602001604051908101604052809291908181526020018280546111d09061222d565b801561121d5780601f106111f25761010080835404028352916020019161121d565b820191906000526020600020905b81548152906001019060200180831161120057829003601f168201915b5050505050815260200160068201548152602001600782018054806020026020016040519081016040528092919081815260200182805480156112da57602002820191906000526020600020906000905b82829054906101000a900460ff1660028111156112b4577f4e487b7100000000000000000000000000000000000000000000000000000000600052602160045260246000fd5b8152602001906001019060208260000104928301926001038202915080841161126e5790505b505050505081526020016008820160009054906101000a900460ff161515151581525050905080602001518160400151826060015183608001518460a001518560c001518660e00151888151811061135b577f4e487b7100000000000000000000000000000000000000000000000000000000600052603260045260246000fd5b602002602001015198509850985098509850985098505050919395979092949650565b6000600360008381526020019081526020016000206007016001600084815260200190815260200160002060000154815481106113e4577f4e487b7100000000000000000000000000000000000000000000000000000000600052603260045260246000fd5b90600052602060002090602091828204019190069054906101000a900460ff169050919050565b60008660036000600254815260200190815260200160002060000160006101000a81548173ffffffffffffffffffffffffffffffffffffffff021916908373ffffffffffffffffffffffffffffffffffffffff160217905550856003600060025481526020019081526020016000206001019080519060200190611490929190611913565b508460036000600254815260200190815260200160002060020190805190602001906114bd929190611913565b508360036000600254815260200190815260200160002060030190805190602001906114ea929190611913565b50826003600060025481526020019081526020016000206004019080519060200190611517929190611913565b50816003600060025481526020019081526020016000206005019080519060200190611544929190611913565b5042600360006002548152602001908152602001600020600601819055506003600060025481526020019081526020016000206007018190806001815401808255809150506001900390600052602060002090602091828204019190069091909190916101000a81548160ff021916908360028111156115ed577f4e487b7100000000000000000000000000000000000000000000000000000000600052602160045260246000fd5b0217905550600060016000600254815260200190815260200160002060000181905550600160036000600254815260200190815260200160002060080160006101000a81548160ff0219169083151502179055506002600081548092919061165490612290565b919050555050505050505050565b6000600580549050905090565b6006818154811061167f57600080fd5b906000526020600020016000915054906101000a900473ffffffffffffffffffffffffffffffffffffffff1681565b60008054906101000a900473ffffffffffffffffffffffffffffffffffffffff1681565b60025481565b6060600580548060200260200160405190810160405280929190818152602001828054801561175c57602002820191906000526020600020905b8160009054906101000a900473ffffffffffffffffffffffffffffffffffffffff1673ffffffffffffffffffffffffffffffffffffffff1681526020019060010190808311611712575b5050505050905090565b60008060009054906101000a900473ffffffffffffffffffffffffffffffffffffffff1673ffffffffffffffffffffffffffffffffffffffff163373ffffffffffffffffffffffffffffffffffffffff16146117c157600080fd5b600360008481526020019081526020016000206007018290806001815401808255809150506001900390600052602060002090602091828204019190069091909190916101000a81548160ff0219169083600281111561184a577f4e487b7100000000000000000000000000000000000000000000000000000000600052602160045260246000fd5b021790555060016000848152602001908152602001600020600001600081548092919061187690612290565b91905055506001905092915050565b6060600680548060200260200160405190810160405280929190818152602001828054801561190957602002820191906000526020600020905b8160009054906101000a900473ffffffffffffffffffffffffffffffffffffffff1673ffffffffffffffffffffffffffffffffffffffff16815260200190600101908083116118bf575b5050505050905090565b82805461191f9061222d565b90600052602060002090601f0160209004810192826119415760008555611988565b82601f1061195a57805160ff1916838001178555611988565b82800160010185558215611988579182015b8281111561198757825182559160200191906001019061196c565b5b5090506119959190611999565b5090565b5b808211156119b257600081600090555060010161199a565b5090565b60006119c96119c484612075565b612050565b9050828152602081018484840111156119e157600080fd5b6119ec8482856121eb565b509392505050565b600081359050611a03816123ba565b92915050565b600081359050611a18816123d1565b92915050565b600082601f830112611a2f57600080fd5b8135611a3f8482602086016119b6565b91505092915050565b600081359050611a57816123e1565b92915050565b60008060008060008060c08789031215611a7657600080fd5b6000611a8489828a016119f4565b965050602087013567ffffffffffffffff811115611aa157600080fd5b611aad89828a01611a1e565b955050604087013567ffffffffffffffff811115611aca57600080fd5b611ad689828a01611a1e565b945050606087013567ffffffffffffffff811115611af357600080fd5b611aff89828a01611a1e565b935050608087013567ffffffffffffffff811115611b1c57600080fd5b611b2889828a01611a1e565b92505060a087013567ffffffffffffffff811115611b4557600080fd5b611b5189828a01611a1e565b9150509295509295509295565b600060208284031215611b7057600080fd5b6000611b7e84828501611a48565b91505092915050565b60008060408385031215611b9a57600080fd5b6000611ba885828601611a48565b9250506020611bb985828601611a09565b9150509250929050565b6000611bcf8383611c07565b60208301905092915050565b6000611be78383611d65565b60208301905092915050565b6000611bff8383611d83565b905092915050565b611c108161217e565b82525050565b611c1f8161217e565b82525050565b6000611c30826120d6565b611c3a8185612129565b9350611c45836120a6565b8060005b83811015611c76578151611c5d8882611bc3565b9750611c6883612102565b925050600181019050611c49565b5085935050505092915050565b6000611c8e826120e1565b611c98818561214b565b9350611ca3836120b6565b8060005b83811015611cd4578151611cbb8882611bdb565b9750611cc68361210f565b925050600181019050611ca7565b5085935050505092915050565b6000611cec826120ec565b611cf6818561213a565b935083602082028501611d08856120c6565b8060005b85811015611d445784840389528151611d258582611bf3565b9450611d308361211c565b925060208a01995050600181019050611d0c565b50829750879550505050505092915050565b611d5f81612190565b82525050565b611d6e816121d9565b82525050565b611d7d816121d9565b82525050565b6000611d8e826120f7565b611d98818561215c565b9350611da88185602086016121fa565b611db181612395565b840191505092915050565b6000611dc7826120f7565b611dd1818561216d565b9350611de18185602086016121fa565b611dea81612395565b840191505092915050565b611dfe816121cf565b82525050565b6000602082019050611e196000830184611c16565b92915050565b600061010082019050611e35600083018b611c16565b8181036020830152611e47818a611dbc565b90508181036040830152611e5b8189611dbc565b90508181036060830152611e6f8188611dbc565b90508181036080830152611e838187611dbc565b905081810360a0830152611e978186611dbc565b9050611ea660c0830185611df5565b611eb360e0830184611d56565b9998505050505050505050565b60006020820190508181036000830152611eda8184611c25565b905092915050565b600060c0820190508181036000830152611efc8189611ce1565b90508181036020830152611f108188611ce1565b90508181036040830152611f248187611ce1565b90508181036060830152611f388186611ce1565b90508181036080830152611f4c8185611ce1565b905081810360a0830152611f608184611c83565b9050979650505050505050565b6000602082019050611f826000830184611d56565b92915050565b6000602082019050611f9d6000830184611d74565b92915050565b600060e0820190508181036000830152611fbd818a611dbc565b90508181036020830152611fd18189611dbc565b90508181036040830152611fe58188611dbc565b90508181036060830152611ff98187611dbc565b9050818103608083015261200d8186611dbc565b905061201c60a0830185611df5565b61202960c0830184611d74565b98975050505050505050565b600060208201905061204a6000830184611df5565b92915050565b600061205a61206b565b9050612066828261225f565b919050565b6000604051905090565b600067ffffffffffffffff8211156120905761208f612366565b5b61209982612395565b9050602081019050919050565b6000819050602082019050919050565b6000819050602082019050919050565b6000819050602082019050919050565b600081519050919050565b600081519050919050565b600081519050919050565b600081519050919050565b6000602082019050919050565b6000602082019050919050565b6000602082019050919050565b600082825260208201905092915050565b600082825260208201905092915050565b600082825260208201905092915050565b600082825260208201905092915050565b600082825260208201905092915050565b6000612189826121af565b9050919050565b60008115159050919050565b60008190506121aa826123a6565b919050565b600073ffffffffffffffffffffffffffffffffffffffff82169050919050565b6000819050919050565b60006121e48261219c565b9050919050565b82818337600083830152505050565b60005b838110156122185780820151818401526020810190506121fd565b83811115612227576000848401525b50505050565b6000600282049050600182168061224557607f821691505b6020821081141561225957612258612337565b5b50919050565b61226882612395565b810181811067ffffffffffffffff8211171561228757612286612366565b5b80604052505050565b600061229b826121cf565b91507fffffffffffffffffffffffffffffffffffffffffffffffffffffffffffffffff8214156122ce576122cd6122d9565b5b600182019050919050565b7f4e487b7100000000000000000000000000000000000000000000000000000000600052601160045260246000fd5b7f4e487b7100000000000000000000000000000000000000000000000000000000600052602160045260246000fd5b7f4e487b7100000000000000000000000000000000000000000000000000000000600052602260045260246000fd5b7f4e487b7100000000000000000000000000000000000000000000000000000000600052604160045260246000fd5b6000601f19601f8301169050919050565b600381106123b7576123b6612308565b5b50565b6123c38161217e565b81146123ce57600080fd5b50565b600381106123de57600080fd5b50565b6123ea816121cf565b81146123f557600080fd5b5056fea26469706673582212200424017be8330a0a027965c2c754acd13aa17c4d26fca4c5e3c45ffb4952ee0a64736f6c63430008010033",
  "linkReferences": {},
  "deployedLinkReferences": {}
}