{
  "_format": "hh-sol-artifact-1",
  "contractName": "IP",
  "sourceName": "contracts/IP.sol",
  "abi": [
    {
      "inputs": [],
      "stateMutability": "nonpayable",
      "type": "constructor"
    },
    {
      "inputs": [
        {
          "internalType": "uint256",
          "name": "",
          "type": "uint256"
        }
      ],
      "name": "acceptedIps",
      "outputs": [
        {
          "internalType": "uint256",
          "name": "",
          "type": "uint256"
        }
      ],
      "stateMutability": "view",
      "type": "function"
    },
    {
      "inputs": [],
      "name": "bidCount",
      "outputs": [
        {
          "internalType": "uint256",
          "name": "",
          "type": "uint256"
        }
      ],
      "stateMutability": "view",
      "type": "function"
    },
    {
      "inputs": [
        {
          "internalType": "uint256",
          "name": "i",
          "type": "uint256"
        },
        {
          "internalType": "enum IP.Status",
          "name": "val",
          "type": "uint8"
        }
      ],
      "name": "changeStatus",
      "outputs": [
        {
          "internalType": "bool",
          "name": "",
          "type": "bool"
        }
      ],
      "stateMutability": "nonpayable",
      "type": "function"
    },
    {
      "inputs": [
        {
          "internalType": "uint256",
          "name": "i",
          "type": "uint256"
        }
      ],
      "name": "conditionStatus",
      "outputs": [],
      "stateMutability": "nonpayable",
      "type": "function"
    },
    {
      "inputs": [],
      "name": "countAcceptedIPs",
      "outputs": [
        {
          "internalType": "uint256",
          "name": "",
          "type": "uint256"
        }
      ],
      "stateMutability": "view",
      "type": "function"
    },
    {
      "inputs": [
        {
          "internalType": "address",
          "name": "_address",
          "type": "address"
        }
      ],
      "name": "countBids",
      "outputs": [
        {
          "internalType": "uint256",
          "name": "",
          "type": "uint256"
        }
      ],
      "stateMutability": "view",
      "type": "function"
    },
    {
      "inputs": [],
      "name": "countPendingIPs",
      "outputs": [
        {
          "internalType": "uint256",
          "name": "",
          "type": "uint256"
        }
      ],
      "stateMutability": "view",
      "type": "function"
    },
    {
      "inputs": [],
      "name": "countRejectedIPs",
      "outputs": [
        {
          "internalType": "uint256",
          "name": "",
          "type": "uint256"
        }
      ],
      "stateMutability": "view",
      "type": "function"
    },
    {
      "inputs": [],
      "name": "getAcceptIP",
      "outputs": [
        {
          "internalType": "uint256[]",
          "name": "",
          "type": "uint256[]"
        }
      ],
      "stateMutability": "view",
      "type": "function"
    },
    {
      "inputs": [],
      "name": "getAllRegisteredIps",
      "outputs": [
        {
          "internalType": "address[]",
          "name": "",
          "type": "address[]"
        },
        {
          "internalType": "string[]",
          "name": "",
          "type": "string[]"
        },
        {
          "internalType": "string[]",
          "name": "",
          "type": "string[]"
        },
        {
          "internalType": "string[]",
          "name": "",
          "type": "string[]"
        },
        {
          "internalType": "string[]",
          "name": "",
          "type": "string[]"
        },
        {
          "internalType": "string[]",
          "name": "",
          "type": "string[]"
        },
        {
          "internalType": "uint256[]",
          "name": "",
          "type": "uint256[]"
        },
        {
          "internalType": "enum IP.Status[]",
          "name": "",
          "type": "uint8[]"
        }
      ],
      "stateMutability": "view",
      "type": "function"
    },
    {
      "inputs": [
        {
          "internalType": "uint256",
          "name": "i",
          "type": "uint256"
        }
      ],
      "name": "getIP",
      "outputs": [
        {
          "internalType": "string",
          "name": "",
          "type": "string"
        },
        {
          "internalType": "string",
          "name": "",
          "type": "string"
        },
        {
          "internalType": "string",
          "name": "",
          "type": "string"
        },
        {
          "internalType": "string",
          "name": "",
          "type": "string"
        },
        {
          "internalType": "string",
          "name": "",
          "type": "string"
        }
      ],
      "stateMutability": "view",
      "type": "function"
    },
    {
      "inputs": [],
      "name": "getPendingIP",
      "outputs": [
        {
          "internalType": "uint256[]",
          "name": "",
          "type": "uint256[]"
        }
      ],
      "stateMutability": "view",
      "type": "function"
    },
    {
      "inputs": [],
      "name": "getRejectIP",
      "outputs": [
        {
          "internalType": "uint256[]",
          "name": "",
          "type": "uint256[]"
        }
      ],
      "stateMutability": "view",
      "type": "function"
    },
    {
      "inputs": [
        {
          "internalType": "uint256",
          "name": "i",
          "type": "uint256"
        }
      ],
      "name": "getStatus",
      "outputs": [
        {
          "internalType": "enum IP.Status",
          "name": "status",
          "type": "uint8"
        }
      ],
      "stateMutability": "view",
      "type": "function"
    },
    {
      "inputs": [
        {
          "internalType": "address",
          "name": "_address",
          "type": "address"
        }
      ],
      "name": "getbidderinfo",
      "outputs": [
        {
          "components": [
            {
              "internalType": "string",
              "name": "ownerIPname",
              "type": "string"
            },
            {
              "internalType": "uint256",
              "name": "bidValue",
              "type": "uint256"
            },
            {
              "internalType": "address",
              "name": "bidderAddress",
              "type": "address"
            }
          ],
          "internalType": "struct IP.IPowner[]",
          "name": "",
          "type": "tuple[]"
        }
      ],
      "stateMutability": "view",
      "type": "function"
    },
    {
      "inputs": [],
      "name": "ipCount",
      "outputs": [
        {
          "internalType": "uint256",
          "name": "",
          "type": "uint256"
        }
      ],
      "stateMutability": "view",
      "type": "function"
    },
    {
      "inputs": [
        {
          "internalType": "address",
          "name": "",
          "type": "address"
        },
        {
          "internalType": "uint256",
          "name": "",
          "type": "uint256"
        }
      ],
      "name": "ipowner",
      "outputs": [
        {
          "internalType": "string",
          "name": "ownerIPname",
          "type": "string"
        },
        {
          "internalType": "uint256",
          "name": "bidValue",
          "type": "uint256"
        },
        {
          "internalType": "address",
          "name": "bidderAddress",
          "type": "address"
        }
      ],
      "stateMutability": "view",
      "type": "function"
    },
    {
      "inputs": [
        {
          "internalType": "uint256",
          "name": "index",
          "type": "uint256"
        },
        {
          "internalType": "address",
          "name": "owneradd",
          "type": "address"
        },
        {
          "internalType": "string",
          "name": "tokenURI",
          "type": "string"
        }
      ],
      "name": "mintnft",
      "outputs": [
        {
          "internalType": "uint256",
          "name": "",
          "type": "uint256"
        }
      ],
      "stateMutability": "nonpayable",
      "type": "function"
    },
    {
      "inputs": [],
      "name": "nameOfnft",
      "outputs": [
        {
          "internalType": "string",
          "name": "",
          "type": "string"
        }
      ],
      "stateMutability": "view",
      "type": "function"
    },
    {
      "inputs": [],
      "name": "owner",
      "outputs": [
        {
          "internalType": "address",
          "name": "",
          "type": "address"
        }
      ],
      "stateMutability": "view",
      "type": "function"
    },
    {
      "inputs": [
        {
          "internalType": "uint256",
          "name": "tokenId",
          "type": "uint256"
        }
      ],
      "name": "ownerOfnft",
      "outputs": [
        {
          "internalType": "address",
          "name": "",
          "type": "address"
        }
      ],
      "stateMutability": "view",
      "type": "function"
    },
    {
      "inputs": [
        {
          "internalType": "uint256",
          "name": "",
          "type": "uint256"
        }
      ],
      "name": "pendingIps",
      "outputs": [
        {
          "internalType": "uint256",
          "name": "",
          "type": "uint256"
        }
      ],
      "stateMutability": "view",
      "type": "function"
    },
    {
      "inputs": [
        {
          "internalType": "uint256",
          "name": "",
          "type": "uint256"
        }
      ],
      "name": "property",
      "outputs": [
        {
          "internalType": "address",
          "name": "user",
          "type": "address"
        },
        {
          "internalType": "string",
          "name": "IPname",
          "type": "string"
        },
        {
          "internalType": "string",
          "name": "fullname",
          "type": "string"
        },
        {
          "internalType": "string",
          "name": "country",
          "type": "string"
        },
        {
          "internalType": "string",
          "name": "addressplace",
          "type": "string"
        },
        {
          "internalType": "string",
          "name": "allIpInfoURL",
          "type": "string"
        },
        {
          "internalType": "uint256",
          "name": "timestamp",
          "type": "uint256"
        },
        {
          "internalType": "bool",
          "name": "isRegistered",
          "type": "bool"
        }
      ],
      "stateMutability": "view",
      "type": "function"
    },
    {
      "inputs": [
        {
          "internalType": "uint256",
          "name": "",
          "type": "uint256"
        }
      ],
      "name": "rejectedIps",
      "outputs": [
        {
          "internalType": "uint256",
          "name": "",
          "type": "uint256"
        }
      ],
      "stateMutability": "view",
      "type": "function"
    },
    {
      "inputs": [
        {
          "internalType": "uint256",
          "name": "_index",
          "type": "uint256"
        }
      ],
      "name": "removeAccepted",
      "outputs": [],
      "stateMutability": "nonpayable",
      "type": "function"
    },
    {
      "inputs": [
        {
          "internalType": "uint256",
          "name": "_index",
          "type": "uint256"
        }
      ],
      "name": "removePending",
      "outputs": [],
      "stateMutability": "nonpayable",
      "type": "function"
    },
    {
      "inputs": [
        {
          "internalType": "uint256",
          "name": "_index",
          "type": "uint256"
        }
      ],
      "name": "removeRejected",
      "outputs": [],
      "stateMutability": "nonpayable",
      "type": "function"
    },
    {
      "inputs": [],
      "name": "result",
      "outputs": [
        {
          "internalType": "string",
          "name": "",
          "type": "string"
        }
      ],
      "stateMutability": "view",
      "type": "function"
    },
    {
      "inputs": [
        {
          "internalType": "address",
          "name": "from",
          "type": "address"
        },
        {
          "internalType": "address",
          "name": "to",
          "type": "address"
        },
        {
          "internalType": "uint256",
          "name": "tokenId",
          "type": "uint256"
        },
        {
          "internalType": "bytes",
          "name": "data",
          "type": "bytes"
        }
      ],
      "name": "safeTransferFrom",
      "outputs": [],
      "stateMutability": "nonpayable",
      "type": "function"
    },
    {
      "inputs": [
        {
          "internalType": "address",
          "name": "_address",
          "type": "address"
        },
        {
          "internalType": "string",
          "name": "_IPname",
          "type": "string"
        },
        {
          "internalType": "string",
          "name": "_fullname",
          "type": "string"
        },
        {
          "internalType": "string",
          "name": "_country",
          "type": "string"
        },
        {
          "internalType": "string",
          "name": "_addressplace",
          "type": "string"
        },
        {
          "internalType": "string",
          "name": "_allIpInfoURL",
          "type": "string"
        }
      ],
      "name": "setIP",
      "outputs": [],
      "stateMutability": "nonpayable",
      "type": "function"
    },
    {
      "inputs": [
        {
          "internalType": "address",
          "name": "_address",
          "type": "address"
        },
        {
          "internalType": "string",
          "name": "_ownerIPname",
          "type": "string"
        },
        {
          "internalType": "uint256",
          "name": "_bidvalue",
          "type": "uint256"
        },
        {
          "internalType": "address",
          "name": "_bidderaddress",
          "type": "address"
        }
      ],
      "name": "setIPbidder1",
      "outputs": [],
      "stateMutability": "nonpayable",
      "type": "function"
    },
    {
      "inputs": [],
      "name": "symbolOfnft",
      "outputs": [
        {
          "internalType": "string",
          "name": "",
          "type": "string"
        }
      ],
      "stateMutability": "view",
      "type": "function"
    }
  ],
  "bytecode": "0x6080604052604051620000129062000140565b604051809103906000f0801580156200002f573d6000803e3d6000fd5b506000806101000a81548173ffffffffffffffffffffffffffffffffffffffff021916908373ffffffffffffffffffffffffffffffffffffffff1602179055506040516200007d906200014e565b604051809103906000f0801580156200009a573d6000803e3d6000fd5b50600160006101000a81548173ffffffffffffffffffffffffffffffffffffffff021916908373ffffffffffffffffffffffffffffffffffffffff160217905550348015620000e857600080fd5b5033600260006101000a81548173ffffffffffffffffffffffffffffffffffffffff021916908373ffffffffffffffffffffffffffffffffffffffff16021790555060006005819055506000600a819055506200015c565b612a4e8062005d8983390190565b61123b80620087d783390190565b615c1d806200016c6000396000f3fe608060405234801561001057600080fd5b50600436106101f05760003560e01c80638da5cb5b1161010f578063b69d008b116100a2578063cea62a1b11610071578063cea62a1b146105f9578063d5606fbf14610617578063ebc0ba6d14610647578063fb645bd814610677576101f0565b8063b69d008b1461056a578063b88d4fde14610588578063bb0133e3146105a4578063c5a8a2ab146105c9576101f0565b8063a5bfeaa8116100de578063a5bfeaa8146104e4578063a62e915214610514578063b13d3ecc14610530578063b40a56271461054c576101f0565b80638da5cb5b1461045a578063907e67fe1461047857806396a4d5c4146104965780639c8228a1146104c6576101f0565b806338d5d3251161018757806363817a101161015657806363817a10146103be57806365372147146103ee5780636b9eca4c1461040c5780636fa6bd4714610428576101f0565b806338d5d32514610322578063436aa76c1461033e5780635c622a0e14610372578063612cba67146103a2576101f0565b80631efc9314116101c35780631efc93141461027f57806327bbc10d1461029d57806330e1ad32146102cd57806334020f4b14610304576101f0565b806302000bd4146101f557806306457ba61461021357806319db8a05146102315780631cdaea221461024f575b600080fd5b6101fd610693565b60405161020a91906154cb565b60405180910390f35b61021b6106a0565b60405161022891906152fd565b60405180910390f35b6102396106f8565b6040516102469190615355565b60405180910390f35b61026960048036038101906102649190614a5a565b6107a2565b60405161027691906154cb565b60405180910390f35b6102876107c6565b60405161029491906152fd565b60405180910390f35b6102b760048036038101906102b29190614a5a565b61081e565b6040516102c491906154cb565b60405180910390f35b6102e760048036038101906102e29190614a5a565b610842565b6040516102fb989796959493929190615184565b60405180910390f35b61030c610b5f565b60405161031991906154cb565b60405180910390f35b61033c60048036038101906103379190614a5a565b610b6c565b005b61035860048036038101906103539190614a5a565b610cd0565b604051610369959493929190615377565b60405180910390f35b61038c60048036038101906103879190614a5a565b611130565b604051610399919061533a565b60405180910390f35b6103bc60048036038101906103b79190614a5a565b6111bd565b005b6103d860048036038101906103d39190614aac565b612b21565b6040516103e591906154cb565b60405180910390f35b6103f6612d1a565b6040516104039190615355565b60405180910390f35b61042660048036038101906104219190614838565b612da8565b005b610442600480360381019061043d91906149b4565b61302a565b604051610451939291906153ed565b60405180910390f35b610462613119565b60405161046f91906150ed565b60405180910390f35b61048061313f565b60405161048d91906154cb565b60405180910390f35b6104b060048036038101906104ab919061476b565b613145565b6040516104bd91906152db565b60405180910390f35b6104ce6132d5565b6040516104db9190615355565b60405180910390f35b6104fe60048036038101906104f9919061476b565b61337f565b60405161050b91906154cb565b60405180910390f35b61052e60048036038101906105299190614939565b6133cb565b005b61054a60048036038101906105459190614a5a565b6134f2565b005b610554613656565b60405161056191906154cb565b60405180910390f35b61057261365c565b60405161057f91906152fd565b60405180910390f35b6105a2600480360381019061059d91906147bd565b6136b4565b005b6105ac61374b565b6040516105c0989796959493929190615225565b60405180910390f35b6105e360048036038101906105de9190614b13565b6141a1565b6040516105f0919061531f565b60405180910390f35b6106016142ca565b60405161060e91906154cb565b60405180910390f35b610631600480360381019061062c9190614a5a565b6142d7565b60405161063e91906154cb565b60405180910390f35b610661600480360381019061065c9190614a5a565b6142fb565b60405161066e91906150ed565b60405180910390f35b610691600480360381019061068c9190614a5a565b6143ae565b005b6000600780549050905090565b606060098054806020026020016040519081016040528092919081815260200182805480156106ee57602002820191906000526020600020905b8154815260200190600101908083116106da575b5050505050905090565b606060008054906101000a900473ffffffffffffffffffffffffffffffffffffffff1673ffffffffffffffffffffffffffffffffffffffff166306fdde036040518163ffffffff1660e01b815260040160006040518083038186803b15801561076057600080fd5b505afa158015610774573d6000803e3d6000fd5b505050506040513d6000823e3d601f19601f8201168201806040525081019061079d9190614a19565b905090565b600981815481106107b257600080fd5b906000526020600020016000915090505481565b6060600780548060200260200160405190810160405280929190818152602001828054801561081457602002820191906000526020600020905b815481526020019060010190808311610800575b5050505050905090565b6007818154811061082e57600080fd5b906000526020600020016000915090505481565b60066020528060005260406000206000915090508060000160009054906101000a900473ffffffffffffffffffffffffffffffffffffffff169080600101805461088b9061587e565b80601f01602080910402602001604051908101604052809291908181526020018280546108b79061587e565b80156109045780601f106108d957610100808354040283529160200191610904565b820191906000526020600020905b8154815290600101906020018083116108e757829003601f168201915b5050505050908060020180546109199061587e565b80601f01602080910402602001604051908101604052809291908181526020018280546109459061587e565b80156109925780601f1061096757610100808354040283529160200191610992565b820191906000526020600020905b81548152906001019060200180831161097557829003601f168201915b5050505050908060030180546109a79061587e565b80601f01602080910402602001604051908101604052809291908181526020018280546109d39061587e565b8015610a205780601f106109f557610100808354040283529160200191610a20565b820191906000526020600020905b815481529060010190602001808311610a0357829003601f168201915b505050505090806004018054610a359061587e565b80601f0160208091040260200160405190810160405280929190818152602001828054610a619061587e565b8015610aae5780601f10610a8357610100808354040283529160200191610aae565b820191906000526020600020905b815481529060010190602001808311610a9157829003601f168201915b505050505090806005018054610ac39061587e565b80601f0160208091040260200160405190810160405280929190818152602001828054610aef9061587e565b8015610b3c5780601f10610b1157610100808354040283529160200191610b3c565b820191906000526020600020905b815481529060010190602001808311610b1f57829003601f168201915b5050505050908060060154908060080160009054906101000a900460ff16905088565b6000600880549050905090565b6009805490508110610bb3576040517f08c379a0000000000000000000000000000000000000000000000000000000008152600401610baa906154ab565b60405180910390fd5b60008190505b6001600980549050610bcb9190615791565b811015610c7e576009600182610be1919061573b565b81548110610c18577f4e487b7100000000000000000000000000000000000000000000000000000000600052603260045260246000fd5b906000526020600020015460098281548110610c5d577f4e487b7100000000000000000000000000000000000000000000000000000000600052603260045260246000fd5b90600052602060002001819055508080610c76906158fb565b915050610bb9565b506009805480610cb7577f4e487b7100000000000000000000000000000000000000000000000000000000600052603160045260246000fd5b6001900381819060005260206000200160009055905550565b6060806060806060600060066000888152602001908152602001600020604051806101200160405290816000820160009054906101000a900473ffffffffffffffffffffffffffffffffffffffff1673ffffffffffffffffffffffffffffffffffffffff1673ffffffffffffffffffffffffffffffffffffffff168152602001600182018054610d5f9061587e565b80601f0160208091040260200160405190810160405280929190818152602001828054610d8b9061587e565b8015610dd85780601f10610dad57610100808354040283529160200191610dd8565b820191906000526020600020905b815481529060010190602001808311610dbb57829003601f168201915b50505050508152602001600282018054610df19061587e565b80601f0160208091040260200160405190810160405280929190818152602001828054610e1d9061587e565b8015610e6a5780601f10610e3f57610100808354040283529160200191610e6a565b820191906000526020600020905b815481529060010190602001808311610e4d57829003601f168201915b50505050508152602001600382018054610e839061587e565b80601f0160208091040260200160405190810160405280929190818152602001828054610eaf9061587e565b8015610efc5780601f10610ed157610100808354040283529160200191610efc565b820191906000526020600020905b815481529060010190602001808311610edf57829003601f168201915b50505050508152602001600482018054610f159061587e565b80601f0160208091040260200160405190810160405280929190818152602001828054610f419061587e565b8015610f8e5780601f10610f6357610100808354040283529160200191610f8e565b820191906000526020600020905b815481529060010190602001808311610f7157829003601f168201915b50505050508152602001600582018054610fa79061587e565b80601f0160208091040260200160405190810160405280929190818152602001828054610fd39061587e565b80156110205780601f10610ff557610100808354040283529160200191611020565b820191906000526020600020905b81548152906001019060200180831161100357829003601f168201915b5050505050815260200160068201548152602001600782018054806020026020016040519081016040528092919081815260200182805480156110dd57602002820191906000526020600020906000905b82829054906101000a900460ff1660028111156110b7577f4e487b7100000000000000000000000000000000000000000000000000000000600052602160045260246000fd5b815260200190600101906020826000010492830192600103820291508084116110715790505b505050505081526020016008820160009054906101000a900460ff161515151581525050905080602001518160400151826060015183608001518460a00151955095509550955095505091939590929450565b600060066000838152602001908152602001600020600701600460008481526020019081526020016000206000015481548110611196577f4e487b7100000000000000000000000000000000000000000000000000000000600052603260045260246000fd5b90600052602060002090602091828204019190069054906101000a900460ff169050919050565b60006004600083815260200190815260200160002060000154905060016002811115611212577f4e487b7100000000000000000000000000000000000000000000000000000000600052602160045260246000fd5b600660008481526020019081526020016000206007018281548110611260577f4e487b7100000000000000000000000000000000000000000000000000000000600052603260045260246000fd5b90600052602060002090602091828204019190069054906101000a900460ff1660028111156112b8577f4e487b7100000000000000000000000000000000000000000000000000000000600052602160045260246000fd5b1415611a2c576000600160009054906101000a900473ffffffffffffffffffffffffffffffffffffffff1673ffffffffffffffffffffffffffffffffffffffff166319d5880c8460076040518363ffffffff1660e01b815260040161131e9291906154e6565b60206040518083038186803b15801561133657600080fd5b505afa15801561134a573d6000803e3d6000fd5b505050506040513d601f19601f8201168201806040525081019061136e91906149f0565b9050600160405160200161138291906150a6565b60405160208183030381529060405280519060200120816040516020016113a991906150a6565b604051602081830303815290604052805190602001201415611400576040517f08c379a00000000000000000000000000000000000000000000000000000000081526004016113f79061544b565b60405180910390fd5b60078390806001815401808255809150506001900390600052602060002001600090919091909150556000600160009054906101000a900473ffffffffffffffffffffffffffffffffffffffff1673ffffffffffffffffffffffffffffffffffffffff166321772a448560086040518363ffffffff1660e01b81526004016114899291906154e6565b60006040518083038186803b1580156114a157600080fd5b505afa1580156114b5573d6000803e3d6000fd5b505050506040513d6000823e3d601f19601f820116820180604052508101906114de9190614a19565b90506000600160009054906101000a900473ffffffffffffffffffffffffffffffffffffffff1673ffffffffffffffffffffffffffffffffffffffff1663a28a34808660096040518363ffffffff1660e01b81526004016115409291906154e6565b60006040518083038186803b15801561155857600080fd5b505afa15801561156c573d6000803e3d6000fd5b505050506040513d6000823e3d601f19601f820116820180604052508101906115959190614a19565b90506040516020016115a6906150d8565b60405160208183030381529060405280519060200120826040516020016115cd91906150c1565b604051602081830303815290604052805190602001201415801561163b57506040516020016115fb906150d8565b604051602081830303815290604052805190602001208160405160200161162291906150c1565b6040516020818303038152906040528051906020012014155b156117b7576000600160009054906101000a900473ffffffffffffffffffffffffffffffffffffffff1673ffffffffffffffffffffffffffffffffffffffff166379cd9055846040518263ffffffff1660e01b815260040161169d9190615355565b60206040518083038186803b1580156116b557600080fd5b505afa1580156116c9573d6000803e3d6000fd5b505050506040513d601f19601f820116820180604052508101906116ed9190614a83565b90506000600160009054906101000a900473ffffffffffffffffffffffffffffffffffffffff1673ffffffffffffffffffffffffffffffffffffffff166379cd9055846040518263ffffffff1660e01b815260040161174c9190615355565b60206040518083038186803b15801561176457600080fd5b505afa158015611778573d6000803e3d6000fd5b505050506040513d601f19601f8201168201806040525081019061179c9190614a83565b90506117a7826134f2565b6117b081610b6c565b5050611a24565b6040516020016117c6906150d8565b60405160208183030381529060405280519060200120826040516020016117ed91906150c1565b60405160208183030381529060405280519060200120146118c6576000600160009054906101000a900473ffffffffffffffffffffffffffffffffffffffff1673ffffffffffffffffffffffffffffffffffffffff166379cd9055846040518263ffffffff1660e01b81526004016118659190615355565b60206040518083038186803b15801561187d57600080fd5b505afa158015611891573d6000803e3d6000fd5b505050506040513d601f19601f820116820180604052508101906118b59190614a83565b90506118c0816134f2565b50611a23565b6040516020016118d5906150d8565b60405160208183030381529060405280519060200120816040516020016118fc91906150c1565b60405160208183030381529060405280519060200120146119d5576000600160009054906101000a900473ffffffffffffffffffffffffffffffffffffffff1673ffffffffffffffffffffffffffffffffffffffff166379cd9055836040518263ffffffff1660e01b81526004016119749190615355565b60206040518083038186803b15801561198c57600080fd5b505afa1580156119a0573d6000803e3d6000fd5b505050506040513d601f19601f820116820180604052508101906119c49190614a83565b90506119cf81610b6c565b50611a22565b6040518060400160405280600981526020017f6e6f7420666f756e64000000000000000000000000000000000000000000000081525060039080519060200190611a20929190614512565b505b5b5b505050612b1d565b60006002811115611a66577f4e487b7100000000000000000000000000000000000000000000000000000000600052602160045260246000fd5b600660008481526020019081526020016000206007018281548110611ab4577f4e487b7100000000000000000000000000000000000000000000000000000000600052603260045260246000fd5b90600052602060002090602091828204019190069054906101000a900460ff166002811115611b0c577f4e487b7100000000000000000000000000000000000000000000000000000000600052602160045260246000fd5b14156122cc576000600160009054906101000a900473ffffffffffffffffffffffffffffffffffffffff1673ffffffffffffffffffffffffffffffffffffffff166332a5d1708460086040518363ffffffff1660e01b8152600401611b729291906154e6565b60206040518083038186803b158015611b8a57600080fd5b505afa158015611b9e573d6000803e3d6000fd5b505050506040513d601f19601f82011682018060405250810190611bc291906149f0565b90506001604051602001611bd691906150a6565b6040516020818303038152906040528051906020012081604051602001611bfd91906150a6565b604051602081830303815290604052805190602001201415611c54576040517f08c379a0000000000000000000000000000000000000000000000000000000008152600401611c4b9061546b565b60405180910390fd5b60088390806001815401808255809150506001900390600052602060002001600090919091909150556000600160009054906101000a900473ffffffffffffffffffffffffffffffffffffffff1673ffffffffffffffffffffffffffffffffffffffff1663d25a84eb8560076040518363ffffffff1660e01b8152600401611cdd9291906154e6565b60006040518083038186803b158015611cf557600080fd5b505afa158015611d09573d6000803e3d6000fd5b505050506040513d6000823e3d601f19601f82011682018060405250810190611d329190614a19565b90506000600160009054906101000a900473ffffffffffffffffffffffffffffffffffffffff1673ffffffffffffffffffffffffffffffffffffffff1663a28a34808660096040518363ffffffff1660e01b8152600401611d949291906154e6565b60006040518083038186803b158015611dac57600080fd5b505afa158015611dc0573d6000803e3d6000fd5b505050506040513d6000823e3d601f19601f82011682018060405250810190611de99190614a19565b9050604051602001611dfa906150d8565b6040516020818303038152906040528051906020012082604051602001611e2191906150c1565b6040516020818303038152906040528051906020012014158015611e8f5750604051602001611e4f906150d8565b6040516020818303038152906040528051906020012081604051602001611e7691906150c1565b6040516020818303038152906040528051906020012014155b1561200b576000600160009054906101000a900473ffffffffffffffffffffffffffffffffffffffff1673ffffffffffffffffffffffffffffffffffffffff166379cd9055846040518263ffffffff1660e01b8152600401611ef19190615355565b60206040518083038186803b158015611f0957600080fd5b505afa158015611f1d573d6000803e3d6000fd5b505050506040513d601f19601f82011682018060405250810190611f419190614a83565b90506000600160009054906101000a900473ffffffffffffffffffffffffffffffffffffffff1673ffffffffffffffffffffffffffffffffffffffff166379cd9055846040518263ffffffff1660e01b8152600401611fa09190615355565b60206040518083038186803b158015611fb857600080fd5b505afa158015611fcc573d6000803e3d6000fd5b505050506040513d601f19601f82011682018060405250810190611ff09190614a83565b9050611ffb826143ae565b61200481610b6c565b50506122c4565b60405160200161201a906150d8565b604051602081830303815290604052805190602001208260405160200161204191906150c1565b6040516020818303038152906040528051906020012014612166576000600160009054906101000a900473ffffffffffffffffffffffffffffffffffffffff1673ffffffffffffffffffffffffffffffffffffffff166379cd9055846040518263ffffffff1660e01b81526004016120b99190615355565b60206040518083038186803b1580156120d157600080fd5b505afa1580156120e5573d6000803e3d6000fd5b505050506040513d601f19601f820116820180604052508101906121099190614a83565b9050612114816143ae565b6040518060400160405280600381526020017f6f6e6500000000000000000000000000000000000000000000000000000000008152506003908051906020019061215f929190614512565b50506122c3565b604051602001612175906150d8565b604051602081830303815290604052805190602001208160405160200161219c91906150c1565b6040516020818303038152906040528051906020012014612275576000600160009054906101000a900473ffffffffffffffffffffffffffffffffffffffff1673ffffffffffffffffffffffffffffffffffffffff166379cd9055836040518263ffffffff1660e01b81526004016122149190615355565b60206040518083038186803b15801561222c57600080fd5b505afa158015612240573d6000803e3d6000fd5b505050506040513d601f19601f820116820180604052508101906122649190614a83565b905061226f81610b6c565b506122c2565b6040518060400160405280600981526020017f6e6f7420666f756e640000000000000000000000000000000000000000000000815250600390805190602001906122c0929190614512565b505b5b5b505050612b1c565b600280811115612305577f4e487b7100000000000000000000000000000000000000000000000000000000600052602160045260246000fd5b600660008481526020019081526020016000206007018281548110612353577f4e487b7100000000000000000000000000000000000000000000000000000000600052603260045260246000fd5b90600052602060002090602091828204019190069054906101000a900460ff1660028111156123ab577f4e487b7100000000000000000000000000000000000000000000000000000000600052602160045260246000fd5b1415612b1b576000600160009054906101000a900473ffffffffffffffffffffffffffffffffffffffff1673ffffffffffffffffffffffffffffffffffffffff16637ef1cd4b8460096040518363ffffffff1660e01b81526004016124119291906154e6565b60206040518083038186803b15801561242957600080fd5b505afa15801561243d573d6000803e3d6000fd5b505050506040513d601f19601f8201168201806040525081019061246191906149f0565b9050600160405160200161247591906150a6565b604051602081830303815290604052805190602001208160405160200161249c91906150a6565b6040516020818303038152906040528051906020012014156124f3576040517f08c379a00000000000000000000000000000000000000000000000000000000081526004016124ea9061548b565b60405180910390fd5b60098390806001815401808255809150506001900390600052602060002001600090919091909150556000600160009054906101000a900473ffffffffffffffffffffffffffffffffffffffff1673ffffffffffffffffffffffffffffffffffffffff1663d25a84eb8560076040518363ffffffff1660e01b815260040161257c9291906154e6565b60006040518083038186803b15801561259457600080fd5b505afa1580156125a8573d6000803e3d6000fd5b505050506040513d6000823e3d601f19601f820116820180604052508101906125d19190614a19565b90506000600160009054906101000a900473ffffffffffffffffffffffffffffffffffffffff1673ffffffffffffffffffffffffffffffffffffffff166321772a448660086040518363ffffffff1660e01b81526004016126339291906154e6565b60006040518083038186803b15801561264b57600080fd5b505afa15801561265f573d6000803e3d6000fd5b505050506040513d6000823e3d601f19601f820116820180604052508101906126889190614a19565b9050604051602001612699906150d8565b60405160208183030381529060405280519060200120826040516020016126c091906150c1565b604051602081830303815290604052805190602001201415801561272e57506040516020016126ee906150d8565b604051602081830303815290604052805190602001208160405160200161271591906150c1565b6040516020818303038152906040528051906020012014155b156128aa576000600160009054906101000a900473ffffffffffffffffffffffffffffffffffffffff1673ffffffffffffffffffffffffffffffffffffffff166379cd9055846040518263ffffffff1660e01b81526004016127909190615355565b60206040518083038186803b1580156127a857600080fd5b505afa1580156127bc573d6000803e3d6000fd5b505050506040513d601f19601f820116820180604052508101906127e09190614a83565b90506000600160009054906101000a900473ffffffffffffffffffffffffffffffffffffffff1673ffffffffffffffffffffffffffffffffffffffff166379cd9055846040518263ffffffff1660e01b815260040161283f9190615355565b60206040518083038186803b15801561285757600080fd5b505afa15801561286b573d6000803e3d6000fd5b505050506040513d601f19601f8201168201806040525081019061288f9190614a83565b905061289a826143ae565b6128a3816134f2565b5050612b17565b6040516020016128b9906150d8565b60405160208183030381529060405280519060200120826040516020016128e091906150c1565b60405160208183030381529060405280519060200120146129b9576000600160009054906101000a900473ffffffffffffffffffffffffffffffffffffffff1673ffffffffffffffffffffffffffffffffffffffff166379cd9055846040518263ffffffff1660e01b81526004016129589190615355565b60206040518083038186803b15801561297057600080fd5b505afa158015612984573d6000803e3d6000fd5b505050506040513d601f19601f820116820180604052508101906129a89190614a83565b90506129b3816143ae565b50612b16565b6040516020016129c8906150d8565b60405160208183030381529060405280519060200120816040516020016129ef91906150c1565b6040516020818303038152906040528051906020012014612ac8576000600160009054906101000a900473ffffffffffffffffffffffffffffffffffffffff1673ffffffffffffffffffffffffffffffffffffffff166379cd9055836040518263ffffffff1660e01b8152600401612a679190615355565b60206040518083038186803b158015612a7f57600080fd5b505afa158015612a93573d6000803e3d6000fd5b505050506040513d601f19601f82011682018060405250810190612ab79190614a83565b9050612ac2816134f2565b50612b15565b6040518060400160405280600981526020017f6e6f7420666f756e64000000000000000000000000000000000000000000000081525060039080519060200190612b13929190614512565b505b5b5b5050505b5b5b5050565b600080600160009054906101000a900473ffffffffffffffffffffffffffffffffffffffff1673ffffffffffffffffffffffffffffffffffffffff166319d5880c8660076040518363ffffffff1660e01b8152600401612b829291906154e6565b60206040518083038186803b158015612b9a57600080fd5b505afa158015612bae573d6000803e3d6000fd5b505050506040513d601f19601f82011682018060405250810190612bd291906149f0565b90506001604051602001612be691906150a6565b6040516020818303038152906040528051906020012081604051602001612c0d91906150a6565b6040516020818303038152906040528051906020012014612c63576040517f08c379a0000000000000000000000000000000000000000000000000000000008152600401612c5a9061542b565b60405180910390fd5b60008054906101000a900473ffffffffffffffffffffffffffffffffffffffff1673ffffffffffffffffffffffffffffffffffffffff1663925eb15285856040518363ffffffff1660e01b8152600401612cbe929190615154565b602060405180830381600087803b158015612cd857600080fd5b505af1158015612cec573d6000803e3d6000fd5b505050506040513d601f19601f82011682018060405250810190612d109190614a83565b9150509392505050565b60038054612d279061587e565b80601f0160208091040260200160405190810160405280929190818152602001828054612d539061587e565b8015612da05780601f10612d7557610100808354040283529160200191612da0565b820191906000526020600020905b815481529060010190602001808311612d8357829003601f168201915b505050505081565b60008660066000600554815260200190815260200160002060000160006101000a81548173ffffffffffffffffffffffffffffffffffffffff021916908373ffffffffffffffffffffffffffffffffffffffff160217905550856006600060055481526020019081526020016000206001019080519060200190612e2d929190614512565b50846006600060055481526020019081526020016000206002019080519060200190612e5a929190614512565b50836006600060055481526020019081526020016000206003019080519060200190612e87929190614512565b50826006600060055481526020019081526020016000206004019080519060200190612eb4929190614512565b50816006600060055481526020019081526020016000206005019080519060200190612ee1929190614512565b5042600660006005548152602001908152602001600020600601819055506006600060055481526020019081526020016000206007018190806001815401808255809150506001900390600052602060002090602091828204019190069091909190916101000a81548160ff02191690836002811115612f8a577f4e487b7100000000000000000000000000000000000000000000000000000000600052602160045260246000fd5b0217905550600060046000600554815260200190815260200160002060000181905550600160066000600554815260200190815260200160002060080160006101000a81548160ff021916908315150217905550600860055490806001815401808255809150506001900390600052602060002001600090919091909150556005600081548092919061301c906158fb565b919050555050505050505050565b600b602052816000526040600020818154811061304657600080fd5b90600052602060002090600302016000915091505080600001805461306a9061587e565b80601f01602080910402602001604051908101604052809291908181526020018280546130969061587e565b80156130e35780601f106130b8576101008083540402835291602001916130e3565b820191906000526020600020905b8154815290600101906020018083116130c657829003601f168201915b5050505050908060010154908060020160009054906101000a900473ffffffffffffffffffffffffffffffffffffffff16905083565b600260009054906101000a900473ffffffffffffffffffffffffffffffffffffffff1681565b60055481565b6060600b60008373ffffffffffffffffffffffffffffffffffffffff1673ffffffffffffffffffffffffffffffffffffffff168152602001908152602001600020805480602002602001604051908101604052809291908181526020016000905b828210156132ca57838290600052602060002090600302016040518060600160405290816000820180546131d99061587e565b80601f01602080910402602001604051908101604052809291908181526020018280546132059061587e565b80156132525780601f1061322757610100808354040283529160200191613252565b820191906000526020600020905b81548152906001019060200180831161323557829003601f168201915b50505050508152602001600182015481526020016002820160009054906101000a900473ffffffffffffffffffffffffffffffffffffffff1673ffffffffffffffffffffffffffffffffffffffff1673ffffffffffffffffffffffffffffffffffffffff1681525050815260200190600101906131a6565b505050509050919050565b606060008054906101000a900473ffffffffffffffffffffffffffffffffffffffff1673ffffffffffffffffffffffffffffffffffffffff166395d89b416040518163ffffffff1660e01b815260040160006040518083038186803b15801561333d57600080fd5b505afa158015613351573d6000803e3d6000fd5b505050506040513d6000823e3d601f19601f8201168201806040525081019061337a9190614a19565b905090565b6000600b60008373ffffffffffffffffffffffffffffffffffffffff1673ffffffffffffffffffffffffffffffffffffffff168152602001908152602001600020805490509050919050565b600b60008573ffffffffffffffffffffffffffffffffffffffff1673ffffffffffffffffffffffffffffffffffffffff16815260200190815260200160002060405180606001604052808581526020018481526020018373ffffffffffffffffffffffffffffffffffffffff1681525090806001815401808255809150506001900390600052602060002090600302016000909190919091506000820151816000019080519060200190613480929190614512565b506020820151816001015560408201518160020160006101000a81548173ffffffffffffffffffffffffffffffffffffffff021916908373ffffffffffffffffffffffffffffffffffffffff1602179055505050600a60008154809291906134e7906158fb565b919050555050505050565b6008805490508110613539576040517f08c379a0000000000000000000000000000000000000000000000000000000008152600401613530906154ab565b60405180910390fd5b60008190505b60016008805490506135519190615791565b811015613604576008600182613567919061573b565b8154811061359e577f4e487b7100000000000000000000000000000000000000000000000000000000600052603260045260246000fd5b9060005260206000200154600882815481106135e3577f4e487b7100000000000000000000000000000000000000000000000000000000600052603260045260246000fd5b906000526020600020018190555080806135fc906158fb565b91505061353f565b50600880548061363d577f4e487b7100000000000000000000000000000000000000000000000000000000600052603160045260246000fd5b6001900381819060005260206000200160009055905550565b600a5481565b606060088054806020026020016040519081016040528092919081815260200182805480156136aa57602002820191906000526020600020905b815481526020019060010190808311613696575b5050505050905090565b60008054906101000a900473ffffffffffffffffffffffffffffffffffffffff1673ffffffffffffffffffffffffffffffffffffffff1663b88d4fde858585856040518563ffffffff1660e01b81526004016137139493929190615108565b600060405180830381600087803b15801561372d57600080fd5b505af1158015613741573d6000803e3d6000fd5b5050505050505050565b606080606080606080606080600060055467ffffffffffffffff81111561379b577f4e487b7100000000000000000000000000000000000000000000000000000000600052604160045260246000fd5b6040519080825280602002602001820160405280156137c95781602001602082028036833780820191505090505b509050600060055467ffffffffffffffff811115613810577f4e487b7100000000000000000000000000000000000000000000000000000000600052604160045260246000fd5b60405190808252806020026020018201604052801561384357816020015b606081526020019060019003908161382e5790505b509050600060055467ffffffffffffffff81111561388a577f4e487b7100000000000000000000000000000000000000000000000000000000600052604160045260246000fd5b6040519080825280602002602001820160405280156138bd57816020015b60608152602001906001900390816138a85790505b509050600060055467ffffffffffffffff811115613904577f4e487b7100000000000000000000000000000000000000000000000000000000600052604160045260246000fd5b60405190808252806020026020018201604052801561393757816020015b60608152602001906001900390816139225790505b509050600060055467ffffffffffffffff81111561397e577f4e487b7100000000000000000000000000000000000000000000000000000000600052604160045260246000fd5b6040519080825280602002602001820160405280156139b157816020015b606081526020019060019003908161399c5790505b509050600060055467ffffffffffffffff8111156139f8577f4e487b7100000000000000000000000000000000000000000000000000000000600052604160045260246000fd5b604051908082528060200260200182016040528015613a2b57816020015b6060815260200190600190039081613a165790505b509050600060055467ffffffffffffffff811115613a72577f4e487b7100000000000000000000000000000000000000000000000000000000600052604160045260246000fd5b604051908082528060200260200182016040528015613aa05781602001602082028036833780820191505090505b509050600060055467ffffffffffffffff811115613ae7577f4e487b7100000000000000000000000000000000000000000000000000000000600052604160045260246000fd5b604051908082528060200260200182016040528015613b155781602001602082028036833780820191505090505b50905060005b6005548110156141765760006004600083815260200190815260200160002060000154905060006006600084815260200190815260200160002090508060000160009054906101000a900473ffffffffffffffffffffffffffffffffffffffff168b8481518110613bb5577f4e487b7100000000000000000000000000000000000000000000000000000000600052603260045260246000fd5b602002602001019073ffffffffffffffffffffffffffffffffffffffff16908173ffffffffffffffffffffffffffffffffffffffff1681525050806001018054613bfe9061587e565b80601f0160208091040260200160405190810160405280929190818152602001828054613c2a9061587e565b8015613c775780601f10613c4c57610100808354040283529160200191613c77565b820191906000526020600020905b815481529060010190602001808311613c5a57829003601f168201915b50505050508a8481518110613cb5577f4e487b7100000000000000000000000000000000000000000000000000000000600052603260045260246000fd5b6020026020010181905250806002018054613ccf9061587e565b80601f0160208091040260200160405190810160405280929190818152602001828054613cfb9061587e565b8015613d485780601f10613d1d57610100808354040283529160200191613d48565b820191906000526020600020905b815481529060010190602001808311613d2b57829003601f168201915b5050505050898481518110613d86577f4e487b7100000000000000000000000000000000000000000000000000000000600052603260045260246000fd5b6020026020010181905250806003018054613da09061587e565b80601f0160208091040260200160405190810160405280929190818152602001828054613dcc9061587e565b8015613e195780601f10613dee57610100808354040283529160200191613e19565b820191906000526020600020905b815481529060010190602001808311613dfc57829003601f168201915b5050505050888481518110613e57577f4e487b7100000000000000000000000000000000000000000000000000000000600052603260045260246000fd5b6020026020010181905250806004018054613e719061587e565b80601f0160208091040260200160405190810160405280929190818152602001828054613e9d9061587e565b8015613eea5780601f10613ebf57610100808354040283529160200191613eea565b820191906000526020600020905b815481529060010190602001808311613ecd57829003601f168201915b5050505050878481518110613f28577f4e487b7100000000000000000000000000000000000000000000000000000000600052603260045260246000fd5b6020026020010181905250806005018054613f429061587e565b80601f0160208091040260200160405190810160405280929190818152602001828054613f6e9061587e565b8015613fbb5780601f10613f9057610100808354040283529160200191613fbb565b820191906000526020600020905b815481529060010190602001808311613f9e57829003601f168201915b5050505050868481518110613ff9577f4e487b7100000000000000000000000000000000000000000000000000000000600052603260045260246000fd5b60200260200101819052508060060154858481518110614042577f4e487b7100000000000000000000000000000000000000000000000000000000600052603260045260246000fd5b60200260200101818152505080600701828154811061408a577f4e487b7100000000000000000000000000000000000000000000000000000000600052603260045260246000fd5b90600052602060002090602091828204019190069054906101000a900460ff168484815181106140e3577f4e487b7100000000000000000000000000000000000000000000000000000000600052603260045260246000fd5b60200260200101906002811115614123577f4e487b7100000000000000000000000000000000000000000000000000000000600052602160045260246000fd5b9081600281111561415d577f4e487b7100000000000000000000000000000000000000000000000000000000600052602160045260246000fd5b815250505050808061416e906158fb565b915050613b1b565b5087878787878787879f509f509f509f509f509f509f509f5050505050505050509091929394959697565b6000600260009054906101000a900473ffffffffffffffffffffffffffffffffffffffff1673ffffffffffffffffffffffffffffffffffffffff163373ffffffffffffffffffffffffffffffffffffffff16146141fd57600080fd5b600660008481526020019081526020016000206007018290806001815401808255809150506001900390600052602060002090602091828204019190069091909190916101000a81548160ff02191690836002811115614286577f4e487b7100000000000000000000000000000000000000000000000000000000600052602160045260246000fd5b02179055506004600084815260200190815260200160002060000160008154809291906142b2906158fb565b91905055506142c0836111bd565b6001905092915050565b6000600980549050905090565b600881815481106142e757600080fd5b906000526020600020016000915090505481565b60008060009054906101000a900473ffffffffffffffffffffffffffffffffffffffff1673ffffffffffffffffffffffffffffffffffffffff16636352211e836040518263ffffffff1660e01b815260040161435791906154cb565b60206040518083038186803b15801561436f57600080fd5b505afa158015614383573d6000803e3d6000fd5b505050506040513d601f19601f820116820180604052508101906143a79190614794565b9050919050565b60078054905081106143f5576040517f08c379a00000000000000000000000000000000000000000000000000000000081526004016143ec906154ab565b60405180910390fd5b60008190505b600160078054905061440d9190615791565b8110156144c0576007600182614423919061573b565b8154811061445a577f4e487b7100000000000000000000000000000000000000000000000000000000600052603260045260246000fd5b90600052602060002001546007828154811061449f577f4e487b7100000000000000000000000000000000000000000000000000000000600052603260045260246000fd5b906000526020600020018190555080806144b8906158fb565b9150506143fb565b5060078054806144f9577f4e487b7100000000000000000000000000000000000000000000000000000000600052603160045260246000fd5b6001900381819060005260206000200160009055905550565b82805461451e9061587e565b90600052602060002090601f0160209004810192826145405760008555614587565b82601f1061455957805160ff1916838001178555614587565b82800160010185558215614587579182015b8281111561458657825182559160200191906001019061456b565b5b5090506145949190614598565b5090565b5b808211156145b1576000816000905550600101614599565b5090565b60006145c86145c38461553b565b615516565b9050828152602081018484840111156145e057600080fd5b6145eb84828561583c565b509392505050565b60006146066146018461556c565b615516565b90508281526020810184848401111561461e57600080fd5b61462984828561583c565b509392505050565b600061464461463f8461556c565b615516565b90508281526020810184848401111561465c57600080fd5b61466784828561584b565b509392505050565b60008135905061467e81615b92565b92915050565b60008151905061469381615b92565b92915050565b6000815190506146a881615ba9565b92915050565b600082601f8301126146bf57600080fd5b81356146cf8482602086016145b5565b91505092915050565b6000813590506146e781615bc0565b92915050565b600082601f8301126146fe57600080fd5b813561470e8482602086016145f3565b91505092915050565b600082601f83011261472857600080fd5b8151614738848260208601614631565b91505092915050565b60008135905061475081615bd0565b92915050565b60008151905061476581615bd0565b92915050565b60006020828403121561477d57600080fd5b600061478b8482850161466f565b91505092915050565b6000602082840312156147a657600080fd5b60006147b484828501614684565b91505092915050565b600080600080608085870312156147d357600080fd5b60006147e18782880161466f565b94505060206147f28782880161466f565b935050604061480387828801614741565b925050606085013567ffffffffffffffff81111561482057600080fd5b61482c878288016146ae565b91505092959194509250565b60008060008060008060c0878903121561485157600080fd5b600061485f89828a0161466f565b965050602087013567ffffffffffffffff81111561487c57600080fd5b61488889828a016146ed565b955050604087013567ffffffffffffffff8111156148a557600080fd5b6148b189828a016146ed565b945050606087013567ffffffffffffffff8111156148ce57600080fd5b6148da89828a016146ed565b935050608087013567ffffffffffffffff8111156148f757600080fd5b61490389828a016146ed565b92505060a087013567ffffffffffffffff81111561492057600080fd5b61492c89828a016146ed565b9150509295509295509295565b6000806000806080858703121561494f57600080fd5b600061495d8782880161466f565b945050602085013567ffffffffffffffff81111561497a57600080fd5b614986878288016146ed565b935050604061499787828801614741565b92505060606149a88782880161466f565b91505092959194509250565b600080604083850312156149c757600080fd5b60006149d58582860161466f565b92505060206149e685828601614741565b9150509250929050565b600060208284031215614a0257600080fd5b6000614a1084828501614699565b91505092915050565b600060208284031215614a2b57600080fd5b600082015167ffffffffffffffff811115614a4557600080fd5b614a5184828501614717565b91505092915050565b600060208284031215614a6c57600080fd5b6000614a7a84828501614741565b91505092915050565b600060208284031215614a9557600080fd5b6000614aa384828501614756565b91505092915050565b600080600060608486031215614ac157600080fd5b6000614acf86828701614741565b9350506020614ae08682870161466f565b925050604084013567ffffffffffffffff811115614afd57600080fd5b614b09868287016146ed565b9150509250925092565b60008060408385031215614b2657600080fd5b6000614b3485828601614741565b9250506020614b45858286016146d8565b9150509250929050565b6000614b5b8383614bbf565b60208301905092915050565b6000614b738383614ea5565b60208301905092915050565b6000614b8b8383614ec3565b905092915050565b6000614b9f8383615038565b905092915050565b6000614bb38383615088565b60208301905092915050565b614bc8816157cf565b82525050565b614bd7816157cf565b82525050565b6000614be882615602565b614bf281856156a8565b9350614bfd8361559d565b8060005b83811015614c2e578151614c158882614b4f565b9750614c208361565a565b925050600181019050614c01565b5085935050505092915050565b6000614c468261560d565b614c5081856156ec565b9350614c5b836155ad565b8060005b83811015614c8c578151614c738882614b67565b9750614c7e83615667565b925050600181019050614c5f565b5085935050505092915050565b6000614ca482615618565b614cae81856156b9565b935083602082028501614cc0856155bd565b8060005b85811015614cfc5784840389528151614cdd8582614b7f565b9450614ce883615674565b925060208a01995050600181019050614cc4565b50829750879550505050505092915050565b6000614d1982615623565b614d2381856156ca565b935083602082028501614d35856155cd565b8060005b85811015614d715784840389528151614d528582614b93565b9450614d5d83615681565b925060208a01995050600181019050614d39565b50829750879550505050505092915050565b6000614d8e8261562e565b614d9881856156db565b9350614da3836155dd565b8060005b83811015614dd4578151614dbb8882614ba7565b9750614dc68361568e565b925050600181019050614da7565b5085935050505092915050565b6000614dec82615639565b614df681856156db565b9350614e01836155ed565b8060005b83811015614e3957614e1682615a24565b614e208882614ba7565b9750614e2b8361569b565b925050600181019050614e05565b5085935050505092915050565b614e4f816157e1565b82525050565b614e66614e61826157e1565b615944565b82525050565b6000614e7782615644565b614e8181856156fd565b9350614e9181856020860161584b565b614e9a81615a37565b840191505092915050565b614eae8161582a565b82525050565b614ebd8161582a565b82525050565b6000614ece8261564f565b614ed8818561570e565b9350614ee881856020860161584b565b614ef181615a37565b840191505092915050565b6000614f078261564f565b614f11818561571f565b9350614f2181856020860161584b565b614f2a81615a37565b840191505092915050565b6000614f408261564f565b614f4a8185615730565b9350614f5a81856020860161584b565b80840191505092915050565b6000614f7360228361571f565b9150614f7e82615a62565b604082019050919050565b6000614f9660188361571f565b9150614fa182615ab1565b602082019050919050565b6000614fb960178361571f565b9150614fc482615ada565b602082019050919050565b6000614fdc60188361571f565b9150614fe782615b03565b602082019050919050565b6000614fff600983615730565b915061500a82615b2c565b600982019050919050565b600061502260128361571f565b915061502d82615b55565b602082019050919050565b600060608301600083015184820360008601526150558282614ec3565b915050602083015161506a6020860182615088565b50604083015161507d6040860182614bbf565b508091505092915050565b61509181615820565b82525050565b6150a081615820565b82525050565b60006150b28284614e55565b60018201915081905092915050565b60006150cd8284614f35565b915081905092915050565b60006150e382614ff2565b9150819050919050565b60006020820190506151026000830184614bce565b92915050565b600060808201905061511d6000830187614bce565b61512a6020830186614bce565b6151376040830185615097565b81810360608301526151498184614e6c565b905095945050505050565b60006040820190506151696000830185614bce565b818103602083015261517b8184614efc565b90509392505050565b60006101008201905061519a600083018b614bce565b81810360208301526151ac818a614efc565b905081810360408301526151c08189614efc565b905081810360608301526151d48188614efc565b905081810360808301526151e88187614efc565b905081810360a08301526151fc8186614efc565b905061520b60c0830185615097565b61521860e0830184614e46565b9998505050505050505050565b6000610100820190508181036000830152615240818b614bdd565b90508181036020830152615254818a614c99565b905081810360408301526152688189614c99565b9050818103606083015261527c8188614c99565b905081810360808301526152908187614c99565b905081810360a08301526152a48186614c99565b905081810360c08301526152b88185614d83565b905081810360e08301526152cc8184614c3b565b90509998505050505050505050565b600060208201905081810360008301526152f58184614d0e565b905092915050565b600060208201905081810360008301526153178184614d83565b905092915050565b60006020820190506153346000830184614e46565b92915050565b600060208201905061534f6000830184614eb4565b92915050565b6000602082019050818103600083015261536f8184614efc565b905092915050565b600060a08201905081810360008301526153918188614efc565b905081810360208301526153a58187614efc565b905081810360408301526153b98186614efc565b905081810360608301526153cd8185614efc565b905081810360808301526153e18184614efc565b90509695505050505050565b600060608201905081810360008301526154078186614efc565b90506154166020830185615097565b6154236040830184614bce565b949350505050565b6000602082019050818103600083015261544481614f66565b9050919050565b6000602082019050818103600083015261546481614f89565b9050919050565b6000602082019050818103600083015261548481614fac565b9050919050565b600060208201905081810360008301526154a481614fcf565b9050919050565b600060208201905081810360008301526154c481615015565b9050919050565b60006020820190506154e06000830184615097565b92915050565b60006040820190506154fb6000830185615097565b818103602083015261550d8184614de1565b90509392505050565b6000615520615531565b905061552c82826158ca565b919050565b6000604051905090565b600067ffffffffffffffff821115615556576155556159f5565b5b61555f82615a37565b9050602081019050919050565b600067ffffffffffffffff821115615587576155866159f5565b5b61559082615a37565b9050602081019050919050565b6000819050602082019050919050565b6000819050602082019050919050565b6000819050602082019050919050565b6000819050602082019050919050565b6000819050602082019050919050565b60008190508160005260206000209050919050565b600081519050919050565b600081519050919050565b600081519050919050565b600081519050919050565b600081519050919050565b600081549050919050565b600081519050919050565b600081519050919050565b6000602082019050919050565b6000602082019050919050565b6000602082019050919050565b6000602082019050919050565b6000602082019050919050565b6000600182019050919050565b600082825260208201905092915050565b600082825260208201905092915050565b600082825260208201905092915050565b600082825260208201905092915050565b600082825260208201905092915050565b600082825260208201905092915050565b600082825260208201905092915050565b600082825260208201905092915050565b600081905092915050565b600061574682615820565b915061575183615820565b9250827fffffffffffffffffffffffffffffffffffffffffffffffffffffffffffffffff0382111561578657615785615968565b5b828201905092915050565b600061579c82615820565b91506157a783615820565b9250828210156157ba576157b9615968565b5b828203905092915050565b6000819050919050565b60006157da82615800565b9050919050565b60008115159050919050565b60008190506157fb82615b7e565b919050565b600073ffffffffffffffffffffffffffffffffffffffff82169050919050565b6000819050919050565b6000615835826157ed565b9050919050565b82818337600083830152505050565b60005b8381101561586957808201518184015260208101905061584e565b83811115615878576000848401525b50505050565b6000600282049050600182168061589657607f821691505b602082108114156158aa576158a96159c6565b5b50919050565b60006158c36158be83615a55565b6157c5565b9050919050565b6158d382615a37565b810181811067ffffffffffffffff821117156158f2576158f16159f5565b5b80604052505050565b600061590682615820565b91507fffffffffffffffffffffffffffffffffffffffffffffffffffffffffffffffff82141561593957615938615968565b5b600182019050919050565b600061594f82615956565b9050919050565b600061596182615a48565b9050919050565b7f4e487b7100000000000000000000000000000000000000000000000000000000600052601160045260246000fd5b7f4e487b7100000000000000000000000000000000000000000000000000000000600052602160045260246000fd5b7f4e487b7100000000000000000000000000000000000000000000000000000000600052602260045260246000fd5b7f4e487b7100000000000000000000000000000000000000000000000000000000600052604160045260246000fd5b6000615a3082546158b0565b9050919050565b6000601f19601f8301169050919050565b60008160f81b9050919050565b60008160001c9050919050565b7f496e74656c6c65637475616c2070726f7065727479206e6f742061636365707460008201527f6564000000000000000000000000000000000000000000000000000000000000602082015250565b7f4164647265737320616c72656164792061636365707465640000000000000000600082015250565b7f4164647265737320616c72656164792070656e64696e67000000000000000000600082015250565b7f4164647265737320616c72656164792072656a65637465640000000000000000600082015250565b7f6e6f7420666f756e640000000000000000000000000000000000000000000000600082015250565b7f696e646578206f7574206f6620626f756e640000000000000000000000000000600082015250565b60038110615b8f57615b8e615997565b5b50565b615b9b816157cf565b8114615ba657600080fd5b50565b615bb2816157e1565b8114615bbd57600080fd5b50565b60038110615bcd57600080fd5b50565b615bd981615820565b8114615be457600080fd5b5056fea2646970667358221220778f0a746d97880bcd36238509c3fe0ebe2659bffb19b22afd84b654ba66f60a64736f6c6343000801003360806040523480156200001157600080fd5b506040518060400160405280600681526020017f49704974656d00000000000000000000000000000000000000000000000000008152506040518060400160405280600481526020017f49704d7400000000000000000000000000000000000000000000000000000000815250816000908051906020019062000096929190620000b8565b508060019080519060200190620000af929190620000b8565b505050620001cd565b828054620000c69062000168565b90600052602060002090601f016020900481019282620000ea576000855562000136565b82601f106200010557805160ff191683800117855562000136565b8280016001018555821562000136579182015b828111156200013557825182559160200191906001019062000118565b5b50905062000145919062000149565b5090565b5b80821115620001645760008160009055506001016200014a565b5090565b600060028204905060018216806200018157607f821691505b602082108114156200019857620001976200019e565b5b50919050565b7f4e487b7100000000000000000000000000000000000000000000000000000000600052602260045260246000fd5b61287180620001dd6000396000f3fe608060405234801561001057600080fd5b50600436106100ea5760003560e01c806370a082311161008c578063a22cb46511610066578063a22cb4651461026f578063b88d4fde1461028b578063c87b56dd146102a7578063e985e9c5146102d7576100ea565b806370a08231146101f1578063925eb1521461022157806395d89b4114610251576100ea565b8063095ea7b3116100c8578063095ea7b31461016d57806323b872dd1461018957806342842e0e146101a55780636352211e146101c1576100ea565b806301ffc9a7146100ef57806306fdde031461011f578063081812fc1461013d575b600080fd5b61010960048036038101906101049190611b8c565b610307565b6040516101169190611f06565b60405180910390f35b6101276103e9565b6040516101349190611f21565b60405180910390f35b61015760048036038101906101529190611bde565b61047b565b6040516101649190611e9f565b60405180910390f35b61018760048036038101906101829190611b50565b6104c1565b005b6101a3600480360381019061019e91906119f6565b6105d9565b005b6101bf60048036038101906101ba91906119f6565b610639565b005b6101db60048036038101906101d69190611bde565b610659565b6040516101e89190611e9f565b60405180910390f35b61020b60048036038101906102069190611991565b61070b565b60405161021891906120c3565b60405180910390f35b61023b60048036038101906102369190611afc565b6107c3565b60405161024891906120c3565b60405180910390f35b6102596107fb565b6040516102669190611f21565b60405180910390f35b61028960048036038101906102849190611ac0565b61088d565b005b6102a560048036038101906102a09190611a45565b6108a3565b005b6102c160048036038101906102bc9190611bde565b610905565b6040516102ce9190611f21565b60405180910390f35b6102f160048036038101906102ec91906119ba565b610a18565b6040516102fe9190611f06565b60405180910390f35b60007f80ac58cd000000000000000000000000000000000000000000000000000000007bffffffffffffffffffffffffffffffffffffffffffffffffffffffff1916827bffffffffffffffffffffffffffffffffffffffffffffffffffffffff191614806103d257507f5b5e139f000000000000000000000000000000000000000000000000000000007bffffffffffffffffffffffffffffffffffffffffffffffffffffffff1916827bffffffffffffffffffffffffffffffffffffffffffffffffffffffff1916145b806103e257506103e182610aac565b5b9050919050565b6060600080546103f890612319565b80601f016020809104026020016040519081016040528092919081815260200182805461042490612319565b80156104715780601f1061044657610100808354040283529160200191610471565b820191906000526020600020905b81548152906001019060200180831161045457829003601f168201915b5050505050905090565b600061048682610b16565b6004600083815260200190815260200160002060009054906101000a900473ffffffffffffffffffffffffffffffffffffffff169050919050565b60006104cc82610659565b90508073ffffffffffffffffffffffffffffffffffffffff168373ffffffffffffffffffffffffffffffffffffffff16141561053d576040517f08c379a000000000000000000000000000000000000000000000000000000000815260040161053490612083565b60405180910390fd5b8073ffffffffffffffffffffffffffffffffffffffff1661055c610b61565b73ffffffffffffffffffffffffffffffffffffffff16148061058b575061058a81610585610b61565b610a18565b5b6105ca576040517f08c379a00000000000000000000000000000000000000000000000000000000081526004016105c190612023565b60405180910390fd5b6105d48383610b69565b505050565b6105ea6105e4610b61565b82610c22565b610629576040517f08c379a0000000000000000000000000000000000000000000000000000000008152600401610620906120a3565b60405180910390fd5b610634838383610cb7565b505050565b610654838383604051806020016040528060008152506108a3565b505050565b6000806002600084815260200190815260200160002060009054906101000a900473ffffffffffffffffffffffffffffffffffffffff169050600073ffffffffffffffffffffffffffffffffffffffff168173ffffffffffffffffffffffffffffffffffffffff161415610702576040517f08c379a00000000000000000000000000000000000000000000000000000000081526004016106f990612063565b60405180910390fd5b80915050919050565b60008073ffffffffffffffffffffffffffffffffffffffff168273ffffffffffffffffffffffffffffffffffffffff16141561077c576040517f08c379a000000000000000000000000000000000000000000000000000000000815260040161077390611fe3565b60405180910390fd5b600360008373ffffffffffffffffffffffffffffffffffffffff1673ffffffffffffffffffffffffffffffffffffffff168152602001908152602001600020549050919050565b60006107cf6007610f1e565b60006107db6007610f34565b90506107e78482610f42565b6107f1818461111c565b8091505092915050565b60606001805461080a90612319565b80601f016020809104026020016040519081016040528092919081815260200182805461083690612319565b80156108835780601f1061085857610100808354040283529160200191610883565b820191906000526020600020905b81548152906001019060200180831161086657829003601f168201915b5050505050905090565b61089f610898610b61565b8383611190565b5050565b6108b46108ae610b61565b83610c22565b6108f3576040517f08c379a00000000000000000000000000000000000000000000000000000000081526004016108ea906120a3565b60405180910390fd5b6108ff848484846112fd565b50505050565b606061091082610b16565b600060066000848152602001908152602001600020805461093090612319565b80601f016020809104026020016040519081016040528092919081815260200182805461095c90612319565b80156109a95780601f1061097e576101008083540402835291602001916109a9565b820191906000526020600020905b81548152906001019060200180831161098c57829003601f168201915b5050505050905060006109ba611359565b90506000815114156109d0578192505050610a13565b600082511115610a055780826040516020016109ed929190611e7b565b60405160208183030381529060405292505050610a13565b610a0e84611370565b925050505b919050565b6000600560008473ffffffffffffffffffffffffffffffffffffffff1673ffffffffffffffffffffffffffffffffffffffff16815260200190815260200160002060008373ffffffffffffffffffffffffffffffffffffffff1673ffffffffffffffffffffffffffffffffffffffff16815260200190815260200160002060009054906101000a900460ff16905092915050565b60007f01ffc9a7000000000000000000000000000000000000000000000000000000007bffffffffffffffffffffffffffffffffffffffffffffffffffffffff1916827bffffffffffffffffffffffffffffffffffffffffffffffffffffffff1916149050919050565b610b1f816113d8565b610b5e576040517f08c379a0000000000000000000000000000000000000000000000000000000008152600401610b5590612063565b60405180910390fd5b50565b600033905090565b816004600083815260200190815260200160002060006101000a81548173ffffffffffffffffffffffffffffffffffffffff021916908373ffffffffffffffffffffffffffffffffffffffff160217905550808273ffffffffffffffffffffffffffffffffffffffff16610bdc83610659565b73ffffffffffffffffffffffffffffffffffffffff167f8c5be1e5ebec7d5bd14f71427d1e84f3dd0314c0f7b2291e5b200ac8c7c3b92560405160405180910390a45050565b600080610c2e83610659565b90508073ffffffffffffffffffffffffffffffffffffffff168473ffffffffffffffffffffffffffffffffffffffff161480610c705750610c6f8185610a18565b5b80610cae57508373ffffffffffffffffffffffffffffffffffffffff16610c968461047b565b73ffffffffffffffffffffffffffffffffffffffff16145b91505092915050565b8273ffffffffffffffffffffffffffffffffffffffff16610cd782610659565b73ffffffffffffffffffffffffffffffffffffffff1614610d2d576040517f08c379a0000000000000000000000000000000000000000000000000000000008152600401610d2490611f63565b60405180910390fd5b600073ffffffffffffffffffffffffffffffffffffffff168273ffffffffffffffffffffffffffffffffffffffff161415610d9d576040517f08c379a0000000000000000000000000000000000000000000000000000000008152600401610d9490611fa3565b60405180910390fd5b610da8838383611444565b610db3600082610b69565b6001600360008573ffffffffffffffffffffffffffffffffffffffff1673ffffffffffffffffffffffffffffffffffffffff1681526020019081526020016000206000828254610e03919061222f565b925050819055506001600360008473ffffffffffffffffffffffffffffffffffffffff1673ffffffffffffffffffffffffffffffffffffffff1681526020019081526020016000206000828254610e5a91906121a8565b92505081905550816002600083815260200190815260200160002060006101000a81548173ffffffffffffffffffffffffffffffffffffffff021916908373ffffffffffffffffffffffffffffffffffffffff160217905550808273ffffffffffffffffffffffffffffffffffffffff168473ffffffffffffffffffffffffffffffffffffffff167fddf252ad1be2c89b69c2b068fc378daa952ba7f163c4a11628f55a4df523b3ef60405160405180910390a4610f19838383611449565b505050565b6001816000016000828254019250508190555050565b600081600001549050919050565b600073ffffffffffffffffffffffffffffffffffffffff168273ffffffffffffffffffffffffffffffffffffffff161415610fb2576040517f08c379a0000000000000000000000000000000000000000000000000000000008152600401610fa990612043565b60405180910390fd5b610fbb816113d8565b15610ffb576040517f08c379a0000000000000000000000000000000000000000000000000000000008152600401610ff290611f83565b60405180910390fd5b61100760008383611444565b6001600360008473ffffffffffffffffffffffffffffffffffffffff1673ffffffffffffffffffffffffffffffffffffffff168152602001908152602001600020600082825461105791906121a8565b92505081905550816002600083815260200190815260200160002060006101000a81548173ffffffffffffffffffffffffffffffffffffffff021916908373ffffffffffffffffffffffffffffffffffffffff160217905550808273ffffffffffffffffffffffffffffffffffffffff16600073ffffffffffffffffffffffffffffffffffffffff167fddf252ad1be2c89b69c2b068fc378daa952ba7f163c4a11628f55a4df523b3ef60405160405180910390a461111860008383611449565b5050565b611125826113d8565b611164576040517f08c379a000000000000000000000000000000000000000000000000000000000815260040161115b90612003565b60405180910390fd5b8060066000848152602001908152602001600020908051906020019061118b9291906117b5565b505050565b8173ffffffffffffffffffffffffffffffffffffffff168373ffffffffffffffffffffffffffffffffffffffff1614156111ff576040517f08c379a00000000000000000000000000000000000000000000000000000000081526004016111f690611fc3565b60405180910390fd5b80600560008573ffffffffffffffffffffffffffffffffffffffff1673ffffffffffffffffffffffffffffffffffffffff16815260200190815260200160002060008473ffffffffffffffffffffffffffffffffffffffff1673ffffffffffffffffffffffffffffffffffffffff16815260200190815260200160002060006101000a81548160ff0219169083151502179055508173ffffffffffffffffffffffffffffffffffffffff168373ffffffffffffffffffffffffffffffffffffffff167f17307eab39ab6107e8899845ad3d59bd9653f200f220920489ca2b5937696c31836040516112f09190611f06565b60405180910390a3505050565b611308848484610cb7565b6113148484848461144e565b611353576040517f08c379a000000000000000000000000000000000000000000000000000000000815260040161134a90611f43565b60405180910390fd5b50505050565b606060405180602001604052806000815250905090565b606061137b82610b16565b6000611385611359565b905060008151116113a557604051806020016040528060008152506113d0565b806113af846115e5565b6040516020016113c0929190611e7b565b6040516020818303038152906040525b915050919050565b60008073ffffffffffffffffffffffffffffffffffffffff166002600084815260200190815260200160002060009054906101000a900473ffffffffffffffffffffffffffffffffffffffff1673ffffffffffffffffffffffffffffffffffffffff1614159050919050565b505050565b505050565b600061146f8473ffffffffffffffffffffffffffffffffffffffff16611792565b156115d8578373ffffffffffffffffffffffffffffffffffffffff1663150b7a02611498610b61565b8786866040518563ffffffff1660e01b81526004016114ba9493929190611eba565b602060405180830381600087803b1580156114d457600080fd5b505af192505050801561150557506040513d601f19601f820116820180604052508101906115029190611bb5565b60015b611588573d8060008114611535576040519150601f19603f3d011682016040523d82523d6000602084013e61153a565b606091505b50600081511415611580576040517f08c379a000000000000000000000000000000000000000000000000000000000815260040161157790611f43565b60405180910390fd5b805181602001fd5b63150b7a0260e01b7bffffffffffffffffffffffffffffffffffffffffffffffffffffffff1916817bffffffffffffffffffffffffffffffffffffffffffffffffffffffff1916149150506115dd565b600190505b949350505050565b6060600082141561162d576040518060400160405280600181526020017f3000000000000000000000000000000000000000000000000000000000000000815250905061178d565b600082905060005b6000821461165f5780806116489061237c565b915050600a8261165891906121fe565b9150611635565b60008167ffffffffffffffff8111156116a1577f4e487b7100000000000000000000000000000000000000000000000000000000600052604160045260246000fd5b6040519080825280601f01601f1916602001820160405280156116d35781602001600182028036833780820191505090505b5090505b60008514611786576001826116ec919061222f565b9150600a856116fb91906123c5565b603061170791906121a8565b60f81b818381518110611743577f4e487b7100000000000000000000000000000000000000000000000000000000600052603260045260246000fd5b60200101907effffffffffffffffffffffffffffffffffffffffffffffffffffffffffffff1916908160001a905350600a8561177f91906121fe565b94506116d7565b8093505050505b919050565b6000808273ffffffffffffffffffffffffffffffffffffffff163b119050919050565b8280546117c190612319565b90600052602060002090601f0160209004810192826117e3576000855561182a565b82601f106117fc57805160ff191683800117855561182a565b8280016001018555821561182a579182015b8281111561182957825182559160200191906001019061180e565b5b509050611837919061183b565b5090565b5b8082111561185457600081600090555060010161183c565b5090565b600061186b61186684612103565b6120de565b90508281526020810184848401111561188357600080fd5b61188e8482856122d7565b509392505050565b60006118a96118a484612134565b6120de565b9050828152602081018484840111156118c157600080fd5b6118cc8482856122d7565b509392505050565b6000813590506118e3816127df565b92915050565b6000813590506118f8816127f6565b92915050565b60008135905061190d8161280d565b92915050565b6000815190506119228161280d565b92915050565b600082601f83011261193957600080fd5b8135611949848260208601611858565b91505092915050565b600082601f83011261196357600080fd5b8135611973848260208601611896565b91505092915050565b60008135905061198b81612824565b92915050565b6000602082840312156119a357600080fd5b60006119b1848285016118d4565b91505092915050565b600080604083850312156119cd57600080fd5b60006119db858286016118d4565b92505060206119ec858286016118d4565b9150509250929050565b600080600060608486031215611a0b57600080fd5b6000611a19868287016118d4565b9350506020611a2a868287016118d4565b9250506040611a3b8682870161197c565b9150509250925092565b60008060008060808587031215611a5b57600080fd5b6000611a69878288016118d4565b9450506020611a7a878288016118d4565b9350506040611a8b8782880161197c565b925050606085013567ffffffffffffffff811115611aa857600080fd5b611ab487828801611928565b91505092959194509250565b60008060408385031215611ad357600080fd5b6000611ae1858286016118d4565b9250506020611af2858286016118e9565b9150509250929050565b60008060408385031215611b0f57600080fd5b6000611b1d858286016118d4565b925050602083013567ffffffffffffffff811115611b3a57600080fd5b611b4685828601611952565b9150509250929050565b60008060408385031215611b6357600080fd5b6000611b71858286016118d4565b9250506020611b828582860161197c565b9150509250929050565b600060208284031215611b9e57600080fd5b6000611bac848285016118fe565b91505092915050565b600060208284031215611bc757600080fd5b6000611bd584828501611913565b91505092915050565b600060208284031215611bf057600080fd5b6000611bfe8482850161197c565b91505092915050565b611c1081612263565b82525050565b611c1f81612275565b82525050565b6000611c3082612165565b611c3a818561217b565b9350611c4a8185602086016122e6565b611c53816124b2565b840191505092915050565b6000611c6982612170565b611c73818561218c565b9350611c838185602086016122e6565b611c8c816124b2565b840191505092915050565b6000611ca282612170565b611cac818561219d565b9350611cbc8185602086016122e6565b80840191505092915050565b6000611cd560328361218c565b9150611ce0826124c3565b604082019050919050565b6000611cf860258361218c565b9150611d0382612512565b604082019050919050565b6000611d1b601c8361218c565b9150611d2682612561565b602082019050919050565b6000611d3e60248361218c565b9150611d498261258a565b604082019050919050565b6000611d6160198361218c565b9150611d6c826125d9565b602082019050919050565b6000611d8460298361218c565b9150611d8f82612602565b604082019050919050565b6000611da7602e8361218c565b9150611db282612651565b604082019050919050565b6000611dca603e8361218c565b9150611dd5826126a0565b604082019050919050565b6000611ded60208361218c565b9150611df8826126ef565b602082019050919050565b6000611e1060188361218c565b9150611e1b82612718565b602082019050919050565b6000611e3360218361218c565b9150611e3e82612741565b604082019050919050565b6000611e56602e8361218c565b9150611e6182612790565b604082019050919050565b611e75816122cd565b82525050565b6000611e878285611c97565b9150611e938284611c97565b91508190509392505050565b6000602082019050611eb46000830184611c07565b92915050565b6000608082019050611ecf6000830187611c07565b611edc6020830186611c07565b611ee96040830185611e6c565b8181036060830152611efb8184611c25565b905095945050505050565b6000602082019050611f1b6000830184611c16565b92915050565b60006020820190508181036000830152611f3b8184611c5e565b905092915050565b60006020820190508181036000830152611f5c81611cc8565b9050919050565b60006020820190508181036000830152611f7c81611ceb565b9050919050565b60006020820190508181036000830152611f9c81611d0e565b9050919050565b60006020820190508181036000830152611fbc81611d31565b9050919050565b60006020820190508181036000830152611fdc81611d54565b9050919050565b60006020820190508181036000830152611ffc81611d77565b9050919050565b6000602082019050818103600083015261201c81611d9a565b9050919050565b6000602082019050818103600083015261203c81611dbd565b9050919050565b6000602082019050818103600083015261205c81611de0565b9050919050565b6000602082019050818103600083015261207c81611e03565b9050919050565b6000602082019050818103600083015261209c81611e26565b9050919050565b600060208201905081810360008301526120bc81611e49565b9050919050565b60006020820190506120d86000830184611e6c565b92915050565b60006120e86120f9565b90506120f4828261234b565b919050565b6000604051905090565b600067ffffffffffffffff82111561211e5761211d612483565b5b612127826124b2565b9050602081019050919050565b600067ffffffffffffffff82111561214f5761214e612483565b5b612158826124b2565b9050602081019050919050565b600081519050919050565b600081519050919050565b600082825260208201905092915050565b600082825260208201905092915050565b600081905092915050565b60006121b3826122cd565b91506121be836122cd565b9250827fffffffffffffffffffffffffffffffffffffffffffffffffffffffffffffffff038211156121f3576121f26123f6565b5b828201905092915050565b6000612209826122cd565b9150612214836122cd565b92508261222457612223612425565b5b828204905092915050565b600061223a826122cd565b9150612245836122cd565b925082821015612258576122576123f6565b5b828203905092915050565b600061226e826122ad565b9050919050565b60008115159050919050565b60007fffffffff0000000000000000000000000000000000000000000000000000000082169050919050565b600073ffffffffffffffffffffffffffffffffffffffff82169050919050565b6000819050919050565b82818337600083830152505050565b60005b838110156123045780820151818401526020810190506122e9565b83811115612313576000848401525b50505050565b6000600282049050600182168061233157607f821691505b6020821081141561234557612344612454565b5b50919050565b612354826124b2565b810181811067ffffffffffffffff8211171561237357612372612483565b5b80604052505050565b6000612387826122cd565b91507fffffffffffffffffffffffffffffffffffffffffffffffffffffffffffffffff8214156123ba576123b96123f6565b5b600182019050919050565b60006123d0826122cd565b91506123db836122cd565b9250826123eb576123ea612425565b5b828206905092915050565b7f4e487b7100000000000000000000000000000000000000000000000000000000600052601160045260246000fd5b7f4e487b7100000000000000000000000000000000000000000000000000000000600052601260045260246000fd5b7f4e487b7100000000000000000000000000000000000000000000000000000000600052602260045260246000fd5b7f4e487b7100000000000000000000000000000000000000000000000000000000600052604160045260246000fd5b6000601f19601f8301169050919050565b7f4552433732313a207472616e7366657220746f206e6f6e20455243373231526560008201527f63656976657220696d706c656d656e7465720000000000000000000000000000602082015250565b7f4552433732313a207472616e736665722066726f6d20696e636f72726563742060008201527f6f776e6572000000000000000000000000000000000000000000000000000000602082015250565b7f4552433732313a20746f6b656e20616c7265616479206d696e74656400000000600082015250565b7f4552433732313a207472616e7366657220746f20746865207a65726f2061646460008201527f7265737300000000000000000000000000000000000000000000000000000000602082015250565b7f4552433732313a20617070726f766520746f2063616c6c657200000000000000600082015250565b7f4552433732313a2061646472657373207a65726f206973206e6f74206120766160008201527f6c6964206f776e65720000000000000000000000000000000000000000000000602082015250565b7f45524337323155524953746f726167653a2055524920736574206f66206e6f6e60008201527f6578697374656e7420746f6b656e000000000000000000000000000000000000602082015250565b7f4552433732313a20617070726f76652063616c6c6572206973206e6f7420746f60008201527f6b656e206f776e6572206e6f7220617070726f76656420666f7220616c6c0000602082015250565b7f4552433732313a206d696e7420746f20746865207a65726f2061646472657373600082015250565b7f4552433732313a20696e76616c696420746f6b656e2049440000000000000000600082015250565b7f4552433732313a20617070726f76616c20746f2063757272656e74206f776e6560008201527f7200000000000000000000000000000000000000000000000000000000000000602082015250565b7f4552433732313a2063616c6c6572206973206e6f7420746f6b656e206f776e6560008201527f72206e6f7220617070726f766564000000000000000000000000000000000000602082015250565b6127e881612263565b81146127f357600080fd5b50565b6127ff81612275565b811461280a57600080fd5b50565b61281681612281565b811461282157600080fd5b50565b61282d816122cd565b811461283857600080fd5b5056fea2646970667358221220fc95de87265422ea0aa9a6bc665ff15e90a9aae5afb630122f643204ef5e58e264736f6c63430008010033608060405234801561001057600080fd5b5061121b806100206000396000f3fe608060405234801561001057600080fd5b50600436106100885760003560e01c80637ef1cd4b1161005b5780637ef1cd4b1461014d578063a28a34801461017d578063d25a84eb146101ad578063fc966d45146101dd57610088565b806319d5880c1461008d57806321772a44146100bd57806332a5d170146100ed57806379cd90551461011d575b600080fd5b6100a760048036038101906100a29190610bbd565b61020d565b6040516100b49190610c9a565b60405180910390f35b6100d760048036038101906100d29190610bbd565b6102db565b6040516100e49190610cb5565b60405180910390f35b61010760048036038101906101029190610bbd565b6103e7565b6040516101149190610c9a565b60405180910390f35b61013760048036038101906101329190610b53565b6104b5565b6040516101449190610cd7565b60405180910390f35b61016760048036038101906101629190610bbd565b610595565b6040516101749190610c9a565b60405180910390f35b61019760048036038101906101929190610bbd565b610663565b6040516101a49190610cb5565b60405180910390f35b6101c760048036038101906101c29190610bbd565b61076f565b6040516101d49190610cb5565b60405180910390f35b6101f760048036038101906101f29190610b94565b61087b565b6040516102049190610cb5565b60405180910390f35b600080600090505b82518110156102cf578360405160200161022f9190610c7f565b6040516020818303038152906040528051906020012083828151811061027e577f4e487b7100000000000000000000000000000000000000000000000000000000600052603260045260246000fd5b60200260200101516040516020016102969190610c7f565b6040516020818303038152906040528051906020012014156102bc5760019150506102d5565b80806102c79061109f565b915050610215565b50600090505b92915050565b606060005b82518110156103a757836040516020016102fa9190610c7f565b60405160208183030381529060405280519060200120838281518110610349577f4e487b7100000000000000000000000000000000000000000000000000000000600052603260045260246000fd5b60200260200101516040516020016103619190610c7f565b6040516020818303038152906040528051906020012014156103945760006103888261087b565b905080925050506103e1565b808061039f9061109f565b9150506102e0565b506040518060400160405280600981526020017f6e6f7420666f756e64000000000000000000000000000000000000000000000081525090505b92915050565b600080600090505b82518110156104a957836040516020016104099190610c7f565b60405160208183030381529060405280519060200120838281518110610458577f4e487b7100000000000000000000000000000000000000000000000000000000600052603260045260246000fd5b60200260200101516040516020016104709190610c7f565b6040516020818303038152906040528051906020012014156104965760019150506104af565b80806104a19061109f565b9150506103ef565b50600090505b92915050565b60008060009050600083905060005b815181101561058a5760008183516104dc9190610fe2565b90506000838381518110610519577f4e487b7100000000000000000000000000000000000000000000000000000000600052603260045260246000fd5b602001015160f81c60f81b905060008160f81c9050600060308260ff166105409190610fe2565b905060018461054f9190610fe2565b600a61055b9190610e6a565b816105669190610f88565b876105719190610d90565b96505050505080806105829061109f565b9150506104c4565b508192505050919050565b600080600090505b825181101561065757836040516020016105b79190610c7f565b60405160208183030381529060405280519060200120838281518110610606577f4e487b7100000000000000000000000000000000000000000000000000000000600052603260045260246000fd5b602002602001015160405160200161061e9190610c7f565b60405160208183030381529060405280519060200120141561064457600191505061065d565b808061064f9061109f565b91505061059d565b50600090505b92915050565b606060005b825181101561072f57836040516020016106829190610c7f565b604051602081830303815290604052805190602001208382815181106106d1577f4e487b7100000000000000000000000000000000000000000000000000000000600052603260045260246000fd5b60200260200101516040516020016106e99190610c7f565b60405160208183030381529060405280519060200120141561071c5760006107108261087b565b90508092505050610769565b80806107279061109f565b915050610668565b506040518060400160405280600981526020017f6e6f7420666f756e64000000000000000000000000000000000000000000000081525090505b92915050565b606060005b825181101561083b578360405160200161078e9190610c7f565b604051602081830303815290604052805190602001208382815181106107dd577f4e487b7100000000000000000000000000000000000000000000000000000000600052603260045260246000fd5b60200260200101516040516020016107f59190610c7f565b60405160208183030381529060405280519060200120141561082857600061081c8261087b565b90508092505050610875565b80806108339061109f565b915050610774565b506040518060400160405280600981526020017f6e6f7420666f756e64000000000000000000000000000000000000000000000081525090505b92915050565b6060600061088883610893565b905080915050919050565b606060008214156108db576040518060400160405280600181526020017f30000000000000000000000000000000000000000000000000000000000000008152509050610a3b565b600082905060005b6000821461090d5780806108f69061109f565b915050600a826109069190610de6565b91506108e3565b60008167ffffffffffffffff81111561094f577f4e487b7100000000000000000000000000000000000000000000000000000000600052604160045260246000fd5b6040519080825280601f01601f1916602001820160405280156109815781602001600182028036833780820191505090505b5090505b60008514610a345760018261099a9190610fe2565b9150600a856109a991906110f2565b60306109b59190610d90565b60f81b8183815181106109f1577f4e487b7100000000000000000000000000000000000000000000000000000000600052603260045260246000fd5b60200101907effffffffffffffffffffffffffffffffffffffffffffffffffffffffffffff1916908160001a905350600a85610a2d9190610de6565b9450610985565b8093505050505b919050565b6000610a53610a4e84610d17565b610cf2565b90508083825260208201905082856020860282011115610a7257600080fd5b60005b85811015610aa25781610a888882610b3e565b845260208401935060208301925050600181019050610a75565b5050509392505050565b6000610abf610aba84610d43565b610cf2565b905082815260208101848484011115610ad757600080fd5b610ae284828561102c565b509392505050565b600082601f830112610afb57600080fd5b8135610b0b848260208601610a40565b91505092915050565b600082601f830112610b2557600080fd5b8135610b35848260208601610aac565b91505092915050565b600081359050610b4d816111ce565b92915050565b600060208284031215610b6557600080fd5b600082013567ffffffffffffffff811115610b7f57600080fd5b610b8b84828501610b14565b91505092915050565b600060208284031215610ba657600080fd5b6000610bb484828501610b3e565b91505092915050565b60008060408385031215610bd057600080fd5b6000610bde85828601610b3e565b925050602083013567ffffffffffffffff811115610bfb57600080fd5b610c0785828601610aea565b9150509250929050565b610c1a81611016565b82525050565b6000610c2b82610d74565b610c358185610d7f565b9350610c4581856020860161103b565b610c4e816111b0565b840191505092915050565b610c6281611022565b82525050565b610c79610c7482611022565b6110e8565b82525050565b6000610c8b8284610c68565b60208201915081905092915050565b6000602082019050610caf6000830184610c11565b92915050565b60006020820190508181036000830152610ccf8184610c20565b905092915050565b6000602082019050610cec6000830184610c59565b92915050565b6000610cfc610d0d565b9050610d08828261106e565b919050565b6000604051905090565b600067ffffffffffffffff821115610d3257610d31611181565b5b602082029050602081019050919050565b600067ffffffffffffffff821115610d5e57610d5d611181565b5b610d67826111b0565b9050602081019050919050565b600081519050919050565b600082825260208201905092915050565b6000610d9b82611022565b9150610da683611022565b9250827fffffffffffffffffffffffffffffffffffffffffffffffffffffffffffffffff03821115610ddb57610dda611123565b5b828201905092915050565b6000610df182611022565b9150610dfc83611022565b925082610e0c57610e0b611152565b5b828204905092915050565b6000808291508390505b6001851115610e6157808604811115610e3d57610e3c611123565b5b6001851615610e4c5780820291505b8081029050610e5a856111c1565b9450610e21565b94509492505050565b6000610e7582611022565b9150610e8083611022565b9250610ead7fffffffffffffffffffffffffffffffffffffffffffffffffffffffffffffffff8484610eb5565b905092915050565b600082610ec55760019050610f81565b81610ed35760009050610f81565b8160018114610ee95760028114610ef357610f22565b6001915050610f81565b60ff841115610f0557610f04611123565b5b8360020a915084821115610f1c57610f1b611123565b5b50610f81565b5060208310610133831016604e8410600b8410161715610f575782820a905083811115610f5257610f51611123565b5b610f81565b610f648484846001610e17565b92509050818404811115610f7b57610f7a611123565b5b81810290505b9392505050565b6000610f9382611022565b9150610f9e83611022565b9250817fffffffffffffffffffffffffffffffffffffffffffffffffffffffffffffffff0483118215151615610fd757610fd6611123565b5b828202905092915050565b6000610fed82611022565b9150610ff883611022565b92508282101561100b5761100a611123565b5b828203905092915050565b60008115159050919050565b6000819050919050565b82818337600083830152505050565b60005b8381101561105957808201518184015260208101905061103e565b83811115611068576000848401525b50505050565b611077826111b0565b810181811067ffffffffffffffff8211171561109657611095611181565b5b80604052505050565b60006110aa82611022565b91507fffffffffffffffffffffffffffffffffffffffffffffffffffffffffffffffff8214156110dd576110dc611123565b5b600182019050919050565b6000819050919050565b60006110fd82611022565b915061110883611022565b92508261111857611117611152565b5b828206905092915050565b7f4e487b7100000000000000000000000000000000000000000000000000000000600052601160045260246000fd5b7f4e487b7100000000000000000000000000000000000000000000000000000000600052601260045260246000fd5b7f4e487b7100000000000000000000000000000000000000000000000000000000600052604160045260246000fd5b6000601f19601f8301169050919050565b60008160011c9050919050565b6111d781611022565b81146111e257600080fd5b5056fea26469706673582212204c031b9f81b76e4fecd0978c36dcee34d3815bd2371e5f359f47edc313111fe864736f6c63430008010033",
  "linkReferences": {},
  "deployedLinkReferences": {}
}